{
	"Loterie.sol": {
		"BlockLuckyLoterie": {
			"abi": [
				{
					"inputs": [
						{
							"internalType": "uint256",
							"name": "_minParticipants",
							"type": "uint256"
						},
						{
							"internalType": "uint256",
							"name": "_durationInMinutes",
							"type": "uint256"
						}
					],
					"stateMutability": "nonpayable",
					"type": "constructor"
				},
				{
					"anonymous": false,
					"inputs": [
						{
							"indexed": true,
							"internalType": "address",
							"name": "gagnant",
							"type": "address"
						},
						{
							"indexed": false,
							"internalType": "uint256",
							"name": "montant",
							"type": "uint256"
						}
					],
					"name": "GagnantChoisi",
					"type": "event"
				},
				{
					"anonymous": false,
					"inputs": [
						{
							"indexed": true,
							"internalType": "address",
							"name": "participant",
							"type": "address"
						},
						{
							"indexed": false,
							"internalType": "uint256",
							"name": "montant",
							"type": "uint256"
						}
					],
					"name": "TicketAchat",
					"type": "event"
				},
				{
					"inputs": [
						{
							"internalType": "uint256",
							"name": "age",
							"type": "uint256"
						},
						{
							"internalType": "string",
							"name": "adresse",
							"type": "string"
						}
					],
					"name": "acheterTicket",
					"outputs": [],
					"stateMutability": "payable",
					"type": "function"
				},
				{
					"inputs": [],
					"name": "deadline",
					"outputs": [
						{
							"internalType": "uint256",
							"name": "",
							"type": "uint256"
						}
					],
					"stateMutability": "view",
					"type": "function"
				},
				{
					"inputs": [],
					"name": "gagnant",
					"outputs": [
						{
							"internalType": "address",
							"name": "",
							"type": "address"
						}
					],
					"stateMutability": "view",
					"type": "function"
				},
				{
					"inputs": [],
					"name": "getCagnotte",
					"outputs": [
						{
							"internalType": "uint256",
							"name": "",
							"type": "uint256"
						}
					],
					"stateMutability": "view",
					"type": "function"
				},
				{
					"inputs": [],
					"name": "getParticipants",
					"outputs": [
						{
							"internalType": "uint256",
							"name": "",
							"type": "uint256"
						}
					],
					"stateMutability": "view",
					"type": "function"
				},
				{
					"inputs": [],
					"name": "isLoterieTerminee",
					"outputs": [
						{
							"internalType": "bool",
							"name": "",
							"type": "bool"
						}
					],
					"stateMutability": "view",
					"type": "function"
				},
				{
					"inputs": [],
					"name": "ticketPrice",
					"outputs": [
						{
							"internalType": "uint256",
							"name": "",
							"type": "uint256"
						}
					],
					"stateMutability": "view",
					"type": "function"
				},
				{
					"inputs": [
						{
							"internalType": "address",
							"name": "",
							"type": "address"
						}
					],
					"name": "whitelist",
					"outputs": [
						{
							"internalType": "bool",
							"name": "",
							"type": "bool"
						}
					],
					"stateMutability": "view",
					"type": "function"
				}
			],
			"devdoc": {
				"kind": "dev",
				"methods": {},
				"version": 1
			},
			"evm": {
				"assembly": "    /* \"Loterie.sol\":67:3197  contract BlockLuckyLoterie {... */\n  mstore(0x40, 0x80)\n    /* \"Loterie.sol\":733:979  constructor(uint _minParticipants, uint _durationInMinutes) {... */\n  callvalue\n  dup1\n  iszero\n  tag_1\n  jumpi\n  0x00\n  dup1\n  revert\ntag_1:\n  pop\n  mload(0x40)\n  sub(codesize, bytecodeSize)\n  dup1\n  bytecodeSize\n  dup4\n  codecopy\n  dup2\n  dup2\n  add\n  0x40\n  mstore\n  dup2\n  add\n  swap1\n  tag_2\n  swap2\n  swap1\n  tag_3\n  jump\t// in\ntag_2:\n    /* \"Loterie.sol\":814:824  msg.sender */\n  caller\n    /* \"Loterie.sol\":804:811  manager */\n  0x00\n  dup1\n    /* \"Loterie.sol\":804:824  manager = msg.sender */\n  0x0100\n  exp\n  dup2\n  sload\n  dup2\n  0xffffffffffffffffffffffffffffffffffffffff\n  mul\n  not\n  and\n  swap1\n  dup4\n  0xffffffffffffffffffffffffffffffffffffffff\n  and\n  mul\n  or\n  swap1\n  sstore\n  pop\n    /* \"Loterie.sol\":849:853  2* 1 */\n  0x02\n    /* \"Loterie.sol\":835:846  ticketPrice */\n  0x03\n    /* \"Loterie.sol\":835:853  ticketPrice = 2* 1 */\n  dup2\n  swap1\n  sstore\n  pop\n    /* \"Loterie.sol\":883:899  _minParticipants */\n  dup2\n    /* \"Loterie.sol\":865:880  minParticipants */\n  0x04\n    /* \"Loterie.sol\":865:899  minParticipants = _minParticipants */\n  dup2\n  swap1\n  sstore\n  pop\n    /* \"Loterie.sol\":961:970  1 minutes */\n  0x3c\n    /* \"Loterie.sol\":940:958  _durationInMinutes */\n  dup2\n    /* \"Loterie.sol\":940:970  _durationInMinutes * 1 minutes */\n  tag_6\n  swap2\n  swap1\n  tag_7\n  jump\t// in\ntag_6:\n    /* \"Loterie.sol\":921:936  block.timestamp */\n  timestamp\n    /* \"Loterie.sol\":921:971  block.timestamp + (_durationInMinutes * 1 minutes) */\n  tag_8\n  swap2\n  swap1\n  tag_9\n  jump\t// in\ntag_8:\n    /* \"Loterie.sol\":910:918  deadline */\n  0x05\n    /* \"Loterie.sol\":910:971  deadline = block.timestamp + (_durationInMinutes * 1 minutes) */\n  dup2\n  swap1\n  sstore\n  pop\n    /* \"Loterie.sol\":733:979  constructor(uint _minParticipants, uint _durationInMinutes) {... */\n  pop\n  pop\n    /* \"Loterie.sol\":67:3197  contract BlockLuckyLoterie {... */\n  jump(tag_10)\n    /* \"#utility.yul\":88:205   */\ntag_12:\n    /* \"#utility.yul\":197:198   */\n  0x00\n    /* \"#utility.yul\":194:195   */\n  dup1\n    /* \"#utility.yul\":187:199   */\n  revert\n    /* \"#utility.yul\":334:411   */\ntag_14:\n    /* \"#utility.yul\":371:378   */\n  0x00\n    /* \"#utility.yul\":400:405   */\n  dup2\n    /* \"#utility.yul\":389:405   */\n  swap1\n  pop\n    /* \"#utility.yul\":334:411   */\n  swap2\n  swap1\n  pop\n  jump\t// out\n    /* \"#utility.yul\":417:539   */\ntag_15:\n    /* \"#utility.yul\":490:514   */\n  tag_24\n    /* \"#utility.yul\":508:513   */\n  dup2\n    /* \"#utility.yul\":490:514   */\n  tag_14\n  jump\t// in\ntag_24:\n    /* \"#utility.yul\":483:488   */\n  dup2\n    /* \"#utility.yul\":480:515   */\n  eq\n    /* \"#utility.yul\":470:533   */\n  tag_25\n  jumpi\n    /* \"#utility.yul\":529:530   */\n  0x00\n    /* \"#utility.yul\":526:527   */\n  dup1\n    /* \"#utility.yul\":519:531   */\n  revert\n    /* \"#utility.yul\":470:533   */\ntag_25:\n    /* \"#utility.yul\":417:539   */\n  pop\n  jump\t// out\n    /* \"#utility.yul\":545:688   */\ntag_16:\n    /* \"#utility.yul\":602:607   */\n  0x00\n    /* \"#utility.yul\":633:639   */\n  dup2\n    /* \"#utility.yul\":627:640   */\n  mload\n    /* \"#utility.yul\":618:640   */\n  swap1\n  pop\n    /* \"#utility.yul\":649:682   */\n  tag_27\n    /* \"#utility.yul\":676:681   */\n  dup2\n    /* \"#utility.yul\":649:682   */\n  tag_15\n  jump\t// in\ntag_27:\n    /* \"#utility.yul\":545:688   */\n  swap3\n  swap2\n  pop\n  pop\n  jump\t// out\n    /* \"#utility.yul\":694:1201   */\ntag_3:\n    /* \"#utility.yul\":773:779   */\n  0x00\n    /* \"#utility.yul\":781:787   */\n  dup1\n    /* \"#utility.yul\":830:832   */\n  0x40\n    /* \"#utility.yul\":818:827   */\n  dup4\n    /* \"#utility.yul\":809:816   */\n  dup6\n    /* \"#utility.yul\":805:828   */\n  sub\n    /* \"#utility.yul\":801:833   */\n  slt\n    /* \"#utility.yul\":798:917   */\n  iszero\n  tag_29\n  jumpi\n    /* \"#utility.yul\":836:915   */\n  tag_30\n  tag_12\n  jump\t// in\ntag_30:\n    /* \"#utility.yul\":798:917   */\ntag_29:\n    /* \"#utility.yul\":956:957   */\n  0x00\n    /* \"#utility.yul\":981:1045   */\n  tag_31\n    /* \"#utility.yul\":1037:1044   */\n  dup6\n    /* \"#utility.yul\":1028:1034   */\n  dup3\n    /* \"#utility.yul\":1017:1026   */\n  dup7\n    /* \"#utility.yul\":1013:1035   */\n  add\n    /* \"#utility.yul\":981:1045   */\n  tag_16\n  jump\t// in\ntag_31:\n    /* \"#utility.yul\":971:1045   */\n  swap3\n  pop\n    /* \"#utility.yul\":927:1055   */\n  pop\n    /* \"#utility.yul\":1094:1096   */\n  0x20\n    /* \"#utility.yul\":1120:1184   */\n  tag_32\n    /* \"#utility.yul\":1176:1183   */\n  dup6\n    /* \"#utility.yul\":1167:1173   */\n  dup3\n    /* \"#utility.yul\":1156:1165   */\n  dup7\n    /* \"#utility.yul\":1152:1174   */\n  add\n    /* \"#utility.yul\":1120:1184   */\n  tag_16\n  jump\t// in\ntag_32:\n    /* \"#utility.yul\":1110:1184   */\n  swap2\n  pop\n    /* \"#utility.yul\":1065:1194   */\n  pop\n    /* \"#utility.yul\":694:1201   */\n  swap3\n  pop\n  swap3\n  swap1\n  pop\n  jump\t// out\n    /* \"#utility.yul\":1207:1387   */\ntag_17:\n    /* \"#utility.yul\":1255:1332   */\n  0x4e487b7100000000000000000000000000000000000000000000000000000000\n    /* \"#utility.yul\":1252:1253   */\n  0x00\n    /* \"#utility.yul\":1245:1333   */\n  mstore\n    /* \"#utility.yul\":1352:1356   */\n  0x11\n    /* \"#utility.yul\":1349:1350   */\n  0x04\n    /* \"#utility.yul\":1342:1357   */\n  mstore\n    /* \"#utility.yul\":1376:1380   */\n  0x24\n    /* \"#utility.yul\":1373:1374   */\n  0x00\n    /* \"#utility.yul\":1366:1381   */\n  revert\n    /* \"#utility.yul\":1393:1803   */\ntag_7:\n    /* \"#utility.yul\":1433:1440   */\n  0x00\n    /* \"#utility.yul\":1456:1476   */\n  tag_35\n    /* \"#utility.yul\":1474:1475   */\n  dup3\n    /* \"#utility.yul\":1456:1476   */\n  tag_14\n  jump\t// in\ntag_35:\n    /* \"#utility.yul\":1451:1476   */\n  swap2\n  pop\n    /* \"#utility.yul\":1490:1510   */\n  tag_36\n    /* \"#utility.yul\":1508:1509   */\n  dup4\n    /* \"#utility.yul\":1490:1510   */\n  tag_14\n  jump\t// in\ntag_36:\n    /* \"#utility.yul\":1485:1510   */\n  swap3\n  pop\n    /* \"#utility.yul\":1545:1546   */\n  dup3\n    /* \"#utility.yul\":1542:1543   */\n  dup3\n    /* \"#utility.yul\":1538:1547   */\n  mul\n    /* \"#utility.yul\":1567:1597   */\n  tag_37\n    /* \"#utility.yul\":1585:1596   */\n  dup2\n    /* \"#utility.yul\":1567:1597   */\n  tag_14\n  jump\t// in\ntag_37:\n    /* \"#utility.yul\":1556:1597   */\n  swap2\n  pop\n    /* \"#utility.yul\":1746:1747   */\n  dup3\n    /* \"#utility.yul\":1737:1744   */\n  dup3\n    /* \"#utility.yul\":1733:1748   */\n  div\n    /* \"#utility.yul\":1730:1731   */\n  dup5\n    /* \"#utility.yul\":1727:1749   */\n  eq\n    /* \"#utility.yul\":1707:1708   */\n  dup4\n    /* \"#utility.yul\":1700:1709   */\n  iszero\n    /* \"#utility.yul\":1680:1763   */\n  or\n    /* \"#utility.yul\":1657:1796   */\n  tag_38\n  jumpi\n    /* \"#utility.yul\":1776:1794   */\n  tag_39\n  tag_17\n  jump\t// in\ntag_39:\n    /* \"#utility.yul\":1657:1796   */\ntag_38:\n    /* \"#utility.yul\":1441:1803   */\n  pop\n    /* \"#utility.yul\":1393:1803   */\n  swap3\n  swap2\n  pop\n  pop\n  jump\t// out\n    /* \"#utility.yul\":1809:2000   */\ntag_9:\n    /* \"#utility.yul\":1849:1852   */\n  0x00\n    /* \"#utility.yul\":1868:1888   */\n  tag_41\n    /* \"#utility.yul\":1886:1887   */\n  dup3\n    /* \"#utility.yul\":1868:1888   */\n  tag_14\n  jump\t// in\ntag_41:\n    /* \"#utility.yul\":1863:1888   */\n  swap2\n  pop\n    /* \"#utility.yul\":1902:1922   */\n  tag_42\n    /* \"#utility.yul\":1920:1921   */\n  dup4\n    /* \"#utility.yul\":1902:1922   */\n  tag_14\n  jump\t// in\ntag_42:\n    /* \"#utility.yul\":1897:1922   */\n  swap3\n  pop\n    /* \"#utility.yul\":1945:1946   */\n  dup3\n    /* \"#utility.yul\":1942:1943   */\n  dup3\n    /* \"#utility.yul\":1938:1947   */\n  add\n    /* \"#utility.yul\":1931:1947   */\n  swap1\n  pop\n    /* \"#utility.yul\":1966:1969   */\n  dup1\n    /* \"#utility.yul\":1963:1964   */\n  dup3\n    /* \"#utility.yul\":1960:1970   */\n  gt\n    /* \"#utility.yul\":1957:1993   */\n  iszero\n  tag_43\n  jumpi\n    /* \"#utility.yul\":1973:1991   */\n  tag_44\n  tag_17\n  jump\t// in\ntag_44:\n    /* \"#utility.yul\":1957:1993   */\ntag_43:\n    /* \"#utility.yul\":1809:2000   */\n  swap3\n  swap2\n  pop\n  pop\n  jump\t// out\n    /* \"Loterie.sol\":67:3197  contract BlockLuckyLoterie {... */\ntag_10:\n  dataSize(sub_0)\n  dup1\n  dataOffset(sub_0)\n  0x00\n  codecopy\n  0x00\n  return\nstop\n\nsub_0: assembly {\n        /* \"Loterie.sol\":67:3197  contract BlockLuckyLoterie {... */\n      mstore(0x40, 0x80)\n      jumpi(tag_1, lt(calldatasize, 0x04))\n      shr(0xe0, calldataload(0x00))\n      dup1\n      0x5aa68ac0\n      gt\n      tag_10\n      jumpi\n      dup1\n      0x5aa68ac0\n      eq\n      tag_6\n      jumpi\n      dup1\n      0x766f03ea\n      eq\n      tag_7\n      jumpi\n      dup1\n      0x8481dbc6\n      eq\n      tag_8\n      jumpi\n      dup1\n      0x9b19251a\n      eq\n      tag_9\n      jumpi\n      jump(tag_1)\n    tag_10:\n      dup1\n      0x1209b1f6\n      eq\n      tag_2\n      jumpi\n      dup1\n      0x29dcb0cf\n      eq\n      tag_3\n      jumpi\n      dup1\n      0x427f822b\n      eq\n      tag_4\n      jumpi\n      dup1\n      0x4b20d5d5\n      eq\n      tag_5\n      jumpi\n    tag_1:\n      0x00\n      dup1\n      revert\n        /* \"Loterie.sol\":190:213  uint public ticketPrice */\n    tag_2:\n      callvalue\n      dup1\n      iszero\n      tag_11\n      jumpi\n      0x00\n      dup1\n      revert\n    tag_11:\n      pop\n      tag_12\n      tag_13\n      jump\t// in\n    tag_12:\n      mload(0x40)\n      tag_14\n      swap2\n      swap1\n      tag_15\n      jump\t// in\n    tag_14:\n      mload(0x40)\n      dup1\n      swap2\n      sub\n      swap1\n      return\n        /* \"Loterie.sol\":255:275  uint public deadline */\n    tag_3:\n      callvalue\n      dup1\n      iszero\n      tag_16\n      jumpi\n      0x00\n      dup1\n      revert\n    tag_16:\n      pop\n      tag_17\n      tag_18\n      jump\t// in\n    tag_17:\n      mload(0x40)\n      tag_19\n      swap2\n      swap1\n      tag_15\n      jump\t// in\n    tag_19:\n      mload(0x40)\n      dup1\n      swap2\n      sub\n      swap1\n      return\n        /* \"Loterie.sol\":161:183  address public gagnant */\n    tag_4:\n      callvalue\n      dup1\n      iszero\n      tag_20\n      jumpi\n      0x00\n      dup1\n      revert\n    tag_20:\n      pop\n      tag_21\n      tag_22\n      jump\t// in\n    tag_21:\n      mload(0x40)\n      tag_23\n      swap2\n      swap1\n      tag_24\n      jump\t// in\n    tag_23:\n      mload(0x40)\n      dup1\n      swap2\n      sub\n      swap1\n      return\n        /* \"Loterie.sol\":2701:2801  function getCagnotte() external  view returns (uint) {... */\n    tag_5:\n      callvalue\n      dup1\n      iszero\n      tag_25\n      jumpi\n      0x00\n      dup1\n      revert\n    tag_25:\n      pop\n      tag_26\n      tag_27\n      jump\t// in\n    tag_26:\n      mload(0x40)\n      tag_28\n      swap2\n      swap1\n      tag_15\n      jump\t// in\n    tag_28:\n      mload(0x40)\n      dup1\n      swap2\n      sub\n      swap1\n      return\n        /* \"Loterie.sol\":2865:2967  function getParticipants() external  view returns (uint) {... */\n    tag_6:\n      callvalue\n      dup1\n      iszero\n      tag_29\n      jumpi\n      0x00\n      dup1\n      revert\n    tag_29:\n      pop\n      tag_30\n      tag_31\n      jump\t// in\n    tag_30:\n      mload(0x40)\n      tag_32\n      swap2\n      swap1\n      tag_15\n      jump\t// in\n    tag_32:\n      mload(0x40)\n      dup1\n      swap2\n      sub\n      swap1\n      return\n        /* \"Loterie.sol\":3035:3188  function isLoterieTerminee() external  view returns (bool) {... */\n    tag_7:\n      callvalue\n      dup1\n      iszero\n      tag_33\n      jumpi\n      0x00\n      dup1\n      revert\n    tag_33:\n      pop\n      tag_34\n      tag_35\n      jump\t// in\n    tag_34:\n      mload(0x40)\n      tag_36\n      swap2\n      swap1\n      tag_37\n      jump\t// in\n    tag_36:\n      mload(0x40)\n      dup1\n      swap2\n      sub\n      swap1\n      return\n        /* \"Loterie.sol\":1070:2028  function acheterTicket(uint age, string memory adresse) public payable lotteryActive {... */\n    tag_8:\n      tag_38\n      0x04\n      dup1\n      calldatasize\n      sub\n      dup2\n      add\n      swap1\n      tag_39\n      swap2\n      swap1\n      tag_40\n      jump\t// in\n    tag_39:\n      tag_41\n      jump\t// in\n    tag_38:\n      stop\n        /* \"Loterie.sol\":282:323  mapping(address => bool) public whitelist */\n    tag_9:\n      callvalue\n      dup1\n      iszero\n      tag_42\n      jumpi\n      0x00\n      dup1\n      revert\n    tag_42:\n      pop\n      tag_43\n      0x04\n      dup1\n      calldatasize\n      sub\n      dup2\n      add\n      swap1\n      tag_44\n      swap2\n      swap1\n      tag_45\n      jump\t// in\n    tag_44:\n      tag_46\n      jump\t// in\n    tag_43:\n      mload(0x40)\n      tag_47\n      swap2\n      swap1\n      tag_37\n      jump\t// in\n    tag_47:\n      mload(0x40)\n      dup1\n      swap2\n      sub\n      swap1\n      return\n        /* \"Loterie.sol\":190:213  uint public ticketPrice */\n    tag_13:\n      sload(0x03)\n      dup2\n      jump\t// out\n        /* \"Loterie.sol\":255:275  uint public deadline */\n    tag_18:\n      sload(0x05)\n      dup2\n      jump\t// out\n        /* \"Loterie.sol\":161:183  address public gagnant */\n    tag_22:\n      0x02\n      0x00\n      swap1\n      sload\n      swap1\n      0x0100\n      exp\n      swap1\n      div\n      0xffffffffffffffffffffffffffffffffffffffff\n      and\n      dup2\n      jump\t// out\n        /* \"Loterie.sol\":2701:2801  function getCagnotte() external  view returns (uint) {... */\n    tag_27:\n        /* \"Loterie.sol\":2748:2752  uint */\n      0x00\n        /* \"Loterie.sol\":2772:2793  address(this).balance */\n      selfbalance\n        /* \"Loterie.sol\":2765:2793  return address(this).balance */\n      swap1\n      pop\n        /* \"Loterie.sol\":2701:2801  function getCagnotte() external  view returns (uint) {... */\n      swap1\n      jump\t// out\n        /* \"Loterie.sol\":2865:2967  function getParticipants() external  view returns (uint) {... */\n    tag_31:\n        /* \"Loterie.sol\":2916:2920  uint */\n      0x00\n        /* \"Loterie.sol\":2940:2952  participants */\n      0x01\n        /* \"Loterie.sol\":2940:2959  participants.length */\n      dup1\n      sload\n      swap1\n      pop\n        /* \"Loterie.sol\":2933:2959  return participants.length */\n      swap1\n      pop\n        /* \"Loterie.sol\":2865:2967  function getParticipants() external  view returns (uint) {... */\n      swap1\n      jump\t// out\n        /* \"Loterie.sol\":3035:3188  function isLoterieTerminee() external  view returns (bool) {... */\n    tag_35:\n        /* \"Loterie.sol\":3088:3092  bool */\n      0x00\n        /* \"Loterie.sol\":3130:3138  deadline */\n      sload(0x05)\n        /* \"Loterie.sol\":3112:3127  block.timestamp */\n      timestamp\n        /* \"Loterie.sol\":3112:3138  block.timestamp > deadline */\n      gt\n        /* \"Loterie.sol\":3112:3180  block.timestamp > deadline && participants.length >= minParticipants */\n      dup1\n      iszero\n      tag_51\n      jumpi\n      pop\n        /* \"Loterie.sol\":3165:3180  minParticipants */\n      sload(0x04)\n        /* \"Loterie.sol\":3142:3154  participants */\n      0x01\n        /* \"Loterie.sol\":3142:3161  participants.length */\n      dup1\n      sload\n      swap1\n      pop\n        /* \"Loterie.sol\":3142:3180  participants.length >= minParticipants */\n      lt\n      iszero\n        /* \"Loterie.sol\":3112:3180  block.timestamp > deadline && participants.length >= minParticipants */\n    tag_51:\n        /* \"Loterie.sol\":3105:3180  return block.timestamp > deadline && participants.length >= minParticipants */\n      swap1\n      pop\n        /* \"Loterie.sol\":3035:3188  function isLoterieTerminee() external  view returns (bool) {... */\n      swap1\n      jump\t// out\n        /* \"Loterie.sol\":1070:2028  function acheterTicket(uint age, string memory adresse) public payable lotteryActive {... */\n    tag_41:\n        /* \"Loterie.sol\":669:677  deadline */\n      sload(0x05)\n        /* \"Loterie.sol\":650:665  block.timestamp */\n      timestamp\n        /* \"Loterie.sol\":650:677  block.timestamp <= deadline */\n      gt\n      iszero\n        /* \"Loterie.sol\":642:705  require(block.timestamp <= deadline, \"La loterie est terminee\") */\n      tag_53\n      jumpi\n      mload(0x40)\n      0x08c379a000000000000000000000000000000000000000000000000000000000\n      dup2\n      mstore\n      0x04\n      add\n      tag_54\n      swap1\n      tag_55\n      jump\t// in\n    tag_54:\n      mload(0x40)\n      dup1\n      swap2\n      sub\n      swap1\n      revert\n    tag_53:\n        /* \"Loterie.sol\":1181:1183  18 */\n      0x12\n        /* \"Loterie.sol\":1174:1177  age */\n      dup3\n        /* \"Loterie.sol\":1174:1183  age >= 18 */\n      lt\n      iszero\n        /* \"Loterie.sol\":1166:1236  require(age >= 18, \"Vous devez avoir au moins 18 ans pour participer\") */\n      tag_57\n      jumpi\n      mload(0x40)\n      0x08c379a000000000000000000000000000000000000000000000000000000000\n      dup2\n      mstore\n      0x04\n      add\n      tag_58\n      swap1\n      tag_59\n      jump\t// in\n    tag_58:\n      mload(0x40)\n      dup1\n      swap2\n      sub\n      swap1\n      revert\n    tag_57:\n        /* \"Loterie.sol\":1305:1333  abi.encodePacked(\"etherbay\") */\n      add(0x20, mload(0x40))\n      tag_60\n      swap1\n      tag_61\n      jump\t// in\n    tag_60:\n      mload(0x40)\n      0x20\n      dup2\n      dup4\n      sub\n      sub\n      dup2\n      mstore\n      swap1\n      0x40\n      mstore\n        /* \"Loterie.sol\":1295:1334  keccak256(abi.encodePacked(\"etherbay\")) */\n      dup1\n      mload\n      swap1\n      0x20\n      add\n      keccak256\n        /* \"Loterie.sol\":1282:1289  adresse */\n      dup2\n        /* \"Loterie.sol\":1265:1290  abi.encodePacked(adresse) */\n      add(0x20, mload(0x40))\n      tag_62\n      swap2\n      swap1\n      tag_63\n      jump\t// in\n    tag_62:\n      mload(0x40)\n      0x20\n      dup2\n      dup4\n      sub\n      sub\n      dup2\n      mstore\n      swap1\n      0x40\n      mstore\n        /* \"Loterie.sol\":1255:1291  keccak256(abi.encodePacked(adresse)) */\n      dup1\n      mload\n      swap1\n      0x20\n      add\n      keccak256\n        /* \"Loterie.sol\":1255:1334  keccak256(abi.encodePacked(adresse)) == keccak256(abi.encodePacked(\"etherbay\")) */\n      eq\n        /* \"Loterie.sol\":1247:1384  require(keccak256(abi.encodePacked(adresse)) == keccak256(abi.encodePacked(\"etherbay\")), \"Vous devez habiter a EtherBay pour participer\") */\n      tag_64\n      jumpi\n      mload(0x40)\n      0x08c379a000000000000000000000000000000000000000000000000000000000\n      dup2\n      mstore\n      0x04\n      add\n      tag_65\n      swap1\n      tag_66\n      jump\t// in\n    tag_65:\n      mload(0x40)\n      dup1\n      swap2\n      sub\n      swap1\n      revert\n    tag_64:\n        /* \"Loterie.sol\":1416:1427  ticketPrice */\n      sload(0x03)\n        /* \"Loterie.sol\":1403:1412  msg.value */\n      callvalue\n        /* \"Loterie.sol\":1403:1427  msg.value == ticketPrice */\n      eq\n        /* \"Loterie.sol\":1395:1466  require(msg.value == ticketPrice, \"Le montant du ticket est incorrect\") */\n      tag_67\n      jumpi\n      mload(0x40)\n      0x08c379a000000000000000000000000000000000000000000000000000000000\n      dup2\n      mstore\n      0x04\n      add\n      tag_68\n      swap1\n      tag_69\n      jump\t// in\n    tag_68:\n      mload(0x40)\n      dup1\n      swap2\n      sub\n      swap1\n      revert\n    tag_67:\n        /* \"Loterie.sol\":1479:1491  participants */\n      0x01\n        /* \"Loterie.sol\":1497:1507  msg.sender */\n      caller\n        /* \"Loterie.sol\":1479:1508  participants.push(msg.sender) */\n      swap1\n      dup1\n      0x01\n      dup2\n      sload\n      add\n      dup1\n      dup3\n      sstore\n      dup1\n      swap2\n      pop\n      pop\n      0x01\n      swap1\n      sub\n      swap1\n      0x00\n      mstore\n      keccak256(0x00, 0x20)\n      add\n      0x00\n      swap1\n      swap2\n      swap1\n      swap2\n      swap1\n      swap2\n      0x0100\n      exp\n      dup2\n      sload\n      dup2\n      0xffffffffffffffffffffffffffffffffffffffff\n      mul\n      not\n      and\n      swap1\n      dup4\n      0xffffffffffffffffffffffffffffffffffffffff\n      and\n      mul\n      or\n      swap1\n      sstore\n      pop\n        /* \"Loterie.sol\":1536:1546  msg.sender */\n      caller\n        /* \"Loterie.sol\":1524:1558  TicketAchat(msg.sender, msg.value) */\n      0xffffffffffffffffffffffffffffffffffffffff\n      and\n      0xbec7b484b62dbd71a6a50296032b8845210f16417e4162724f5d3d7c634300d6\n        /* \"Loterie.sol\":1548:1557  msg.value */\n      callvalue\n        /* \"Loterie.sol\":1524:1558  TicketAchat(msg.sender, msg.value) */\n      mload(0x40)\n      tag_71\n      swap2\n      swap1\n      tag_15\n      jump\t// in\n    tag_71:\n      mload(0x40)\n      dup1\n      swap2\n      sub\n      swap1\n      log2\n        /* \"Loterie.sol\":1655:1670  minParticipants */\n      sload(0x04)\n        /* \"Loterie.sol\":1632:1644  participants */\n      0x01\n        /* \"Loterie.sol\":1632:1651  participants.length */\n      dup1\n      sload\n      swap1\n      pop\n        /* \"Loterie.sol\":1632:1670  participants.length >= minParticipants */\n      lt\n      iszero\n        /* \"Loterie.sol\":1632:1701  participants.length >= minParticipants && block.timestamp >= deadline */\n      dup1\n      iszero\n      tag_72\n      jumpi\n      pop\n        /* \"Loterie.sol\":1693:1701  deadline */\n      sload(0x05)\n        /* \"Loterie.sol\":1674:1689  block.timestamp */\n      timestamp\n        /* \"Loterie.sol\":1674:1701  block.timestamp >= deadline */\n      lt\n      iszero\n        /* \"Loterie.sol\":1632:1701  participants.length >= minParticipants && block.timestamp >= deadline */\n    tag_72:\n        /* \"Loterie.sol\":1628:1736  if (participants.length >= minParticipants && block.timestamp >= deadline) {... */\n      iszero\n      tag_73\n      jumpi\n        /* \"Loterie.sol\":1714:1728  tirageAuSort() */\n      tag_74\n        /* \"Loterie.sol\":1714:1726  tirageAuSort */\n      tag_75\n        /* \"Loterie.sol\":1714:1728  tirageAuSort() */\n      jump\t// in\n    tag_74:\n        /* \"Loterie.sol\":1628:1736  if (participants.length >= minParticipants && block.timestamp >= deadline) {... */\n    tag_73:\n        /* \"Loterie.sol\":1748:1760  participants */\n      0x01\n        /* \"Loterie.sol\":1766:1776  msg.sender */\n      caller\n        /* \"Loterie.sol\":1748:1777  participants.push(msg.sender) */\n      swap1\n      dup1\n      0x01\n      dup2\n      sload\n      add\n      dup1\n      dup3\n      sstore\n      dup1\n      swap2\n      pop\n      pop\n      0x01\n      swap1\n      sub\n      swap1\n      0x00\n      mstore\n      keccak256(0x00, 0x20)\n      add\n      0x00\n      swap1\n      swap2\n      swap1\n      swap2\n      swap1\n      swap2\n      0x0100\n      exp\n      dup2\n      sload\n      dup2\n      0xffffffffffffffffffffffffffffffffffffffff\n      mul\n      not\n      and\n      swap1\n      dup4\n      0xffffffffffffffffffffffffffffffffffffffff\n      and\n      mul\n      or\n      swap1\n      sstore\n      pop\n        /* \"Loterie.sol\":1805:1815  msg.sender */\n      caller\n        /* \"Loterie.sol\":1793:1827  TicketAchat(msg.sender, msg.value) */\n      0xffffffffffffffffffffffffffffffffffffffff\n      and\n      0xbec7b484b62dbd71a6a50296032b8845210f16417e4162724f5d3d7c634300d6\n        /* \"Loterie.sol\":1817:1826  msg.value */\n      callvalue\n        /* \"Loterie.sol\":1793:1827  TicketAchat(msg.sender, msg.value) */\n      mload(0x40)\n      tag_77\n      swap2\n      swap1\n      tag_15\n      jump\t// in\n    tag_77:\n      mload(0x40)\n      dup1\n      swap2\n      sub\n      swap1\n      log2\n        /* \"Loterie.sol\":1932:1947  minParticipants */\n      sload(0x04)\n        /* \"Loterie.sol\":1909:1921  participants */\n      0x01\n        /* \"Loterie.sol\":1909:1928  participants.length */\n      dup1\n      sload\n      swap1\n      pop\n        /* \"Loterie.sol\":1909:1947  participants.length >= minParticipants */\n      lt\n      iszero\n        /* \"Loterie.sol\":1909:1978  participants.length >= minParticipants && block.timestamp >= deadline */\n      dup1\n      iszero\n      tag_78\n      jumpi\n      pop\n        /* \"Loterie.sol\":1970:1978  deadline */\n      sload(0x05)\n        /* \"Loterie.sol\":1951:1966  block.timestamp */\n      timestamp\n        /* \"Loterie.sol\":1951:1978  block.timestamp >= deadline */\n      lt\n      iszero\n        /* \"Loterie.sol\":1909:1978  participants.length >= minParticipants && block.timestamp >= deadline */\n    tag_78:\n        /* \"Loterie.sol\":1905:2021  if (participants.length >= minParticipants && block.timestamp >= deadline) {... */\n      iszero\n      tag_79\n      jumpi\n        /* \"Loterie.sol\":1995:2009  tirageAuSort() */\n      tag_80\n        /* \"Loterie.sol\":1995:2007  tirageAuSort */\n      tag_75\n        /* \"Loterie.sol\":1995:2009  tirageAuSort() */\n      jump\t// in\n    tag_80:\n        /* \"Loterie.sol\":1905:2021  if (participants.length >= minParticipants && block.timestamp >= deadline) {... */\n    tag_79:\n        /* \"Loterie.sol\":1070:2028  function acheterTicket(uint age, string memory adresse) public payable lotteryActive {... */\n      pop\n      pop\n      jump\t// out\n        /* \"Loterie.sol\":282:323  mapping(address => bool) public whitelist */\n    tag_46:\n      mstore(0x20, 0x06)\n      dup1\n      0x00\n      mstore\n      keccak256(0x00, 0x40)\n      0x00\n      swap2\n      pop\n      sload\n      swap1\n      0x0100\n      exp\n      swap1\n      div\n      0xff\n      and\n      dup2\n      jump\t// out\n        /* \"Loterie.sol\":2075:2649  function tirageAuSort() internal {... */\n    tag_75:\n        /* \"Loterie.sol\":2150:2165  minParticipants */\n      sload(0x04)\n        /* \"Loterie.sol\":2127:2139  participants */\n      0x01\n        /* \"Loterie.sol\":2127:2146  participants.length */\n      dup1\n      sload\n      swap1\n      pop\n        /* \"Loterie.sol\":2127:2165  participants.length >= minParticipants */\n      lt\n      iszero\n        /* \"Loterie.sol\":2119:2212  require(participants.length >= minParticipants, \"Nombre minimum de participants non atteint\") */\n      tag_82\n      jumpi\n      mload(0x40)\n      0x08c379a000000000000000000000000000000000000000000000000000000000\n      dup2\n      mstore\n      0x04\n      add\n      tag_83\n      swap1\n      tag_84\n      jump\t// in\n    tag_83:\n      mload(0x40)\n      dup1\n      swap2\n      sub\n      swap1\n      revert\n    tag_82:\n        /* \"Loterie.sol\":2250:2258  deadline */\n      sload(0x05)\n        /* \"Loterie.sol\":2231:2246  block.timestamp */\n      timestamp\n        /* \"Loterie.sol\":2231:2258  block.timestamp >= deadline */\n      lt\n      iszero\n        /* \"Loterie.sol\":2223:2295  require(block.timestamp >= deadline, \"Le delai n'est pas encore ecoule\") */\n      tag_85\n      jumpi\n      mload(0x40)\n      0x08c379a000000000000000000000000000000000000000000000000000000000\n      dup2\n      mstore\n      0x04\n      add\n      tag_86\n      swap1\n      tag_87\n      jump\t// in\n    tag_86:\n      mload(0x40)\n      dup1\n      swap2\n      sub\n      swap1\n      revert\n    tag_85:\n        /* \"Loterie.sol\":2316:2333  uint indexGagnant */\n      0x00\n        /* \"Loterie.sol\":2421:2433  participants */\n      0x01\n        /* \"Loterie.sol\":2421:2440  participants.length */\n      dup1\n      sload\n      swap1\n      pop\n        /* \"Loterie.sol\":2368:2383  block.timestamp */\n      timestamp\n        /* \"Loterie.sol\":2385:2401  block.difficulty */\n      prevrandao\n        /* \"Loterie.sol\":2403:2415  participants */\n      0x01\n        /* \"Loterie.sol\":2351:2416  abi.encodePacked(block.timestamp, block.difficulty, participants) */\n      add(0x20, mload(0x40))\n      tag_88\n      swap4\n      swap3\n      swap2\n      swap1\n      tag_89\n      jump\t// in\n    tag_88:\n      mload(0x40)\n      0x20\n      dup2\n      dup4\n      sub\n      sub\n      dup2\n      mstore\n      swap1\n      0x40\n      mstore\n        /* \"Loterie.sol\":2341:2417  keccak256(abi.encodePacked(block.timestamp, block.difficulty, participants)) */\n      dup1\n      mload\n      swap1\n      0x20\n      add\n      keccak256\n        /* \"Loterie.sol\":2336:2418  uint(keccak256(abi.encodePacked(block.timestamp, block.difficulty, participants))) */\n      0x00\n      shr\n        /* \"Loterie.sol\":2336:2440  uint(keccak256(abi.encodePacked(block.timestamp, block.difficulty, participants))) % participants.length */\n      tag_90\n      swap2\n      swap1\n      tag_91\n      jump\t// in\n    tag_90:\n        /* \"Loterie.sol\":2316:2440  uint indexGagnant = uint(keccak256(abi.encodePacked(block.timestamp, block.difficulty, participants))) % participants.length */\n      swap1\n      pop\n        /* \"Loterie.sol\":2461:2473  participants */\n      0x01\n        /* \"Loterie.sol\":2474:2486  indexGagnant */\n      dup2\n        /* \"Loterie.sol\":2461:2487  participants[indexGagnant] */\n      dup2\n      sload\n      dup2\n      lt\n      tag_92\n      jumpi\n      tag_93\n      tag_94\n      jump\t// in\n    tag_93:\n    tag_92:\n      swap1\n      0x00\n      mstore\n      keccak256(0x00, 0x20)\n      add\n      0x00\n      swap1\n      sload\n      swap1\n      0x0100\n      exp\n      swap1\n      div\n      0xffffffffffffffffffffffffffffffffffffffff\n      and\n        /* \"Loterie.sol\":2451:2458  gagnant */\n      0x02\n      0x00\n        /* \"Loterie.sol\":2451:2487  gagnant = participants[indexGagnant] */\n      0x0100\n      exp\n      dup2\n      sload\n      dup2\n      0xffffffffffffffffffffffffffffffffffffffff\n      mul\n      not\n      and\n      swap1\n      dup4\n      0xffffffffffffffffffffffffffffffffffffffff\n      and\n      mul\n      or\n      swap1\n      sstore\n      pop\n        /* \"Loterie.sol\":2519:2526  gagnant */\n      0x02\n      0x00\n      swap1\n      sload\n      swap1\n      0x0100\n      exp\n      swap1\n      div\n      0xffffffffffffffffffffffffffffffffffffffff\n      and\n        /* \"Loterie.sol\":2505:2550  GagnantChoisi(gagnant, address(this).balance) */\n      0xffffffffffffffffffffffffffffffffffffffff\n      and\n      0x0ddd20860ba6936b91ebccb6dd654613054b9df174e95cb32c29d1ffce3a9d18\n        /* \"Loterie.sol\":2528:2549  address(this).balance */\n      selfbalance\n        /* \"Loterie.sol\":2505:2550  GagnantChoisi(gagnant, address(this).balance) */\n      mload(0x40)\n      tag_96\n      swap2\n      swap1\n      tag_15\n      jump\t// in\n    tag_96:\n      mload(0x40)\n      dup1\n      swap2\n      sub\n      swap1\n      log2\n        /* \"Loterie.sol\":2569:2576  gagnant */\n      0x02\n      0x00\n      swap1\n      sload\n      swap1\n      0x0100\n      exp\n      swap1\n      div\n      0xffffffffffffffffffffffffffffffffffffffff\n      and\n        /* \"Loterie.sol\":2561:2586  payable(gagnant).transfer */\n      0xffffffffffffffffffffffffffffffffffffffff\n      and\n        /* \"Loterie.sol\":2561:2609  payable(gagnant).transfer(address(this).balance) */\n      0x08fc\n        /* \"Loterie.sol\":2587:2608  address(this).balance */\n      selfbalance\n        /* \"Loterie.sol\":2561:2609  payable(gagnant).transfer(address(this).balance) */\n      swap1\n      dup2\n      iszero\n      mul\n      swap1\n      mload(0x40)\n      0x00\n      mload(0x40)\n      dup1\n      dup4\n      sub\n      dup2\n      dup6\n      dup9\n      dup9\n      call\n      swap4\n      pop\n      pop\n      pop\n      pop\n      iszero\n      dup1\n      iszero\n      tag_98\n      jumpi\n      returndatasize\n      0x00\n      dup1\n      returndatacopy\n      revert(0x00, returndatasize)\n    tag_98:\n      pop\n        /* \"Loterie.sol\":2629:2641  participants */\n      0x01\n      0x00\n        /* \"Loterie.sol\":2622:2641  delete participants */\n      tag_99\n      swap2\n      swap1\n      tag_100\n      jump\t// in\n    tag_99:\n        /* \"Loterie.sol\":2108:2649  {... */\n      pop\n        /* \"Loterie.sol\":2075:2649  function tirageAuSort() internal {... */\n      jump\t// out\n    tag_100:\n      pop\n      dup1\n      sload\n      0x00\n      dup3\n      sstore\n      swap1\n      0x00\n      mstore\n      keccak256(0x00, 0x20)\n      swap1\n      dup2\n      add\n      swap1\n      tag_102\n      swap2\n      swap1\n      tag_103\n      jump\t// in\n    tag_102:\n      pop\n      jump\t// out\n    tag_103:\n    tag_104:\n      dup1\n      dup3\n      gt\n      iszero\n      tag_105\n      jumpi\n      0x00\n      dup2\n      0x00\n      swap1\n      sstore\n      pop\n      0x01\n      add\n      jump(tag_104)\n    tag_105:\n      pop\n      swap1\n      jump\t// out\n        /* \"#utility.yul\":7:84   */\n    tag_106:\n        /* \"#utility.yul\":44:51   */\n      0x00\n        /* \"#utility.yul\":73:78   */\n      dup2\n        /* \"#utility.yul\":62:78   */\n      swap1\n      pop\n        /* \"#utility.yul\":7:84   */\n      swap2\n      swap1\n      pop\n      jump\t// out\n        /* \"#utility.yul\":90:208   */\n    tag_107:\n        /* \"#utility.yul\":177:201   */\n      tag_166\n        /* \"#utility.yul\":195:200   */\n      dup2\n        /* \"#utility.yul\":177:201   */\n      tag_106\n      jump\t// in\n    tag_166:\n        /* \"#utility.yul\":172:175   */\n      dup3\n        /* \"#utility.yul\":165:202   */\n      mstore\n        /* \"#utility.yul\":90:208   */\n      pop\n      pop\n      jump\t// out\n        /* \"#utility.yul\":214:436   */\n    tag_15:\n        /* \"#utility.yul\":307:311   */\n      0x00\n        /* \"#utility.yul\":345:347   */\n      0x20\n        /* \"#utility.yul\":334:343   */\n      dup3\n        /* \"#utility.yul\":330:348   */\n      add\n        /* \"#utility.yul\":322:348   */\n      swap1\n      pop\n        /* \"#utility.yul\":358:429   */\n      tag_168\n        /* \"#utility.yul\":426:427   */\n      0x00\n        /* \"#utility.yul\":415:424   */\n      dup4\n        /* \"#utility.yul\":411:428   */\n      add\n        /* \"#utility.yul\":402:408   */\n      dup5\n        /* \"#utility.yul\":358:429   */\n      tag_107\n      jump\t// in\n    tag_168:\n        /* \"#utility.yul\":214:436   */\n      swap3\n      swap2\n      pop\n      pop\n      jump\t// out\n        /* \"#utility.yul\":442:568   */\n    tag_108:\n        /* \"#utility.yul\":479:486   */\n      0x00\n        /* \"#utility.yul\":519:561   */\n      0xffffffffffffffffffffffffffffffffffffffff\n        /* \"#utility.yul\":512:517   */\n      dup3\n        /* \"#utility.yul\":508:562   */\n      and\n        /* \"#utility.yul\":497:562   */\n      swap1\n      pop\n        /* \"#utility.yul\":442:568   */\n      swap2\n      swap1\n      pop\n      jump\t// out\n        /* \"#utility.yul\":574:670   */\n    tag_109:\n        /* \"#utility.yul\":611:618   */\n      0x00\n        /* \"#utility.yul\":640:664   */\n      tag_171\n        /* \"#utility.yul\":658:663   */\n      dup3\n        /* \"#utility.yul\":640:664   */\n      tag_108\n      jump\t// in\n    tag_171:\n        /* \"#utility.yul\":629:664   */\n      swap1\n      pop\n        /* \"#utility.yul\":574:670   */\n      swap2\n      swap1\n      pop\n      jump\t// out\n        /* \"#utility.yul\":676:794   */\n    tag_110:\n        /* \"#utility.yul\":763:787   */\n      tag_173\n        /* \"#utility.yul\":781:786   */\n      dup2\n        /* \"#utility.yul\":763:787   */\n      tag_109\n      jump\t// in\n    tag_173:\n        /* \"#utility.yul\":758:761   */\n      dup3\n        /* \"#utility.yul\":751:788   */\n      mstore\n        /* \"#utility.yul\":676:794   */\n      pop\n      pop\n      jump\t// out\n        /* \"#utility.yul\":800:1022   */\n    tag_24:\n        /* \"#utility.yul\":893:897   */\n      0x00\n        /* \"#utility.yul\":931:933   */\n      0x20\n        /* \"#utility.yul\":920:929   */\n      dup3\n        /* \"#utility.yul\":916:934   */\n      add\n        /* \"#utility.yul\":908:934   */\n      swap1\n      pop\n        /* \"#utility.yul\":944:1015   */\n      tag_175\n        /* \"#utility.yul\":1012:1013   */\n      0x00\n        /* \"#utility.yul\":1001:1010   */\n      dup4\n        /* \"#utility.yul\":997:1014   */\n      add\n        /* \"#utility.yul\":988:994   */\n      dup5\n        /* \"#utility.yul\":944:1015   */\n      tag_110\n      jump\t// in\n    tag_175:\n        /* \"#utility.yul\":800:1022   */\n      swap3\n      swap2\n      pop\n      pop\n      jump\t// out\n        /* \"#utility.yul\":1028:1118   */\n    tag_111:\n        /* \"#utility.yul\":1062:1069   */\n      0x00\n        /* \"#utility.yul\":1105:1110   */\n      dup2\n        /* \"#utility.yul\":1098:1111   */\n      iszero\n        /* \"#utility.yul\":1091:1112   */\n      iszero\n        /* \"#utility.yul\":1080:1112   */\n      swap1\n      pop\n        /* \"#utility.yul\":1028:1118   */\n      swap2\n      swap1\n      pop\n      jump\t// out\n        /* \"#utility.yul\":1124:1233   */\n    tag_112:\n        /* \"#utility.yul\":1205:1226   */\n      tag_178\n        /* \"#utility.yul\":1220:1225   */\n      dup2\n        /* \"#utility.yul\":1205:1226   */\n      tag_111\n      jump\t// in\n    tag_178:\n        /* \"#utility.yul\":1200:1203   */\n      dup3\n        /* \"#utility.yul\":1193:1227   */\n      mstore\n        /* \"#utility.yul\":1124:1233   */\n      pop\n      pop\n      jump\t// out\n        /* \"#utility.yul\":1239:1449   */\n    tag_37:\n        /* \"#utility.yul\":1326:1330   */\n      0x00\n        /* \"#utility.yul\":1364:1366   */\n      0x20\n        /* \"#utility.yul\":1353:1362   */\n      dup3\n        /* \"#utility.yul\":1349:1367   */\n      add\n        /* \"#utility.yul\":1341:1367   */\n      swap1\n      pop\n        /* \"#utility.yul\":1377:1442   */\n      tag_180\n        /* \"#utility.yul\":1439:1440   */\n      0x00\n        /* \"#utility.yul\":1428:1437   */\n      dup4\n        /* \"#utility.yul\":1424:1441   */\n      add\n        /* \"#utility.yul\":1415:1421   */\n      dup5\n        /* \"#utility.yul\":1377:1442   */\n      tag_112\n      jump\t// in\n    tag_180:\n        /* \"#utility.yul\":1239:1449   */\n      swap3\n      swap2\n      pop\n      pop\n      jump\t// out\n        /* \"#utility.yul\":1455:1530   */\n    tag_113:\n        /* \"#utility.yul\":1488:1494   */\n      0x00\n        /* \"#utility.yul\":1521:1523   */\n      0x40\n        /* \"#utility.yul\":1515:1524   */\n      mload\n        /* \"#utility.yul\":1505:1524   */\n      swap1\n      pop\n        /* \"#utility.yul\":1455:1530   */\n      swap1\n      jump\t// out\n        /* \"#utility.yul\":1536:1653   */\n    tag_114:\n        /* \"#utility.yul\":1645:1646   */\n      0x00\n        /* \"#utility.yul\":1642:1643   */\n      dup1\n        /* \"#utility.yul\":1635:1647   */\n      revert\n        /* \"#utility.yul\":1659:1776   */\n    tag_115:\n        /* \"#utility.yul\":1768:1769   */\n      0x00\n        /* \"#utility.yul\":1765:1766   */\n      dup1\n        /* \"#utility.yul\":1758:1770   */\n      revert\n        /* \"#utility.yul\":1782:1904   */\n    tag_116:\n        /* \"#utility.yul\":1855:1879   */\n      tag_185\n        /* \"#utility.yul\":1873:1878   */\n      dup2\n        /* \"#utility.yul\":1855:1879   */\n      tag_106\n      jump\t// in\n    tag_185:\n        /* \"#utility.yul\":1848:1853   */\n      dup2\n        /* \"#utility.yul\":1845:1880   */\n      eq\n        /* \"#utility.yul\":1835:1898   */\n      tag_186\n      jumpi\n        /* \"#utility.yul\":1894:1895   */\n      0x00\n        /* \"#utility.yul\":1891:1892   */\n      dup1\n        /* \"#utility.yul\":1884:1896   */\n      revert\n        /* \"#utility.yul\":1835:1898   */\n    tag_186:\n        /* \"#utility.yul\":1782:1904   */\n      pop\n      jump\t// out\n        /* \"#utility.yul\":1910:2049   */\n    tag_117:\n        /* \"#utility.yul\":1956:1961   */\n      0x00\n        /* \"#utility.yul\":1994:2000   */\n      dup2\n        /* \"#utility.yul\":1981:2001   */\n      calldataload\n        /* \"#utility.yul\":1972:2001   */\n      swap1\n      pop\n        /* \"#utility.yul\":2010:2043   */\n      tag_188\n        /* \"#utility.yul\":2037:2042   */\n      dup2\n        /* \"#utility.yul\":2010:2043   */\n      tag_116\n      jump\t// in\n    tag_188:\n        /* \"#utility.yul\":1910:2049   */\n      swap3\n      swap2\n      pop\n      pop\n      jump\t// out\n        /* \"#utility.yul\":2055:2172   */\n    tag_118:\n        /* \"#utility.yul\":2164:2165   */\n      0x00\n        /* \"#utility.yul\":2161:2162   */\n      dup1\n        /* \"#utility.yul\":2154:2166   */\n      revert\n        /* \"#utility.yul\":2178:2295   */\n    tag_119:\n        /* \"#utility.yul\":2287:2288   */\n      0x00\n        /* \"#utility.yul\":2284:2285   */\n      dup1\n        /* \"#utility.yul\":2277:2289   */\n      revert\n        /* \"#utility.yul\":2301:2403   */\n    tag_120:\n        /* \"#utility.yul\":2342:2348   */\n      0x00\n        /* \"#utility.yul\":2393:2395   */\n      0x1f\n        /* \"#utility.yul\":2389:2396   */\n      not\n        /* \"#utility.yul\":2384:2386   */\n      0x1f\n        /* \"#utility.yul\":2377:2382   */\n      dup4\n        /* \"#utility.yul\":2373:2387   */\n      add\n        /* \"#utility.yul\":2369:2397   */\n      and\n        /* \"#utility.yul\":2359:2397   */\n      swap1\n      pop\n        /* \"#utility.yul\":2301:2403   */\n      swap2\n      swap1\n      pop\n      jump\t// out\n        /* \"#utility.yul\":2409:2589   */\n    tag_121:\n        /* \"#utility.yul\":2457:2534   */\n      0x4e487b7100000000000000000000000000000000000000000000000000000000\n        /* \"#utility.yul\":2454:2455   */\n      0x00\n        /* \"#utility.yul\":2447:2535   */\n      mstore\n        /* \"#utility.yul\":2554:2558   */\n      0x41\n        /* \"#utility.yul\":2551:2552   */\n      0x04\n        /* \"#utility.yul\":2544:2559   */\n      mstore\n        /* \"#utility.yul\":2578:2582   */\n      0x24\n        /* \"#utility.yul\":2575:2576   */\n      0x00\n        /* \"#utility.yul\":2568:2583   */\n      revert\n        /* \"#utility.yul\":2595:2876   */\n    tag_122:\n        /* \"#utility.yul\":2678:2705   */\n      tag_194\n        /* \"#utility.yul\":2700:2704   */\n      dup3\n        /* \"#utility.yul\":2678:2705   */\n      tag_120\n      jump\t// in\n    tag_194:\n        /* \"#utility.yul\":2670:2676   */\n      dup2\n        /* \"#utility.yul\":2666:2706   */\n      add\n        /* \"#utility.yul\":2808:2814   */\n      dup2\n        /* \"#utility.yul\":2796:2806   */\n      dup2\n        /* \"#utility.yul\":2793:2815   */\n      lt\n        /* \"#utility.yul\":2772:2790   */\n      0xffffffffffffffff\n        /* \"#utility.yul\":2760:2770   */\n      dup3\n        /* \"#utility.yul\":2757:2791   */\n      gt\n        /* \"#utility.yul\":2754:2816   */\n      or\n        /* \"#utility.yul\":2751:2839   */\n      iszero\n      tag_195\n      jumpi\n        /* \"#utility.yul\":2819:2837   */\n      tag_196\n      tag_121\n      jump\t// in\n    tag_196:\n        /* \"#utility.yul\":2751:2839   */\n    tag_195:\n        /* \"#utility.yul\":2859:2869   */\n      dup1\n        /* \"#utility.yul\":2855:2857   */\n      0x40\n        /* \"#utility.yul\":2848:2870   */\n      mstore\n        /* \"#utility.yul\":2638:2876   */\n      pop\n        /* \"#utility.yul\":2595:2876   */\n      pop\n      pop\n      jump\t// out\n        /* \"#utility.yul\":2882:3011   */\n    tag_123:\n        /* \"#utility.yul\":2916:2922   */\n      0x00\n        /* \"#utility.yul\":2943:2963   */\n      tag_198\n      tag_113\n      jump\t// in\n    tag_198:\n        /* \"#utility.yul\":2933:2963   */\n      swap1\n      pop\n        /* \"#utility.yul\":2972:3005   */\n      tag_199\n        /* \"#utility.yul\":3000:3004   */\n      dup3\n        /* \"#utility.yul\":2992:2998   */\n      dup3\n        /* \"#utility.yul\":2972:3005   */\n      tag_122\n      jump\t// in\n    tag_199:\n        /* \"#utility.yul\":2882:3011   */\n      swap2\n      swap1\n      pop\n      jump\t// out\n        /* \"#utility.yul\":3017:3325   */\n    tag_124:\n        /* \"#utility.yul\":3079:3083   */\n      0x00\n        /* \"#utility.yul\":3169:3187   */\n      0xffffffffffffffff\n        /* \"#utility.yul\":3161:3167   */\n      dup3\n        /* \"#utility.yul\":3158:3188   */\n      gt\n        /* \"#utility.yul\":3155:3211   */\n      iszero\n      tag_201\n      jumpi\n        /* \"#utility.yul\":3191:3209   */\n      tag_202\n      tag_121\n      jump\t// in\n    tag_202:\n        /* \"#utility.yul\":3155:3211   */\n    tag_201:\n        /* \"#utility.yul\":3229:3258   */\n      tag_203\n        /* \"#utility.yul\":3251:3257   */\n      dup3\n        /* \"#utility.yul\":3229:3258   */\n      tag_120\n      jump\t// in\n    tag_203:\n        /* \"#utility.yul\":3221:3258   */\n      swap1\n      pop\n        /* \"#utility.yul\":3313:3317   */\n      0x20\n        /* \"#utility.yul\":3307:3311   */\n      dup2\n        /* \"#utility.yul\":3303:3318   */\n      add\n        /* \"#utility.yul\":3295:3318   */\n      swap1\n      pop\n        /* \"#utility.yul\":3017:3325   */\n      swap2\n      swap1\n      pop\n      jump\t// out\n        /* \"#utility.yul\":3331:3477   */\n    tag_125:\n        /* \"#utility.yul\":3428:3434   */\n      dup3\n        /* \"#utility.yul\":3423:3426   */\n      dup2\n        /* \"#utility.yul\":3418:3421   */\n      dup4\n        /* \"#utility.yul\":3405:3435   */\n      calldatacopy\n        /* \"#utility.yul\":3469:3470   */\n      0x00\n        /* \"#utility.yul\":3460:3466   */\n      dup4\n        /* \"#utility.yul\":3455:3458   */\n      dup4\n        /* \"#utility.yul\":3451:3467   */\n      add\n        /* \"#utility.yul\":3444:3471   */\n      mstore\n        /* \"#utility.yul\":3331:3477   */\n      pop\n      pop\n      pop\n      jump\t// out\n        /* \"#utility.yul\":3483:3908   */\n    tag_126:\n        /* \"#utility.yul\":3561:3566   */\n      0x00\n        /* \"#utility.yul\":3586:3652   */\n      tag_206\n        /* \"#utility.yul\":3602:3651   */\n      tag_207\n        /* \"#utility.yul\":3644:3650   */\n      dup5\n        /* \"#utility.yul\":3602:3651   */\n      tag_124\n      jump\t// in\n    tag_207:\n        /* \"#utility.yul\":3586:3652   */\n      tag_123\n      jump\t// in\n    tag_206:\n        /* \"#utility.yul\":3577:3652   */\n      swap1\n      pop\n        /* \"#utility.yul\":3675:3681   */\n      dup3\n        /* \"#utility.yul\":3668:3673   */\n      dup2\n        /* \"#utility.yul\":3661:3682   */\n      mstore\n        /* \"#utility.yul\":3713:3717   */\n      0x20\n        /* \"#utility.yul\":3706:3711   */\n      dup2\n        /* \"#utility.yul\":3702:3718   */\n      add\n        /* \"#utility.yul\":3751:3754   */\n      dup5\n        /* \"#utility.yul\":3742:3748   */\n      dup5\n        /* \"#utility.yul\":3737:3740   */\n      dup5\n        /* \"#utility.yul\":3733:3749   */\n      add\n        /* \"#utility.yul\":3730:3755   */\n      gt\n        /* \"#utility.yul\":3727:3839   */\n      iszero\n      tag_208\n      jumpi\n        /* \"#utility.yul\":3758:3837   */\n      tag_209\n      tag_119\n      jump\t// in\n    tag_209:\n        /* \"#utility.yul\":3727:3839   */\n    tag_208:\n        /* \"#utility.yul\":3848:3902   */\n      tag_210\n        /* \"#utility.yul\":3895:3901   */\n      dup5\n        /* \"#utility.yul\":3890:3893   */\n      dup3\n        /* \"#utility.yul\":3885:3888   */\n      dup6\n        /* \"#utility.yul\":3848:3902   */\n      tag_125\n      jump\t// in\n    tag_210:\n        /* \"#utility.yul\":3567:3908   */\n      pop\n        /* \"#utility.yul\":3483:3908   */\n      swap4\n      swap3\n      pop\n      pop\n      pop\n      jump\t// out\n        /* \"#utility.yul\":3928:4268   */\n    tag_127:\n        /* \"#utility.yul\":3984:3989   */\n      0x00\n        /* \"#utility.yul\":4033:4036   */\n      dup3\n        /* \"#utility.yul\":4026:4030   */\n      0x1f\n        /* \"#utility.yul\":4018:4024   */\n      dup4\n        /* \"#utility.yul\":4014:4031   */\n      add\n        /* \"#utility.yul\":4010:4037   */\n      slt\n        /* \"#utility.yul\":4000:4122   */\n      tag_212\n      jumpi\n        /* \"#utility.yul\":4041:4120   */\n      tag_213\n      tag_118\n      jump\t// in\n    tag_213:\n        /* \"#utility.yul\":4000:4122   */\n    tag_212:\n        /* \"#utility.yul\":4158:4164   */\n      dup2\n        /* \"#utility.yul\":4145:4165   */\n      calldataload\n        /* \"#utility.yul\":4183:4262   */\n      tag_214\n        /* \"#utility.yul\":4258:4261   */\n      dup5\n        /* \"#utility.yul\":4250:4256   */\n      dup3\n        /* \"#utility.yul\":4243:4247   */\n      0x20\n        /* \"#utility.yul\":4235:4241   */\n      dup7\n        /* \"#utility.yul\":4231:4248   */\n      add\n        /* \"#utility.yul\":4183:4262   */\n      tag_126\n      jump\t// in\n    tag_214:\n        /* \"#utility.yul\":4174:4262   */\n      swap2\n      pop\n        /* \"#utility.yul\":3990:4268   */\n      pop\n        /* \"#utility.yul\":3928:4268   */\n      swap3\n      swap2\n      pop\n      pop\n      jump\t// out\n        /* \"#utility.yul\":4274:4928   */\n    tag_40:\n        /* \"#utility.yul\":4352:4358   */\n      0x00\n        /* \"#utility.yul\":4360:4366   */\n      dup1\n        /* \"#utility.yul\":4409:4411   */\n      0x40\n        /* \"#utility.yul\":4397:4406   */\n      dup4\n        /* \"#utility.yul\":4388:4395   */\n      dup6\n        /* \"#utility.yul\":4384:4407   */\n      sub\n        /* \"#utility.yul\":4380:4412   */\n      slt\n        /* \"#utility.yul\":4377:4496   */\n      iszero\n      tag_216\n      jumpi\n        /* \"#utility.yul\":4415:4494   */\n      tag_217\n      tag_114\n      jump\t// in\n    tag_217:\n        /* \"#utility.yul\":4377:4496   */\n    tag_216:\n        /* \"#utility.yul\":4535:4536   */\n      0x00\n        /* \"#utility.yul\":4560:4613   */\n      tag_218\n        /* \"#utility.yul\":4605:4612   */\n      dup6\n        /* \"#utility.yul\":4596:4602   */\n      dup3\n        /* \"#utility.yul\":4585:4594   */\n      dup7\n        /* \"#utility.yul\":4581:4603   */\n      add\n        /* \"#utility.yul\":4560:4613   */\n      tag_117\n      jump\t// in\n    tag_218:\n        /* \"#utility.yul\":4550:4613   */\n      swap3\n      pop\n        /* \"#utility.yul\":4506:4623   */\n      pop\n        /* \"#utility.yul\":4690:4692   */\n      0x20\n        /* \"#utility.yul\":4679:4688   */\n      dup4\n        /* \"#utility.yul\":4675:4693   */\n      add\n        /* \"#utility.yul\":4662:4694   */\n      calldataload\n        /* \"#utility.yul\":4721:4739   */\n      0xffffffffffffffff\n        /* \"#utility.yul\":4713:4719   */\n      dup2\n        /* \"#utility.yul\":4710:4740   */\n      gt\n        /* \"#utility.yul\":4707:4824   */\n      iszero\n      tag_219\n      jumpi\n        /* \"#utility.yul\":4743:4822   */\n      tag_220\n      tag_115\n      jump\t// in\n    tag_220:\n        /* \"#utility.yul\":4707:4824   */\n    tag_219:\n        /* \"#utility.yul\":4848:4911   */\n      tag_221\n        /* \"#utility.yul\":4903:4910   */\n      dup6\n        /* \"#utility.yul\":4894:4900   */\n      dup3\n        /* \"#utility.yul\":4883:4892   */\n      dup7\n        /* \"#utility.yul\":4879:4901   */\n      add\n        /* \"#utility.yul\":4848:4911   */\n      tag_127\n      jump\t// in\n    tag_221:\n        /* \"#utility.yul\":4838:4911   */\n      swap2\n      pop\n        /* \"#utility.yul\":4633:4921   */\n      pop\n        /* \"#utility.yul\":4274:4928   */\n      swap3\n      pop\n      swap3\n      swap1\n      pop\n      jump\t// out\n        /* \"#utility.yul\":4934:5056   */\n    tag_128:\n        /* \"#utility.yul\":5007:5031   */\n      tag_223\n        /* \"#utility.yul\":5025:5030   */\n      dup2\n        /* \"#utility.yul\":5007:5031   */\n      tag_109\n      jump\t// in\n    tag_223:\n        /* \"#utility.yul\":5000:5005   */\n      dup2\n        /* \"#utility.yul\":4997:5032   */\n      eq\n        /* \"#utility.yul\":4987:5050   */\n      tag_224\n      jumpi\n        /* \"#utility.yul\":5046:5047   */\n      0x00\n        /* \"#utility.yul\":5043:5044   */\n      dup1\n        /* \"#utility.yul\":5036:5048   */\n      revert\n        /* \"#utility.yul\":4987:5050   */\n    tag_224:\n        /* \"#utility.yul\":4934:5056   */\n      pop\n      jump\t// out\n        /* \"#utility.yul\":5062:5201   */\n    tag_129:\n        /* \"#utility.yul\":5108:5113   */\n      0x00\n        /* \"#utility.yul\":5146:5152   */\n      dup2\n        /* \"#utility.yul\":5133:5153   */\n      calldataload\n        /* \"#utility.yul\":5124:5153   */\n      swap1\n      pop\n        /* \"#utility.yul\":5162:5195   */\n      tag_226\n        /* \"#utility.yul\":5189:5194   */\n      dup2\n        /* \"#utility.yul\":5162:5195   */\n      tag_128\n      jump\t// in\n    tag_226:\n        /* \"#utility.yul\":5062:5201   */\n      swap3\n      swap2\n      pop\n      pop\n      jump\t// out\n        /* \"#utility.yul\":5207:5536   */\n    tag_45:\n        /* \"#utility.yul\":5266:5272   */\n      0x00\n        /* \"#utility.yul\":5315:5317   */\n      0x20\n        /* \"#utility.yul\":5303:5312   */\n      dup3\n        /* \"#utility.yul\":5294:5301   */\n      dup5\n        /* \"#utility.yul\":5290:5313   */\n      sub\n        /* \"#utility.yul\":5286:5318   */\n      slt\n        /* \"#utility.yul\":5283:5402   */\n      iszero\n      tag_228\n      jumpi\n        /* \"#utility.yul\":5321:5400   */\n      tag_229\n      tag_114\n      jump\t// in\n    tag_229:\n        /* \"#utility.yul\":5283:5402   */\n    tag_228:\n        /* \"#utility.yul\":5441:5442   */\n      0x00\n        /* \"#utility.yul\":5466:5519   */\n      tag_230\n        /* \"#utility.yul\":5511:5518   */\n      dup5\n        /* \"#utility.yul\":5502:5508   */\n      dup3\n        /* \"#utility.yul\":5491:5500   */\n      dup6\n        /* \"#utility.yul\":5487:5509   */\n      add\n        /* \"#utility.yul\":5466:5519   */\n      tag_129\n      jump\t// in\n    tag_230:\n        /* \"#utility.yul\":5456:5519   */\n      swap2\n      pop\n        /* \"#utility.yul\":5412:5529   */\n      pop\n        /* \"#utility.yul\":5207:5536   */\n      swap3\n      swap2\n      pop\n      pop\n      jump\t// out\n        /* \"#utility.yul\":5542:5711   */\n    tag_130:\n        /* \"#utility.yul\":5626:5637   */\n      0x00\n        /* \"#utility.yul\":5660:5666   */\n      dup3\n        /* \"#utility.yul\":5655:5658   */\n      dup3\n        /* \"#utility.yul\":5648:5667   */\n      mstore\n        /* \"#utility.yul\":5700:5704   */\n      0x20\n        /* \"#utility.yul\":5695:5698   */\n      dup3\n        /* \"#utility.yul\":5691:5705   */\n      add\n        /* \"#utility.yul\":5676:5705   */\n      swap1\n      pop\n        /* \"#utility.yul\":5542:5711   */\n      swap3\n      swap2\n      pop\n      pop\n      jump\t// out\n        /* \"#utility.yul\":5717:5890   */\n    tag_131:\n        /* \"#utility.yul\":5857:5882   */\n      0x4c61206c6f746572696520657374207465726d696e6565000000000000000000\n        /* \"#utility.yul\":5853:5854   */\n      0x00\n        /* \"#utility.yul\":5845:5851   */\n      dup3\n        /* \"#utility.yul\":5841:5855   */\n      add\n        /* \"#utility.yul\":5834:5883   */\n      mstore\n        /* \"#utility.yul\":5717:5890   */\n      pop\n      jump\t// out\n        /* \"#utility.yul\":5896:6262   */\n    tag_132:\n        /* \"#utility.yul\":6038:6041   */\n      0x00\n        /* \"#utility.yul\":6059:6126   */\n      tag_234\n        /* \"#utility.yul\":6123:6125   */\n      0x17\n        /* \"#utility.yul\":6118:6121   */\n      dup4\n        /* \"#utility.yul\":6059:6126   */\n      tag_130\n      jump\t// in\n    tag_234:\n        /* \"#utility.yul\":6052:6126   */\n      swap2\n      pop\n        /* \"#utility.yul\":6135:6228   */\n      tag_235\n        /* \"#utility.yul\":6224:6227   */\n      dup3\n        /* \"#utility.yul\":6135:6228   */\n      tag_131\n      jump\t// in\n    tag_235:\n        /* \"#utility.yul\":6253:6255   */\n      0x20\n        /* \"#utility.yul\":6248:6251   */\n      dup3\n        /* \"#utility.yul\":6244:6256   */\n      add\n        /* \"#utility.yul\":6237:6256   */\n      swap1\n      pop\n        /* \"#utility.yul\":5896:6262   */\n      swap2\n      swap1\n      pop\n      jump\t// out\n        /* \"#utility.yul\":6268:6687   */\n    tag_55:\n        /* \"#utility.yul\":6434:6438   */\n      0x00\n        /* \"#utility.yul\":6472:6474   */\n      0x20\n        /* \"#utility.yul\":6461:6470   */\n      dup3\n        /* \"#utility.yul\":6457:6475   */\n      add\n        /* \"#utility.yul\":6449:6475   */\n      swap1\n      pop\n        /* \"#utility.yul\":6521:6530   */\n      dup2\n        /* \"#utility.yul\":6515:6519   */\n      dup2\n        /* \"#utility.yul\":6511:6531   */\n      sub\n        /* \"#utility.yul\":6507:6508   */\n      0x00\n        /* \"#utility.yul\":6496:6505   */\n      dup4\n        /* \"#utility.yul\":6492:6509   */\n      add\n        /* \"#utility.yul\":6485:6532   */\n      mstore\n        /* \"#utility.yul\":6549:6680   */\n      tag_237\n        /* \"#utility.yul\":6675:6679   */\n      dup2\n        /* \"#utility.yul\":6549:6680   */\n      tag_132\n      jump\t// in\n    tag_237:\n        /* \"#utility.yul\":6541:6680   */\n      swap1\n      pop\n        /* \"#utility.yul\":6268:6687   */\n      swap2\n      swap1\n      pop\n      jump\t// out\n        /* \"#utility.yul\":6693:6928   */\n    tag_133:\n        /* \"#utility.yul\":6833:6867   */\n      0x566f757320646576657a2061766f6972206175206d6f696e7320313820616e73\n        /* \"#utility.yul\":6829:6830   */\n      0x00\n        /* \"#utility.yul\":6821:6827   */\n      dup3\n        /* \"#utility.yul\":6817:6831   */\n      add\n        /* \"#utility.yul\":6810:6868   */\n      mstore\n        /* \"#utility.yul\":6902:6920   */\n      0x20706f7572207061727469636970657200000000000000000000000000000000\n        /* \"#utility.yul\":6897:6899   */\n      0x20\n        /* \"#utility.yul\":6889:6895   */\n      dup3\n        /* \"#utility.yul\":6885:6900   */\n      add\n        /* \"#utility.yul\":6878:6921   */\n      mstore\n        /* \"#utility.yul\":6693:6928   */\n      pop\n      jump\t// out\n        /* \"#utility.yul\":6934:7300   */\n    tag_134:\n        /* \"#utility.yul\":7076:7079   */\n      0x00\n        /* \"#utility.yul\":7097:7164   */\n      tag_240\n        /* \"#utility.yul\":7161:7163   */\n      0x30\n        /* \"#utility.yul\":7156:7159   */\n      dup4\n        /* \"#utility.yul\":7097:7164   */\n      tag_130\n      jump\t// in\n    tag_240:\n        /* \"#utility.yul\":7090:7164   */\n      swap2\n      pop\n        /* \"#utility.yul\":7173:7266   */\n      tag_241\n        /* \"#utility.yul\":7262:7265   */\n      dup3\n        /* \"#utility.yul\":7173:7266   */\n      tag_133\n      jump\t// in\n    tag_241:\n        /* \"#utility.yul\":7291:7293   */\n      0x40\n        /* \"#utility.yul\":7286:7289   */\n      dup3\n        /* \"#utility.yul\":7282:7294   */\n      add\n        /* \"#utility.yul\":7275:7294   */\n      swap1\n      pop\n        /* \"#utility.yul\":6934:7300   */\n      swap2\n      swap1\n      pop\n      jump\t// out\n        /* \"#utility.yul\":7306:7725   */\n    tag_59:\n        /* \"#utility.yul\":7472:7476   */\n      0x00\n        /* \"#utility.yul\":7510:7512   */\n      0x20\n        /* \"#utility.yul\":7499:7508   */\n      dup3\n        /* \"#utility.yul\":7495:7513   */\n      add\n        /* \"#utility.yul\":7487:7513   */\n      swap1\n      pop\n        /* \"#utility.yul\":7559:7568   */\n      dup2\n        /* \"#utility.yul\":7553:7557   */\n      dup2\n        /* \"#utility.yul\":7549:7569   */\n      sub\n        /* \"#utility.yul\":7545:7546   */\n      0x00\n        /* \"#utility.yul\":7534:7543   */\n      dup4\n        /* \"#utility.yul\":7530:7547   */\n      add\n        /* \"#utility.yul\":7523:7570   */\n      mstore\n        /* \"#utility.yul\":7587:7718   */\n      tag_243\n        /* \"#utility.yul\":7713:7717   */\n      dup2\n        /* \"#utility.yul\":7587:7718   */\n      tag_134\n      jump\t// in\n    tag_243:\n        /* \"#utility.yul\":7579:7718   */\n      swap1\n      pop\n        /* \"#utility.yul\":7306:7725   */\n      swap2\n      swap1\n      pop\n      jump\t// out\n        /* \"#utility.yul\":7731:7879   */\n    tag_135:\n        /* \"#utility.yul\":7833:7844   */\n      0x00\n        /* \"#utility.yul\":7870:7873   */\n      dup2\n        /* \"#utility.yul\":7855:7873   */\n      swap1\n      pop\n        /* \"#utility.yul\":7731:7879   */\n      swap3\n      swap2\n      pop\n      pop\n      jump\t// out\n        /* \"#utility.yul\":7885:8043   */\n    tag_136:\n        /* \"#utility.yul\":8025:8035   */\n      0x6574686572626179000000000000000000000000000000000000000000000000\n        /* \"#utility.yul\":8021:8022   */\n      0x00\n        /* \"#utility.yul\":8013:8019   */\n      dup3\n        /* \"#utility.yul\":8009:8023   */\n      add\n        /* \"#utility.yul\":8002:8036   */\n      mstore\n        /* \"#utility.yul\":7885:8043   */\n      pop\n      jump\t// out\n        /* \"#utility.yul\":8049:8449   */\n    tag_137:\n        /* \"#utility.yul\":8209:8212   */\n      0x00\n        /* \"#utility.yul\":8230:8314   */\n      tag_247\n        /* \"#utility.yul\":8312:8313   */\n      0x08\n        /* \"#utility.yul\":8307:8310   */\n      dup4\n        /* \"#utility.yul\":8230:8314   */\n      tag_135\n      jump\t// in\n    tag_247:\n        /* \"#utility.yul\":8223:8314   */\n      swap2\n      pop\n        /* \"#utility.yul\":8323:8416   */\n      tag_248\n        /* \"#utility.yul\":8412:8415   */\n      dup3\n        /* \"#utility.yul\":8323:8416   */\n      tag_136\n      jump\t// in\n    tag_248:\n        /* \"#utility.yul\":8441:8442   */\n      0x08\n        /* \"#utility.yul\":8436:8439   */\n      dup3\n        /* \"#utility.yul\":8432:8443   */\n      add\n        /* \"#utility.yul\":8425:8443   */\n      swap1\n      pop\n        /* \"#utility.yul\":8049:8449   */\n      swap2\n      swap1\n      pop\n      jump\t// out\n        /* \"#utility.yul\":8455:8836   */\n    tag_61:\n        /* \"#utility.yul\":8640:8643   */\n      0x00\n        /* \"#utility.yul\":8662:8810   */\n      tag_250\n        /* \"#utility.yul\":8806:8809   */\n      dup3\n        /* \"#utility.yul\":8662:8810   */\n      tag_137\n      jump\t// in\n    tag_250:\n        /* \"#utility.yul\":8655:8810   */\n      swap2\n      pop\n        /* \"#utility.yul\":8827:8830   */\n      dup2\n        /* \"#utility.yul\":8820:8830   */\n      swap1\n      pop\n        /* \"#utility.yul\":8455:8836   */\n      swap2\n      swap1\n      pop\n      jump\t// out\n        /* \"#utility.yul\":8842:8941   */\n    tag_138:\n        /* \"#utility.yul\":8894:8900   */\n      0x00\n        /* \"#utility.yul\":8928:8933   */\n      dup2\n        /* \"#utility.yul\":8922:8934   */\n      mload\n        /* \"#utility.yul\":8912:8934   */\n      swap1\n      pop\n        /* \"#utility.yul\":8842:8941   */\n      swap2\n      swap1\n      pop\n      jump\t// out\n        /* \"#utility.yul\":8947:9193   */\n    tag_139:\n        /* \"#utility.yul\":9028:9029   */\n      0x00\n        /* \"#utility.yul\":9038:9151   */\n    tag_253:\n        /* \"#utility.yul\":9052:9058   */\n      dup4\n        /* \"#utility.yul\":9049:9050   */\n      dup2\n        /* \"#utility.yul\":9046:9059   */\n      lt\n        /* \"#utility.yul\":9038:9151   */\n      iszero\n      tag_255\n      jumpi\n        /* \"#utility.yul\":9137:9138   */\n      dup1\n        /* \"#utility.yul\":9132:9135   */\n      dup3\n        /* \"#utility.yul\":9128:9139   */\n      add\n        /* \"#utility.yul\":9122:9140   */\n      mload\n        /* \"#utility.yul\":9118:9119   */\n      dup2\n        /* \"#utility.yul\":9113:9116   */\n      dup5\n        /* \"#utility.yul\":9109:9120   */\n      add\n        /* \"#utility.yul\":9102:9141   */\n      mstore\n        /* \"#utility.yul\":9074:9076   */\n      0x20\n        /* \"#utility.yul\":9071:9072   */\n      dup2\n        /* \"#utility.yul\":9067:9077   */\n      add\n        /* \"#utility.yul\":9062:9077   */\n      swap1\n      pop\n        /* \"#utility.yul\":9038:9151   */\n      jump(tag_253)\n    tag_255:\n        /* \"#utility.yul\":9185:9186   */\n      0x00\n        /* \"#utility.yul\":9176:9182   */\n      dup5\n        /* \"#utility.yul\":9171:9174   */\n      dup5\n        /* \"#utility.yul\":9167:9183   */\n      add\n        /* \"#utility.yul\":9160:9187   */\n      mstore\n        /* \"#utility.yul\":9009:9193   */\n      pop\n        /* \"#utility.yul\":8947:9193   */\n      pop\n      pop\n      pop\n      jump\t// out\n        /* \"#utility.yul\":9199:9589   */\n    tag_140:\n        /* \"#utility.yul\":9305:9308   */\n      0x00\n        /* \"#utility.yul\":9333:9372   */\n      tag_257\n        /* \"#utility.yul\":9366:9371   */\n      dup3\n        /* \"#utility.yul\":9333:9372   */\n      tag_138\n      jump\t// in\n    tag_257:\n        /* \"#utility.yul\":9388:9477   */\n      tag_258\n        /* \"#utility.yul\":9470:9476   */\n      dup2\n        /* \"#utility.yul\":9465:9468   */\n      dup6\n        /* \"#utility.yul\":9388:9477   */\n      tag_135\n      jump\t// in\n    tag_258:\n        /* \"#utility.yul\":9381:9477   */\n      swap4\n      pop\n        /* \"#utility.yul\":9486:9551   */\n      tag_259\n        /* \"#utility.yul\":9544:9550   */\n      dup2\n        /* \"#utility.yul\":9539:9542   */\n      dup6\n        /* \"#utility.yul\":9532:9536   */\n      0x20\n        /* \"#utility.yul\":9525:9530   */\n      dup7\n        /* \"#utility.yul\":9521:9537   */\n      add\n        /* \"#utility.yul\":9486:9551   */\n      tag_139\n      jump\t// in\n    tag_259:\n        /* \"#utility.yul\":9576:9582   */\n      dup1\n        /* \"#utility.yul\":9571:9574   */\n      dup5\n        /* \"#utility.yul\":9567:9583   */\n      add\n        /* \"#utility.yul\":9560:9583   */\n      swap2\n      pop\n        /* \"#utility.yul\":9309:9589   */\n      pop\n        /* \"#utility.yul\":9199:9589   */\n      swap3\n      swap2\n      pop\n      pop\n      jump\t// out\n        /* \"#utility.yul\":9595:9870   */\n    tag_63:\n        /* \"#utility.yul\":9727:9730   */\n      0x00\n        /* \"#utility.yul\":9749:9844   */\n      tag_261\n        /* \"#utility.yul\":9840:9843   */\n      dup3\n        /* \"#utility.yul\":9831:9837   */\n      dup5\n        /* \"#utility.yul\":9749:9844   */\n      tag_140\n      jump\t// in\n    tag_261:\n        /* \"#utility.yul\":9742:9844   */\n      swap2\n      pop\n        /* \"#utility.yul\":9861:9864   */\n      dup2\n        /* \"#utility.yul\":9854:9864   */\n      swap1\n      pop\n        /* \"#utility.yul\":9595:9870   */\n      swap3\n      swap2\n      pop\n      pop\n      jump\t// out\n        /* \"#utility.yul\":9876:10108   */\n    tag_141:\n        /* \"#utility.yul\":10016:10050   */\n      0x566f757320646576657a2068616269746572206120457468657242617920706f\n        /* \"#utility.yul\":10012:10013   */\n      0x00\n        /* \"#utility.yul\":10004:10010   */\n      dup3\n        /* \"#utility.yul\":10000:10014   */\n      add\n        /* \"#utility.yul\":9993:10051   */\n      mstore\n        /* \"#utility.yul\":10085:10100   */\n      0x7572207061727469636970657200000000000000000000000000000000000000\n        /* \"#utility.yul\":10080:10082   */\n      0x20\n        /* \"#utility.yul\":10072:10078   */\n      dup3\n        /* \"#utility.yul\":10068:10083   */\n      add\n        /* \"#utility.yul\":10061:10101   */\n      mstore\n        /* \"#utility.yul\":9876:10108   */\n      pop\n      jump\t// out\n        /* \"#utility.yul\":10114:10480   */\n    tag_142:\n        /* \"#utility.yul\":10256:10259   */\n      0x00\n        /* \"#utility.yul\":10277:10344   */\n      tag_264\n        /* \"#utility.yul\":10341:10343   */\n      0x2d\n        /* \"#utility.yul\":10336:10339   */\n      dup4\n        /* \"#utility.yul\":10277:10344   */\n      tag_130\n      jump\t// in\n    tag_264:\n        /* \"#utility.yul\":10270:10344   */\n      swap2\n      pop\n        /* \"#utility.yul\":10353:10446   */\n      tag_265\n        /* \"#utility.yul\":10442:10445   */\n      dup3\n        /* \"#utility.yul\":10353:10446   */\n      tag_141\n      jump\t// in\n    tag_265:\n        /* \"#utility.yul\":10471:10473   */\n      0x40\n        /* \"#utility.yul\":10466:10469   */\n      dup3\n        /* \"#utility.yul\":10462:10474   */\n      add\n        /* \"#utility.yul\":10455:10474   */\n      swap1\n      pop\n        /* \"#utility.yul\":10114:10480   */\n      swap2\n      swap1\n      pop\n      jump\t// out\n        /* \"#utility.yul\":10486:10905   */\n    tag_66:\n        /* \"#utility.yul\":10652:10656   */\n      0x00\n        /* \"#utility.yul\":10690:10692   */\n      0x20\n        /* \"#utility.yul\":10679:10688   */\n      dup3\n        /* \"#utility.yul\":10675:10693   */\n      add\n        /* \"#utility.yul\":10667:10693   */\n      swap1\n      pop\n        /* \"#utility.yul\":10739:10748   */\n      dup2\n        /* \"#utility.yul\":10733:10737   */\n      dup2\n        /* \"#utility.yul\":10729:10749   */\n      sub\n        /* \"#utility.yul\":10725:10726   */\n      0x00\n        /* \"#utility.yul\":10714:10723   */\n      dup4\n        /* \"#utility.yul\":10710:10727   */\n      add\n        /* \"#utility.yul\":10703:10750   */\n      mstore\n        /* \"#utility.yul\":10767:10898   */\n      tag_267\n        /* \"#utility.yul\":10893:10897   */\n      dup2\n        /* \"#utility.yul\":10767:10898   */\n      tag_142\n      jump\t// in\n    tag_267:\n        /* \"#utility.yul\":10759:10898   */\n      swap1\n      pop\n        /* \"#utility.yul\":10486:10905   */\n      swap2\n      swap1\n      pop\n      jump\t// out\n        /* \"#utility.yul\":10911:11132   */\n    tag_143:\n        /* \"#utility.yul\":11051:11085   */\n      0x4c65206d6f6e74616e74206475207469636b65742065737420696e636f727265\n        /* \"#utility.yul\":11047:11048   */\n      0x00\n        /* \"#utility.yul\":11039:11045   */\n      dup3\n        /* \"#utility.yul\":11035:11049   */\n      add\n        /* \"#utility.yul\":11028:11086   */\n      mstore\n        /* \"#utility.yul\":11120:11124   */\n      0x6374000000000000000000000000000000000000000000000000000000000000\n        /* \"#utility.yul\":11115:11117   */\n      0x20\n        /* \"#utility.yul\":11107:11113   */\n      dup3\n        /* \"#utility.yul\":11103:11118   */\n      add\n        /* \"#utility.yul\":11096:11125   */\n      mstore\n        /* \"#utility.yul\":10911:11132   */\n      pop\n      jump\t// out\n        /* \"#utility.yul\":11138:11504   */\n    tag_144:\n        /* \"#utility.yul\":11280:11283   */\n      0x00\n        /* \"#utility.yul\":11301:11368   */\n      tag_270\n        /* \"#utility.yul\":11365:11367   */\n      0x22\n        /* \"#utility.yul\":11360:11363   */\n      dup4\n        /* \"#utility.yul\":11301:11368   */\n      tag_130\n      jump\t// in\n    tag_270:\n        /* \"#utility.yul\":11294:11368   */\n      swap2\n      pop\n        /* \"#utility.yul\":11377:11470   */\n      tag_271\n        /* \"#utility.yul\":11466:11469   */\n      dup3\n        /* \"#utility.yul\":11377:11470   */\n      tag_143\n      jump\t// in\n    tag_271:\n        /* \"#utility.yul\":11495:11497   */\n      0x40\n        /* \"#utility.yul\":11490:11493   */\n      dup3\n        /* \"#utility.yul\":11486:11498   */\n      add\n        /* \"#utility.yul\":11479:11498   */\n      swap1\n      pop\n        /* \"#utility.yul\":11138:11504   */\n      swap2\n      swap1\n      pop\n      jump\t// out\n        /* \"#utility.yul\":11510:11929   */\n    tag_69:\n        /* \"#utility.yul\":11676:11680   */\n      0x00\n        /* \"#utility.yul\":11714:11716   */\n      0x20\n        /* \"#utility.yul\":11703:11712   */\n      dup3\n        /* \"#utility.yul\":11699:11717   */\n      add\n        /* \"#utility.yul\":11691:11717   */\n      swap1\n      pop\n        /* \"#utility.yul\":11763:11772   */\n      dup2\n        /* \"#utility.yul\":11757:11761   */\n      dup2\n        /* \"#utility.yul\":11753:11773   */\n      sub\n        /* \"#utility.yul\":11749:11750   */\n      0x00\n        /* \"#utility.yul\":11738:11747   */\n      dup4\n        /* \"#utility.yul\":11734:11751   */\n      add\n        /* \"#utility.yul\":11727:11774   */\n      mstore\n        /* \"#utility.yul\":11791:11922   */\n      tag_273\n        /* \"#utility.yul\":11917:11921   */\n      dup2\n        /* \"#utility.yul\":11791:11922   */\n      tag_144\n      jump\t// in\n    tag_273:\n        /* \"#utility.yul\":11783:11922   */\n      swap1\n      pop\n        /* \"#utility.yul\":11510:11929   */\n      swap2\n      swap1\n      pop\n      jump\t// out\n        /* \"#utility.yul\":11935:12164   */\n    tag_145:\n        /* \"#utility.yul\":12075:12109   */\n      0x4e6f6d627265206d696e696d756d206465207061727469636970616e7473206e\n        /* \"#utility.yul\":12071:12072   */\n      0x00\n        /* \"#utility.yul\":12063:12069   */\n      dup3\n        /* \"#utility.yul\":12059:12073   */\n      add\n        /* \"#utility.yul\":12052:12110   */\n      mstore\n        /* \"#utility.yul\":12144:12156   */\n      0x6f6e2061747465696e7400000000000000000000000000000000000000000000\n        /* \"#utility.yul\":12139:12141   */\n      0x20\n        /* \"#utility.yul\":12131:12137   */\n      dup3\n        /* \"#utility.yul\":12127:12142   */\n      add\n        /* \"#utility.yul\":12120:12157   */\n      mstore\n        /* \"#utility.yul\":11935:12164   */\n      pop\n      jump\t// out\n        /* \"#utility.yul\":12170:12536   */\n    tag_146:\n        /* \"#utility.yul\":12312:12315   */\n      0x00\n        /* \"#utility.yul\":12333:12400   */\n      tag_276\n        /* \"#utility.yul\":12397:12399   */\n      0x2a\n        /* \"#utility.yul\":12392:12395   */\n      dup4\n        /* \"#utility.yul\":12333:12400   */\n      tag_130\n      jump\t// in\n    tag_276:\n        /* \"#utility.yul\":12326:12400   */\n      swap2\n      pop\n        /* \"#utility.yul\":12409:12502   */\n      tag_277\n        /* \"#utility.yul\":12498:12501   */\n      dup3\n        /* \"#utility.yul\":12409:12502   */\n      tag_145\n      jump\t// in\n    tag_277:\n        /* \"#utility.yul\":12527:12529   */\n      0x40\n        /* \"#utility.yul\":12522:12525   */\n      dup3\n        /* \"#utility.yul\":12518:12530   */\n      add\n        /* \"#utility.yul\":12511:12530   */\n      swap1\n      pop\n        /* \"#utility.yul\":12170:12536   */\n      swap2\n      swap1\n      pop\n      jump\t// out\n        /* \"#utility.yul\":12542:12961   */\n    tag_84:\n        /* \"#utility.yul\":12708:12712   */\n      0x00\n        /* \"#utility.yul\":12746:12748   */\n      0x20\n        /* \"#utility.yul\":12735:12744   */\n      dup3\n        /* \"#utility.yul\":12731:12749   */\n      add\n        /* \"#utility.yul\":12723:12749   */\n      swap1\n      pop\n        /* \"#utility.yul\":12795:12804   */\n      dup2\n        /* \"#utility.yul\":12789:12793   */\n      dup2\n        /* \"#utility.yul\":12785:12805   */\n      sub\n        /* \"#utility.yul\":12781:12782   */\n      0x00\n        /* \"#utility.yul\":12770:12779   */\n      dup4\n        /* \"#utility.yul\":12766:12783   */\n      add\n        /* \"#utility.yul\":12759:12806   */\n      mstore\n        /* \"#utility.yul\":12823:12954   */\n      tag_279\n        /* \"#utility.yul\":12949:12953   */\n      dup2\n        /* \"#utility.yul\":12823:12954   */\n      tag_146\n      jump\t// in\n    tag_279:\n        /* \"#utility.yul\":12815:12954   */\n      swap1\n      pop\n        /* \"#utility.yul\":12542:12961   */\n      swap2\n      swap1\n      pop\n      jump\t// out\n        /* \"#utility.yul\":12967:13149   */\n    tag_147:\n        /* \"#utility.yul\":13107:13141   */\n      0x4c652064656c6169206e276573742070617320656e636f72652065636f756c65\n        /* \"#utility.yul\":13103:13104   */\n      0x00\n        /* \"#utility.yul\":13095:13101   */\n      dup3\n        /* \"#utility.yul\":13091:13105   */\n      add\n        /* \"#utility.yul\":13084:13142   */\n      mstore\n        /* \"#utility.yul\":12967:13149   */\n      pop\n      jump\t// out\n        /* \"#utility.yul\":13155:13521   */\n    tag_148:\n        /* \"#utility.yul\":13297:13300   */\n      0x00\n        /* \"#utility.yul\":13318:13385   */\n      tag_282\n        /* \"#utility.yul\":13382:13384   */\n      0x20\n        /* \"#utility.yul\":13377:13380   */\n      dup4\n        /* \"#utility.yul\":13318:13385   */\n      tag_130\n      jump\t// in\n    tag_282:\n        /* \"#utility.yul\":13311:13385   */\n      swap2\n      pop\n        /* \"#utility.yul\":13394:13487   */\n      tag_283\n        /* \"#utility.yul\":13483:13486   */\n      dup3\n        /* \"#utility.yul\":13394:13487   */\n      tag_147\n      jump\t// in\n    tag_283:\n        /* \"#utility.yul\":13512:13514   */\n      0x20\n        /* \"#utility.yul\":13507:13510   */\n      dup3\n        /* \"#utility.yul\":13503:13515   */\n      add\n        /* \"#utility.yul\":13496:13515   */\n      swap1\n      pop\n        /* \"#utility.yul\":13155:13521   */\n      swap2\n      swap1\n      pop\n      jump\t// out\n        /* \"#utility.yul\":13527:13946   */\n    tag_87:\n        /* \"#utility.yul\":13693:13697   */\n      0x00\n        /* \"#utility.yul\":13731:13733   */\n      0x20\n        /* \"#utility.yul\":13720:13729   */\n      dup3\n        /* \"#utility.yul\":13716:13734   */\n      add\n        /* \"#utility.yul\":13708:13734   */\n      swap1\n      pop\n        /* \"#utility.yul\":13780:13789   */\n      dup2\n        /* \"#utility.yul\":13774:13778   */\n      dup2\n        /* \"#utility.yul\":13770:13790   */\n      sub\n        /* \"#utility.yul\":13766:13767   */\n      0x00\n        /* \"#utility.yul\":13755:13764   */\n      dup4\n        /* \"#utility.yul\":13751:13768   */\n      add\n        /* \"#utility.yul\":13744:13791   */\n      mstore\n        /* \"#utility.yul\":13808:13939   */\n      tag_285\n        /* \"#utility.yul\":13934:13938   */\n      dup2\n        /* \"#utility.yul\":13808:13939   */\n      tag_148\n      jump\t// in\n    tag_285:\n        /* \"#utility.yul\":13800:13939   */\n      swap1\n      pop\n        /* \"#utility.yul\":13527:13946   */\n      swap2\n      swap1\n      pop\n      jump\t// out\n        /* \"#utility.yul\":13952:14031   */\n    tag_149:\n        /* \"#utility.yul\":13991:13998   */\n      0x00\n        /* \"#utility.yul\":14020:14025   */\n      dup2\n        /* \"#utility.yul\":14009:14025   */\n      swap1\n      pop\n        /* \"#utility.yul\":13952:14031   */\n      swap2\n      swap1\n      pop\n      jump\t// out\n        /* \"#utility.yul\":14037:14194   */\n    tag_150:\n        /* \"#utility.yul\":14142:14187   */\n      tag_288\n        /* \"#utility.yul\":14162:14186   */\n      tag_289\n        /* \"#utility.yul\":14180:14185   */\n      dup3\n        /* \"#utility.yul\":14162:14186   */\n      tag_106\n      jump\t// in\n    tag_289:\n        /* \"#utility.yul\":14142:14187   */\n      tag_149\n      jump\t// in\n    tag_288:\n        /* \"#utility.yul\":14137:14140   */\n      dup3\n        /* \"#utility.yul\":14130:14188   */\n      mstore\n        /* \"#utility.yul\":14037:14194   */\n      pop\n      pop\n      jump\t// out\n        /* \"#utility.yul\":14200:14311   */\n    tag_151:\n        /* \"#utility.yul\":14264:14270   */\n      0x00\n        /* \"#utility.yul\":14298:14303   */\n      dup2\n        /* \"#utility.yul\":14292:14304   */\n      sload\n        /* \"#utility.yul\":14282:14304   */\n      swap1\n      pop\n        /* \"#utility.yul\":14200:14311   */\n      swap2\n      swap1\n      pop\n      jump\t// out\n        /* \"#utility.yul\":14317:14480   */\n    tag_152:\n        /* \"#utility.yul\":14434:14445   */\n      0x00\n        /* \"#utility.yul\":14471:14474   */\n      dup2\n        /* \"#utility.yul\":14456:14474   */\n      swap1\n      pop\n        /* \"#utility.yul\":14317:14480   */\n      swap3\n      swap2\n      pop\n      pop\n      jump\t// out\n        /* \"#utility.yul\":14486:14642   */\n    tag_153:\n        /* \"#utility.yul\":14550:14554   */\n      0x00\n        /* \"#utility.yul\":14573:14576   */\n      dup2\n        /* \"#utility.yul\":14565:14576   */\n      swap1\n      pop\n        /* \"#utility.yul\":14596:14599   */\n      dup2\n        /* \"#utility.yul\":14593:14594   */\n      0x00\n        /* \"#utility.yul\":14586:14600   */\n      mstore\n        /* \"#utility.yul\":14630:14634   */\n      0x20\n        /* \"#utility.yul\":14627:14628   */\n      0x00\n        /* \"#utility.yul\":14617:14635   */\n      keccak256\n        /* \"#utility.yul\":14609:14635   */\n      swap1\n      pop\n        /* \"#utility.yul\":14486:14642   */\n      swap2\n      swap1\n      pop\n      jump\t// out\n        /* \"#utility.yul\":14648:14764   */\n    tag_154:\n        /* \"#utility.yul\":14733:14757   */\n      tag_294\n        /* \"#utility.yul\":14751:14756   */\n      dup2\n        /* \"#utility.yul\":14733:14757   */\n      tag_109\n      jump\t// in\n    tag_294:\n        /* \"#utility.yul\":14728:14731   */\n      dup3\n        /* \"#utility.yul\":14721:14758   */\n      mstore\n        /* \"#utility.yul\":14648:14764   */\n      pop\n      pop\n      jump\t// out\n        /* \"#utility.yul\":14770:14965   */\n    tag_155:\n        /* \"#utility.yul\":14847:14857   */\n      0x00\n        /* \"#utility.yul\":14868:14922   */\n      tag_296\n        /* \"#utility.yul\":14918:14921   */\n      dup4\n        /* \"#utility.yul\":14910:14916   */\n      dup4\n        /* \"#utility.yul\":14868:14922   */\n      tag_154\n      jump\t// in\n    tag_296:\n        /* \"#utility.yul\":14954:14958   */\n      0x20\n        /* \"#utility.yul\":14949:14952   */\n      dup4\n        /* \"#utility.yul\":14945:14959   */\n      add\n        /* \"#utility.yul\":14931:14959   */\n      swap1\n      pop\n        /* \"#utility.yul\":14770:14965   */\n      swap3\n      swap2\n      pop\n      pop\n      jump\t// out\n        /* \"#utility.yul\":14971:15073   */\n    tag_156:\n        /* \"#utility.yul\":15013:15021   */\n      0x00\n        /* \"#utility.yul\":15060:15065   */\n      dup2\n        /* \"#utility.yul\":15057:15058   */\n      0x00\n        /* \"#utility.yul\":15053:15066   */\n      shr\n        /* \"#utility.yul\":15032:15066   */\n      swap1\n      pop\n        /* \"#utility.yul\":14971:15073   */\n      swap2\n      swap1\n      pop\n      jump\t// out\n        /* \"#utility.yul\":15079:15218   */\n    tag_157:\n        /* \"#utility.yul\":15129:15136   */\n      0x00\n        /* \"#utility.yul\":15169:15211   */\n      0xffffffffffffffffffffffffffffffffffffffff\n        /* \"#utility.yul\":15162:15167   */\n      dup3\n        /* \"#utility.yul\":15158:15212   */\n      and\n        /* \"#utility.yul\":15147:15212   */\n      swap1\n      pop\n        /* \"#utility.yul\":15079:15218   */\n      swap2\n      swap1\n      pop\n      jump\t// out\n        /* \"#utility.yul\":15224:15390   */\n    tag_158:\n        /* \"#utility.yul\":15293:15298   */\n      0x00\n        /* \"#utility.yul\":15318:15384   */\n      tag_300\n        /* \"#utility.yul\":15349:15383   */\n      tag_301\n        /* \"#utility.yul\":15372:15382   */\n      dup4\n        /* \"#utility.yul\":15349:15383   */\n      tag_156\n      jump\t// in\n    tag_301:\n        /* \"#utility.yul\":15318:15384   */\n      tag_157\n      jump\t// in\n    tag_300:\n        /* \"#utility.yul\":15309:15384   */\n      swap1\n      pop\n        /* \"#utility.yul\":15224:15390   */\n      swap2\n      swap1\n      pop\n      jump\t// out\n        /* \"#utility.yul\":15396:15540   */\n    tag_159:\n        /* \"#utility.yul\":15451:15456   */\n      0x00\n        /* \"#utility.yul\":15476:15533   */\n      tag_303\n        /* \"#utility.yul\":15527:15531   */\n      dup3\n        /* \"#utility.yul\":15521:15532   */\n      sload\n        /* \"#utility.yul\":15476:15533   */\n      tag_158\n      jump\t// in\n    tag_303:\n        /* \"#utility.yul\":15467:15533   */\n      swap1\n      pop\n        /* \"#utility.yul\":15396:15540   */\n      swap2\n      swap1\n      pop\n      jump\t// out\n        /* \"#utility.yul\":15546:15656   */\n    tag_160:\n        /* \"#utility.yul\":15613:15617   */\n      0x00\n        /* \"#utility.yul\":15645:15649   */\n      0x01\n        /* \"#utility.yul\":15640:15643   */\n      dup3\n        /* \"#utility.yul\":15636:15650   */\n      add\n        /* \"#utility.yul\":15628:15650   */\n      swap1\n      pop\n        /* \"#utility.yul\":15546:15656   */\n      swap2\n      swap1\n      pop\n      jump\t// out\n        /* \"#utility.yul\":15692:16487   */\n    tag_161:\n        /* \"#utility.yul\":15826:15829   */\n      0x00\n        /* \"#utility.yul\":15855:15906   */\n      tag_306\n        /* \"#utility.yul\":15900:15905   */\n      dup3\n        /* \"#utility.yul\":15855:15906   */\n      tag_151\n      jump\t// in\n    tag_306:\n        /* \"#utility.yul\":15922:16026   */\n      tag_307\n        /* \"#utility.yul\":16019:16025   */\n      dup2\n        /* \"#utility.yul\":16014:16017   */\n      dup6\n        /* \"#utility.yul\":15922:16026   */\n      tag_152\n      jump\t// in\n    tag_307:\n        /* \"#utility.yul\":15915:16026   */\n      swap4\n      pop\n        /* \"#utility.yul\":16050:16103   */\n      tag_308\n        /* \"#utility.yul\":16097:16102   */\n      dup4\n        /* \"#utility.yul\":16050:16103   */\n      tag_153\n      jump\t// in\n    tag_308:\n        /* \"#utility.yul\":16126:16133   */\n      dup1\n        /* \"#utility.yul\":16157:16158   */\n      0x00\n        /* \"#utility.yul\":16142:16462   */\n    tag_309:\n        /* \"#utility.yul\":16167:16173   */\n      dup4\n        /* \"#utility.yul\":16164:16165   */\n      dup2\n        /* \"#utility.yul\":16161:16174   */\n      lt\n        /* \"#utility.yul\":16142:16462   */\n      iszero\n      tag_311\n      jumpi\n        /* \"#utility.yul\":16237:16281   */\n      tag_312\n        /* \"#utility.yul\":16274:16280   */\n      dup3\n        /* \"#utility.yul\":16237:16281   */\n      tag_159\n      jump\t// in\n    tag_312:\n        /* \"#utility.yul\":16301:16372   */\n      tag_313\n        /* \"#utility.yul\":16368:16371   */\n      dup9\n        /* \"#utility.yul\":16353:16366   */\n      dup3\n        /* \"#utility.yul\":16301:16372   */\n      tag_155\n      jump\t// in\n    tag_313:\n        /* \"#utility.yul\":16294:16372   */\n      swap8\n      pop\n        /* \"#utility.yul\":16395:16452   */\n      tag_314\n        /* \"#utility.yul\":16445:16451   */\n      dup4\n        /* \"#utility.yul\":16395:16452   */\n      tag_160\n      jump\t// in\n    tag_314:\n        /* \"#utility.yul\":16385:16452   */\n      swap3\n      pop\n        /* \"#utility.yul\":16202:16462   */\n      pop\n        /* \"#utility.yul\":16189:16190   */\n      0x01\n        /* \"#utility.yul\":16186:16187   */\n      dup2\n        /* \"#utility.yul\":16182:16191   */\n      add\n        /* \"#utility.yul\":16177:16191   */\n      swap1\n      pop\n        /* \"#utility.yul\":16142:16462   */\n      jump(tag_309)\n    tag_311:\n        /* \"#utility.yul\":16146:16160   */\n      pop\n        /* \"#utility.yul\":16478:16481   */\n      dup6\n        /* \"#utility.yul\":16471:16481   */\n      swap4\n      pop\n        /* \"#utility.yul\":15831:16487   */\n      pop\n      pop\n      pop\n        /* \"#utility.yul\":15692:16487   */\n      swap3\n      swap2\n      pop\n      pop\n      jump\t// out\n        /* \"#utility.yul\":16493:17104   */\n    tag_89:\n        /* \"#utility.yul\":16708:16711   */\n      0x00\n        /* \"#utility.yul\":16723:16798   */\n      tag_316\n        /* \"#utility.yul\":16794:16797   */\n      dup3\n        /* \"#utility.yul\":16785:16791   */\n      dup7\n        /* \"#utility.yul\":16723:16798   */\n      tag_150\n      jump\t// in\n    tag_316:\n        /* \"#utility.yul\":16823:16825   */\n      0x20\n        /* \"#utility.yul\":16818:16821   */\n      dup3\n        /* \"#utility.yul\":16814:16826   */\n      add\n        /* \"#utility.yul\":16807:16826   */\n      swap2\n      pop\n        /* \"#utility.yul\":16836:16911   */\n      tag_317\n        /* \"#utility.yul\":16907:16910   */\n      dup3\n        /* \"#utility.yul\":16898:16904   */\n      dup6\n        /* \"#utility.yul\":16836:16911   */\n      tag_150\n      jump\t// in\n    tag_317:\n        /* \"#utility.yul\":16936:16938   */\n      0x20\n        /* \"#utility.yul\":16931:16934   */\n      dup3\n        /* \"#utility.yul\":16927:16939   */\n      add\n        /* \"#utility.yul\":16920:16939   */\n      swap2\n      pop\n        /* \"#utility.yul\":16956:17078   */\n      tag_318\n        /* \"#utility.yul\":17074:17077   */\n      dup3\n        /* \"#utility.yul\":17065:17071   */\n      dup5\n        /* \"#utility.yul\":16956:17078   */\n      tag_161\n      jump\t// in\n    tag_318:\n        /* \"#utility.yul\":16949:17078   */\n      swap2\n      pop\n        /* \"#utility.yul\":17095:17098   */\n      dup2\n        /* \"#utility.yul\":17088:17098   */\n      swap1\n      pop\n        /* \"#utility.yul\":16493:17104   */\n      swap5\n      swap4\n      pop\n      pop\n      pop\n      pop\n      jump\t// out\n        /* \"#utility.yul\":17110:17290   */\n    tag_162:\n        /* \"#utility.yul\":17158:17235   */\n      0x4e487b7100000000000000000000000000000000000000000000000000000000\n        /* \"#utility.yul\":17155:17156   */\n      0x00\n        /* \"#utility.yul\":17148:17236   */\n      mstore\n        /* \"#utility.yul\":17255:17259   */\n      0x12\n        /* \"#utility.yul\":17252:17253   */\n      0x04\n        /* \"#utility.yul\":17245:17260   */\n      mstore\n        /* \"#utility.yul\":17279:17283   */\n      0x24\n        /* \"#utility.yul\":17276:17277   */\n      0x00\n        /* \"#utility.yul\":17269:17284   */\n      revert\n        /* \"#utility.yul\":17296:17472   */\n    tag_91:\n        /* \"#utility.yul\":17328:17329   */\n      0x00\n        /* \"#utility.yul\":17345:17365   */\n      tag_321\n        /* \"#utility.yul\":17363:17364   */\n      dup3\n        /* \"#utility.yul\":17345:17365   */\n      tag_106\n      jump\t// in\n    tag_321:\n        /* \"#utility.yul\":17340:17365   */\n      swap2\n      pop\n        /* \"#utility.yul\":17379:17399   */\n      tag_322\n        /* \"#utility.yul\":17397:17398   */\n      dup4\n        /* \"#utility.yul\":17379:17399   */\n      tag_106\n      jump\t// in\n    tag_322:\n        /* \"#utility.yul\":17374:17399   */\n      swap3\n      pop\n        /* \"#utility.yul\":17418:17419   */\n      dup3\n        /* \"#utility.yul\":17408:17443   */\n      tag_323\n      jumpi\n        /* \"#utility.yul\":17423:17441   */\n      tag_324\n      tag_162\n      jump\t// in\n    tag_324:\n        /* \"#utility.yul\":17408:17443   */\n    tag_323:\n        /* \"#utility.yul\":17464:17465   */\n      dup3\n        /* \"#utility.yul\":17461:17462   */\n      dup3\n        /* \"#utility.yul\":17457:17466   */\n      mod\n        /* \"#utility.yul\":17452:17466   */\n      swap1\n      pop\n        /* \"#utility.yul\":17296:17472   */\n      swap3\n      swap2\n      pop\n      pop\n      jump\t// out\n        /* \"#utility.yul\":17478:17658   */\n    tag_94:\n        /* \"#utility.yul\":17526:17603   */\n      0x4e487b7100000000000000000000000000000000000000000000000000000000\n        /* \"#utility.yul\":17523:17524   */\n      0x00\n        /* \"#utility.yul\":17516:17604   */\n      mstore\n        /* \"#utility.yul\":17623:17627   */\n      0x32\n        /* \"#utility.yul\":17620:17621   */\n      0x04\n        /* \"#utility.yul\":17613:17628   */\n      mstore\n        /* \"#utility.yul\":17647:17651   */\n      0x24\n        /* \"#utility.yul\":17644:17645   */\n      0x00\n        /* \"#utility.yul\":17637:17652   */\n      revert\n\n    auxdata: 0xa26469706673582212203b37a24da3fdf090b4a65a82b644565adb5676ad7c2067966c26a66424cc70c264736f6c63430008130033\n}\n",
				"bytecode": {
					"linkReferences": {},
					"object": "60806040523480156200001157600080fd5b506040516200133b3803806200133b8339818101604052810190620000379190620000f0565b336000806101000a81548173ffffffffffffffffffffffffffffffffffffffff021916908373ffffffffffffffffffffffffffffffffffffffff160217905550600260038190555081600481905550603c8162000095919062000166565b42620000a29190620001b1565b6005819055505050620001ec565b600080fd5b6000819050919050565b620000ca81620000b5565b8114620000d657600080fd5b50565b600081519050620000ea81620000bf565b92915050565b600080604083850312156200010a5762000109620000b0565b5b60006200011a85828601620000d9565b92505060206200012d85828601620000d9565b9150509250929050565b7f4e487b7100000000000000000000000000000000000000000000000000000000600052601160045260246000fd5b60006200017382620000b5565b91506200018083620000b5565b92508282026200019081620000b5565b91508282048414831517620001aa57620001a962000137565b5b5092915050565b6000620001be82620000b5565b9150620001cb83620000b5565b9250828201905080821115620001e657620001e562000137565b5b92915050565b61113f80620001fc6000396000f3fe60806040526004361061007b5760003560e01c80635aa68ac01161004e5780635aa68ac01461012c578063766f03ea146101575780638481dbc6146101825780639b19251a1461019e5761007b565b80631209b1f61461008057806329dcb0cf146100ab578063427f822b146100d65780634b20d5d514610101575b600080fd5b34801561008c57600080fd5b506100956101db565b6040516100a29190610800565b60405180910390f35b3480156100b757600080fd5b506100c06101e1565b6040516100cd9190610800565b60405180910390f35b3480156100e257600080fd5b506100eb6101e7565b6040516100f8919061085c565b60405180910390f35b34801561010d57600080fd5b5061011661020d565b6040516101239190610800565b60405180910390f35b34801561013857600080fd5b50610141610215565b60405161014e9190610800565b60405180910390f35b34801561016357600080fd5b5061016c610222565b6040516101799190610892565b60405180910390f35b61019c60048036038101906101979190610a33565b610241565b005b3480156101aa57600080fd5b506101c560048036038101906101c09190610abb565b61054e565b6040516101d29190610892565b60405180910390f35b60035481565b60055481565b600260009054906101000a900473ffffffffffffffffffffffffffffffffffffffff1681565b600047905090565b6000600180549050905090565b60006005544211801561023c575060045460018054905010155b905090565b600554421115610286576040517f08c379a000000000000000000000000000000000000000000000000000000000815260040161027d90610b45565b60405180910390fd5b60128210156102ca576040517f08c379a00000000000000000000000000000000000000000000000000000000081526004016102c190610bd7565b60405180910390fd5b6040516020016102d990610c4e565b60405160208183030381529060405280519060200120816040516020016103009190610cc9565b6040516020818303038152906040528051906020012014610356576040517f08c379a000000000000000000000000000000000000000000000000000000000815260040161034d90610d52565b60405180910390fd5b600354341461039a576040517f08c379a000000000000000000000000000000000000000000000000000000000815260040161039190610de4565b60405180910390fd5b6001339080600181540180825580915050600190039060005260206000200160009091909190916101000a81548173ffffffffffffffffffffffffffffffffffffffff021916908373ffffffffffffffffffffffffffffffffffffffff1602179055503373ffffffffffffffffffffffffffffffffffffffff167fbec7b484b62dbd71a6a50296032b8845210f16417e4162724f5d3d7c634300d6346040516104439190610800565b60405180910390a26004546001805490501015801561046457506005544210155b156104725761047161056e565b5b6001339080600181540180825580915050600190039060005260206000200160009091909190916101000a81548173ffffffffffffffffffffffffffffffffffffffff021916908373ffffffffffffffffffffffffffffffffffffffff1602179055503373ffffffffffffffffffffffffffffffffffffffff167fbec7b484b62dbd71a6a50296032b8845210f16417e4162724f5d3d7c634300d63460405161051b9190610800565b60405180910390a26004546001805490501015801561053c57506005544210155b1561054a5761054961056e565b5b5050565b60066020528060005260406000206000915054906101000a900460ff1681565b60045460018054905010156105b8576040517f08c379a00000000000000000000000000000000000000000000000000000000081526004016105af90610e76565b60405180910390fd5b6005544210156105fd576040517f08c379a00000000000000000000000000000000000000000000000000000000081526004016105f490610ee2565b60405180910390fd5b60006001805490504244600160405160200161061b93929190611041565b6040516020818303038152906040528051906020012060001c61063e91906110a9565b905060018181548110610654576106536110da565b5b9060005260206000200160009054906101000a900473ffffffffffffffffffffffffffffffffffffffff16600260006101000a81548173ffffffffffffffffffffffffffffffffffffffff021916908373ffffffffffffffffffffffffffffffffffffffff160217905550600260009054906101000a900473ffffffffffffffffffffffffffffffffffffffff1673ffffffffffffffffffffffffffffffffffffffff167f0ddd20860ba6936b91ebccb6dd654613054b9df174e95cb32c29d1ffce3a9d18476040516107279190610800565b60405180910390a2600260009054906101000a900473ffffffffffffffffffffffffffffffffffffffff1673ffffffffffffffffffffffffffffffffffffffff166108fc479081150290604051600060405180830381858888f19350505050158015610797573d6000803e3d6000fd5b50600160006107a691906107a9565b50565b50805460008255906000526020600020908101906107c791906107ca565b50565b5b808211156107e35760008160009055506001016107cb565b5090565b6000819050919050565b6107fa816107e7565b82525050565b600060208201905061081560008301846107f1565b92915050565b600073ffffffffffffffffffffffffffffffffffffffff82169050919050565b60006108468261081b565b9050919050565b6108568161083b565b82525050565b6000602082019050610871600083018461084d565b92915050565b60008115159050919050565b61088c81610877565b82525050565b60006020820190506108a76000830184610883565b92915050565b6000604051905090565b600080fd5b600080fd5b6108ca816107e7565b81146108d557600080fd5b50565b6000813590506108e7816108c1565b92915050565b600080fd5b600080fd5b6000601f19601f8301169050919050565b7f4e487b7100000000000000000000000000000000000000000000000000000000600052604160045260246000fd5b610940826108f7565b810181811067ffffffffffffffff8211171561095f5761095e610908565b5b80604052505050565b60006109726108ad565b905061097e8282610937565b919050565b600067ffffffffffffffff82111561099e5761099d610908565b5b6109a7826108f7565b9050602081019050919050565b82818337600083830152505050565b60006109d66109d184610983565b610968565b9050828152602081018484840111156109f2576109f16108f2565b5b6109fd8482856109b4565b509392505050565b600082601f830112610a1a57610a196108ed565b5b8135610a2a8482602086016109c3565b91505092915050565b60008060408385031215610a4a57610a496108b7565b5b6000610a58858286016108d8565b925050602083013567ffffffffffffffff811115610a7957610a786108bc565b5b610a8585828601610a05565b9150509250929050565b610a988161083b565b8114610aa357600080fd5b50565b600081359050610ab581610a8f565b92915050565b600060208284031215610ad157610ad06108b7565b5b6000610adf84828501610aa6565b91505092915050565b600082825260208201905092915050565b7f4c61206c6f746572696520657374207465726d696e6565000000000000000000600082015250565b6000610b2f601783610ae8565b9150610b3a82610af9565b602082019050919050565b60006020820190508181036000830152610b5e81610b22565b9050919050565b7f566f757320646576657a2061766f6972206175206d6f696e7320313820616e7360008201527f20706f7572207061727469636970657200000000000000000000000000000000602082015250565b6000610bc1603083610ae8565b9150610bcc82610b65565b604082019050919050565b60006020820190508181036000830152610bf081610bb4565b9050919050565b600081905092915050565b7f6574686572626179000000000000000000000000000000000000000000000000600082015250565b6000610c38600883610bf7565b9150610c4382610c02565b600882019050919050565b6000610c5982610c2b565b9150819050919050565b600081519050919050565b60005b83811015610c8c578082015181840152602081019050610c71565b60008484015250505050565b6000610ca382610c63565b610cad8185610bf7565b9350610cbd818560208601610c6e565b80840191505092915050565b6000610cd58284610c98565b915081905092915050565b7f566f757320646576657a2068616269746572206120457468657242617920706f60008201527f7572207061727469636970657200000000000000000000000000000000000000602082015250565b6000610d3c602d83610ae8565b9150610d4782610ce0565b604082019050919050565b60006020820190508181036000830152610d6b81610d2f565b9050919050565b7f4c65206d6f6e74616e74206475207469636b65742065737420696e636f72726560008201527f6374000000000000000000000000000000000000000000000000000000000000602082015250565b6000610dce602283610ae8565b9150610dd982610d72565b604082019050919050565b60006020820190508181036000830152610dfd81610dc1565b9050919050565b7f4e6f6d627265206d696e696d756d206465207061727469636970616e7473206e60008201527f6f6e2061747465696e7400000000000000000000000000000000000000000000602082015250565b6000610e60602a83610ae8565b9150610e6b82610e04565b604082019050919050565b60006020820190508181036000830152610e8f81610e53565b9050919050565b7f4c652064656c6169206e276573742070617320656e636f72652065636f756c65600082015250565b6000610ecc602083610ae8565b9150610ed782610e96565b602082019050919050565b60006020820190508181036000830152610efb81610ebf565b9050919050565b6000819050919050565b610f1d610f18826107e7565b610f02565b82525050565b600081549050919050565b600081905092915050565b60008190508160005260206000209050919050565b610f578161083b565b82525050565b6000610f698383610f4e565b60208301905092915050565b60008160001c9050919050565b600073ffffffffffffffffffffffffffffffffffffffff82169050919050565b6000610fb5610fb083610f75565b610f82565b9050919050565b6000610fc88254610fa2565b9050919050565b6000600182019050919050565b6000610fe782610f23565b610ff18185610f2e565b9350610ffc83610f39565b8060005b838110156110345761101182610fbc565b61101b8882610f5d565b975061102683610fcf565b925050600181019050611000565b5085935050505092915050565b600061104d8286610f0c565b60208201915061105d8285610f0c565b60208201915061106d8284610fdc565b9150819050949350505050565b7f4e487b7100000000000000000000000000000000000000000000000000000000600052601260045260246000fd5b60006110b4826107e7565b91506110bf836107e7565b9250826110cf576110ce61107a565b5b828206905092915050565b7f4e487b7100000000000000000000000000000000000000000000000000000000600052603260045260246000fdfea26469706673582212203b37a24da3fdf090b4a65a82b644565adb5676ad7c2067966c26a66424cc70c264736f6c63430008130033",
					"opcodes": "PUSH1 0x80 PUSH1 0x40 MSTORE CALLVALUE DUP1 ISZERO PUSH3 0x11 JUMPI PUSH1 0x0 DUP1 REVERT JUMPDEST POP PUSH1 0x40 MLOAD PUSH3 0x133B CODESIZE SUB DUP1 PUSH3 0x133B DUP4 CODECOPY DUP2 DUP2 ADD PUSH1 0x40 MSTORE DUP2 ADD SWAP1 PUSH3 0x37 SWAP2 SWAP1 PUSH3 0xF0 JUMP JUMPDEST CALLER PUSH1 0x0 DUP1 PUSH2 0x100 EXP DUP2 SLOAD DUP2 PUSH20 0xFFFFFFFFFFFFFFFFFFFFFFFFFFFFFFFFFFFFFFFF MUL NOT AND SWAP1 DUP4 PUSH20 0xFFFFFFFFFFFFFFFFFFFFFFFFFFFFFFFFFFFFFFFF AND MUL OR SWAP1 SSTORE POP PUSH1 0x2 PUSH1 0x3 DUP2 SWAP1 SSTORE POP DUP2 PUSH1 0x4 DUP2 SWAP1 SSTORE POP PUSH1 0x3C DUP2 PUSH3 0x95 SWAP2 SWAP1 PUSH3 0x166 JUMP JUMPDEST TIMESTAMP PUSH3 0xA2 SWAP2 SWAP1 PUSH3 0x1B1 JUMP JUMPDEST PUSH1 0x5 DUP2 SWAP1 SSTORE POP POP POP PUSH3 0x1EC JUMP JUMPDEST PUSH1 0x0 DUP1 REVERT JUMPDEST PUSH1 0x0 DUP2 SWAP1 POP SWAP2 SWAP1 POP JUMP JUMPDEST PUSH3 0xCA DUP2 PUSH3 0xB5 JUMP JUMPDEST DUP2 EQ PUSH3 0xD6 JUMPI PUSH1 0x0 DUP1 REVERT JUMPDEST POP JUMP JUMPDEST PUSH1 0x0 DUP2 MLOAD SWAP1 POP PUSH3 0xEA DUP2 PUSH3 0xBF JUMP JUMPDEST SWAP3 SWAP2 POP POP JUMP JUMPDEST PUSH1 0x0 DUP1 PUSH1 0x40 DUP4 DUP6 SUB SLT ISZERO PUSH3 0x10A JUMPI PUSH3 0x109 PUSH3 0xB0 JUMP JUMPDEST JUMPDEST PUSH1 0x0 PUSH3 0x11A DUP6 DUP3 DUP7 ADD PUSH3 0xD9 JUMP JUMPDEST SWAP3 POP POP PUSH1 0x20 PUSH3 0x12D DUP6 DUP3 DUP7 ADD PUSH3 0xD9 JUMP JUMPDEST SWAP2 POP POP SWAP3 POP SWAP3 SWAP1 POP JUMP JUMPDEST PUSH32 0x4E487B7100000000000000000000000000000000000000000000000000000000 PUSH1 0x0 MSTORE PUSH1 0x11 PUSH1 0x4 MSTORE PUSH1 0x24 PUSH1 0x0 REVERT JUMPDEST PUSH1 0x0 PUSH3 0x173 DUP3 PUSH3 0xB5 JUMP JUMPDEST SWAP2 POP PUSH3 0x180 DUP4 PUSH3 0xB5 JUMP JUMPDEST SWAP3 POP DUP3 DUP3 MUL PUSH3 0x190 DUP2 PUSH3 0xB5 JUMP JUMPDEST SWAP2 POP DUP3 DUP3 DIV DUP5 EQ DUP4 ISZERO OR PUSH3 0x1AA JUMPI PUSH3 0x1A9 PUSH3 0x137 JUMP JUMPDEST JUMPDEST POP SWAP3 SWAP2 POP POP JUMP JUMPDEST PUSH1 0x0 PUSH3 0x1BE DUP3 PUSH3 0xB5 JUMP JUMPDEST SWAP2 POP PUSH3 0x1CB DUP4 PUSH3 0xB5 JUMP JUMPDEST SWAP3 POP DUP3 DUP3 ADD SWAP1 POP DUP1 DUP3 GT ISZERO PUSH3 0x1E6 JUMPI PUSH3 0x1E5 PUSH3 0x137 JUMP JUMPDEST JUMPDEST SWAP3 SWAP2 POP POP JUMP JUMPDEST PUSH2 0x113F DUP1 PUSH3 0x1FC PUSH1 0x0 CODECOPY PUSH1 0x0 RETURN INVALID PUSH1 0x80 PUSH1 0x40 MSTORE PUSH1 0x4 CALLDATASIZE LT PUSH2 0x7B JUMPI PUSH1 0x0 CALLDATALOAD PUSH1 0xE0 SHR DUP1 PUSH4 0x5AA68AC0 GT PUSH2 0x4E JUMPI DUP1 PUSH4 0x5AA68AC0 EQ PUSH2 0x12C JUMPI DUP1 PUSH4 0x766F03EA EQ PUSH2 0x157 JUMPI DUP1 PUSH4 0x8481DBC6 EQ PUSH2 0x182 JUMPI DUP1 PUSH4 0x9B19251A EQ PUSH2 0x19E JUMPI PUSH2 0x7B JUMP JUMPDEST DUP1 PUSH4 0x1209B1F6 EQ PUSH2 0x80 JUMPI DUP1 PUSH4 0x29DCB0CF EQ PUSH2 0xAB JUMPI DUP1 PUSH4 0x427F822B EQ PUSH2 0xD6 JUMPI DUP1 PUSH4 0x4B20D5D5 EQ PUSH2 0x101 JUMPI JUMPDEST PUSH1 0x0 DUP1 REVERT JUMPDEST CALLVALUE DUP1 ISZERO PUSH2 0x8C JUMPI PUSH1 0x0 DUP1 REVERT JUMPDEST POP PUSH2 0x95 PUSH2 0x1DB JUMP JUMPDEST PUSH1 0x40 MLOAD PUSH2 0xA2 SWAP2 SWAP1 PUSH2 0x800 JUMP JUMPDEST PUSH1 0x40 MLOAD DUP1 SWAP2 SUB SWAP1 RETURN JUMPDEST CALLVALUE DUP1 ISZERO PUSH2 0xB7 JUMPI PUSH1 0x0 DUP1 REVERT JUMPDEST POP PUSH2 0xC0 PUSH2 0x1E1 JUMP JUMPDEST PUSH1 0x40 MLOAD PUSH2 0xCD SWAP2 SWAP1 PUSH2 0x800 JUMP JUMPDEST PUSH1 0x40 MLOAD DUP1 SWAP2 SUB SWAP1 RETURN JUMPDEST CALLVALUE DUP1 ISZERO PUSH2 0xE2 JUMPI PUSH1 0x0 DUP1 REVERT JUMPDEST POP PUSH2 0xEB PUSH2 0x1E7 JUMP JUMPDEST PUSH1 0x40 MLOAD PUSH2 0xF8 SWAP2 SWAP1 PUSH2 0x85C JUMP JUMPDEST PUSH1 0x40 MLOAD DUP1 SWAP2 SUB SWAP1 RETURN JUMPDEST CALLVALUE DUP1 ISZERO PUSH2 0x10D JUMPI PUSH1 0x0 DUP1 REVERT JUMPDEST POP PUSH2 0x116 PUSH2 0x20D JUMP JUMPDEST PUSH1 0x40 MLOAD PUSH2 0x123 SWAP2 SWAP1 PUSH2 0x800 JUMP JUMPDEST PUSH1 0x40 MLOAD DUP1 SWAP2 SUB SWAP1 RETURN JUMPDEST CALLVALUE DUP1 ISZERO PUSH2 0x138 JUMPI PUSH1 0x0 DUP1 REVERT JUMPDEST POP PUSH2 0x141 PUSH2 0x215 JUMP JUMPDEST PUSH1 0x40 MLOAD PUSH2 0x14E SWAP2 SWAP1 PUSH2 0x800 JUMP JUMPDEST PUSH1 0x40 MLOAD DUP1 SWAP2 SUB SWAP1 RETURN JUMPDEST CALLVALUE DUP1 ISZERO PUSH2 0x163 JUMPI PUSH1 0x0 DUP1 REVERT JUMPDEST POP PUSH2 0x16C PUSH2 0x222 JUMP JUMPDEST PUSH1 0x40 MLOAD PUSH2 0x179 SWAP2 SWAP1 PUSH2 0x892 JUMP JUMPDEST PUSH1 0x40 MLOAD DUP1 SWAP2 SUB SWAP1 RETURN JUMPDEST PUSH2 0x19C PUSH1 0x4 DUP1 CALLDATASIZE SUB DUP2 ADD SWAP1 PUSH2 0x197 SWAP2 SWAP1 PUSH2 0xA33 JUMP JUMPDEST PUSH2 0x241 JUMP JUMPDEST STOP JUMPDEST CALLVALUE DUP1 ISZERO PUSH2 0x1AA JUMPI PUSH1 0x0 DUP1 REVERT JUMPDEST POP PUSH2 0x1C5 PUSH1 0x4 DUP1 CALLDATASIZE SUB DUP2 ADD SWAP1 PUSH2 0x1C0 SWAP2 SWAP1 PUSH2 0xABB JUMP JUMPDEST PUSH2 0x54E JUMP JUMPDEST PUSH1 0x40 MLOAD PUSH2 0x1D2 SWAP2 SWAP1 PUSH2 0x892 JUMP JUMPDEST PUSH1 0x40 MLOAD DUP1 SWAP2 SUB SWAP1 RETURN JUMPDEST PUSH1 0x3 SLOAD DUP2 JUMP JUMPDEST PUSH1 0x5 SLOAD DUP2 JUMP JUMPDEST PUSH1 0x2 PUSH1 0x0 SWAP1 SLOAD SWAP1 PUSH2 0x100 EXP SWAP1 DIV PUSH20 0xFFFFFFFFFFFFFFFFFFFFFFFFFFFFFFFFFFFFFFFF AND DUP2 JUMP JUMPDEST PUSH1 0x0 SELFBALANCE SWAP1 POP SWAP1 JUMP JUMPDEST PUSH1 0x0 PUSH1 0x1 DUP1 SLOAD SWAP1 POP SWAP1 POP SWAP1 JUMP JUMPDEST PUSH1 0x0 PUSH1 0x5 SLOAD TIMESTAMP GT DUP1 ISZERO PUSH2 0x23C JUMPI POP PUSH1 0x4 SLOAD PUSH1 0x1 DUP1 SLOAD SWAP1 POP LT ISZERO JUMPDEST SWAP1 POP SWAP1 JUMP JUMPDEST PUSH1 0x5 SLOAD TIMESTAMP GT ISZERO PUSH2 0x286 JUMPI PUSH1 0x40 MLOAD PUSH32 0x8C379A000000000000000000000000000000000000000000000000000000000 DUP2 MSTORE PUSH1 0x4 ADD PUSH2 0x27D SWAP1 PUSH2 0xB45 JUMP JUMPDEST PUSH1 0x40 MLOAD DUP1 SWAP2 SUB SWAP1 REVERT JUMPDEST PUSH1 0x12 DUP3 LT ISZERO PUSH2 0x2CA JUMPI PUSH1 0x40 MLOAD PUSH32 0x8C379A000000000000000000000000000000000000000000000000000000000 DUP2 MSTORE PUSH1 0x4 ADD PUSH2 0x2C1 SWAP1 PUSH2 0xBD7 JUMP JUMPDEST PUSH1 0x40 MLOAD DUP1 SWAP2 SUB SWAP1 REVERT JUMPDEST PUSH1 0x40 MLOAD PUSH1 0x20 ADD PUSH2 0x2D9 SWAP1 PUSH2 0xC4E JUMP JUMPDEST PUSH1 0x40 MLOAD PUSH1 0x20 DUP2 DUP4 SUB SUB DUP2 MSTORE SWAP1 PUSH1 0x40 MSTORE DUP1 MLOAD SWAP1 PUSH1 0x20 ADD KECCAK256 DUP2 PUSH1 0x40 MLOAD PUSH1 0x20 ADD PUSH2 0x300 SWAP2 SWAP1 PUSH2 0xCC9 JUMP JUMPDEST PUSH1 0x40 MLOAD PUSH1 0x20 DUP2 DUP4 SUB SUB DUP2 MSTORE SWAP1 PUSH1 0x40 MSTORE DUP1 MLOAD SWAP1 PUSH1 0x20 ADD KECCAK256 EQ PUSH2 0x356 JUMPI PUSH1 0x40 MLOAD PUSH32 0x8C379A000000000000000000000000000000000000000000000000000000000 DUP2 MSTORE PUSH1 0x4 ADD PUSH2 0x34D SWAP1 PUSH2 0xD52 JUMP JUMPDEST PUSH1 0x40 MLOAD DUP1 SWAP2 SUB SWAP1 REVERT JUMPDEST PUSH1 0x3 SLOAD CALLVALUE EQ PUSH2 0x39A JUMPI PUSH1 0x40 MLOAD PUSH32 0x8C379A000000000000000000000000000000000000000000000000000000000 DUP2 MSTORE PUSH1 0x4 ADD PUSH2 0x391 SWAP1 PUSH2 0xDE4 JUMP JUMPDEST PUSH1 0x40 MLOAD DUP1 SWAP2 SUB SWAP1 REVERT JUMPDEST PUSH1 0x1 CALLER SWAP1 DUP1 PUSH1 0x1 DUP2 SLOAD ADD DUP1 DUP3 SSTORE DUP1 SWAP2 POP POP PUSH1 0x1 SWAP1 SUB SWAP1 PUSH1 0x0 MSTORE PUSH1 0x20 PUSH1 0x0 KECCAK256 ADD PUSH1 0x0 SWAP1 SWAP2 SWAP1 SWAP2 SWAP1 SWAP2 PUSH2 0x100 EXP DUP2 SLOAD DUP2 PUSH20 0xFFFFFFFFFFFFFFFFFFFFFFFFFFFFFFFFFFFFFFFF MUL NOT AND SWAP1 DUP4 PUSH20 0xFFFFFFFFFFFFFFFFFFFFFFFFFFFFFFFFFFFFFFFF AND MUL OR SWAP1 SSTORE POP CALLER PUSH20 0xFFFFFFFFFFFFFFFFFFFFFFFFFFFFFFFFFFFFFFFF AND PUSH32 0xBEC7B484B62DBD71A6A50296032B8845210F16417E4162724F5D3D7C634300D6 CALLVALUE PUSH1 0x40 MLOAD PUSH2 0x443 SWAP2 SWAP1 PUSH2 0x800 JUMP JUMPDEST PUSH1 0x40 MLOAD DUP1 SWAP2 SUB SWAP1 LOG2 PUSH1 0x4 SLOAD PUSH1 0x1 DUP1 SLOAD SWAP1 POP LT ISZERO DUP1 ISZERO PUSH2 0x464 JUMPI POP PUSH1 0x5 SLOAD TIMESTAMP LT ISZERO JUMPDEST ISZERO PUSH2 0x472 JUMPI PUSH2 0x471 PUSH2 0x56E JUMP JUMPDEST JUMPDEST PUSH1 0x1 CALLER SWAP1 DUP1 PUSH1 0x1 DUP2 SLOAD ADD DUP1 DUP3 SSTORE DUP1 SWAP2 POP POP PUSH1 0x1 SWAP1 SUB SWAP1 PUSH1 0x0 MSTORE PUSH1 0x20 PUSH1 0x0 KECCAK256 ADD PUSH1 0x0 SWAP1 SWAP2 SWAP1 SWAP2 SWAP1 SWAP2 PUSH2 0x100 EXP DUP2 SLOAD DUP2 PUSH20 0xFFFFFFFFFFFFFFFFFFFFFFFFFFFFFFFFFFFFFFFF MUL NOT AND SWAP1 DUP4 PUSH20 0xFFFFFFFFFFFFFFFFFFFFFFFFFFFFFFFFFFFFFFFF AND MUL OR SWAP1 SSTORE POP CALLER PUSH20 0xFFFFFFFFFFFFFFFFFFFFFFFFFFFFFFFFFFFFFFFF AND PUSH32 0xBEC7B484B62DBD71A6A50296032B8845210F16417E4162724F5D3D7C634300D6 CALLVALUE PUSH1 0x40 MLOAD PUSH2 0x51B SWAP2 SWAP1 PUSH2 0x800 JUMP JUMPDEST PUSH1 0x40 MLOAD DUP1 SWAP2 SUB SWAP1 LOG2 PUSH1 0x4 SLOAD PUSH1 0x1 DUP1 SLOAD SWAP1 POP LT ISZERO DUP1 ISZERO PUSH2 0x53C JUMPI POP PUSH1 0x5 SLOAD TIMESTAMP LT ISZERO JUMPDEST ISZERO PUSH2 0x54A JUMPI PUSH2 0x549 PUSH2 0x56E JUMP JUMPDEST JUMPDEST POP POP JUMP JUMPDEST PUSH1 0x6 PUSH1 0x20 MSTORE DUP1 PUSH1 0x0 MSTORE PUSH1 0x40 PUSH1 0x0 KECCAK256 PUSH1 0x0 SWAP2 POP SLOAD SWAP1 PUSH2 0x100 EXP SWAP1 DIV PUSH1 0xFF AND DUP2 JUMP JUMPDEST PUSH1 0x4 SLOAD PUSH1 0x1 DUP1 SLOAD SWAP1 POP LT ISZERO PUSH2 0x5B8 JUMPI PUSH1 0x40 MLOAD PUSH32 0x8C379A000000000000000000000000000000000000000000000000000000000 DUP2 MSTORE PUSH1 0x4 ADD PUSH2 0x5AF SWAP1 PUSH2 0xE76 JUMP JUMPDEST PUSH1 0x40 MLOAD DUP1 SWAP2 SUB SWAP1 REVERT JUMPDEST PUSH1 0x5 SLOAD TIMESTAMP LT ISZERO PUSH2 0x5FD JUMPI PUSH1 0x40 MLOAD PUSH32 0x8C379A000000000000000000000000000000000000000000000000000000000 DUP2 MSTORE PUSH1 0x4 ADD PUSH2 0x5F4 SWAP1 PUSH2 0xEE2 JUMP JUMPDEST PUSH1 0x40 MLOAD DUP1 SWAP2 SUB SWAP1 REVERT JUMPDEST PUSH1 0x0 PUSH1 0x1 DUP1 SLOAD SWAP1 POP TIMESTAMP PREVRANDAO PUSH1 0x1 PUSH1 0x40 MLOAD PUSH1 0x20 ADD PUSH2 0x61B SWAP4 SWAP3 SWAP2 SWAP1 PUSH2 0x1041 JUMP JUMPDEST PUSH1 0x40 MLOAD PUSH1 0x20 DUP2 DUP4 SUB SUB DUP2 MSTORE SWAP1 PUSH1 0x40 MSTORE DUP1 MLOAD SWAP1 PUSH1 0x20 ADD KECCAK256 PUSH1 0x0 SHR PUSH2 0x63E SWAP2 SWAP1 PUSH2 0x10A9 JUMP JUMPDEST SWAP1 POP PUSH1 0x1 DUP2 DUP2 SLOAD DUP2 LT PUSH2 0x654 JUMPI PUSH2 0x653 PUSH2 0x10DA JUMP JUMPDEST JUMPDEST SWAP1 PUSH1 0x0 MSTORE PUSH1 0x20 PUSH1 0x0 KECCAK256 ADD PUSH1 0x0 SWAP1 SLOAD SWAP1 PUSH2 0x100 EXP SWAP1 DIV PUSH20 0xFFFFFFFFFFFFFFFFFFFFFFFFFFFFFFFFFFFFFFFF AND PUSH1 0x2 PUSH1 0x0 PUSH2 0x100 EXP DUP2 SLOAD DUP2 PUSH20 0xFFFFFFFFFFFFFFFFFFFFFFFFFFFFFFFFFFFFFFFF MUL NOT AND SWAP1 DUP4 PUSH20 0xFFFFFFFFFFFFFFFFFFFFFFFFFFFFFFFFFFFFFFFF AND MUL OR SWAP1 SSTORE POP PUSH1 0x2 PUSH1 0x0 SWAP1 SLOAD SWAP1 PUSH2 0x100 EXP SWAP1 DIV PUSH20 0xFFFFFFFFFFFFFFFFFFFFFFFFFFFFFFFFFFFFFFFF AND PUSH20 0xFFFFFFFFFFFFFFFFFFFFFFFFFFFFFFFFFFFFFFFF AND PUSH32 0xDDD20860BA6936B91EBCCB6DD654613054B9DF174E95CB32C29D1FFCE3A9D18 SELFBALANCE PUSH1 0x40 MLOAD PUSH2 0x727 SWAP2 SWAP1 PUSH2 0x800 JUMP JUMPDEST PUSH1 0x40 MLOAD DUP1 SWAP2 SUB SWAP1 LOG2 PUSH1 0x2 PUSH1 0x0 SWAP1 SLOAD SWAP1 PUSH2 0x100 EXP SWAP1 DIV PUSH20 0xFFFFFFFFFFFFFFFFFFFFFFFFFFFFFFFFFFFFFFFF AND PUSH20 0xFFFFFFFFFFFFFFFFFFFFFFFFFFFFFFFFFFFFFFFF AND PUSH2 0x8FC SELFBALANCE SWAP1 DUP2 ISZERO MUL SWAP1 PUSH1 0x40 MLOAD PUSH1 0x0 PUSH1 0x40 MLOAD DUP1 DUP4 SUB DUP2 DUP6 DUP9 DUP9 CALL SWAP4 POP POP POP POP ISZERO DUP1 ISZERO PUSH2 0x797 JUMPI RETURNDATASIZE PUSH1 0x0 DUP1 RETURNDATACOPY RETURNDATASIZE PUSH1 0x0 REVERT JUMPDEST POP PUSH1 0x1 PUSH1 0x0 PUSH2 0x7A6 SWAP2 SWAP1 PUSH2 0x7A9 JUMP JUMPDEST POP JUMP JUMPDEST POP DUP1 SLOAD PUSH1 0x0 DUP3 SSTORE SWAP1 PUSH1 0x0 MSTORE PUSH1 0x20 PUSH1 0x0 KECCAK256 SWAP1 DUP2 ADD SWAP1 PUSH2 0x7C7 SWAP2 SWAP1 PUSH2 0x7CA JUMP JUMPDEST POP JUMP JUMPDEST JUMPDEST DUP1 DUP3 GT ISZERO PUSH2 0x7E3 JUMPI PUSH1 0x0 DUP2 PUSH1 0x0 SWAP1 SSTORE POP PUSH1 0x1 ADD PUSH2 0x7CB JUMP JUMPDEST POP SWAP1 JUMP JUMPDEST PUSH1 0x0 DUP2 SWAP1 POP SWAP2 SWAP1 POP JUMP JUMPDEST PUSH2 0x7FA DUP2 PUSH2 0x7E7 JUMP JUMPDEST DUP3 MSTORE POP POP JUMP JUMPDEST PUSH1 0x0 PUSH1 0x20 DUP3 ADD SWAP1 POP PUSH2 0x815 PUSH1 0x0 DUP4 ADD DUP5 PUSH2 0x7F1 JUMP JUMPDEST SWAP3 SWAP2 POP POP JUMP JUMPDEST PUSH1 0x0 PUSH20 0xFFFFFFFFFFFFFFFFFFFFFFFFFFFFFFFFFFFFFFFF DUP3 AND SWAP1 POP SWAP2 SWAP1 POP JUMP JUMPDEST PUSH1 0x0 PUSH2 0x846 DUP3 PUSH2 0x81B JUMP JUMPDEST SWAP1 POP SWAP2 SWAP1 POP JUMP JUMPDEST PUSH2 0x856 DUP2 PUSH2 0x83B JUMP JUMPDEST DUP3 MSTORE POP POP JUMP JUMPDEST PUSH1 0x0 PUSH1 0x20 DUP3 ADD SWAP1 POP PUSH2 0x871 PUSH1 0x0 DUP4 ADD DUP5 PUSH2 0x84D JUMP JUMPDEST SWAP3 SWAP2 POP POP JUMP JUMPDEST PUSH1 0x0 DUP2 ISZERO ISZERO SWAP1 POP SWAP2 SWAP1 POP JUMP JUMPDEST PUSH2 0x88C DUP2 PUSH2 0x877 JUMP JUMPDEST DUP3 MSTORE POP POP JUMP JUMPDEST PUSH1 0x0 PUSH1 0x20 DUP3 ADD SWAP1 POP PUSH2 0x8A7 PUSH1 0x0 DUP4 ADD DUP5 PUSH2 0x883 JUMP JUMPDEST SWAP3 SWAP2 POP POP JUMP JUMPDEST PUSH1 0x0 PUSH1 0x40 MLOAD SWAP1 POP SWAP1 JUMP JUMPDEST PUSH1 0x0 DUP1 REVERT JUMPDEST PUSH1 0x0 DUP1 REVERT JUMPDEST PUSH2 0x8CA DUP2 PUSH2 0x7E7 JUMP JUMPDEST DUP2 EQ PUSH2 0x8D5 JUMPI PUSH1 0x0 DUP1 REVERT JUMPDEST POP JUMP JUMPDEST PUSH1 0x0 DUP2 CALLDATALOAD SWAP1 POP PUSH2 0x8E7 DUP2 PUSH2 0x8C1 JUMP JUMPDEST SWAP3 SWAP2 POP POP JUMP JUMPDEST PUSH1 0x0 DUP1 REVERT JUMPDEST PUSH1 0x0 DUP1 REVERT JUMPDEST PUSH1 0x0 PUSH1 0x1F NOT PUSH1 0x1F DUP4 ADD AND SWAP1 POP SWAP2 SWAP1 POP JUMP JUMPDEST PUSH32 0x4E487B7100000000000000000000000000000000000000000000000000000000 PUSH1 0x0 MSTORE PUSH1 0x41 PUSH1 0x4 MSTORE PUSH1 0x24 PUSH1 0x0 REVERT JUMPDEST PUSH2 0x940 DUP3 PUSH2 0x8F7 JUMP JUMPDEST DUP2 ADD DUP2 DUP2 LT PUSH8 0xFFFFFFFFFFFFFFFF DUP3 GT OR ISZERO PUSH2 0x95F JUMPI PUSH2 0x95E PUSH2 0x908 JUMP JUMPDEST JUMPDEST DUP1 PUSH1 0x40 MSTORE POP POP POP JUMP JUMPDEST PUSH1 0x0 PUSH2 0x972 PUSH2 0x8AD JUMP JUMPDEST SWAP1 POP PUSH2 0x97E DUP3 DUP3 PUSH2 0x937 JUMP JUMPDEST SWAP2 SWAP1 POP JUMP JUMPDEST PUSH1 0x0 PUSH8 0xFFFFFFFFFFFFFFFF DUP3 GT ISZERO PUSH2 0x99E JUMPI PUSH2 0x99D PUSH2 0x908 JUMP JUMPDEST JUMPDEST PUSH2 0x9A7 DUP3 PUSH2 0x8F7 JUMP JUMPDEST SWAP1 POP PUSH1 0x20 DUP2 ADD SWAP1 POP SWAP2 SWAP1 POP JUMP JUMPDEST DUP3 DUP2 DUP4 CALLDATACOPY PUSH1 0x0 DUP4 DUP4 ADD MSTORE POP POP POP JUMP JUMPDEST PUSH1 0x0 PUSH2 0x9D6 PUSH2 0x9D1 DUP5 PUSH2 0x983 JUMP JUMPDEST PUSH2 0x968 JUMP JUMPDEST SWAP1 POP DUP3 DUP2 MSTORE PUSH1 0x20 DUP2 ADD DUP5 DUP5 DUP5 ADD GT ISZERO PUSH2 0x9F2 JUMPI PUSH2 0x9F1 PUSH2 0x8F2 JUMP JUMPDEST JUMPDEST PUSH2 0x9FD DUP5 DUP3 DUP6 PUSH2 0x9B4 JUMP JUMPDEST POP SWAP4 SWAP3 POP POP POP JUMP JUMPDEST PUSH1 0x0 DUP3 PUSH1 0x1F DUP4 ADD SLT PUSH2 0xA1A JUMPI PUSH2 0xA19 PUSH2 0x8ED JUMP JUMPDEST JUMPDEST DUP2 CALLDATALOAD PUSH2 0xA2A DUP5 DUP3 PUSH1 0x20 DUP7 ADD PUSH2 0x9C3 JUMP JUMPDEST SWAP2 POP POP SWAP3 SWAP2 POP POP JUMP JUMPDEST PUSH1 0x0 DUP1 PUSH1 0x40 DUP4 DUP6 SUB SLT ISZERO PUSH2 0xA4A JUMPI PUSH2 0xA49 PUSH2 0x8B7 JUMP JUMPDEST JUMPDEST PUSH1 0x0 PUSH2 0xA58 DUP6 DUP3 DUP7 ADD PUSH2 0x8D8 JUMP JUMPDEST SWAP3 POP POP PUSH1 0x20 DUP4 ADD CALLDATALOAD PUSH8 0xFFFFFFFFFFFFFFFF DUP2 GT ISZERO PUSH2 0xA79 JUMPI PUSH2 0xA78 PUSH2 0x8BC JUMP JUMPDEST JUMPDEST PUSH2 0xA85 DUP6 DUP3 DUP7 ADD PUSH2 0xA05 JUMP JUMPDEST SWAP2 POP POP SWAP3 POP SWAP3 SWAP1 POP JUMP JUMPDEST PUSH2 0xA98 DUP2 PUSH2 0x83B JUMP JUMPDEST DUP2 EQ PUSH2 0xAA3 JUMPI PUSH1 0x0 DUP1 REVERT JUMPDEST POP JUMP JUMPDEST PUSH1 0x0 DUP2 CALLDATALOAD SWAP1 POP PUSH2 0xAB5 DUP2 PUSH2 0xA8F JUMP JUMPDEST SWAP3 SWAP2 POP POP JUMP JUMPDEST PUSH1 0x0 PUSH1 0x20 DUP3 DUP5 SUB SLT ISZERO PUSH2 0xAD1 JUMPI PUSH2 0xAD0 PUSH2 0x8B7 JUMP JUMPDEST JUMPDEST PUSH1 0x0 PUSH2 0xADF DUP5 DUP3 DUP6 ADD PUSH2 0xAA6 JUMP JUMPDEST SWAP2 POP POP SWAP3 SWAP2 POP POP JUMP JUMPDEST PUSH1 0x0 DUP3 DUP3 MSTORE PUSH1 0x20 DUP3 ADD SWAP1 POP SWAP3 SWAP2 POP POP JUMP JUMPDEST PUSH32 0x4C61206C6F746572696520657374207465726D696E6565000000000000000000 PUSH1 0x0 DUP3 ADD MSTORE POP JUMP JUMPDEST PUSH1 0x0 PUSH2 0xB2F PUSH1 0x17 DUP4 PUSH2 0xAE8 JUMP JUMPDEST SWAP2 POP PUSH2 0xB3A DUP3 PUSH2 0xAF9 JUMP JUMPDEST PUSH1 0x20 DUP3 ADD SWAP1 POP SWAP2 SWAP1 POP JUMP JUMPDEST PUSH1 0x0 PUSH1 0x20 DUP3 ADD SWAP1 POP DUP2 DUP2 SUB PUSH1 0x0 DUP4 ADD MSTORE PUSH2 0xB5E DUP2 PUSH2 0xB22 JUMP JUMPDEST SWAP1 POP SWAP2 SWAP1 POP JUMP JUMPDEST PUSH32 0x566F757320646576657A2061766F6972206175206D6F696E7320313820616E73 PUSH1 0x0 DUP3 ADD MSTORE PUSH32 0x20706F7572207061727469636970657200000000000000000000000000000000 PUSH1 0x20 DUP3 ADD MSTORE POP JUMP JUMPDEST PUSH1 0x0 PUSH2 0xBC1 PUSH1 0x30 DUP4 PUSH2 0xAE8 JUMP JUMPDEST SWAP2 POP PUSH2 0xBCC DUP3 PUSH2 0xB65 JUMP JUMPDEST PUSH1 0x40 DUP3 ADD SWAP1 POP SWAP2 SWAP1 POP JUMP JUMPDEST PUSH1 0x0 PUSH1 0x20 DUP3 ADD SWAP1 POP DUP2 DUP2 SUB PUSH1 0x0 DUP4 ADD MSTORE PUSH2 0xBF0 DUP2 PUSH2 0xBB4 JUMP JUMPDEST SWAP1 POP SWAP2 SWAP1 POP JUMP JUMPDEST PUSH1 0x0 DUP2 SWAP1 POP SWAP3 SWAP2 POP POP JUMP JUMPDEST PUSH32 0x6574686572626179000000000000000000000000000000000000000000000000 PUSH1 0x0 DUP3 ADD MSTORE POP JUMP JUMPDEST PUSH1 0x0 PUSH2 0xC38 PUSH1 0x8 DUP4 PUSH2 0xBF7 JUMP JUMPDEST SWAP2 POP PUSH2 0xC43 DUP3 PUSH2 0xC02 JUMP JUMPDEST PUSH1 0x8 DUP3 ADD SWAP1 POP SWAP2 SWAP1 POP JUMP JUMPDEST PUSH1 0x0 PUSH2 0xC59 DUP3 PUSH2 0xC2B JUMP JUMPDEST SWAP2 POP DUP2 SWAP1 POP SWAP2 SWAP1 POP JUMP JUMPDEST PUSH1 0x0 DUP2 MLOAD SWAP1 POP SWAP2 SWAP1 POP JUMP JUMPDEST PUSH1 0x0 JUMPDEST DUP4 DUP2 LT ISZERO PUSH2 0xC8C JUMPI DUP1 DUP3 ADD MLOAD DUP2 DUP5 ADD MSTORE PUSH1 0x20 DUP2 ADD SWAP1 POP PUSH2 0xC71 JUMP JUMPDEST PUSH1 0x0 DUP5 DUP5 ADD MSTORE POP POP POP POP JUMP JUMPDEST PUSH1 0x0 PUSH2 0xCA3 DUP3 PUSH2 0xC63 JUMP JUMPDEST PUSH2 0xCAD DUP2 DUP6 PUSH2 0xBF7 JUMP JUMPDEST SWAP4 POP PUSH2 0xCBD DUP2 DUP6 PUSH1 0x20 DUP7 ADD PUSH2 0xC6E JUMP JUMPDEST DUP1 DUP5 ADD SWAP2 POP POP SWAP3 SWAP2 POP POP JUMP JUMPDEST PUSH1 0x0 PUSH2 0xCD5 DUP3 DUP5 PUSH2 0xC98 JUMP JUMPDEST SWAP2 POP DUP2 SWAP1 POP SWAP3 SWAP2 POP POP JUMP JUMPDEST PUSH32 0x566F757320646576657A2068616269746572206120457468657242617920706F PUSH1 0x0 DUP3 ADD MSTORE PUSH32 0x7572207061727469636970657200000000000000000000000000000000000000 PUSH1 0x20 DUP3 ADD MSTORE POP JUMP JUMPDEST PUSH1 0x0 PUSH2 0xD3C PUSH1 0x2D DUP4 PUSH2 0xAE8 JUMP JUMPDEST SWAP2 POP PUSH2 0xD47 DUP3 PUSH2 0xCE0 JUMP JUMPDEST PUSH1 0x40 DUP3 ADD SWAP1 POP SWAP2 SWAP1 POP JUMP JUMPDEST PUSH1 0x0 PUSH1 0x20 DUP3 ADD SWAP1 POP DUP2 DUP2 SUB PUSH1 0x0 DUP4 ADD MSTORE PUSH2 0xD6B DUP2 PUSH2 0xD2F JUMP JUMPDEST SWAP1 POP SWAP2 SWAP1 POP JUMP JUMPDEST PUSH32 0x4C65206D6F6E74616E74206475207469636B65742065737420696E636F727265 PUSH1 0x0 DUP3 ADD MSTORE PUSH32 0x6374000000000000000000000000000000000000000000000000000000000000 PUSH1 0x20 DUP3 ADD MSTORE POP JUMP JUMPDEST PUSH1 0x0 PUSH2 0xDCE PUSH1 0x22 DUP4 PUSH2 0xAE8 JUMP JUMPDEST SWAP2 POP PUSH2 0xDD9 DUP3 PUSH2 0xD72 JUMP JUMPDEST PUSH1 0x40 DUP3 ADD SWAP1 POP SWAP2 SWAP1 POP JUMP JUMPDEST PUSH1 0x0 PUSH1 0x20 DUP3 ADD SWAP1 POP DUP2 DUP2 SUB PUSH1 0x0 DUP4 ADD MSTORE PUSH2 0xDFD DUP2 PUSH2 0xDC1 JUMP JUMPDEST SWAP1 POP SWAP2 SWAP1 POP JUMP JUMPDEST PUSH32 0x4E6F6D627265206D696E696D756D206465207061727469636970616E7473206E PUSH1 0x0 DUP3 ADD MSTORE PUSH32 0x6F6E2061747465696E7400000000000000000000000000000000000000000000 PUSH1 0x20 DUP3 ADD MSTORE POP JUMP JUMPDEST PUSH1 0x0 PUSH2 0xE60 PUSH1 0x2A DUP4 PUSH2 0xAE8 JUMP JUMPDEST SWAP2 POP PUSH2 0xE6B DUP3 PUSH2 0xE04 JUMP JUMPDEST PUSH1 0x40 DUP3 ADD SWAP1 POP SWAP2 SWAP1 POP JUMP JUMPDEST PUSH1 0x0 PUSH1 0x20 DUP3 ADD SWAP1 POP DUP2 DUP2 SUB PUSH1 0x0 DUP4 ADD MSTORE PUSH2 0xE8F DUP2 PUSH2 0xE53 JUMP JUMPDEST SWAP1 POP SWAP2 SWAP1 POP JUMP JUMPDEST PUSH32 0x4C652064656C6169206E276573742070617320656E636F72652065636F756C65 PUSH1 0x0 DUP3 ADD MSTORE POP JUMP JUMPDEST PUSH1 0x0 PUSH2 0xECC PUSH1 0x20 DUP4 PUSH2 0xAE8 JUMP JUMPDEST SWAP2 POP PUSH2 0xED7 DUP3 PUSH2 0xE96 JUMP JUMPDEST PUSH1 0x20 DUP3 ADD SWAP1 POP SWAP2 SWAP1 POP JUMP JUMPDEST PUSH1 0x0 PUSH1 0x20 DUP3 ADD SWAP1 POP DUP2 DUP2 SUB PUSH1 0x0 DUP4 ADD MSTORE PUSH2 0xEFB DUP2 PUSH2 0xEBF JUMP JUMPDEST SWAP1 POP SWAP2 SWAP1 POP JUMP JUMPDEST PUSH1 0x0 DUP2 SWAP1 POP SWAP2 SWAP1 POP JUMP JUMPDEST PUSH2 0xF1D PUSH2 0xF18 DUP3 PUSH2 0x7E7 JUMP JUMPDEST PUSH2 0xF02 JUMP JUMPDEST DUP3 MSTORE POP POP JUMP JUMPDEST PUSH1 0x0 DUP2 SLOAD SWAP1 POP SWAP2 SWAP1 POP JUMP JUMPDEST PUSH1 0x0 DUP2 SWAP1 POP SWAP3 SWAP2 POP POP JUMP JUMPDEST PUSH1 0x0 DUP2 SWAP1 POP DUP2 PUSH1 0x0 MSTORE PUSH1 0x20 PUSH1 0x0 KECCAK256 SWAP1 POP SWAP2 SWAP1 POP JUMP JUMPDEST PUSH2 0xF57 DUP2 PUSH2 0x83B JUMP JUMPDEST DUP3 MSTORE POP POP JUMP JUMPDEST PUSH1 0x0 PUSH2 0xF69 DUP4 DUP4 PUSH2 0xF4E JUMP JUMPDEST PUSH1 0x20 DUP4 ADD SWAP1 POP SWAP3 SWAP2 POP POP JUMP JUMPDEST PUSH1 0x0 DUP2 PUSH1 0x0 SHR SWAP1 POP SWAP2 SWAP1 POP JUMP JUMPDEST PUSH1 0x0 PUSH20 0xFFFFFFFFFFFFFFFFFFFFFFFFFFFFFFFFFFFFFFFF DUP3 AND SWAP1 POP SWAP2 SWAP1 POP JUMP JUMPDEST PUSH1 0x0 PUSH2 0xFB5 PUSH2 0xFB0 DUP4 PUSH2 0xF75 JUMP JUMPDEST PUSH2 0xF82 JUMP JUMPDEST SWAP1 POP SWAP2 SWAP1 POP JUMP JUMPDEST PUSH1 0x0 PUSH2 0xFC8 DUP3 SLOAD PUSH2 0xFA2 JUMP JUMPDEST SWAP1 POP SWAP2 SWAP1 POP JUMP JUMPDEST PUSH1 0x0 PUSH1 0x1 DUP3 ADD SWAP1 POP SWAP2 SWAP1 POP JUMP JUMPDEST PUSH1 0x0 PUSH2 0xFE7 DUP3 PUSH2 0xF23 JUMP JUMPDEST PUSH2 0xFF1 DUP2 DUP6 PUSH2 0xF2E JUMP JUMPDEST SWAP4 POP PUSH2 0xFFC DUP4 PUSH2 0xF39 JUMP JUMPDEST DUP1 PUSH1 0x0 JUMPDEST DUP4 DUP2 LT ISZERO PUSH2 0x1034 JUMPI PUSH2 0x1011 DUP3 PUSH2 0xFBC JUMP JUMPDEST PUSH2 0x101B DUP9 DUP3 PUSH2 0xF5D JUMP JUMPDEST SWAP8 POP PUSH2 0x1026 DUP4 PUSH2 0xFCF JUMP JUMPDEST SWAP3 POP POP PUSH1 0x1 DUP2 ADD SWAP1 POP PUSH2 0x1000 JUMP JUMPDEST POP DUP6 SWAP4 POP POP POP POP SWAP3 SWAP2 POP POP JUMP JUMPDEST PUSH1 0x0 PUSH2 0x104D DUP3 DUP7 PUSH2 0xF0C JUMP JUMPDEST PUSH1 0x20 DUP3 ADD SWAP2 POP PUSH2 0x105D DUP3 DUP6 PUSH2 0xF0C JUMP JUMPDEST PUSH1 0x20 DUP3 ADD SWAP2 POP PUSH2 0x106D DUP3 DUP5 PUSH2 0xFDC JUMP JUMPDEST SWAP2 POP DUP2 SWAP1 POP SWAP5 SWAP4 POP POP POP POP JUMP JUMPDEST PUSH32 0x4E487B7100000000000000000000000000000000000000000000000000000000 PUSH1 0x0 MSTORE PUSH1 0x12 PUSH1 0x4 MSTORE PUSH1 0x24 PUSH1 0x0 REVERT JUMPDEST PUSH1 0x0 PUSH2 0x10B4 DUP3 PUSH2 0x7E7 JUMP JUMPDEST SWAP2 POP PUSH2 0x10BF DUP4 PUSH2 0x7E7 JUMP JUMPDEST SWAP3 POP DUP3 PUSH2 0x10CF JUMPI PUSH2 0x10CE PUSH2 0x107A JUMP JUMPDEST JUMPDEST DUP3 DUP3 MOD SWAP1 POP SWAP3 SWAP2 POP POP JUMP JUMPDEST PUSH32 0x4E487B7100000000000000000000000000000000000000000000000000000000 PUSH1 0x0 MSTORE PUSH1 0x32 PUSH1 0x4 MSTORE PUSH1 0x24 PUSH1 0x0 REVERT INVALID LOG2 PUSH5 0x6970667358 0x22 SLT KECCAK256 EXTCODESIZE CALLDATACOPY LOG2 0x4D LOG3 REVERT CREATE SWAP1 0xB4 0xA6 GAS DUP3 0xB6 PREVRANDAO JUMP GAS 0xDB JUMP PUSH23 0xAD7C2067966C26A66424CC70C264736F6C634300081300 CALLER "
				},
				"gasEstimates": {
					"creation": {
						"codeDepositCost": "883000",
						"executionCost": "infinite",
						"totalCost": "infinite"
					},
					"external": {
						"acheterTicket(uint256,string)": "infinite",
						"deadline()": "2452",
						"gagnant()": "2559",
						"getCagnotte()": "406",
						"getParticipants()": "2445",
						"isLoterieTerminee()": "6712",
						"ticketPrice()": "2430",
						"whitelist(address)": "2911"
					},
					"internal": {
						"tirageAuSort()": "infinite"
					}
				},
				"methodIdentifiers": {
					"acheterTicket(uint256,string)": "8481dbc6",
					"deadline()": "29dcb0cf",
					"gagnant()": "427f822b",
					"getCagnotte()": "4b20d5d5",
					"getParticipants()": "5aa68ac0",
					"isLoterieTerminee()": "766f03ea",
					"ticketPrice()": "1209b1f6",
					"whitelist(address)": "9b19251a"
				}
			},
			"storageLayout": {
				"storage": [
					{
						"astId": 3,
						"contract": "Loterie.sol:BlockLuckyLoterie",
						"label": "manager",
						"offset": 0,
						"slot": "0",
						"type": "t_address"
					},
					{
						"astId": 6,
						"contract": "Loterie.sol:BlockLuckyLoterie",
						"label": "participants",
						"offset": 0,
						"slot": "1",
						"type": "t_array(t_address)dyn_storage"
					},
					{
						"astId": 8,
						"contract": "Loterie.sol:BlockLuckyLoterie",
						"label": "gagnant",
						"offset": 0,
						"slot": "2",
						"type": "t_address"
					},
					{
						"astId": 10,
						"contract": "Loterie.sol:BlockLuckyLoterie",
						"label": "ticketPrice",
						"offset": 0,
						"slot": "3",
						"type": "t_uint256"
					},
					{
						"astId": 12,
						"contract": "Loterie.sol:BlockLuckyLoterie",
						"label": "minParticipants",
						"offset": 0,
						"slot": "4",
						"type": "t_uint256"
					},
					{
						"astId": 14,
						"contract": "Loterie.sol:BlockLuckyLoterie",
						"label": "deadline",
						"offset": 0,
						"slot": "5",
						"type": "t_uint256"
					},
					{
						"astId": 18,
						"contract": "Loterie.sol:BlockLuckyLoterie",
						"label": "whitelist",
						"offset": 0,
						"slot": "6",
						"type": "t_mapping(t_address,t_bool)"
					}
				],
				"types": {
					"t_address": {
						"encoding": "inplace",
						"label": "address",
						"numberOfBytes": "20"
					},
					"t_array(t_address)dyn_storage": {
						"base": "t_address",
						"encoding": "dynamic_array",
						"label": "address[]",
						"numberOfBytes": "32"
					},
					"t_bool": {
						"encoding": "inplace",
						"label": "bool",
						"numberOfBytes": "1"
					},
					"t_mapping(t_address,t_bool)": {
						"encoding": "mapping",
						"key": "t_address",
						"label": "mapping(address => bool)",
						"numberOfBytes": "32",
						"value": "t_bool"
					},
					"t_uint256": {
						"encoding": "inplace",
						"label": "uint256",
						"numberOfBytes": "32"
					}
				}
			},
			"userdoc": {
				"kind": "user",
				"methods": {},
				"version": 1
			}
		}
	}
}