{
	"Loterie3.sol": {
		"BlockLuckyLoterie": {
			"abi": [
				{
					"inputs": [
						{
							"internalType": "uint256",
							"name": "_minParticipants",
							"type": "uint256"
						},
						{
							"internalType": "uint256",
							"name": "_durationInDays",
							"type": "uint256"
						},
						{
							"internalType": "address",
							"name": "_charityAddress",
							"type": "address"
						}
					],
					"stateMutability": "nonpayable",
					"type": "constructor"
				},
				{
					"anonymous": false,
					"inputs": [
						{
							"indexed": true,
							"internalType": "address",
							"name": "gagnant",
							"type": "address"
						},
						{
							"indexed": false,
							"internalType": "uint256",
							"name": "montantGagnant",
							"type": "uint256"
						},
						{
							"indexed": false,
							"internalType": "uint256",
							"name": "montantCharite",
							"type": "uint256"
						}
					],
					"name": "GagnantChoisi",
					"type": "event"
				},
				{
					"anonymous": false,
					"inputs": [
						{
							"indexed": true,
							"internalType": "address",
							"name": "participant",
							"type": "address"
						},
						{
							"indexed": false,
							"internalType": "uint256",
							"name": "montant",
							"type": "uint256"
						}
					],
					"name": "TicketAchat",
					"type": "event"
				},
				{
					"anonymous": false,
					"inputs": [
						{
							"indexed": false,
							"internalType": "address",
							"name": "gagnant",
							"type": "address"
						},
						{
							"indexed": false,
							"internalType": "uint256",
							"name": "indexGagnant",
							"type": "uint256"
						}
					],
					"name": "TirageEffectue",
					"type": "event"
				},
				{
					"inputs": [
						{
							"internalType": "uint256",
							"name": "age",
							"type": "uint256"
						},
						{
							"internalType": "string",
							"name": "adresse",
							"type": "string"
						}
					],
					"name": "acheterTicket",
					"outputs": [],
					"stateMutability": "payable",
					"type": "function"
				},
				{
					"inputs": [],
					"name": "deadline",
					"outputs": [
						{
							"internalType": "uint256",
							"name": "",
							"type": "uint256"
						}
					],
					"stateMutability": "view",
					"type": "function"
				},
				{
					"inputs": [],
					"name": "gagnant",
					"outputs": [
						{
							"internalType": "address",
							"name": "",
							"type": "address"
						}
					],
					"stateMutability": "view",
					"type": "function"
				},
				{
					"inputs": [],
					"name": "getCagnotte",
					"outputs": [
						{
							"internalType": "uint256",
							"name": "",
							"type": "uint256"
						}
					],
					"stateMutability": "view",
					"type": "function"
				},
				{
					"inputs": [],
					"name": "getParticipants",
					"outputs": [
						{
							"internalType": "uint256",
							"name": "",
							"type": "uint256"
						}
					],
					"stateMutability": "view",
					"type": "function"
				},
				{
					"inputs": [],
					"name": "isLoterieTerminee",
					"outputs": [
						{
							"internalType": "bool",
							"name": "",
							"type": "bool"
						}
					],
					"stateMutability": "view",
					"type": "function"
				},
				{
					"inputs": [],
					"name": "prixticket",
					"outputs": [
						{
							"internalType": "uint256",
							"name": "",
							"type": "uint256"
						}
					],
					"stateMutability": "view",
					"type": "function"
				},
				{
					"inputs": [],
					"name": "terminerLoterie",
					"outputs": [],
					"stateMutability": "nonpayable",
					"type": "function"
				},
				{
					"inputs": [],
					"name": "tirerGagnant",
					"outputs": [],
					"stateMutability": "nonpayable",
					"type": "function"
				}
			],
			"devdoc": {
				"kind": "dev",
				"methods": {},
				"version": 1
			},
			"evm": {
				"assembly": "    /* \"Loterie3.sol\":66:4010  contract BlockLuckyLoterie {\r... */\n  mstore(0x40, 0x80)\n    /* \"Loterie3.sol\":229:231  90 */\n  0x5a\n    /* \"Loterie3.sol\":196:231  uint private gagnantPercentage = 90 */\n  0x03\n  sstore\n    /* \"Loterie3.sol\":271:273  10 */\n  0x0a\n    /* \"Loterie3.sol\":238:273  uint private charityPercentage = 10 */\n  0x04\n  sstore\n    /* \"Loterie3.sol\":925:1291  constructor(uint _minParticipants, uint _durationInDays, address _charityAddress) {\r... */\n  callvalue\n  dup1\n  iszero\n  tag_1\n  jumpi\n  0x00\n  dup1\n  revert\ntag_1:\n  pop\n  mload(0x40)\n  sub(codesize, bytecodeSize)\n  dup1\n  bytecodeSize\n  dup4\n  codecopy\n  dup2\n  dup2\n  add\n  0x40\n  mstore\n  dup2\n  add\n  swap1\n  tag_2\n  swap2\n  swap1\n  tag_3\n  jump\t// in\ntag_2:\n    /* \"Loterie3.sol\":1028:1038  msg.sender */\n  caller\n    /* \"Loterie3.sol\":1018:1025  manager */\n  0x00\n  dup1\n    /* \"Loterie3.sol\":1018:1038  manager = msg.sender */\n  0x0100\n  exp\n  dup2\n  sload\n  dup2\n  0xffffffffffffffffffffffffffffffffffffffff\n  mul\n  not\n  and\n  swap1\n  dup4\n  0xffffffffffffffffffffffffffffffffffffffff\n  and\n  mul\n  or\n  swap1\n  sstore\n  pop\n    /* \"Loterie3.sol\":1063:1073  2 * 10**15 */\n  0x071afd498d0000\n    /* \"Loterie3.sol\":1049:1060  ticketPrice */\n  0x06\n    /* \"Loterie3.sol\":1049:1073  ticketPrice = 2 * 10**15 */\n  dup2\n  swap1\n  sstore\n  pop\n    /* \"Loterie3.sol\":1123:1129  10**15 */\n  0x038d7ea4c68000\n    /* \"Loterie3.sol\":1109:1120  ticketPrice */\n  sload(0x06)\n    /* \"Loterie3.sol\":1109:1129  ticketPrice / 10**15 */\n  tag_6\n  swap2\n  swap1\n  tag_7\n  jump\t// in\ntag_6:\n    /* \"Loterie3.sol\":1096:1106  prixticket */\n  0x07\n    /* \"Loterie3.sol\":1096:1129  prixticket = ticketPrice / 10**15 */\n  dup2\n  swap1\n  sstore\n  pop\n    /* \"Loterie3.sol\":1158:1174  _minParticipants */\n  dup3\n    /* \"Loterie3.sol\":1140:1155  minParticipants */\n  0x08\n    /* \"Loterie3.sol\":1140:1174  minParticipants = _minParticipants */\n  dup2\n  swap1\n  sstore\n  pop\n    /* \"Loterie3.sol\":1233:1239  1 days */\n  0x015180\n    /* \"Loterie3.sol\":1215:1230  _durationInDays */\n  dup3\n    /* \"Loterie3.sol\":1215:1239  _durationInDays * 1 days */\n  tag_8\n  swap2\n  swap1\n  tag_9\n  jump\t// in\ntag_8:\n    /* \"Loterie3.sol\":1196:1211  block.timestamp */\n  timestamp\n    /* \"Loterie3.sol\":1196:1240  block.timestamp + (_durationInDays * 1 days) */\n  tag_10\n  swap2\n  swap1\n  tag_11\n  jump\t// in\ntag_10:\n    /* \"Loterie3.sol\":1185:1193  deadline */\n  0x09\n    /* \"Loterie3.sol\":1185:1240  deadline = block.timestamp + (_durationInDays * 1 days) */\n  dup2\n  swap1\n  sstore\n  pop\n    /* \"Loterie3.sol\":1268:1283  _charityAddress */\n  dup1\n    /* \"Loterie3.sol\":1251:1265  charityAddress */\n  0x02\n  0x00\n    /* \"Loterie3.sol\":1251:1283  charityAddress = _charityAddress */\n  0x0100\n  exp\n  dup2\n  sload\n  dup2\n  0xffffffffffffffffffffffffffffffffffffffff\n  mul\n  not\n  and\n  swap1\n  dup4\n  0xffffffffffffffffffffffffffffffffffffffff\n  and\n  mul\n  or\n  swap1\n  sstore\n  pop\n    /* \"Loterie3.sol\":925:1291  constructor(uint _minParticipants, uint _durationInDays, address _charityAddress) {\r... */\n  pop\n  pop\n  pop\n    /* \"Loterie3.sol\":66:4010  contract BlockLuckyLoterie {\r... */\n  jump(tag_12)\n    /* \"#utility.yul\":7:150   */\ntag_14:\n  0x00\n    /* \"#utility.yul\":95:101   */\n  dup2\n    /* \"#utility.yul\":89:102   */\n  mload\n    /* \"#utility.yul\":80:102   */\n  swap1\n  pop\n    /* \"#utility.yul\":111:144   */\n  tag_16\n    /* \"#utility.yul\":138:143   */\n  dup2\n    /* \"#utility.yul\":111:144   */\n  tag_17\n  jump\t// in\ntag_16:\n    /* \"#utility.yul\":70:150   */\n  swap3\n  swap2\n  pop\n  pop\n  jump\t// out\n    /* \"#utility.yul\":156:299   */\ntag_18:\n  0x00\n    /* \"#utility.yul\":244:250   */\n  dup2\n    /* \"#utility.yul\":238:251   */\n  mload\n    /* \"#utility.yul\":229:251   */\n  swap1\n  pop\n    /* \"#utility.yul\":260:293   */\n  tag_20\n    /* \"#utility.yul\":287:292   */\n  dup2\n    /* \"#utility.yul\":260:293   */\n  tag_21\n  jump\t// in\ntag_20:\n    /* \"#utility.yul\":219:299   */\n  swap3\n  swap2\n  pop\n  pop\n  jump\t// out\n    /* \"#utility.yul\":305:901   */\ntag_3:\n  0x00\n  dup1\n  0x00\n    /* \"#utility.yul\":458:460   */\n  0x60\n    /* \"#utility.yul\":446:455   */\n  dup5\n    /* \"#utility.yul\":437:444   */\n  dup7\n    /* \"#utility.yul\":433:456   */\n  sub\n    /* \"#utility.yul\":429:461   */\n  slt\n    /* \"#utility.yul\":426:428   */\n  iszero\n  tag_23\n  jumpi\n    /* \"#utility.yul\":474:475   */\n  0x00\n    /* \"#utility.yul\":471:472   */\n  dup1\n    /* \"#utility.yul\":464:476   */\n  revert\n    /* \"#utility.yul\":426:428   */\ntag_23:\n    /* \"#utility.yul\":517:518   */\n  0x00\n    /* \"#utility.yul\":542:606   */\n  tag_24\n    /* \"#utility.yul\":598:605   */\n  dup7\n    /* \"#utility.yul\":589:595   */\n  dup3\n    /* \"#utility.yul\":578:587   */\n  dup8\n    /* \"#utility.yul\":574:596   */\n  add\n    /* \"#utility.yul\":542:606   */\n  tag_18\n  jump\t// in\ntag_24:\n    /* \"#utility.yul\":532:606   */\n  swap4\n  pop\n    /* \"#utility.yul\":488:616   */\n  pop\n    /* \"#utility.yul\":655:657   */\n  0x20\n    /* \"#utility.yul\":681:745   */\n  tag_25\n    /* \"#utility.yul\":737:744   */\n  dup7\n    /* \"#utility.yul\":728:734   */\n  dup3\n    /* \"#utility.yul\":717:726   */\n  dup8\n    /* \"#utility.yul\":713:735   */\n  add\n    /* \"#utility.yul\":681:745   */\n  tag_18\n  jump\t// in\ntag_25:\n    /* \"#utility.yul\":671:745   */\n  swap3\n  pop\n    /* \"#utility.yul\":626:755   */\n  pop\n    /* \"#utility.yul\":794:796   */\n  0x40\n    /* \"#utility.yul\":820:884   */\n  tag_26\n    /* \"#utility.yul\":876:883   */\n  dup7\n    /* \"#utility.yul\":867:873   */\n  dup3\n    /* \"#utility.yul\":856:865   */\n  dup8\n    /* \"#utility.yul\":852:874   */\n  add\n    /* \"#utility.yul\":820:884   */\n  tag_14\n  jump\t// in\ntag_26:\n    /* \"#utility.yul\":810:884   */\n  swap2\n  pop\n    /* \"#utility.yul\":765:894   */\n  pop\n    /* \"#utility.yul\":416:901   */\n  swap3\n  pop\n  swap3\n  pop\n  swap3\n  jump\t// out\n    /* \"#utility.yul\":907:1212   */\ntag_11:\n  0x00\n    /* \"#utility.yul\":966:986   */\n  tag_28\n    /* \"#utility.yul\":984:985   */\n  dup3\n    /* \"#utility.yul\":966:986   */\n  tag_29\n  jump\t// in\ntag_28:\n    /* \"#utility.yul\":961:986   */\n  swap2\n  pop\n    /* \"#utility.yul\":1000:1020   */\n  tag_30\n    /* \"#utility.yul\":1018:1019   */\n  dup4\n    /* \"#utility.yul\":1000:1020   */\n  tag_29\n  jump\t// in\ntag_30:\n    /* \"#utility.yul\":995:1020   */\n  swap3\n  pop\n    /* \"#utility.yul\":1154:1155   */\n  dup3\n    /* \"#utility.yul\":1086:1152   */\n  0xffffffffffffffffffffffffffffffffffffffffffffffffffffffffffffffff\n    /* \"#utility.yul\":1082:1156   */\n  sub\n    /* \"#utility.yul\":1079:1080   */\n  dup3\n    /* \"#utility.yul\":1076:1157   */\n  gt\n    /* \"#utility.yul\":1073:1075   */\n  iszero\n  tag_31\n  jumpi\n    /* \"#utility.yul\":1160:1178   */\n  tag_32\n  tag_33\n  jump\t// in\ntag_32:\n    /* \"#utility.yul\":1073:1075   */\ntag_31:\n    /* \"#utility.yul\":1204:1205   */\n  dup3\n    /* \"#utility.yul\":1201:1202   */\n  dup3\n    /* \"#utility.yul\":1197:1206   */\n  add\n    /* \"#utility.yul\":1190:1206   */\n  swap1\n  pop\n    /* \"#utility.yul\":951:1212   */\n  swap3\n  swap2\n  pop\n  pop\n  jump\t// out\n    /* \"#utility.yul\":1218:1403   */\ntag_7:\n  0x00\n    /* \"#utility.yul\":1275:1295   */\n  tag_35\n    /* \"#utility.yul\":1293:1294   */\n  dup3\n    /* \"#utility.yul\":1275:1295   */\n  tag_29\n  jump\t// in\ntag_35:\n    /* \"#utility.yul\":1270:1295   */\n  swap2\n  pop\n    /* \"#utility.yul\":1309:1329   */\n  tag_36\n    /* \"#utility.yul\":1327:1328   */\n  dup4\n    /* \"#utility.yul\":1309:1329   */\n  tag_29\n  jump\t// in\ntag_36:\n    /* \"#utility.yul\":1304:1329   */\n  swap3\n  pop\n    /* \"#utility.yul\":1348:1349   */\n  dup3\n    /* \"#utility.yul\":1338:1340   */\n  tag_37\n  jumpi\n    /* \"#utility.yul\":1353:1371   */\n  tag_38\n  tag_39\n  jump\t// in\ntag_38:\n    /* \"#utility.yul\":1338:1340   */\ntag_37:\n    /* \"#utility.yul\":1395:1396   */\n  dup3\n    /* \"#utility.yul\":1392:1393   */\n  dup3\n    /* \"#utility.yul\":1388:1397   */\n  div\n    /* \"#utility.yul\":1383:1397   */\n  swap1\n  pop\n    /* \"#utility.yul\":1260:1403   */\n  swap3\n  swap2\n  pop\n  pop\n  jump\t// out\n    /* \"#utility.yul\":1409:1757   */\ntag_9:\n  0x00\n    /* \"#utility.yul\":1472:1492   */\n  tag_41\n    /* \"#utility.yul\":1490:1491   */\n  dup3\n    /* \"#utility.yul\":1472:1492   */\n  tag_29\n  jump\t// in\ntag_41:\n    /* \"#utility.yul\":1467:1492   */\n  swap2\n  pop\n    /* \"#utility.yul\":1506:1526   */\n  tag_42\n    /* \"#utility.yul\":1524:1525   */\n  dup4\n    /* \"#utility.yul\":1506:1526   */\n  tag_29\n  jump\t// in\ntag_42:\n    /* \"#utility.yul\":1501:1526   */\n  swap3\n  pop\n    /* \"#utility.yul\":1694:1695   */\n  dup2\n    /* \"#utility.yul\":1626:1692   */\n  0xffffffffffffffffffffffffffffffffffffffffffffffffffffffffffffffff\n    /* \"#utility.yul\":1622:1696   */\n  div\n    /* \"#utility.yul\":1619:1620   */\n  dup4\n    /* \"#utility.yul\":1616:1697   */\n  gt\n    /* \"#utility.yul\":1611:1612   */\n  dup3\n    /* \"#utility.yul\":1604:1613   */\n  iszero\n    /* \"#utility.yul\":1597:1614   */\n  iszero\n    /* \"#utility.yul\":1593:1698   */\n  and\n    /* \"#utility.yul\":1590:1592   */\n  iszero\n  tag_43\n  jumpi\n    /* \"#utility.yul\":1701:1719   */\n  tag_44\n  tag_33\n  jump\t// in\ntag_44:\n    /* \"#utility.yul\":1590:1592   */\ntag_43:\n    /* \"#utility.yul\":1749:1750   */\n  dup3\n    /* \"#utility.yul\":1746:1747   */\n  dup3\n    /* \"#utility.yul\":1742:1751   */\n  mul\n    /* \"#utility.yul\":1731:1751   */\n  swap1\n  pop\n    /* \"#utility.yul\":1457:1757   */\n  swap3\n  swap2\n  pop\n  pop\n  jump\t// out\n    /* \"#utility.yul\":1763:1859   */\ntag_45:\n  0x00\n    /* \"#utility.yul\":1829:1853   */\n  tag_47\n    /* \"#utility.yul\":1847:1852   */\n  dup3\n    /* \"#utility.yul\":1829:1853   */\n  tag_48\n  jump\t// in\ntag_47:\n    /* \"#utility.yul\":1818:1853   */\n  swap1\n  pop\n    /* \"#utility.yul\":1808:1859   */\n  swap2\n  swap1\n  pop\n  jump\t// out\n    /* \"#utility.yul\":1865:1991   */\ntag_48:\n  0x00\n    /* \"#utility.yul\":1942:1984   */\n  0xffffffffffffffffffffffffffffffffffffffff\n    /* \"#utility.yul\":1935:1940   */\n  dup3\n    /* \"#utility.yul\":1931:1985   */\n  and\n    /* \"#utility.yul\":1920:1985   */\n  swap1\n  pop\n    /* \"#utility.yul\":1910:1991   */\n  swap2\n  swap1\n  pop\n  jump\t// out\n    /* \"#utility.yul\":1997:2074   */\ntag_29:\n  0x00\n    /* \"#utility.yul\":2063:2068   */\n  dup2\n    /* \"#utility.yul\":2052:2068   */\n  swap1\n  pop\n    /* \"#utility.yul\":2042:2074   */\n  swap2\n  swap1\n  pop\n  jump\t// out\n    /* \"#utility.yul\":2080:2260   */\ntag_33:\n    /* \"#utility.yul\":2128:2205   */\n  0x4e487b7100000000000000000000000000000000000000000000000000000000\n    /* \"#utility.yul\":2125:2126   */\n  0x00\n    /* \"#utility.yul\":2118:2206   */\n  mstore\n    /* \"#utility.yul\":2225:2229   */\n  0x11\n    /* \"#utility.yul\":2222:2223   */\n  0x04\n    /* \"#utility.yul\":2215:2230   */\n  mstore\n    /* \"#utility.yul\":2249:2253   */\n  0x24\n    /* \"#utility.yul\":2246:2247   */\n  0x00\n    /* \"#utility.yul\":2239:2254   */\n  revert\n    /* \"#utility.yul\":2266:2446   */\ntag_39:\n    /* \"#utility.yul\":2314:2391   */\n  0x4e487b7100000000000000000000000000000000000000000000000000000000\n    /* \"#utility.yul\":2311:2312   */\n  0x00\n    /* \"#utility.yul\":2304:2392   */\n  mstore\n    /* \"#utility.yul\":2411:2415   */\n  0x12\n    /* \"#utility.yul\":2408:2409   */\n  0x04\n    /* \"#utility.yul\":2401:2416   */\n  mstore\n    /* \"#utility.yul\":2435:2439   */\n  0x24\n    /* \"#utility.yul\":2432:2433   */\n  0x00\n    /* \"#utility.yul\":2425:2440   */\n  revert\n    /* \"#utility.yul\":2452:2574   */\ntag_17:\n    /* \"#utility.yul\":2525:2549   */\n  tag_54\n    /* \"#utility.yul\":2543:2548   */\n  dup2\n    /* \"#utility.yul\":2525:2549   */\n  tag_45\n  jump\t// in\ntag_54:\n    /* \"#utility.yul\":2518:2523   */\n  dup2\n    /* \"#utility.yul\":2515:2550   */\n  eq\n    /* \"#utility.yul\":2505:2507   */\n  tag_55\n  jumpi\n    /* \"#utility.yul\":2564:2565   */\n  0x00\n    /* \"#utility.yul\":2561:2562   */\n  dup1\n    /* \"#utility.yul\":2554:2566   */\n  revert\n    /* \"#utility.yul\":2505:2507   */\ntag_55:\n    /* \"#utility.yul\":2495:2574   */\n  pop\n  jump\t// out\n    /* \"#utility.yul\":2580:2702   */\ntag_21:\n    /* \"#utility.yul\":2653:2677   */\n  tag_57\n    /* \"#utility.yul\":2671:2676   */\n  dup2\n    /* \"#utility.yul\":2653:2677   */\n  tag_29\n  jump\t// in\ntag_57:\n    /* \"#utility.yul\":2646:2651   */\n  dup2\n    /* \"#utility.yul\":2643:2678   */\n  eq\n    /* \"#utility.yul\":2633:2635   */\n  tag_58\n  jumpi\n    /* \"#utility.yul\":2692:2693   */\n  0x00\n    /* \"#utility.yul\":2689:2690   */\n  dup1\n    /* \"#utility.yul\":2682:2694   */\n  revert\n    /* \"#utility.yul\":2633:2635   */\ntag_58:\n    /* \"#utility.yul\":2623:2702   */\n  pop\n  jump\t// out\n    /* \"Loterie3.sol\":66:4010  contract BlockLuckyLoterie {\r... */\ntag_12:\n  dataSize(sub_0)\n  dup1\n  dataOffset(sub_0)\n  0x00\n  codecopy\n  0x00\n  return\nstop\n\nsub_0: assembly {\n        /* \"Loterie3.sol\":66:4010  contract BlockLuckyLoterie {\r... */\n      mstore(0x40, 0x80)\n      jumpi(tag_1, lt(calldatasize, 0x04))\n      shr(0xe0, calldataload(0x00))\n      dup1\n      0x766f03ea\n      gt\n      tag_11\n      jumpi\n      dup1\n      0x766f03ea\n      eq\n      tag_6\n      jumpi\n      dup1\n      0x8481dbc6\n      eq\n      tag_7\n      jumpi\n      dup1\n      0x989101c1\n      eq\n      tag_8\n      jumpi\n      dup1\n      0x98d0c1ed\n      eq\n      tag_9\n      jumpi\n      dup1\n      0xa7a0fbc6\n      eq\n      tag_10\n      jumpi\n      jump(tag_1)\n    tag_11:\n      dup1\n      0x29dcb0cf\n      eq\n      tag_2\n      jumpi\n      dup1\n      0x427f822b\n      eq\n      tag_3\n      jumpi\n      dup1\n      0x4b20d5d5\n      eq\n      tag_4\n      jumpi\n      dup1\n      0x5aa68ac0\n      eq\n      tag_5\n      jumpi\n    tag_1:\n      0x00\n      dup1\n      revert\n        /* \"Loterie3.sol\":404:424  uint public deadline */\n    tag_2:\n      callvalue\n      dup1\n      iszero\n      tag_12\n      jumpi\n      0x00\n      dup1\n      revert\n    tag_12:\n      pop\n      tag_13\n      tag_14\n      jump\t// in\n    tag_13:\n      mload(0x40)\n      tag_15\n      swap2\n      swap1\n      tag_16\n      jump\t// in\n    tag_15:\n      mload(0x40)\n      dup1\n      swap2\n      sub\n      swap1\n      return\n        /* \"Loterie3.sol\":280:302  address public gagnant */\n    tag_3:\n      callvalue\n      dup1\n      iszero\n      tag_17\n      jumpi\n      0x00\n      dup1\n      revert\n    tag_17:\n      pop\n      tag_18\n      tag_19\n      jump\t// in\n    tag_18:\n      mload(0x40)\n      tag_20\n      swap2\n      swap1\n      tag_21\n      jump\t// in\n    tag_20:\n      mload(0x40)\n      dup1\n      swap2\n      sub\n      swap1\n      return\n        /* \"Loterie3.sol\":3460:3559  function getCagnotte() external view returns (uint) {\r... */\n    tag_4:\n      callvalue\n      dup1\n      iszero\n      tag_22\n      jumpi\n      0x00\n      dup1\n      revert\n    tag_22:\n      pop\n      tag_23\n      tag_24\n      jump\t// in\n    tag_23:\n      mload(0x40)\n      tag_25\n      swap2\n      swap1\n      tag_16\n      jump\t// in\n    tag_25:\n      mload(0x40)\n      dup1\n      swap2\n      sub\n      swap1\n      return\n        /* \"Loterie3.sol\":3567:3668  function getParticipants() external view returns (uint) {\r... */\n    tag_5:\n      callvalue\n      dup1\n      iszero\n      tag_26\n      jumpi\n      0x00\n      dup1\n      revert\n    tag_26:\n      pop\n      tag_27\n      tag_28\n      jump\t// in\n    tag_27:\n      mload(0x40)\n      tag_29\n      swap2\n      swap1\n      tag_16\n      jump\t// in\n    tag_29:\n      mload(0x40)\n      dup1\n      swap2\n      sub\n      swap1\n      return\n        /* \"Loterie3.sol\":3676:3828  function isLoterieTerminee() external view returns (bool) {\r... */\n    tag_6:\n      callvalue\n      dup1\n      iszero\n      tag_30\n      jumpi\n      0x00\n      dup1\n      revert\n    tag_30:\n      pop\n      tag_31\n      tag_32\n      jump\t// in\n    tag_31:\n      mload(0x40)\n      tag_33\n      swap2\n      swap1\n      tag_34\n      jump\t// in\n    tag_33:\n      mload(0x40)\n      dup1\n      swap2\n      sub\n      swap1\n      return\n        /* \"Loterie3.sol\":1299:2006  function acheterTicket(uint age, string memory adresse) public payable lotteryActive {\r... */\n    tag_7:\n      tag_35\n      0x04\n      dup1\n      calldatasize\n      sub\n      dup2\n      add\n      swap1\n      tag_36\n      swap2\n      swap1\n      tag_37\n      jump\t// in\n    tag_36:\n      tag_38\n      jump\t// in\n    tag_35:\n      stop\n        /* \"Loterie3.sol\":3374:3452  function tirerGagnant() external onlyManager {\r... */\n    tag_8:\n      callvalue\n      dup1\n      iszero\n      tag_39\n      jumpi\n      0x00\n      dup1\n      revert\n    tag_39:\n      pop\n      tag_40\n      tag_41\n      jump\t// in\n    tag_40:\n      stop\n        /* \"Loterie3.sol\":340:362  uint public prixticket */\n    tag_9:\n      callvalue\n      dup1\n      iszero\n      tag_42\n      jumpi\n      0x00\n      dup1\n      revert\n    tag_42:\n      pop\n      tag_43\n      tag_44\n      jump\t// in\n    tag_43:\n      mload(0x40)\n      tag_45\n      swap2\n      swap1\n      tag_16\n      jump\t// in\n    tag_45:\n      mload(0x40)\n      dup1\n      swap2\n      sub\n      swap1\n      return\n        /* \"Loterie3.sol\":3836:4007  function terminerLoterie() external onlyManager {\r... */\n    tag_10:\n      callvalue\n      dup1\n      iszero\n      tag_46\n      jumpi\n      0x00\n      dup1\n      revert\n    tag_46:\n      pop\n      tag_47\n      tag_48\n      jump\t// in\n    tag_47:\n      stop\n        /* \"Loterie3.sol\":404:424  uint public deadline */\n    tag_14:\n      sload(0x09)\n      dup2\n      jump\t// out\n        /* \"Loterie3.sol\":280:302  address public gagnant */\n    tag_19:\n      0x05\n      0x00\n      swap1\n      sload\n      swap1\n      0x0100\n      exp\n      swap1\n      div\n      0xffffffffffffffffffffffffffffffffffffffff\n      and\n      dup2\n      jump\t// out\n        /* \"Loterie3.sol\":3460:3559  function getCagnotte() external view returns (uint) {\r... */\n    tag_24:\n        /* \"Loterie3.sol\":3506:3510  uint */\n      0x00\n        /* \"Loterie3.sol\":3530:3551  address(this).balance */\n      selfbalance\n        /* \"Loterie3.sol\":3523:3551  return address(this).balance */\n      swap1\n      pop\n        /* \"Loterie3.sol\":3460:3559  function getCagnotte() external view returns (uint) {\r... */\n      swap1\n      jump\t// out\n        /* \"Loterie3.sol\":3567:3668  function getParticipants() external view returns (uint) {\r... */\n    tag_28:\n        /* \"Loterie3.sol\":3617:3621  uint */\n      0x00\n        /* \"Loterie3.sol\":3641:3653  participants */\n      0x01\n        /* \"Loterie3.sol\":3641:3660  participants.length */\n      dup1\n      sload\n      swap1\n      pop\n        /* \"Loterie3.sol\":3634:3660  return participants.length */\n      swap1\n      pop\n        /* \"Loterie3.sol\":3567:3668  function getParticipants() external view returns (uint) {\r... */\n      swap1\n      jump\t// out\n        /* \"Loterie3.sol\":3676:3828  function isLoterieTerminee() external view returns (bool) {\r... */\n    tag_32:\n        /* \"Loterie3.sol\":3728:3732  bool */\n      0x00\n        /* \"Loterie3.sol\":3770:3778  deadline */\n      sload(0x09)\n        /* \"Loterie3.sol\":3752:3767  block.timestamp */\n      timestamp\n        /* \"Loterie3.sol\":3752:3778  block.timestamp > deadline */\n      gt\n        /* \"Loterie3.sol\":3752:3820  block.timestamp > deadline && participants.length >= minParticipants */\n      dup1\n      iszero\n      tag_52\n      jumpi\n      pop\n        /* \"Loterie3.sol\":3805:3820  minParticipants */\n      sload(0x08)\n        /* \"Loterie3.sol\":3782:3794  participants */\n      0x01\n        /* \"Loterie3.sol\":3782:3801  participants.length */\n      dup1\n      sload\n      swap1\n      pop\n        /* \"Loterie3.sol\":3782:3820  participants.length >= minParticipants */\n      lt\n      iszero\n        /* \"Loterie3.sol\":3752:3820  block.timestamp > deadline && participants.length >= minParticipants */\n    tag_52:\n        /* \"Loterie3.sol\":3745:3820  return block.timestamp > deadline && participants.length >= minParticipants */\n      swap1\n      pop\n        /* \"Loterie3.sol\":3676:3828  function isLoterieTerminee() external view returns (bool) {\r... */\n      swap1\n      jump\t// out\n        /* \"Loterie3.sol\":1299:2006  function acheterTicket(uint age, string memory adresse) public payable lotteryActive {\r... */\n    tag_38:\n        /* \"Loterie3.sol\":861:869  deadline */\n      sload(0x09)\n        /* \"Loterie3.sol\":842:857  block.timestamp */\n      timestamp\n        /* \"Loterie3.sol\":842:869  block.timestamp <= deadline */\n      gt\n      iszero\n        /* \"Loterie3.sol\":834:897  require(block.timestamp <= deadline, \"La loterie est terminee\") */\n      tag_54\n      jumpi\n      mload(0x40)\n      0x08c379a000000000000000000000000000000000000000000000000000000000\n      dup2\n      mstore\n      0x04\n      add\n      tag_55\n      swap1\n      tag_56\n      jump\t// in\n    tag_55:\n      mload(0x40)\n      dup1\n      swap2\n      sub\n      swap1\n      revert\n    tag_54:\n        /* \"Loterie3.sol\":1410:1412  18 */\n      0x12\n        /* \"Loterie3.sol\":1403:1406  age */\n      dup3\n        /* \"Loterie3.sol\":1403:1412  age >= 18 */\n      lt\n      iszero\n        /* \"Loterie3.sol\":1395:1465  require(age >= 18, \"Vous devez avoir au moins 18 ans pour participer\") */\n      tag_58\n      jumpi\n      mload(0x40)\n      0x08c379a000000000000000000000000000000000000000000000000000000000\n      dup2\n      mstore\n      0x04\n      add\n      tag_59\n      swap1\n      tag_60\n      jump\t// in\n    tag_59:\n      mload(0x40)\n      dup1\n      swap2\n      sub\n      swap1\n      revert\n    tag_58:\n        /* \"Loterie3.sol\":1534:1562  abi.encodePacked(\"etherbay\") */\n      add(0x20, mload(0x40))\n      tag_61\n      swap1\n      tag_62\n      jump\t// in\n    tag_61:\n      mload(0x40)\n      0x20\n      dup2\n      dup4\n      sub\n      sub\n      dup2\n      mstore\n      swap1\n      0x40\n      mstore\n        /* \"Loterie3.sol\":1524:1563  keccak256(abi.encodePacked(\"etherbay\")) */\n      dup1\n      mload\n      swap1\n      0x20\n      add\n      keccak256\n        /* \"Loterie3.sol\":1511:1518  adresse */\n      dup2\n        /* \"Loterie3.sol\":1494:1519  abi.encodePacked(adresse) */\n      add(0x20, mload(0x40))\n      tag_63\n      swap2\n      swap1\n      tag_64\n      jump\t// in\n    tag_63:\n      mload(0x40)\n      0x20\n      dup2\n      dup4\n      sub\n      sub\n      dup2\n      mstore\n      swap1\n      0x40\n      mstore\n        /* \"Loterie3.sol\":1484:1520  keccak256(abi.encodePacked(adresse)) */\n      dup1\n      mload\n      swap1\n      0x20\n      add\n      keccak256\n        /* \"Loterie3.sol\":1484:1563  keccak256(abi.encodePacked(adresse)) == keccak256(abi.encodePacked(\"etherbay\")) */\n      eq\n        /* \"Loterie3.sol\":1476:1613  require(keccak256(abi.encodePacked(adresse)) == keccak256(abi.encodePacked(\"etherbay\")), \"Vous devez habiter a EtherBay pour participer\") */\n      tag_65\n      jumpi\n      mload(0x40)\n      0x08c379a000000000000000000000000000000000000000000000000000000000\n      dup2\n      mstore\n      0x04\n      add\n      tag_66\n      swap1\n      tag_67\n      jump\t// in\n    tag_66:\n      mload(0x40)\n      dup1\n      swap2\n      sub\n      swap1\n      revert\n    tag_65:\n        /* \"Loterie3.sol\":1645:1656  ticketPrice */\n      sload(0x06)\n        /* \"Loterie3.sol\":1632:1641  msg.value */\n      callvalue\n        /* \"Loterie3.sol\":1632:1656  msg.value == ticketPrice */\n      eq\n        /* \"Loterie3.sol\":1624:1714  require(msg.value == ticketPrice, \"Le montant du ticket doit etre exactement de 2 finney\") */\n      tag_68\n      jumpi\n      mload(0x40)\n      0x08c379a000000000000000000000000000000000000000000000000000000000\n      dup2\n      mstore\n      0x04\n      add\n      tag_69\n      swap1\n      tag_70\n      jump\t// in\n    tag_69:\n      mload(0x40)\n      dup1\n      swap2\n      sub\n      swap1\n      revert\n    tag_68:\n        /* \"Loterie3.sol\":1727:1739  participants */\n      0x01\n        /* \"Loterie3.sol\":1745:1755  msg.sender */\n      caller\n        /* \"Loterie3.sol\":1727:1756  participants.push(msg.sender) */\n      swap1\n      dup1\n      0x01\n      dup2\n      sload\n      add\n      dup1\n      dup3\n      sstore\n      dup1\n      swap2\n      pop\n      pop\n      0x01\n      swap1\n      sub\n      swap1\n      0x00\n      mstore\n      keccak256(0x00, 0x20)\n      add\n      0x00\n      swap1\n      swap2\n      swap1\n      swap2\n      swap1\n      swap2\n      0x0100\n      exp\n      dup2\n      sload\n      dup2\n      0xffffffffffffffffffffffffffffffffffffffff\n      mul\n      not\n      and\n      swap1\n      dup4\n      0xffffffffffffffffffffffffffffffffffffffff\n      and\n      mul\n      or\n      swap1\n      sstore\n      pop\n        /* \"Loterie3.sol\":1784:1794  msg.sender */\n      caller\n        /* \"Loterie3.sol\":1772:1806  TicketAchat(msg.sender, msg.value) */\n      0xffffffffffffffffffffffffffffffffffffffff\n      and\n      0xbec7b484b62dbd71a6a50296032b8845210f16417e4162724f5d3d7c634300d6\n        /* \"Loterie3.sol\":1796:1805  msg.value */\n      callvalue\n        /* \"Loterie3.sol\":1772:1806  TicketAchat(msg.sender, msg.value) */\n      mload(0x40)\n      tag_72\n      swap2\n      swap1\n      tag_16\n      jump\t// in\n    tag_72:\n      mload(0x40)\n      dup1\n      swap2\n      sub\n      swap1\n      log2\n        /* \"Loterie3.sol\":1910:1925  minParticipants */\n      sload(0x08)\n        /* \"Loterie3.sol\":1887:1899  participants */\n      0x01\n        /* \"Loterie3.sol\":1887:1906  participants.length */\n      dup1\n      sload\n      swap1\n      pop\n        /* \"Loterie3.sol\":1887:1925  participants.length >= minParticipants */\n      lt\n      iszero\n        /* \"Loterie3.sol\":1887:1956  participants.length >= minParticipants && block.timestamp >= deadline */\n      dup1\n      iszero\n      tag_73\n      jumpi\n      pop\n        /* \"Loterie3.sol\":1948:1956  deadline */\n      sload(0x09)\n        /* \"Loterie3.sol\":1929:1944  block.timestamp */\n      timestamp\n        /* \"Loterie3.sol\":1929:1956  block.timestamp >= deadline */\n      lt\n      iszero\n        /* \"Loterie3.sol\":1887:1956  participants.length >= minParticipants && block.timestamp >= deadline */\n    tag_73:\n        /* \"Loterie3.sol\":1883:1999  if (participants.length >= minParticipants && block.timestamp >= deadline) {\r... */\n      iszero\n      tag_74\n      jumpi\n        /* \"Loterie3.sol\":1973:1987  tirageAuSort() */\n      tag_75\n        /* \"Loterie3.sol\":1973:1985  tirageAuSort */\n      tag_76\n        /* \"Loterie3.sol\":1973:1987  tirageAuSort() */\n      jump\t// in\n    tag_75:\n        /* \"Loterie3.sol\":1883:1999  if (participants.length >= minParticipants && block.timestamp >= deadline) {\r... */\n    tag_74:\n        /* \"Loterie3.sol\":1299:2006  function acheterTicket(uint age, string memory adresse) public payable lotteryActive {\r... */\n      pop\n      pop\n      jump\t// out\n        /* \"Loterie3.sol\":3374:3452  function tirerGagnant() external onlyManager {\r... */\n    tag_41:\n        /* \"Loterie3.sol\":714:721  manager */\n      0x00\n      dup1\n      sload\n      swap1\n      0x0100\n      exp\n      swap1\n      div\n      0xffffffffffffffffffffffffffffffffffffffff\n      and\n        /* \"Loterie3.sol\":700:721  msg.sender == manager */\n      0xffffffffffffffffffffffffffffffffffffffff\n      and\n        /* \"Loterie3.sol\":700:710  msg.sender */\n      caller\n        /* \"Loterie3.sol\":700:721  msg.sender == manager */\n      0xffffffffffffffffffffffffffffffffffffffff\n      and\n      eq\n        /* \"Loterie3.sol\":692:770  require(msg.sender == manager, \"Seul le manager peut executer cette fonction\") */\n      tag_78\n      jumpi\n      mload(0x40)\n      0x08c379a000000000000000000000000000000000000000000000000000000000\n      dup2\n      mstore\n      0x04\n      add\n      tag_79\n      swap1\n      tag_80\n      jump\t// in\n    tag_79:\n      mload(0x40)\n      dup1\n      swap2\n      sub\n      swap1\n      revert\n    tag_78:\n        /* \"Loterie3.sol\":3430:3444  tirageAuSort() */\n      tag_82\n        /* \"Loterie3.sol\":3430:3442  tirageAuSort */\n      tag_76\n        /* \"Loterie3.sol\":3430:3444  tirageAuSort() */\n      jump\t// in\n    tag_82:\n        /* \"Loterie3.sol\":3374:3452  function tirerGagnant() external onlyManager {\r... */\n      jump\t// out\n        /* \"Loterie3.sol\":340:362  uint public prixticket */\n    tag_44:\n      sload(0x07)\n      dup2\n      jump\t// out\n        /* \"Loterie3.sol\":3836:4007  function terminerLoterie() external onlyManager {\r... */\n    tag_48:\n        /* \"Loterie3.sol\":714:721  manager */\n      0x00\n      dup1\n      sload\n      swap1\n      0x0100\n      exp\n      swap1\n      div\n      0xffffffffffffffffffffffffffffffffffffffff\n      and\n        /* \"Loterie3.sol\":700:721  msg.sender == manager */\n      0xffffffffffffffffffffffffffffffffffffffff\n      and\n        /* \"Loterie3.sol\":700:710  msg.sender */\n      caller\n        /* \"Loterie3.sol\":700:721  msg.sender == manager */\n      0xffffffffffffffffffffffffffffffffffffffff\n      and\n      eq\n        /* \"Loterie3.sol\":692:770  require(msg.sender == manager, \"Seul le manager peut executer cette fonction\") */\n      tag_84\n      jumpi\n      mload(0x40)\n      0x08c379a000000000000000000000000000000000000000000000000000000000\n      dup2\n      mstore\n      0x04\n      add\n      tag_85\n      swap1\n      tag_80\n      jump\t// in\n    tag_85:\n      mload(0x40)\n      dup1\n      swap2\n      sub\n      swap1\n      revert\n    tag_84:\n        /* \"Loterie3.sol\":3921:3929  deadline */\n      sload(0x09)\n        /* \"Loterie3.sol\":3903:3918  block.timestamp */\n      timestamp\n        /* \"Loterie3.sol\":3903:3929  block.timestamp < deadline */\n      lt\n        /* \"Loterie3.sol\":3895:3962  require(block.timestamp < deadline, \"La loterie est deja terminee\") */\n      tag_87\n      jumpi\n      mload(0x40)\n      0x08c379a000000000000000000000000000000000000000000000000000000000\n      dup2\n      mstore\n      0x04\n      add\n      tag_88\n      swap1\n      tag_89\n      jump\t// in\n    tag_88:\n      mload(0x40)\n      dup1\n      swap2\n      sub\n      swap1\n      revert\n    tag_87:\n        /* \"Loterie3.sol\":3984:3999  block.timestamp */\n      timestamp\n        /* \"Loterie3.sol\":3973:3981  deadline */\n      0x09\n        /* \"Loterie3.sol\":3973:3999  deadline = block.timestamp */\n      dup2\n      swap1\n      sstore\n      pop\n        /* \"Loterie3.sol\":3836:4007  function terminerLoterie() external onlyManager {\r... */\n      jump\t// out\n        /* \"Loterie3.sol\":2077:3059  function tirageAuSort() internal {\r... */\n    tag_76:\n        /* \"Loterie3.sol\":2152:2167  minParticipants */\n      sload(0x08)\n        /* \"Loterie3.sol\":2129:2141  participants */\n      0x01\n        /* \"Loterie3.sol\":2129:2148  participants.length */\n      dup1\n      sload\n      swap1\n      pop\n        /* \"Loterie3.sol\":2129:2167  participants.length >= minParticipants */\n      lt\n      iszero\n        /* \"Loterie3.sol\":2121:2214  require(participants.length >= minParticipants, \"Nombre minimum de participants non atteint\") */\n      tag_91\n      jumpi\n      mload(0x40)\n      0x08c379a000000000000000000000000000000000000000000000000000000000\n      dup2\n      mstore\n      0x04\n      add\n      tag_92\n      swap1\n      tag_93\n      jump\t// in\n    tag_92:\n      mload(0x40)\n      dup1\n      swap2\n      sub\n      swap1\n      revert\n    tag_91:\n        /* \"Loterie3.sol\":2252:2260  deadline */\n      sload(0x09)\n        /* \"Loterie3.sol\":2233:2248  block.timestamp */\n      timestamp\n        /* \"Loterie3.sol\":2233:2260  block.timestamp >= deadline */\n      lt\n      iszero\n        /* \"Loterie3.sol\":2225:2297  require(block.timestamp >= deadline, \"Le delai n'est pas encore ecoule\") */\n      tag_94\n      jumpi\n      mload(0x40)\n      0x08c379a000000000000000000000000000000000000000000000000000000000\n      dup2\n      mstore\n      0x04\n      add\n      tag_95\n      swap1\n      tag_96\n      jump\t// in\n    tag_95:\n      mload(0x40)\n      dup1\n      swap2\n      sub\n      swap1\n      revert\n    tag_94:\n        /* \"Loterie3.sol\":2310:2327  uint indexGagnant */\n      0x00\n        /* \"Loterie3.sol\":2341:2353  participants */\n      0x01\n        /* \"Loterie3.sol\":2341:2360  participants.length */\n      dup1\n      sload\n      swap1\n      pop\n        /* \"Loterie3.sol\":2330:2338  random() */\n      tag_97\n        /* \"Loterie3.sol\":2330:2336  random */\n      tag_98\n        /* \"Loterie3.sol\":2330:2338  random() */\n      jump\t// in\n    tag_97:\n        /* \"Loterie3.sol\":2330:2360  random() % participants.length */\n      tag_99\n      swap2\n      swap1\n      tag_100\n      jump\t// in\n    tag_99:\n        /* \"Loterie3.sol\":2310:2360  uint indexGagnant = random() % participants.length */\n      swap1\n      pop\n        /* \"Loterie3.sol\":2381:2393  participants */\n      0x01\n        /* \"Loterie3.sol\":2394:2406  indexGagnant */\n      dup2\n        /* \"Loterie3.sol\":2381:2407  participants[indexGagnant] */\n      dup2\n      sload\n      dup2\n      lt\n      tag_101\n      jumpi\n      mstore(0x00, 0x4e487b7100000000000000000000000000000000000000000000000000000000)\n      mstore(0x04, 0x32)\n      revert(0x00, 0x24)\n    tag_101:\n      swap1\n      0x00\n      mstore\n      keccak256(0x00, 0x20)\n      add\n      0x00\n      swap1\n      sload\n      swap1\n      0x0100\n      exp\n      swap1\n      div\n      0xffffffffffffffffffffffffffffffffffffffff\n      and\n        /* \"Loterie3.sol\":2371:2378  gagnant */\n      0x05\n      0x00\n        /* \"Loterie3.sol\":2371:2407  gagnant = participants[indexGagnant] */\n      0x0100\n      exp\n      dup2\n      sload\n      dup2\n      0xffffffffffffffffffffffffffffffffffffffff\n      mul\n      not\n      and\n      swap1\n      dup4\n      0xffffffffffffffffffffffffffffffffffffffff\n      and\n      mul\n      or\n      swap1\n      sstore\n      pop\n        /* \"Loterie3.sol\":2452:2469  uint balanceTotal */\n      0x00\n        /* \"Loterie3.sol\":2472:2493  address(this).balance */\n      selfbalance\n        /* \"Loterie3.sol\":2452:2493  uint balanceTotal = address(this).balance */\n      swap1\n      pop\n        /* \"Loterie3.sol\":2504:2523  uint montantGagnant */\n      0x00\n        /* \"Loterie3.sol\":2563:2566  100 */\n      0x64\n        /* \"Loterie3.sol\":2542:2559  gagnantPercentage */\n      sload(0x03)\n        /* \"Loterie3.sol\":2527:2539  balanceTotal */\n      dup4\n        /* \"Loterie3.sol\":2527:2559  balanceTotal * gagnantPercentage */\n      tag_103\n      swap2\n      swap1\n      tag_104\n      jump\t// in\n    tag_103:\n        /* \"Loterie3.sol\":2526:2566  (balanceTotal * gagnantPercentage) / 100 */\n      tag_105\n      swap2\n      swap1\n      tag_106\n      jump\t// in\n    tag_105:\n        /* \"Loterie3.sol\":2504:2566  uint montantGagnant = (balanceTotal * gagnantPercentage) / 100 */\n      swap1\n      pop\n        /* \"Loterie3.sol\":2577:2596  uint montantCharite */\n      0x00\n        /* \"Loterie3.sol\":2636:2639  100 */\n      0x64\n        /* \"Loterie3.sol\":2615:2632  charityPercentage */\n      sload(0x04)\n        /* \"Loterie3.sol\":2600:2612  balanceTotal */\n      dup5\n        /* \"Loterie3.sol\":2600:2632  balanceTotal * charityPercentage */\n      tag_107\n      swap2\n      swap1\n      tag_104\n      jump\t// in\n    tag_107:\n        /* \"Loterie3.sol\":2599:2639  (balanceTotal * charityPercentage) / 100 */\n      tag_108\n      swap2\n      swap1\n      tag_106\n      jump\t// in\n    tag_108:\n        /* \"Loterie3.sol\":2577:2639  uint montantCharite = (balanceTotal * charityPercentage) / 100 */\n      swap1\n      pop\n        /* \"Loterie3.sol\":2671:2678  gagnant */\n      0x05\n      0x00\n      swap1\n      sload\n      swap1\n      0x0100\n      exp\n      swap1\n      div\n      0xffffffffffffffffffffffffffffffffffffffff\n      and\n        /* \"Loterie3.sol\":2657:2711  GagnantChoisi(gagnant, montantGagnant, montantCharite) */\n      0xffffffffffffffffffffffffffffffffffffffff\n      and\n      0xdf2c616411c07fd843d775cfed8b8fba67e4d7a166cf8187097edf4b4c37c7ab\n        /* \"Loterie3.sol\":2680:2694  montantGagnant */\n      dup4\n        /* \"Loterie3.sol\":2696:2710  montantCharite */\n      dup4\n        /* \"Loterie3.sol\":2657:2711  GagnantChoisi(gagnant, montantGagnant, montantCharite) */\n      mload(0x40)\n      tag_109\n      swap3\n      swap2\n      swap1\n      tag_110\n      jump\t// in\n    tag_109:\n      mload(0x40)\n      dup1\n      swap2\n      sub\n      swap1\n      log2\n        /* \"Loterie3.sol\":2727:2764  TirageEffectue(gagnant, indexGagnant) */\n      0xf1e48810a2824165c037541ecba04622432568c38ae66d998bbb58dfa70cc353\n        /* \"Loterie3.sol\":2742:2749  gagnant */\n      0x05\n      0x00\n      swap1\n      sload\n      swap1\n      0x0100\n      exp\n      swap1\n      div\n      0xffffffffffffffffffffffffffffffffffffffff\n      and\n        /* \"Loterie3.sol\":2751:2763  indexGagnant */\n      dup6\n        /* \"Loterie3.sol\":2727:2764  TirageEffectue(gagnant, indexGagnant) */\n      mload(0x40)\n      tag_111\n      swap3\n      swap2\n      swap1\n      tag_112\n      jump\t// in\n    tag_111:\n      mload(0x40)\n      dup1\n      swap2\n      sub\n      swap1\n      log1\n        /* \"Loterie3.sol\":2868:2875  gagnant */\n      0x05\n      0x00\n      swap1\n      sload\n      swap1\n      0x0100\n      exp\n      swap1\n      div\n      0xffffffffffffffffffffffffffffffffffffffff\n      and\n        /* \"Loterie3.sol\":2860:2885  payable(gagnant).transfer */\n      0xffffffffffffffffffffffffffffffffffffffff\n      and\n        /* \"Loterie3.sol\":2860:2901  payable(gagnant).transfer(montantGagnant) */\n      0x08fc\n        /* \"Loterie3.sol\":2886:2900  montantGagnant */\n      dup4\n        /* \"Loterie3.sol\":2860:2901  payable(gagnant).transfer(montantGagnant) */\n      swap1\n      dup2\n      iszero\n      mul\n      swap1\n      mload(0x40)\n      0x00\n      mload(0x40)\n      dup1\n      dup4\n      sub\n      dup2\n      dup6\n      dup9\n      dup9\n      call\n      swap4\n      pop\n      pop\n      pop\n      pop\n      iszero\n      dup1\n      iszero\n      tag_114\n      jumpi\n      returndatasize\n      0x00\n      dup1\n      returndatacopy\n      revert(0x00, returndatasize)\n    tag_114:\n      pop\n        /* \"Loterie3.sol\":2920:2934  charityAddress */\n      0x02\n      0x00\n      swap1\n      sload\n      swap1\n      0x0100\n      exp\n      swap1\n      div\n      0xffffffffffffffffffffffffffffffffffffffff\n      and\n        /* \"Loterie3.sol\":2912:2944  payable(charityAddress).transfer */\n      0xffffffffffffffffffffffffffffffffffffffff\n      and\n        /* \"Loterie3.sol\":2912:2960  payable(charityAddress).transfer(montantCharite) */\n      0x08fc\n        /* \"Loterie3.sol\":2945:2959  montantCharite */\n      dup3\n        /* \"Loterie3.sol\":2912:2960  payable(charityAddress).transfer(montantCharite) */\n      swap1\n      dup2\n      iszero\n      mul\n      swap1\n      mload(0x40)\n      0x00\n      mload(0x40)\n      dup1\n      dup4\n      sub\n      dup2\n      dup6\n      dup9\n      dup9\n      call\n      swap4\n      pop\n      pop\n      pop\n      pop\n      iszero\n      dup1\n      iszero\n      tag_116\n      jumpi\n      returndatasize\n      0x00\n      dup1\n      returndatacopy\n      revert(0x00, returndatasize)\n    tag_116:\n      pop\n        /* \"Loterie3.sol\":2980:2992  participants */\n      0x01\n      0x00\n        /* \"Loterie3.sol\":2973:2992  delete participants */\n      tag_117\n      swap2\n      swap1\n      tag_118\n      jump\t// in\n    tag_117:\n        /* \"Loterie3.sol\":2077:3059  function tirageAuSort() internal {\r... */\n      pop\n      pop\n      pop\n      pop\n      jump\t// out\n        /* \"Loterie3.sol\":3127:3281  function random() private view returns (uint) {\r... */\n    tag_98:\n        /* \"Loterie3.sol\":3167:3171  uint */\n      0x00\n        /* \"Loterie3.sol\":3223:3238  block.timestamp */\n      timestamp\n        /* \"Loterie3.sol\":3240:3256  block.difficulty */\n      difficulty\n        /* \"Loterie3.sol\":3258:3270  participants */\n      0x01\n        /* \"Loterie3.sol\":3206:3271  abi.encodePacked(block.timestamp, block.difficulty, participants) */\n      add(0x20, mload(0x40))\n      tag_120\n      swap4\n      swap3\n      swap2\n      swap1\n      tag_121\n      jump\t// in\n    tag_120:\n      mload(0x40)\n      0x20\n      dup2\n      dup4\n      sub\n      sub\n      dup2\n      mstore\n      swap1\n      0x40\n      mstore\n        /* \"Loterie3.sol\":3196:3272  keccak256(abi.encodePacked(block.timestamp, block.difficulty, participants)) */\n      dup1\n      mload\n      swap1\n      0x20\n      add\n      keccak256\n        /* \"Loterie3.sol\":3191:3273  uint(keccak256(abi.encodePacked(block.timestamp, block.difficulty, participants))) */\n      0x00\n      shr\n        /* \"Loterie3.sol\":3184:3273  return uint(keccak256(abi.encodePacked(block.timestamp, block.difficulty, participants))) */\n      swap1\n      pop\n        /* \"Loterie3.sol\":3127:3281  function random() private view returns (uint) {\r... */\n      swap1\n      jump\t// out\n    tag_118:\n      pop\n      dup1\n      sload\n      0x00\n      dup3\n      sstore\n      swap1\n      0x00\n      mstore\n      keccak256(0x00, 0x20)\n      swap1\n      dup2\n      add\n      swap1\n      tag_123\n      swap2\n      swap1\n      tag_124\n      jump\t// in\n    tag_123:\n      pop\n      jump\t// out\n    tag_124:\n    tag_125:\n      dup1\n      dup3\n      gt\n      iszero\n      tag_126\n      jumpi\n      0x00\n      dup2\n      0x00\n      swap1\n      sstore\n      pop\n      0x01\n      add\n      jump(tag_125)\n    tag_126:\n      pop\n      swap1\n      jump\t// out\n        /* \"#utility.yul\":7:351   */\n    tag_128:\n      0x00\n        /* \"#utility.yul\":110:175   */\n      tag_130\n        /* \"#utility.yul\":125:174   */\n      tag_131\n        /* \"#utility.yul\":167:173   */\n      dup5\n        /* \"#utility.yul\":125:174   */\n      tag_132\n      jump\t// in\n    tag_131:\n        /* \"#utility.yul\":110:175   */\n      tag_133\n      jump\t// in\n    tag_130:\n        /* \"#utility.yul\":101:175   */\n      swap1\n      pop\n        /* \"#utility.yul\":198:204   */\n      dup3\n        /* \"#utility.yul\":191:196   */\n      dup2\n        /* \"#utility.yul\":184:205   */\n      mstore\n        /* \"#utility.yul\":236:240   */\n      0x20\n        /* \"#utility.yul\":229:234   */\n      dup2\n        /* \"#utility.yul\":225:241   */\n      add\n        /* \"#utility.yul\":274:277   */\n      dup5\n        /* \"#utility.yul\":265:271   */\n      dup5\n        /* \"#utility.yul\":260:263   */\n      dup5\n        /* \"#utility.yul\":256:272   */\n      add\n        /* \"#utility.yul\":253:278   */\n      gt\n        /* \"#utility.yul\":250:252   */\n      iszero\n      tag_134\n      jumpi\n        /* \"#utility.yul\":291:292   */\n      0x00\n        /* \"#utility.yul\":288:289   */\n      dup1\n        /* \"#utility.yul\":281:293   */\n      revert\n        /* \"#utility.yul\":250:252   */\n    tag_134:\n        /* \"#utility.yul\":304:345   */\n      tag_135\n        /* \"#utility.yul\":338:344   */\n      dup5\n        /* \"#utility.yul\":333:336   */\n      dup3\n        /* \"#utility.yul\":328:331   */\n      dup6\n        /* \"#utility.yul\":304:345   */\n      tag_136\n      jump\t// in\n    tag_135:\n        /* \"#utility.yul\":91:351   */\n      pop\n      swap4\n      swap3\n      pop\n      pop\n      pop\n      jump\t// out\n        /* \"#utility.yul\":371:644   */\n    tag_137:\n      0x00\n        /* \"#utility.yul\":476:479   */\n      dup3\n        /* \"#utility.yul\":469:473   */\n      0x1f\n        /* \"#utility.yul\":461:467   */\n      dup4\n        /* \"#utility.yul\":457:474   */\n      add\n        /* \"#utility.yul\":453:480   */\n      slt\n        /* \"#utility.yul\":443:445   */\n      tag_139\n      jumpi\n        /* \"#utility.yul\":494:495   */\n      0x00\n        /* \"#utility.yul\":491:492   */\n      dup1\n        /* \"#utility.yul\":484:496   */\n      revert\n        /* \"#utility.yul\":443:445   */\n    tag_139:\n        /* \"#utility.yul\":534:540   */\n      dup2\n        /* \"#utility.yul\":521:541   */\n      calldataload\n        /* \"#utility.yul\":559:638   */\n      tag_140\n        /* \"#utility.yul\":634:637   */\n      dup5\n        /* \"#utility.yul\":626:632   */\n      dup3\n        /* \"#utility.yul\":619:623   */\n      0x20\n        /* \"#utility.yul\":611:617   */\n      dup7\n        /* \"#utility.yul\":607:624   */\n      add\n        /* \"#utility.yul\":559:638   */\n      tag_128\n      jump\t// in\n    tag_140:\n        /* \"#utility.yul\":550:638   */\n      swap2\n      pop\n        /* \"#utility.yul\":433:644   */\n      pop\n      swap3\n      swap2\n      pop\n      pop\n      jump\t// out\n        /* \"#utility.yul\":650:789   */\n    tag_141:\n      0x00\n        /* \"#utility.yul\":734:740   */\n      dup2\n        /* \"#utility.yul\":721:741   */\n      calldataload\n        /* \"#utility.yul\":712:741   */\n      swap1\n      pop\n        /* \"#utility.yul\":750:783   */\n      tag_143\n        /* \"#utility.yul\":777:782   */\n      dup2\n        /* \"#utility.yul\":750:783   */\n      tag_144\n      jump\t// in\n    tag_143:\n        /* \"#utility.yul\":702:789   */\n      swap3\n      swap2\n      pop\n      pop\n      jump\t// out\n        /* \"#utility.yul\":795:1315   */\n    tag_37:\n      0x00\n      dup1\n        /* \"#utility.yul\":930:932   */\n      0x40\n        /* \"#utility.yul\":918:927   */\n      dup4\n        /* \"#utility.yul\":909:916   */\n      dup6\n        /* \"#utility.yul\":905:928   */\n      sub\n        /* \"#utility.yul\":901:933   */\n      slt\n        /* \"#utility.yul\":898:900   */\n      iszero\n      tag_146\n      jumpi\n        /* \"#utility.yul\":946:947   */\n      0x00\n        /* \"#utility.yul\":943:944   */\n      dup1\n        /* \"#utility.yul\":936:948   */\n      revert\n        /* \"#utility.yul\":898:900   */\n    tag_146:\n        /* \"#utility.yul\":989:990   */\n      0x00\n        /* \"#utility.yul\":1014:1067   */\n      tag_147\n        /* \"#utility.yul\":1059:1066   */\n      dup6\n        /* \"#utility.yul\":1050:1056   */\n      dup3\n        /* \"#utility.yul\":1039:1048   */\n      dup7\n        /* \"#utility.yul\":1035:1057   */\n      add\n        /* \"#utility.yul\":1014:1067   */\n      tag_141\n      jump\t// in\n    tag_147:\n        /* \"#utility.yul\":1004:1067   */\n      swap3\n      pop\n        /* \"#utility.yul\":960:1077   */\n      pop\n        /* \"#utility.yul\":1144:1146   */\n      0x20\n        /* \"#utility.yul\":1133:1142   */\n      dup4\n        /* \"#utility.yul\":1129:1147   */\n      add\n        /* \"#utility.yul\":1116:1148   */\n      calldataload\n        /* \"#utility.yul\":1175:1193   */\n      0xffffffffffffffff\n        /* \"#utility.yul\":1167:1173   */\n      dup2\n        /* \"#utility.yul\":1164:1194   */\n      gt\n        /* \"#utility.yul\":1161:1163   */\n      iszero\n      tag_148\n      jumpi\n        /* \"#utility.yul\":1207:1208   */\n      0x00\n        /* \"#utility.yul\":1204:1205   */\n      dup1\n        /* \"#utility.yul\":1197:1209   */\n      revert\n        /* \"#utility.yul\":1161:1163   */\n    tag_148:\n        /* \"#utility.yul\":1235:1298   */\n      tag_149\n        /* \"#utility.yul\":1290:1297   */\n      dup6\n        /* \"#utility.yul\":1281:1287   */\n      dup3\n        /* \"#utility.yul\":1270:1279   */\n      dup7\n        /* \"#utility.yul\":1266:1288   */\n      add\n        /* \"#utility.yul\":1235:1298   */\n      tag_137\n      jump\t// in\n    tag_149:\n        /* \"#utility.yul\":1225:1298   */\n      swap2\n      pop\n        /* \"#utility.yul\":1087:1308   */\n      pop\n        /* \"#utility.yul\":888:1315   */\n      swap3\n      pop\n      swap3\n      swap1\n      pop\n      jump\t// out\n        /* \"#utility.yul\":1321:1516   */\n    tag_150:\n      0x00\n        /* \"#utility.yul\":1419:1473   */\n      tag_152\n        /* \"#utility.yul\":1469:1472   */\n      dup4\n        /* \"#utility.yul\":1461:1467   */\n      dup4\n        /* \"#utility.yul\":1419:1473   */\n      tag_153\n      jump\t// in\n    tag_152:\n        /* \"#utility.yul\":1505:1509   */\n      0x20\n        /* \"#utility.yul\":1500:1503   */\n      dup4\n        /* \"#utility.yul\":1496:1510   */\n      add\n        /* \"#utility.yul\":1482:1510   */\n      swap1\n      pop\n        /* \"#utility.yul\":1409:1516   */\n      swap3\n      swap2\n      pop\n      pop\n      jump\t// out\n        /* \"#utility.yul\":1522:1640   */\n    tag_154:\n        /* \"#utility.yul\":1609:1633   */\n      tag_156\n        /* \"#utility.yul\":1627:1632   */\n      dup2\n        /* \"#utility.yul\":1609:1633   */\n      tag_157\n      jump\t// in\n    tag_156:\n        /* \"#utility.yul\":1604:1607   */\n      dup3\n        /* \"#utility.yul\":1597:1634   */\n      mstore\n        /* \"#utility.yul\":1587:1640   */\n      pop\n      pop\n      jump\t// out\n        /* \"#utility.yul\":1646:1762   */\n    tag_153:\n        /* \"#utility.yul\":1731:1755   */\n      tag_159\n        /* \"#utility.yul\":1749:1754   */\n      dup2\n        /* \"#utility.yul\":1731:1755   */\n      tag_157\n      jump\t// in\n    tag_159:\n        /* \"#utility.yul\":1726:1729   */\n      dup3\n        /* \"#utility.yul\":1719:1756   */\n      mstore\n        /* \"#utility.yul\":1709:1762   */\n      pop\n      pop\n      jump\t// out\n        /* \"#utility.yul\":1798:2593   */\n    tag_160:\n      0x00\n        /* \"#utility.yul\":1961:2012   */\n      tag_162\n        /* \"#utility.yul\":2006:2011   */\n      dup3\n        /* \"#utility.yul\":1961:2012   */\n      tag_163\n      jump\t// in\n    tag_162:\n        /* \"#utility.yul\":2028:2132   */\n      tag_164\n        /* \"#utility.yul\":2125:2131   */\n      dup2\n        /* \"#utility.yul\":2120:2123   */\n      dup6\n        /* \"#utility.yul\":2028:2132   */\n      tag_165\n      jump\t// in\n    tag_164:\n        /* \"#utility.yul\":2021:2132   */\n      swap4\n      pop\n        /* \"#utility.yul\":2156:2209   */\n      tag_166\n        /* \"#utility.yul\":2203:2208   */\n      dup4\n        /* \"#utility.yul\":2156:2209   */\n      tag_167\n      jump\t// in\n    tag_166:\n        /* \"#utility.yul\":2232:2239   */\n      dup1\n        /* \"#utility.yul\":2263:2264   */\n      0x00\n        /* \"#utility.yul\":2248:2568   */\n    tag_168:\n        /* \"#utility.yul\":2273:2279   */\n      dup4\n        /* \"#utility.yul\":2270:2271   */\n      dup2\n        /* \"#utility.yul\":2267:2280   */\n      lt\n        /* \"#utility.yul\":2248:2568   */\n      iszero\n      tag_170\n      jumpi\n        /* \"#utility.yul\":2343:2387   */\n      tag_171\n        /* \"#utility.yul\":2380:2386   */\n      dup3\n        /* \"#utility.yul\":2343:2387   */\n      tag_172\n      jump\t// in\n    tag_171:\n        /* \"#utility.yul\":2407:2478   */\n      tag_173\n        /* \"#utility.yul\":2474:2477   */\n      dup9\n        /* \"#utility.yul\":2459:2472   */\n      dup3\n        /* \"#utility.yul\":2407:2478   */\n      tag_150\n      jump\t// in\n    tag_173:\n        /* \"#utility.yul\":2400:2478   */\n      swap8\n      pop\n        /* \"#utility.yul\":2501:2558   */\n      tag_174\n        /* \"#utility.yul\":2551:2557   */\n      dup4\n        /* \"#utility.yul\":2501:2558   */\n      tag_175\n      jump\t// in\n    tag_174:\n        /* \"#utility.yul\":2491:2558   */\n      swap3\n      pop\n        /* \"#utility.yul\":2308:2568   */\n      pop\n        /* \"#utility.yul\":2295:2296   */\n      0x01\n        /* \"#utility.yul\":2292:2293   */\n      dup2\n        /* \"#utility.yul\":2288:2297   */\n      add\n        /* \"#utility.yul\":2283:2297   */\n      swap1\n      pop\n        /* \"#utility.yul\":2248:2568   */\n      jump(tag_168)\n    tag_170:\n        /* \"#utility.yul\":2252:2266   */\n      pop\n        /* \"#utility.yul\":2584:2587   */\n      dup6\n        /* \"#utility.yul\":2577:2587   */\n      swap4\n      pop\n        /* \"#utility.yul\":1937:2593   */\n      pop\n      pop\n      pop\n      swap3\n      swap2\n      pop\n      pop\n      jump\t// out\n        /* \"#utility.yul\":2599:2708   */\n    tag_176:\n        /* \"#utility.yul\":2680:2701   */\n      tag_178\n        /* \"#utility.yul\":2695:2700   */\n      dup2\n        /* \"#utility.yul\":2680:2701   */\n      tag_179\n      jump\t// in\n    tag_178:\n        /* \"#utility.yul\":2675:2678   */\n      dup3\n        /* \"#utility.yul\":2668:2702   */\n      mstore\n        /* \"#utility.yul\":2658:2708   */\n      pop\n      pop\n      jump\t// out\n        /* \"#utility.yul\":2714:3091   */\n    tag_180:\n      0x00\n        /* \"#utility.yul\":2848:2887   */\n      tag_182\n        /* \"#utility.yul\":2881:2886   */\n      dup3\n        /* \"#utility.yul\":2848:2887   */\n      tag_183\n      jump\t// in\n    tag_182:\n        /* \"#utility.yul\":2903:2992   */\n      tag_184\n        /* \"#utility.yul\":2985:2991   */\n      dup2\n        /* \"#utility.yul\":2980:2983   */\n      dup6\n        /* \"#utility.yul\":2903:2992   */\n      tag_185\n      jump\t// in\n    tag_184:\n        /* \"#utility.yul\":2896:2992   */\n      swap4\n      pop\n        /* \"#utility.yul\":3001:3053   */\n      tag_186\n        /* \"#utility.yul\":3046:3052   */\n      dup2\n        /* \"#utility.yul\":3041:3044   */\n      dup6\n        /* \"#utility.yul\":3034:3038   */\n      0x20\n        /* \"#utility.yul\":3027:3032   */\n      dup7\n        /* \"#utility.yul\":3023:3039   */\n      add\n        /* \"#utility.yul\":3001:3053   */\n      tag_187\n      jump\t// in\n    tag_186:\n        /* \"#utility.yul\":3078:3084   */\n      dup1\n        /* \"#utility.yul\":3073:3076   */\n      dup5\n        /* \"#utility.yul\":3069:3085   */\n      add\n        /* \"#utility.yul\":3062:3085   */\n      swap2\n      pop\n        /* \"#utility.yul\":2824:3091   */\n      pop\n      swap3\n      swap2\n      pop\n      pop\n      jump\t// out\n        /* \"#utility.yul\":3097:3418   */\n    tag_188:\n      0x00\n        /* \"#utility.yul\":3260:3327   */\n      tag_190\n        /* \"#utility.yul\":3324:3326   */\n      0x17\n        /* \"#utility.yul\":3319:3322   */\n      dup4\n        /* \"#utility.yul\":3260:3327   */\n      tag_191\n      jump\t// in\n    tag_190:\n        /* \"#utility.yul\":3253:3327   */\n      swap2\n      pop\n        /* \"#utility.yul\":3357:3382   */\n      0x4c61206c6f746572696520657374207465726d696e6565000000000000000000\n        /* \"#utility.yul\":3353:3354   */\n      0x00\n        /* \"#utility.yul\":3348:3351   */\n      dup4\n        /* \"#utility.yul\":3344:3355   */\n      add\n        /* \"#utility.yul\":3337:3383   */\n      mstore\n        /* \"#utility.yul\":3409:3411   */\n      0x20\n        /* \"#utility.yul\":3404:3407   */\n      dup3\n        /* \"#utility.yul\":3400:3412   */\n      add\n        /* \"#utility.yul\":3393:3412   */\n      swap1\n      pop\n        /* \"#utility.yul\":3243:3418   */\n      swap2\n      swap1\n      pop\n      jump\t// out\n        /* \"#utility.yul\":3424:3804   */\n    tag_192:\n      0x00\n        /* \"#utility.yul\":3587:3654   */\n      tag_194\n        /* \"#utility.yul\":3651:3653   */\n      0x30\n        /* \"#utility.yul\":3646:3649   */\n      dup4\n        /* \"#utility.yul\":3587:3654   */\n      tag_191\n      jump\t// in\n    tag_194:\n        /* \"#utility.yul\":3580:3654   */\n      swap2\n      pop\n        /* \"#utility.yul\":3684:3718   */\n      0x566f757320646576657a2061766f6972206175206d6f696e7320313820616e73\n        /* \"#utility.yul\":3680:3681   */\n      0x00\n        /* \"#utility.yul\":3675:3678   */\n      dup4\n        /* \"#utility.yul\":3671:3682   */\n      add\n        /* \"#utility.yul\":3664:3719   */\n      mstore\n        /* \"#utility.yul\":3750:3768   */\n      0x20706f7572207061727469636970657200000000000000000000000000000000\n        /* \"#utility.yul\":3745:3747   */\n      0x20\n        /* \"#utility.yul\":3740:3743   */\n      dup4\n        /* \"#utility.yul\":3736:3748   */\n      add\n        /* \"#utility.yul\":3729:3769   */\n      mstore\n        /* \"#utility.yul\":3795:3797   */\n      0x40\n        /* \"#utility.yul\":3790:3793   */\n      dup3\n        /* \"#utility.yul\":3786:3798   */\n      add\n        /* \"#utility.yul\":3779:3798   */\n      swap1\n      pop\n        /* \"#utility.yul\":3570:3804   */\n      swap2\n      swap1\n      pop\n      jump\t// out\n        /* \"#utility.yul\":3810:4140   */\n    tag_195:\n      0x00\n        /* \"#utility.yul\":3973:4040   */\n      tag_197\n        /* \"#utility.yul\":4037:4039   */\n      0x20\n        /* \"#utility.yul\":4032:4035   */\n      dup4\n        /* \"#utility.yul\":3973:4040   */\n      tag_191\n      jump\t// in\n    tag_197:\n        /* \"#utility.yul\":3966:4040   */\n      swap2\n      pop\n        /* \"#utility.yul\":4070:4104   */\n      0x4c652064656c6169206e276573742070617320656e636f72652065636f756c65\n        /* \"#utility.yul\":4066:4067   */\n      0x00\n        /* \"#utility.yul\":4061:4064   */\n      dup4\n        /* \"#utility.yul\":4057:4068   */\n      add\n        /* \"#utility.yul\":4050:4105   */\n      mstore\n        /* \"#utility.yul\":4131:4133   */\n      0x20\n        /* \"#utility.yul\":4126:4129   */\n      dup3\n        /* \"#utility.yul\":4122:4134   */\n      add\n        /* \"#utility.yul\":4115:4134   */\n      swap1\n      pop\n        /* \"#utility.yul\":3956:4140   */\n      swap2\n      swap1\n      pop\n      jump\t// out\n        /* \"#utility.yul\":4146:4472   */\n    tag_198:\n      0x00\n        /* \"#utility.yul\":4309:4376   */\n      tag_200\n        /* \"#utility.yul\":4373:4375   */\n      0x1c\n        /* \"#utility.yul\":4368:4371   */\n      dup4\n        /* \"#utility.yul\":4309:4376   */\n      tag_191\n      jump\t// in\n    tag_200:\n        /* \"#utility.yul\":4302:4376   */\n      swap2\n      pop\n        /* \"#utility.yul\":4406:4436   */\n      0x4c61206c6f7465726965206573742064656a61207465726d696e656500000000\n        /* \"#utility.yul\":4402:4403   */\n      0x00\n        /* \"#utility.yul\":4397:4400   */\n      dup4\n        /* \"#utility.yul\":4393:4404   */\n      add\n        /* \"#utility.yul\":4386:4437   */\n      mstore\n        /* \"#utility.yul\":4463:4465   */\n      0x20\n        /* \"#utility.yul\":4458:4461   */\n      dup3\n        /* \"#utility.yul\":4454:4466   */\n      add\n        /* \"#utility.yul\":4447:4466   */\n      swap1\n      pop\n        /* \"#utility.yul\":4292:4472   */\n      swap2\n      swap1\n      pop\n      jump\t// out\n        /* \"#utility.yul\":4478:4854   */\n    tag_201:\n      0x00\n        /* \"#utility.yul\":4641:4708   */\n      tag_203\n        /* \"#utility.yul\":4705:4707   */\n      0x2c\n        /* \"#utility.yul\":4700:4703   */\n      dup4\n        /* \"#utility.yul\":4641:4708   */\n      tag_191\n      jump\t// in\n    tag_203:\n        /* \"#utility.yul\":4634:4708   */\n      swap2\n      pop\n        /* \"#utility.yul\":4738:4772   */\n      0x5365756c206c65206d616e616765722070657574206578656375746572206365\n        /* \"#utility.yul\":4734:4735   */\n      0x00\n        /* \"#utility.yul\":4729:4732   */\n      dup4\n        /* \"#utility.yul\":4725:4736   */\n      add\n        /* \"#utility.yul\":4718:4773   */\n      mstore\n        /* \"#utility.yul\":4804:4818   */\n      0x74746520666f6e6374696f6e0000000000000000000000000000000000000000\n        /* \"#utility.yul\":4799:4801   */\n      0x20\n        /* \"#utility.yul\":4794:4797   */\n      dup4\n        /* \"#utility.yul\":4790:4802   */\n      add\n        /* \"#utility.yul\":4783:4819   */\n      mstore\n        /* \"#utility.yul\":4845:4847   */\n      0x40\n        /* \"#utility.yul\":4840:4843   */\n      dup3\n        /* \"#utility.yul\":4836:4848   */\n      add\n        /* \"#utility.yul\":4829:4848   */\n      swap1\n      pop\n        /* \"#utility.yul\":4624:4854   */\n      swap2\n      swap1\n      pop\n      jump\t// out\n        /* \"#utility.yul\":4860:5234   */\n    tag_204:\n      0x00\n        /* \"#utility.yul\":5023:5090   */\n      tag_206\n        /* \"#utility.yul\":5087:5089   */\n      0x2a\n        /* \"#utility.yul\":5082:5085   */\n      dup4\n        /* \"#utility.yul\":5023:5090   */\n      tag_191\n      jump\t// in\n    tag_206:\n        /* \"#utility.yul\":5016:5090   */\n      swap2\n      pop\n        /* \"#utility.yul\":5120:5154   */\n      0x4e6f6d627265206d696e696d756d206465207061727469636970616e7473206e\n        /* \"#utility.yul\":5116:5117   */\n      0x00\n        /* \"#utility.yul\":5111:5114   */\n      dup4\n        /* \"#utility.yul\":5107:5118   */\n      add\n        /* \"#utility.yul\":5100:5155   */\n      mstore\n        /* \"#utility.yul\":5186:5198   */\n      0x6f6e2061747465696e7400000000000000000000000000000000000000000000\n        /* \"#utility.yul\":5181:5183   */\n      0x20\n        /* \"#utility.yul\":5176:5179   */\n      dup4\n        /* \"#utility.yul\":5172:5184   */\n      add\n        /* \"#utility.yul\":5165:5199   */\n      mstore\n        /* \"#utility.yul\":5225:5227   */\n      0x40\n        /* \"#utility.yul\":5220:5223   */\n      dup3\n        /* \"#utility.yul\":5216:5228   */\n      add\n        /* \"#utility.yul\":5209:5228   */\n      swap1\n      pop\n        /* \"#utility.yul\":5006:5234   */\n      swap2\n      swap1\n      pop\n      jump\t// out\n        /* \"#utility.yul\":5240:5617   */\n    tag_207:\n      0x00\n        /* \"#utility.yul\":5403:5470   */\n      tag_209\n        /* \"#utility.yul\":5467:5469   */\n      0x2d\n        /* \"#utility.yul\":5462:5465   */\n      dup4\n        /* \"#utility.yul\":5403:5470   */\n      tag_191\n      jump\t// in\n    tag_209:\n        /* \"#utility.yul\":5396:5470   */\n      swap2\n      pop\n        /* \"#utility.yul\":5500:5534   */\n      0x566f757320646576657a2068616269746572206120457468657242617920706f\n        /* \"#utility.yul\":5496:5497   */\n      0x00\n        /* \"#utility.yul\":5491:5494   */\n      dup4\n        /* \"#utility.yul\":5487:5498   */\n      add\n        /* \"#utility.yul\":5480:5535   */\n      mstore\n        /* \"#utility.yul\":5566:5581   */\n      0x7572207061727469636970657200000000000000000000000000000000000000\n        /* \"#utility.yul\":5561:5563   */\n      0x20\n        /* \"#utility.yul\":5556:5559   */\n      dup4\n        /* \"#utility.yul\":5552:5564   */\n      add\n        /* \"#utility.yul\":5545:5582   */\n      mstore\n        /* \"#utility.yul\":5608:5610   */\n      0x40\n        /* \"#utility.yul\":5603:5606   */\n      dup3\n        /* \"#utility.yul\":5599:5611   */\n      add\n        /* \"#utility.yul\":5592:5611   */\n      swap1\n      pop\n        /* \"#utility.yul\":5386:5617   */\n      swap2\n      swap1\n      pop\n      jump\t// out\n        /* \"#utility.yul\":5623:5963   */\n    tag_210:\n      0x00\n        /* \"#utility.yul\":5804:5888   */\n      tag_212\n        /* \"#utility.yul\":5886:5887   */\n      0x08\n        /* \"#utility.yul\":5881:5884   */\n      dup4\n        /* \"#utility.yul\":5804:5888   */\n      tag_185\n      jump\t// in\n    tag_212:\n        /* \"#utility.yul\":5797:5888   */\n      swap2\n      pop\n        /* \"#utility.yul\":5918:5928   */\n      0x6574686572626179000000000000000000000000000000000000000000000000\n        /* \"#utility.yul\":5914:5915   */\n      0x00\n        /* \"#utility.yul\":5909:5912   */\n      dup4\n        /* \"#utility.yul\":5905:5916   */\n      add\n        /* \"#utility.yul\":5898:5929   */\n      mstore\n        /* \"#utility.yul\":5955:5956   */\n      0x08\n        /* \"#utility.yul\":5950:5953   */\n      dup3\n        /* \"#utility.yul\":5946:5957   */\n      add\n        /* \"#utility.yul\":5939:5957   */\n      swap1\n      pop\n        /* \"#utility.yul\":5787:5963   */\n      swap2\n      swap1\n      pop\n      jump\t// out\n        /* \"#utility.yul\":5969:6354   */\n    tag_213:\n      0x00\n        /* \"#utility.yul\":6132:6199   */\n      tag_215\n        /* \"#utility.yul\":6196:6198   */\n      0x35\n        /* \"#utility.yul\":6191:6194   */\n      dup4\n        /* \"#utility.yul\":6132:6199   */\n      tag_191\n      jump\t// in\n    tag_215:\n        /* \"#utility.yul\":6125:6199   */\n      swap2\n      pop\n        /* \"#utility.yul\":6229:6263   */\n      0x4c65206d6f6e74616e74206475207469636b657420646f697420657472652065\n        /* \"#utility.yul\":6225:6226   */\n      0x00\n        /* \"#utility.yul\":6220:6223   */\n      dup4\n        /* \"#utility.yul\":6216:6227   */\n      add\n        /* \"#utility.yul\":6209:6264   */\n      mstore\n        /* \"#utility.yul\":6295:6318   */\n      0x78616374656d656e7420646520322066696e6e65790000000000000000000000\n        /* \"#utility.yul\":6290:6292   */\n      0x20\n        /* \"#utility.yul\":6285:6288   */\n      dup4\n        /* \"#utility.yul\":6281:6293   */\n      add\n        /* \"#utility.yul\":6274:6319   */\n      mstore\n        /* \"#utility.yul\":6345:6347   */\n      0x40\n        /* \"#utility.yul\":6340:6343   */\n      dup3\n        /* \"#utility.yul\":6336:6348   */\n      add\n        /* \"#utility.yul\":6329:6348   */\n      swap1\n      pop\n        /* \"#utility.yul\":6115:6354   */\n      swap2\n      swap1\n      pop\n      jump\t// out\n        /* \"#utility.yul\":6360:6478   */\n    tag_216:\n        /* \"#utility.yul\":6447:6471   */\n      tag_218\n        /* \"#utility.yul\":6465:6470   */\n      dup2\n        /* \"#utility.yul\":6447:6471   */\n      tag_219\n      jump\t// in\n    tag_218:\n        /* \"#utility.yul\":6442:6445   */\n      dup3\n        /* \"#utility.yul\":6435:6472   */\n      mstore\n        /* \"#utility.yul\":6425:6478   */\n      pop\n      pop\n      jump\t// out\n        /* \"#utility.yul\":6484:6641   */\n    tag_220:\n        /* \"#utility.yul\":6589:6634   */\n      tag_222\n        /* \"#utility.yul\":6609:6633   */\n      tag_223\n        /* \"#utility.yul\":6627:6632   */\n      dup3\n        /* \"#utility.yul\":6609:6633   */\n      tag_219\n      jump\t// in\n    tag_223:\n        /* \"#utility.yul\":6589:6634   */\n      tag_224\n      jump\t// in\n    tag_222:\n        /* \"#utility.yul\":6584:6587   */\n      dup3\n        /* \"#utility.yul\":6577:6635   */\n      mstore\n        /* \"#utility.yul\":6567:6641   */\n      pop\n      pop\n      jump\t// out\n        /* \"#utility.yul\":6647:6922   */\n    tag_64:\n      0x00\n        /* \"#utility.yul\":6801:6896   */\n      tag_226\n        /* \"#utility.yul\":6892:6895   */\n      dup3\n        /* \"#utility.yul\":6883:6889   */\n      dup5\n        /* \"#utility.yul\":6801:6896   */\n      tag_180\n      jump\t// in\n    tag_226:\n        /* \"#utility.yul\":6794:6896   */\n      swap2\n      pop\n        /* \"#utility.yul\":6913:6916   */\n      dup2\n        /* \"#utility.yul\":6906:6916   */\n      swap1\n      pop\n        /* \"#utility.yul\":6783:6922   */\n      swap3\n      swap2\n      pop\n      pop\n      jump\t// out\n        /* \"#utility.yul\":6928:7309   */\n    tag_62:\n      0x00\n        /* \"#utility.yul\":7135:7283   */\n      tag_228\n        /* \"#utility.yul\":7279:7282   */\n      dup3\n        /* \"#utility.yul\":7135:7283   */\n      tag_210\n      jump\t// in\n    tag_228:\n        /* \"#utility.yul\":7128:7283   */\n      swap2\n      pop\n        /* \"#utility.yul\":7300:7303   */\n      dup2\n        /* \"#utility.yul\":7293:7303   */\n      swap1\n      pop\n        /* \"#utility.yul\":7117:7309   */\n      swap2\n      swap1\n      pop\n      jump\t// out\n        /* \"#utility.yul\":7315:7926   */\n    tag_121:\n      0x00\n        /* \"#utility.yul\":7545:7620   */\n      tag_230\n        /* \"#utility.yul\":7616:7619   */\n      dup3\n        /* \"#utility.yul\":7607:7613   */\n      dup7\n        /* \"#utility.yul\":7545:7620   */\n      tag_220\n      jump\t// in\n    tag_230:\n        /* \"#utility.yul\":7645:7647   */\n      0x20\n        /* \"#utility.yul\":7640:7643   */\n      dup3\n        /* \"#utility.yul\":7636:7648   */\n      add\n        /* \"#utility.yul\":7629:7648   */\n      swap2\n      pop\n        /* \"#utility.yul\":7658:7733   */\n      tag_231\n        /* \"#utility.yul\":7729:7732   */\n      dup3\n        /* \"#utility.yul\":7720:7726   */\n      dup6\n        /* \"#utility.yul\":7658:7733   */\n      tag_220\n      jump\t// in\n    tag_231:\n        /* \"#utility.yul\":7758:7760   */\n      0x20\n        /* \"#utility.yul\":7753:7756   */\n      dup3\n        /* \"#utility.yul\":7749:7761   */\n      add\n        /* \"#utility.yul\":7742:7761   */\n      swap2\n      pop\n        /* \"#utility.yul\":7778:7900   */\n      tag_232\n        /* \"#utility.yul\":7896:7899   */\n      dup3\n        /* \"#utility.yul\":7887:7893   */\n      dup5\n        /* \"#utility.yul\":7778:7900   */\n      tag_160\n      jump\t// in\n    tag_232:\n        /* \"#utility.yul\":7771:7900   */\n      swap2\n      pop\n        /* \"#utility.yul\":7917:7920   */\n      dup2\n        /* \"#utility.yul\":7910:7920   */\n      swap1\n      pop\n        /* \"#utility.yul\":7534:7926   */\n      swap5\n      swap4\n      pop\n      pop\n      pop\n      pop\n      jump\t// out\n        /* \"#utility.yul\":7932:8154   */\n    tag_21:\n      0x00\n        /* \"#utility.yul\":8063:8065   */\n      0x20\n        /* \"#utility.yul\":8052:8061   */\n      dup3\n        /* \"#utility.yul\":8048:8066   */\n      add\n        /* \"#utility.yul\":8040:8066   */\n      swap1\n      pop\n        /* \"#utility.yul\":8076:8147   */\n      tag_234\n        /* \"#utility.yul\":8144:8145   */\n      0x00\n        /* \"#utility.yul\":8133:8142   */\n      dup4\n        /* \"#utility.yul\":8129:8146   */\n      add\n        /* \"#utility.yul\":8120:8126   */\n      dup5\n        /* \"#utility.yul\":8076:8147   */\n      tag_154\n      jump\t// in\n    tag_234:\n        /* \"#utility.yul\":8030:8154   */\n      swap3\n      swap2\n      pop\n      pop\n      jump\t// out\n        /* \"#utility.yul\":8160:8492   */\n    tag_112:\n      0x00\n        /* \"#utility.yul\":8319:8321   */\n      0x40\n        /* \"#utility.yul\":8308:8317   */\n      dup3\n        /* \"#utility.yul\":8304:8322   */\n      add\n        /* \"#utility.yul\":8296:8322   */\n      swap1\n      pop\n        /* \"#utility.yul\":8332:8403   */\n      tag_236\n        /* \"#utility.yul\":8400:8401   */\n      0x00\n        /* \"#utility.yul\":8389:8398   */\n      dup4\n        /* \"#utility.yul\":8385:8402   */\n      add\n        /* \"#utility.yul\":8376:8382   */\n      dup6\n        /* \"#utility.yul\":8332:8403   */\n      tag_154\n      jump\t// in\n    tag_236:\n        /* \"#utility.yul\":8413:8485   */\n      tag_237\n        /* \"#utility.yul\":8481:8483   */\n      0x20\n        /* \"#utility.yul\":8470:8479   */\n      dup4\n        /* \"#utility.yul\":8466:8484   */\n      add\n        /* \"#utility.yul\":8457:8463   */\n      dup5\n        /* \"#utility.yul\":8413:8485   */\n      tag_216\n      jump\t// in\n    tag_237:\n        /* \"#utility.yul\":8286:8492   */\n      swap4\n      swap3\n      pop\n      pop\n      pop\n      jump\t// out\n        /* \"#utility.yul\":8498:8708   */\n    tag_34:\n      0x00\n        /* \"#utility.yul\":8623:8625   */\n      0x20\n        /* \"#utility.yul\":8612:8621   */\n      dup3\n        /* \"#utility.yul\":8608:8626   */\n      add\n        /* \"#utility.yul\":8600:8626   */\n      swap1\n      pop\n        /* \"#utility.yul\":8636:8701   */\n      tag_239\n        /* \"#utility.yul\":8698:8699   */\n      0x00\n        /* \"#utility.yul\":8687:8696   */\n      dup4\n        /* \"#utility.yul\":8683:8700   */\n      add\n        /* \"#utility.yul\":8674:8680   */\n      dup5\n        /* \"#utility.yul\":8636:8701   */\n      tag_176\n      jump\t// in\n    tag_239:\n        /* \"#utility.yul\":8590:8708   */\n      swap3\n      swap2\n      pop\n      pop\n      jump\t// out\n        /* \"#utility.yul\":8714:9133   */\n    tag_56:\n      0x00\n        /* \"#utility.yul\":8918:8920   */\n      0x20\n        /* \"#utility.yul\":8907:8916   */\n      dup3\n        /* \"#utility.yul\":8903:8921   */\n      add\n        /* \"#utility.yul\":8895:8921   */\n      swap1\n      pop\n        /* \"#utility.yul\":8967:8976   */\n      dup2\n        /* \"#utility.yul\":8961:8965   */\n      dup2\n        /* \"#utility.yul\":8957:8977   */\n      sub\n        /* \"#utility.yul\":8953:8954   */\n      0x00\n        /* \"#utility.yul\":8942:8951   */\n      dup4\n        /* \"#utility.yul\":8938:8955   */\n      add\n        /* \"#utility.yul\":8931:8978   */\n      mstore\n        /* \"#utility.yul\":8995:9126   */\n      tag_241\n        /* \"#utility.yul\":9121:9125   */\n      dup2\n        /* \"#utility.yul\":8995:9126   */\n      tag_188\n      jump\t// in\n    tag_241:\n        /* \"#utility.yul\":8987:9126   */\n      swap1\n      pop\n        /* \"#utility.yul\":8885:9133   */\n      swap2\n      swap1\n      pop\n      jump\t// out\n        /* \"#utility.yul\":9139:9558   */\n    tag_60:\n      0x00\n        /* \"#utility.yul\":9343:9345   */\n      0x20\n        /* \"#utility.yul\":9332:9341   */\n      dup3\n        /* \"#utility.yul\":9328:9346   */\n      add\n        /* \"#utility.yul\":9320:9346   */\n      swap1\n      pop\n        /* \"#utility.yul\":9392:9401   */\n      dup2\n        /* \"#utility.yul\":9386:9390   */\n      dup2\n        /* \"#utility.yul\":9382:9402   */\n      sub\n        /* \"#utility.yul\":9378:9379   */\n      0x00\n        /* \"#utility.yul\":9367:9376   */\n      dup4\n        /* \"#utility.yul\":9363:9380   */\n      add\n        /* \"#utility.yul\":9356:9403   */\n      mstore\n        /* \"#utility.yul\":9420:9551   */\n      tag_243\n        /* \"#utility.yul\":9546:9550   */\n      dup2\n        /* \"#utility.yul\":9420:9551   */\n      tag_192\n      jump\t// in\n    tag_243:\n        /* \"#utility.yul\":9412:9551   */\n      swap1\n      pop\n        /* \"#utility.yul\":9310:9558   */\n      swap2\n      swap1\n      pop\n      jump\t// out\n        /* \"#utility.yul\":9564:9983   */\n    tag_96:\n      0x00\n        /* \"#utility.yul\":9768:9770   */\n      0x20\n        /* \"#utility.yul\":9757:9766   */\n      dup3\n        /* \"#utility.yul\":9753:9771   */\n      add\n        /* \"#utility.yul\":9745:9771   */\n      swap1\n      pop\n        /* \"#utility.yul\":9817:9826   */\n      dup2\n        /* \"#utility.yul\":9811:9815   */\n      dup2\n        /* \"#utility.yul\":9807:9827   */\n      sub\n        /* \"#utility.yul\":9803:9804   */\n      0x00\n        /* \"#utility.yul\":9792:9801   */\n      dup4\n        /* \"#utility.yul\":9788:9805   */\n      add\n        /* \"#utility.yul\":9781:9828   */\n      mstore\n        /* \"#utility.yul\":9845:9976   */\n      tag_245\n        /* \"#utility.yul\":9971:9975   */\n      dup2\n        /* \"#utility.yul\":9845:9976   */\n      tag_195\n      jump\t// in\n    tag_245:\n        /* \"#utility.yul\":9837:9976   */\n      swap1\n      pop\n        /* \"#utility.yul\":9735:9983   */\n      swap2\n      swap1\n      pop\n      jump\t// out\n        /* \"#utility.yul\":9989:10408   */\n    tag_89:\n      0x00\n        /* \"#utility.yul\":10193:10195   */\n      0x20\n        /* \"#utility.yul\":10182:10191   */\n      dup3\n        /* \"#utility.yul\":10178:10196   */\n      add\n        /* \"#utility.yul\":10170:10196   */\n      swap1\n      pop\n        /* \"#utility.yul\":10242:10251   */\n      dup2\n        /* \"#utility.yul\":10236:10240   */\n      dup2\n        /* \"#utility.yul\":10232:10252   */\n      sub\n        /* \"#utility.yul\":10228:10229   */\n      0x00\n        /* \"#utility.yul\":10217:10226   */\n      dup4\n        /* \"#utility.yul\":10213:10230   */\n      add\n        /* \"#utility.yul\":10206:10253   */\n      mstore\n        /* \"#utility.yul\":10270:10401   */\n      tag_247\n        /* \"#utility.yul\":10396:10400   */\n      dup2\n        /* \"#utility.yul\":10270:10401   */\n      tag_198\n      jump\t// in\n    tag_247:\n        /* \"#utility.yul\":10262:10401   */\n      swap1\n      pop\n        /* \"#utility.yul\":10160:10408   */\n      swap2\n      swap1\n      pop\n      jump\t// out\n        /* \"#utility.yul\":10414:10833   */\n    tag_80:\n      0x00\n        /* \"#utility.yul\":10618:10620   */\n      0x20\n        /* \"#utility.yul\":10607:10616   */\n      dup3\n        /* \"#utility.yul\":10603:10621   */\n      add\n        /* \"#utility.yul\":10595:10621   */\n      swap1\n      pop\n        /* \"#utility.yul\":10667:10676   */\n      dup2\n        /* \"#utility.yul\":10661:10665   */\n      dup2\n        /* \"#utility.yul\":10657:10677   */\n      sub\n        /* \"#utility.yul\":10653:10654   */\n      0x00\n        /* \"#utility.yul\":10642:10651   */\n      dup4\n        /* \"#utility.yul\":10638:10655   */\n      add\n        /* \"#utility.yul\":10631:10678   */\n      mstore\n        /* \"#utility.yul\":10695:10826   */\n      tag_249\n        /* \"#utility.yul\":10821:10825   */\n      dup2\n        /* \"#utility.yul\":10695:10826   */\n      tag_201\n      jump\t// in\n    tag_249:\n        /* \"#utility.yul\":10687:10826   */\n      swap1\n      pop\n        /* \"#utility.yul\":10585:10833   */\n      swap2\n      swap1\n      pop\n      jump\t// out\n        /* \"#utility.yul\":10839:11258   */\n    tag_93:\n      0x00\n        /* \"#utility.yul\":11043:11045   */\n      0x20\n        /* \"#utility.yul\":11032:11041   */\n      dup3\n        /* \"#utility.yul\":11028:11046   */\n      add\n        /* \"#utility.yul\":11020:11046   */\n      swap1\n      pop\n        /* \"#utility.yul\":11092:11101   */\n      dup2\n        /* \"#utility.yul\":11086:11090   */\n      dup2\n        /* \"#utility.yul\":11082:11102   */\n      sub\n        /* \"#utility.yul\":11078:11079   */\n      0x00\n        /* \"#utility.yul\":11067:11076   */\n      dup4\n        /* \"#utility.yul\":11063:11080   */\n      add\n        /* \"#utility.yul\":11056:11103   */\n      mstore\n        /* \"#utility.yul\":11120:11251   */\n      tag_251\n        /* \"#utility.yul\":11246:11250   */\n      dup2\n        /* \"#utility.yul\":11120:11251   */\n      tag_204\n      jump\t// in\n    tag_251:\n        /* \"#utility.yul\":11112:11251   */\n      swap1\n      pop\n        /* \"#utility.yul\":11010:11258   */\n      swap2\n      swap1\n      pop\n      jump\t// out\n        /* \"#utility.yul\":11264:11683   */\n    tag_67:\n      0x00\n        /* \"#utility.yul\":11468:11470   */\n      0x20\n        /* \"#utility.yul\":11457:11466   */\n      dup3\n        /* \"#utility.yul\":11453:11471   */\n      add\n        /* \"#utility.yul\":11445:11471   */\n      swap1\n      pop\n        /* \"#utility.yul\":11517:11526   */\n      dup2\n        /* \"#utility.yul\":11511:11515   */\n      dup2\n        /* \"#utility.yul\":11507:11527   */\n      sub\n        /* \"#utility.yul\":11503:11504   */\n      0x00\n        /* \"#utility.yul\":11492:11501   */\n      dup4\n        /* \"#utility.yul\":11488:11505   */\n      add\n        /* \"#utility.yul\":11481:11528   */\n      mstore\n        /* \"#utility.yul\":11545:11676   */\n      tag_253\n        /* \"#utility.yul\":11671:11675   */\n      dup2\n        /* \"#utility.yul\":11545:11676   */\n      tag_207\n      jump\t// in\n    tag_253:\n        /* \"#utility.yul\":11537:11676   */\n      swap1\n      pop\n        /* \"#utility.yul\":11435:11683   */\n      swap2\n      swap1\n      pop\n      jump\t// out\n        /* \"#utility.yul\":11689:12108   */\n    tag_70:\n      0x00\n        /* \"#utility.yul\":11893:11895   */\n      0x20\n        /* \"#utility.yul\":11882:11891   */\n      dup3\n        /* \"#utility.yul\":11878:11896   */\n      add\n        /* \"#utility.yul\":11870:11896   */\n      swap1\n      pop\n        /* \"#utility.yul\":11942:11951   */\n      dup2\n        /* \"#utility.yul\":11936:11940   */\n      dup2\n        /* \"#utility.yul\":11932:11952   */\n      sub\n        /* \"#utility.yul\":11928:11929   */\n      0x00\n        /* \"#utility.yul\":11917:11926   */\n      dup4\n        /* \"#utility.yul\":11913:11930   */\n      add\n        /* \"#utility.yul\":11906:11953   */\n      mstore\n        /* \"#utility.yul\":11970:12101   */\n      tag_255\n        /* \"#utility.yul\":12096:12100   */\n      dup2\n        /* \"#utility.yul\":11970:12101   */\n      tag_213\n      jump\t// in\n    tag_255:\n        /* \"#utility.yul\":11962:12101   */\n      swap1\n      pop\n        /* \"#utility.yul\":11860:12108   */\n      swap2\n      swap1\n      pop\n      jump\t// out\n        /* \"#utility.yul\":12114:12336   */\n    tag_16:\n      0x00\n        /* \"#utility.yul\":12245:12247   */\n      0x20\n        /* \"#utility.yul\":12234:12243   */\n      dup3\n        /* \"#utility.yul\":12230:12248   */\n      add\n        /* \"#utility.yul\":12222:12248   */\n      swap1\n      pop\n        /* \"#utility.yul\":12258:12329   */\n      tag_257\n        /* \"#utility.yul\":12326:12327   */\n      0x00\n        /* \"#utility.yul\":12315:12324   */\n      dup4\n        /* \"#utility.yul\":12311:12328   */\n      add\n        /* \"#utility.yul\":12302:12308   */\n      dup5\n        /* \"#utility.yul\":12258:12329   */\n      tag_216\n      jump\t// in\n    tag_257:\n        /* \"#utility.yul\":12212:12336   */\n      swap3\n      swap2\n      pop\n      pop\n      jump\t// out\n        /* \"#utility.yul\":12342:12674   */\n    tag_110:\n      0x00\n        /* \"#utility.yul\":12501:12503   */\n      0x40\n        /* \"#utility.yul\":12490:12499   */\n      dup3\n        /* \"#utility.yul\":12486:12504   */\n      add\n        /* \"#utility.yul\":12478:12504   */\n      swap1\n      pop\n        /* \"#utility.yul\":12514:12585   */\n      tag_259\n        /* \"#utility.yul\":12582:12583   */\n      0x00\n        /* \"#utility.yul\":12571:12580   */\n      dup4\n        /* \"#utility.yul\":12567:12584   */\n      add\n        /* \"#utility.yul\":12558:12564   */\n      dup6\n        /* \"#utility.yul\":12514:12585   */\n      tag_216\n      jump\t// in\n    tag_259:\n        /* \"#utility.yul\":12595:12667   */\n      tag_260\n        /* \"#utility.yul\":12663:12665   */\n      0x20\n        /* \"#utility.yul\":12652:12661   */\n      dup4\n        /* \"#utility.yul\":12648:12666   */\n      add\n        /* \"#utility.yul\":12639:12645   */\n      dup5\n        /* \"#utility.yul\":12595:12667   */\n      tag_216\n      jump\t// in\n    tag_260:\n        /* \"#utility.yul\":12468:12674   */\n      swap4\n      swap3\n      pop\n      pop\n      pop\n      jump\t// out\n        /* \"#utility.yul\":12680:12963   */\n    tag_133:\n      0x00\n        /* \"#utility.yul\":12746:12748   */\n      0x40\n        /* \"#utility.yul\":12740:12749   */\n      mload\n        /* \"#utility.yul\":12730:12749   */\n      swap1\n      pop\n        /* \"#utility.yul\":12788:12792   */\n      dup2\n        /* \"#utility.yul\":12780:12786   */\n      dup2\n        /* \"#utility.yul\":12776:12793   */\n      add\n        /* \"#utility.yul\":12895:12901   */\n      dup2\n        /* \"#utility.yul\":12883:12893   */\n      dup2\n        /* \"#utility.yul\":12880:12902   */\n      lt\n        /* \"#utility.yul\":12859:12877   */\n      0xffffffffffffffff\n        /* \"#utility.yul\":12847:12857   */\n      dup3\n        /* \"#utility.yul\":12844:12878   */\n      gt\n        /* \"#utility.yul\":12841:12903   */\n      or\n        /* \"#utility.yul\":12838:12840   */\n      iszero\n      tag_262\n      jumpi\n        /* \"#utility.yul\":12906:12924   */\n      tag_263\n      tag_264\n      jump\t// in\n    tag_263:\n        /* \"#utility.yul\":12838:12840   */\n    tag_262:\n        /* \"#utility.yul\":12946:12956   */\n      dup1\n        /* \"#utility.yul\":12942:12944   */\n      0x40\n        /* \"#utility.yul\":12935:12957   */\n      mstore\n        /* \"#utility.yul\":12720:12963   */\n      pop\n      swap2\n      swap1\n      pop\n      jump\t// out\n        /* \"#utility.yul\":12969:13301   */\n    tag_132:\n      0x00\n        /* \"#utility.yul\":13121:13139   */\n      0xffffffffffffffff\n        /* \"#utility.yul\":13113:13119   */\n      dup3\n        /* \"#utility.yul\":13110:13140   */\n      gt\n        /* \"#utility.yul\":13107:13109   */\n      iszero\n      tag_266\n      jumpi\n        /* \"#utility.yul\":13143:13161   */\n      tag_267\n      tag_264\n      jump\t// in\n    tag_267:\n        /* \"#utility.yul\":13107:13109   */\n    tag_266:\n        /* \"#utility.yul\":13228:13232   */\n      0x1f\n        /* \"#utility.yul\":13224:13233   */\n      not\n        /* \"#utility.yul\":13217:13221   */\n      0x1f\n        /* \"#utility.yul\":13209:13215   */\n      dup4\n        /* \"#utility.yul\":13205:13222   */\n      add\n        /* \"#utility.yul\":13201:13234   */\n      and\n        /* \"#utility.yul\":13193:13234   */\n      swap1\n      pop\n        /* \"#utility.yul\":13289:13293   */\n      0x20\n        /* \"#utility.yul\":13283:13287   */\n      dup2\n        /* \"#utility.yul\":13279:13294   */\n      add\n        /* \"#utility.yul\":13271:13294   */\n      swap1\n      pop\n        /* \"#utility.yul\":13036:13301   */\n      swap2\n      swap1\n      pop\n      jump\t// out\n        /* \"#utility.yul\":13307:13463   */\n    tag_167:\n      0x00\n        /* \"#utility.yul\":13394:13397   */\n      dup2\n        /* \"#utility.yul\":13386:13397   */\n      swap1\n      pop\n        /* \"#utility.yul\":13417:13420   */\n      dup2\n        /* \"#utility.yul\":13414:13415   */\n      0x00\n        /* \"#utility.yul\":13407:13421   */\n      mstore\n        /* \"#utility.yul\":13451:13455   */\n      0x20\n        /* \"#utility.yul\":13448:13449   */\n      0x00\n        /* \"#utility.yul\":13438:13456   */\n      keccak256\n        /* \"#utility.yul\":13430:13456   */\n      swap1\n      pop\n        /* \"#utility.yul\":13376:13463   */\n      swap2\n      swap1\n      pop\n      jump\t// out\n        /* \"#utility.yul\":13469:13580   */\n    tag_163:\n      0x00\n        /* \"#utility.yul\":13567:13572   */\n      dup2\n        /* \"#utility.yul\":13561:13573   */\n      sload\n        /* \"#utility.yul\":13551:13573   */\n      swap1\n      pop\n        /* \"#utility.yul\":13540:13580   */\n      swap2\n      swap1\n      pop\n      jump\t// out\n        /* \"#utility.yul\":13586:13685   */\n    tag_183:\n      0x00\n        /* \"#utility.yul\":13672:13677   */\n      dup2\n        /* \"#utility.yul\":13666:13678   */\n      mload\n        /* \"#utility.yul\":13656:13678   */\n      swap1\n      pop\n        /* \"#utility.yul\":13645:13685   */\n      swap2\n      swap1\n      pop\n      jump\t// out\n        /* \"#utility.yul\":13691:13801   */\n    tag_175:\n      0x00\n        /* \"#utility.yul\":13790:13794   */\n      0x01\n        /* \"#utility.yul\":13785:13788   */\n      dup3\n        /* \"#utility.yul\":13781:13795   */\n      add\n        /* \"#utility.yul\":13773:13795   */\n      swap1\n      pop\n        /* \"#utility.yul\":13763:13801   */\n      swap2\n      swap1\n      pop\n      jump\t// out\n        /* \"#utility.yul\":13807:13970   */\n    tag_165:\n      0x00\n        /* \"#utility.yul\":13961:13964   */\n      dup2\n        /* \"#utility.yul\":13946:13964   */\n      swap1\n      pop\n        /* \"#utility.yul\":13936:13970   */\n      swap3\n      swap2\n      pop\n      pop\n      jump\t// out\n        /* \"#utility.yul\":13976:14145   */\n    tag_191:\n      0x00\n        /* \"#utility.yul\":14094:14100   */\n      dup3\n        /* \"#utility.yul\":14089:14092   */\n      dup3\n        /* \"#utility.yul\":14082:14101   */\n      mstore\n        /* \"#utility.yul\":14134:14138   */\n      0x20\n        /* \"#utility.yul\":14129:14132   */\n      dup3\n        /* \"#utility.yul\":14125:14139   */\n      add\n        /* \"#utility.yul\":14110:14139   */\n      swap1\n      pop\n        /* \"#utility.yul\":14072:14145   */\n      swap3\n      swap2\n      pop\n      pop\n      jump\t// out\n        /* \"#utility.yul\":14151:14299   */\n    tag_185:\n      0x00\n        /* \"#utility.yul\":14290:14293   */\n      dup2\n        /* \"#utility.yul\":14275:14293   */\n      swap1\n      pop\n        /* \"#utility.yul\":14265:14299   */\n      swap3\n      swap2\n      pop\n      pop\n      jump\t// out\n        /* \"#utility.yul\":14305:14490   */\n    tag_106:\n      0x00\n        /* \"#utility.yul\":14362:14382   */\n      tag_276\n        /* \"#utility.yul\":14380:14381   */\n      dup3\n        /* \"#utility.yul\":14362:14382   */\n      tag_219\n      jump\t// in\n    tag_276:\n        /* \"#utility.yul\":14357:14382   */\n      swap2\n      pop\n        /* \"#utility.yul\":14396:14416   */\n      tag_277\n        /* \"#utility.yul\":14414:14415   */\n      dup4\n        /* \"#utility.yul\":14396:14416   */\n      tag_219\n      jump\t// in\n    tag_277:\n        /* \"#utility.yul\":14391:14416   */\n      swap3\n      pop\n        /* \"#utility.yul\":14435:14436   */\n      dup3\n        /* \"#utility.yul\":14425:14427   */\n      tag_278\n      jumpi\n        /* \"#utility.yul\":14440:14458   */\n      tag_279\n      tag_280\n      jump\t// in\n    tag_279:\n        /* \"#utility.yul\":14425:14427   */\n    tag_278:\n        /* \"#utility.yul\":14482:14483   */\n      dup3\n        /* \"#utility.yul\":14479:14480   */\n      dup3\n        /* \"#utility.yul\":14475:14484   */\n      div\n        /* \"#utility.yul\":14470:14484   */\n      swap1\n      pop\n        /* \"#utility.yul\":14347:14490   */\n      swap3\n      swap2\n      pop\n      pop\n      jump\t// out\n        /* \"#utility.yul\":14496:14844   */\n    tag_104:\n      0x00\n        /* \"#utility.yul\":14559:14579   */\n      tag_282\n        /* \"#utility.yul\":14577:14578   */\n      dup3\n        /* \"#utility.yul\":14559:14579   */\n      tag_219\n      jump\t// in\n    tag_282:\n        /* \"#utility.yul\":14554:14579   */\n      swap2\n      pop\n        /* \"#utility.yul\":14593:14613   */\n      tag_283\n        /* \"#utility.yul\":14611:14612   */\n      dup4\n        /* \"#utility.yul\":14593:14613   */\n      tag_219\n      jump\t// in\n    tag_283:\n        /* \"#utility.yul\":14588:14613   */\n      swap3\n      pop\n        /* \"#utility.yul\":14781:14782   */\n      dup2\n        /* \"#utility.yul\":14713:14779   */\n      0xffffffffffffffffffffffffffffffffffffffffffffffffffffffffffffffff\n        /* \"#utility.yul\":14709:14783   */\n      div\n        /* \"#utility.yul\":14706:14707   */\n      dup4\n        /* \"#utility.yul\":14703:14784   */\n      gt\n        /* \"#utility.yul\":14698:14699   */\n      dup3\n        /* \"#utility.yul\":14691:14700   */\n      iszero\n        /* \"#utility.yul\":14684:14701   */\n      iszero\n        /* \"#utility.yul\":14680:14785   */\n      and\n        /* \"#utility.yul\":14677:14679   */\n      iszero\n      tag_284\n      jumpi\n        /* \"#utility.yul\":14788:14806   */\n      tag_285\n      tag_286\n      jump\t// in\n    tag_285:\n        /* \"#utility.yul\":14677:14679   */\n    tag_284:\n        /* \"#utility.yul\":14836:14837   */\n      dup3\n        /* \"#utility.yul\":14833:14834   */\n      dup3\n        /* \"#utility.yul\":14829:14838   */\n      mul\n        /* \"#utility.yul\":14818:14838   */\n      swap1\n      pop\n        /* \"#utility.yul\":14544:14844   */\n      swap3\n      swap2\n      pop\n      pop\n      jump\t// out\n        /* \"#utility.yul\":14850:14989   */\n    tag_287:\n      0x00\n        /* \"#utility.yul\":14940:14982   */\n      0xffffffffffffffffffffffffffffffffffffffff\n        /* \"#utility.yul\":14933:14938   */\n      dup3\n        /* \"#utility.yul\":14929:14983   */\n      and\n        /* \"#utility.yul\":14918:14983   */\n      swap1\n      pop\n        /* \"#utility.yul\":14908:14989   */\n      swap2\n      swap1\n      pop\n      jump\t// out\n        /* \"#utility.yul\":14995:15091   */\n    tag_157:\n      0x00\n        /* \"#utility.yul\":15061:15085   */\n      tag_290\n        /* \"#utility.yul\":15079:15084   */\n      dup3\n        /* \"#utility.yul\":15061:15085   */\n      tag_291\n      jump\t// in\n    tag_290:\n        /* \"#utility.yul\":15050:15085   */\n      swap1\n      pop\n        /* \"#utility.yul\":15040:15091   */\n      swap2\n      swap1\n      pop\n      jump\t// out\n        /* \"#utility.yul\":15097:15187   */\n    tag_179:\n      0x00\n        /* \"#utility.yul\":15174:15179   */\n      dup2\n        /* \"#utility.yul\":15167:15180   */\n      iszero\n        /* \"#utility.yul\":15160:15181   */\n      iszero\n        /* \"#utility.yul\":15149:15181   */\n      swap1\n      pop\n        /* \"#utility.yul\":15139:15187   */\n      swap2\n      swap1\n      pop\n      jump\t// out\n        /* \"#utility.yul\":15193:15319   */\n    tag_291:\n      0x00\n        /* \"#utility.yul\":15270:15312   */\n      0xffffffffffffffffffffffffffffffffffffffff\n        /* \"#utility.yul\":15263:15268   */\n      dup3\n        /* \"#utility.yul\":15259:15313   */\n      and\n        /* \"#utility.yul\":15248:15313   */\n      swap1\n      pop\n        /* \"#utility.yul\":15238:15319   */\n      swap2\n      swap1\n      pop\n      jump\t// out\n        /* \"#utility.yul\":15325:15402   */\n    tag_219:\n      0x00\n        /* \"#utility.yul\":15391:15396   */\n      dup2\n        /* \"#utility.yul\":15380:15396   */\n      swap1\n      pop\n        /* \"#utility.yul\":15370:15402   */\n      swap2\n      swap1\n      pop\n      jump\t// out\n        /* \"#utility.yul\":15408:15562   */\n    tag_136:\n        /* \"#utility.yul\":15492:15498   */\n      dup3\n        /* \"#utility.yul\":15487:15490   */\n      dup2\n        /* \"#utility.yul\":15482:15485   */\n      dup4\n        /* \"#utility.yul\":15469:15499   */\n      calldatacopy\n        /* \"#utility.yul\":15554:15555   */\n      0x00\n        /* \"#utility.yul\":15545:15551   */\n      dup4\n        /* \"#utility.yul\":15540:15543   */\n      dup4\n        /* \"#utility.yul\":15536:15552   */\n      add\n        /* \"#utility.yul\":15529:15556   */\n      mstore\n        /* \"#utility.yul\":15459:15562   */\n      pop\n      pop\n      pop\n      jump\t// out\n        /* \"#utility.yul\":15568:15875   */\n    tag_187:\n        /* \"#utility.yul\":15636:15637   */\n      0x00\n        /* \"#utility.yul\":15646:15759   */\n    tag_297:\n        /* \"#utility.yul\":15660:15666   */\n      dup4\n        /* \"#utility.yul\":15657:15658   */\n      dup2\n        /* \"#utility.yul\":15654:15667   */\n      lt\n        /* \"#utility.yul\":15646:15759   */\n      iszero\n      tag_299\n      jumpi\n        /* \"#utility.yul\":15745:15746   */\n      dup1\n        /* \"#utility.yul\":15740:15743   */\n      dup3\n        /* \"#utility.yul\":15736:15747   */\n      add\n        /* \"#utility.yul\":15730:15748   */\n      mload\n        /* \"#utility.yul\":15726:15727   */\n      dup2\n        /* \"#utility.yul\":15721:15724   */\n      dup5\n        /* \"#utility.yul\":15717:15728   */\n      add\n        /* \"#utility.yul\":15710:15749   */\n      mstore\n        /* \"#utility.yul\":15682:15684   */\n      0x20\n        /* \"#utility.yul\":15679:15680   */\n      dup2\n        /* \"#utility.yul\":15675:15685   */\n      add\n        /* \"#utility.yul\":15670:15685   */\n      swap1\n      pop\n        /* \"#utility.yul\":15646:15759   */\n      jump(tag_297)\n    tag_299:\n        /* \"#utility.yul\":15777:15783   */\n      dup4\n        /* \"#utility.yul\":15774:15775   */\n      dup2\n        /* \"#utility.yul\":15771:15784   */\n      gt\n        /* \"#utility.yul\":15768:15770   */\n      iszero\n      tag_300\n      jumpi\n        /* \"#utility.yul\":15857:15858   */\n      0x00\n        /* \"#utility.yul\":15848:15854   */\n      dup5\n        /* \"#utility.yul\":15843:15846   */\n      dup5\n        /* \"#utility.yul\":15839:15855   */\n      add\n        /* \"#utility.yul\":15832:15859   */\n      mstore\n        /* \"#utility.yul\":15768:15770   */\n    tag_300:\n        /* \"#utility.yul\":15617:15875   */\n      pop\n      pop\n      pop\n      pop\n      jump\t// out\n        /* \"#utility.yul\":15881:16047   */\n    tag_301:\n      0x00\n        /* \"#utility.yul\":15975:16041   */\n      tag_303\n        /* \"#utility.yul\":16006:16040   */\n      tag_304\n        /* \"#utility.yul\":16029:16039   */\n      dup4\n        /* \"#utility.yul\":16006:16040   */\n      tag_305\n      jump\t// in\n    tag_304:\n        /* \"#utility.yul\":15975:16041   */\n      tag_287\n      jump\t// in\n    tag_303:\n        /* \"#utility.yul\":15966:16041   */\n      swap1\n      pop\n        /* \"#utility.yul\":15956:16047   */\n      swap2\n      swap1\n      pop\n      jump\t// out\n        /* \"#utility.yul\":16053:16132   */\n    tag_224:\n      0x00\n        /* \"#utility.yul\":16121:16126   */\n      dup2\n        /* \"#utility.yul\":16110:16126   */\n      swap1\n      pop\n        /* \"#utility.yul\":16100:16132   */\n      swap2\n      swap1\n      pop\n      jump\t// out\n        /* \"#utility.yul\":16138:16314   */\n    tag_100:\n      0x00\n        /* \"#utility.yul\":16187:16207   */\n      tag_308\n        /* \"#utility.yul\":16205:16206   */\n      dup3\n        /* \"#utility.yul\":16187:16207   */\n      tag_219\n      jump\t// in\n    tag_308:\n        /* \"#utility.yul\":16182:16207   */\n      swap2\n      pop\n        /* \"#utility.yul\":16221:16241   */\n      tag_309\n        /* \"#utility.yul\":16239:16240   */\n      dup4\n        /* \"#utility.yul\":16221:16241   */\n      tag_219\n      jump\t// in\n    tag_309:\n        /* \"#utility.yul\":16216:16241   */\n      swap3\n      pop\n        /* \"#utility.yul\":16260:16261   */\n      dup3\n        /* \"#utility.yul\":16250:16252   */\n      tag_310\n      jumpi\n        /* \"#utility.yul\":16265:16283   */\n      tag_311\n      tag_280\n      jump\t// in\n    tag_311:\n        /* \"#utility.yul\":16250:16252   */\n    tag_310:\n        /* \"#utility.yul\":16306:16307   */\n      dup3\n        /* \"#utility.yul\":16303:16304   */\n      dup3\n        /* \"#utility.yul\":16299:16308   */\n      mod\n        /* \"#utility.yul\":16294:16308   */\n      swap1\n      pop\n        /* \"#utility.yul\":16172:16314   */\n      swap3\n      swap2\n      pop\n      pop\n      jump\t// out\n        /* \"#utility.yul\":16320:16500   */\n    tag_286:\n        /* \"#utility.yul\":16368:16445   */\n      0x4e487b7100000000000000000000000000000000000000000000000000000000\n        /* \"#utility.yul\":16365:16366   */\n      0x00\n        /* \"#utility.yul\":16358:16446   */\n      mstore\n        /* \"#utility.yul\":16465:16469   */\n      0x11\n        /* \"#utility.yul\":16462:16463   */\n      0x04\n        /* \"#utility.yul\":16455:16470   */\n      mstore\n        /* \"#utility.yul\":16489:16493   */\n      0x24\n        /* \"#utility.yul\":16486:16487   */\n      0x00\n        /* \"#utility.yul\":16479:16494   */\n      revert\n        /* \"#utility.yul\":16506:16686   */\n    tag_280:\n        /* \"#utility.yul\":16554:16631   */\n      0x4e487b7100000000000000000000000000000000000000000000000000000000\n        /* \"#utility.yul\":16551:16552   */\n      0x00\n        /* \"#utility.yul\":16544:16632   */\n      mstore\n        /* \"#utility.yul\":16651:16655   */\n      0x12\n        /* \"#utility.yul\":16648:16649   */\n      0x04\n        /* \"#utility.yul\":16641:16656   */\n      mstore\n        /* \"#utility.yul\":16675:16679   */\n      0x24\n        /* \"#utility.yul\":16672:16673   */\n      0x00\n        /* \"#utility.yul\":16665:16680   */\n      revert\n        /* \"#utility.yul\":16692:16872   */\n    tag_264:\n        /* \"#utility.yul\":16740:16817   */\n      0x4e487b7100000000000000000000000000000000000000000000000000000000\n        /* \"#utility.yul\":16737:16738   */\n      0x00\n        /* \"#utility.yul\":16730:16818   */\n      mstore\n        /* \"#utility.yul\":16837:16841   */\n      0x41\n        /* \"#utility.yul\":16834:16835   */\n      0x04\n        /* \"#utility.yul\":16827:16842   */\n      mstore\n        /* \"#utility.yul\":16861:16865   */\n      0x24\n        /* \"#utility.yul\":16858:16859   */\n      0x00\n        /* \"#utility.yul\":16851:16866   */\n      revert\n        /* \"#utility.yul\":16878:17022   */\n    tag_172:\n      0x00\n        /* \"#utility.yul\":16958:17015   */\n      tag_316\n        /* \"#utility.yul\":17009:17013   */\n      dup3\n        /* \"#utility.yul\":17003:17014   */\n      sload\n        /* \"#utility.yul\":16958:17015   */\n      tag_301\n      jump\t// in\n    tag_316:\n        /* \"#utility.yul\":16949:17015   */\n      swap1\n      pop\n        /* \"#utility.yul\":16939:17022   */\n      swap2\n      swap1\n      pop\n      jump\t// out\n        /* \"#utility.yul\":17028:17130   */\n    tag_305:\n      0x00\n        /* \"#utility.yul\":17117:17122   */\n      dup2\n        /* \"#utility.yul\":17114:17115   */\n      0x00\n        /* \"#utility.yul\":17110:17123   */\n      shr\n        /* \"#utility.yul\":17089:17123   */\n      swap1\n      pop\n        /* \"#utility.yul\":17079:17130   */\n      swap2\n      swap1\n      pop\n      jump\t// out\n        /* \"#utility.yul\":17136:17258   */\n    tag_144:\n        /* \"#utility.yul\":17209:17233   */\n      tag_319\n        /* \"#utility.yul\":17227:17232   */\n      dup2\n        /* \"#utility.yul\":17209:17233   */\n      tag_219\n      jump\t// in\n    tag_319:\n        /* \"#utility.yul\":17202:17207   */\n      dup2\n        /* \"#utility.yul\":17199:17234   */\n      eq\n        /* \"#utility.yul\":17189:17191   */\n      tag_320\n      jumpi\n        /* \"#utility.yul\":17248:17249   */\n      0x00\n        /* \"#utility.yul\":17245:17246   */\n      dup1\n        /* \"#utility.yul\":17238:17250   */\n      revert\n        /* \"#utility.yul\":17189:17191   */\n    tag_320:\n        /* \"#utility.yul\":17179:17258   */\n      pop\n      jump\t// out\n\n    auxdata: 0xa2646970667358221220801a4b928cbe7974ef770964052a7d391a87713206818ef21d4195578546bb3a64736f6c63430008000033\n}\n",
				"bytecode": {
					"linkReferences": {},
					"object": "6080604052605a600355600a6004553480156200001b57600080fd5b50604051620017343803806200173483398181016040528101906200004191906200014f565b336000806101000a81548173ffffffffffffffffffffffffffffffffffffffff021916908373ffffffffffffffffffffffffffffffffffffffff16021790555066071afd498d000060068190555066038d7ea4c68000600654620000a6919062000202565b600781905550826008819055506201518082620000c491906200023a565b42620000d19190620001a5565b60098190555080600260006101000a81548173ffffffffffffffffffffffffffffffffffffffff021916908373ffffffffffffffffffffffffffffffffffffffff1602179055505050506200036b565b600081519050620001328162000337565b92915050565b600081519050620001498162000351565b92915050565b6000806000606084860312156200016557600080fd5b6000620001758682870162000138565b9350506020620001888682870162000138565b92505060406200019b8682870162000121565b9150509250925092565b6000620001b282620002cf565b9150620001bf83620002cf565b9250827fffffffffffffffffffffffffffffffffffffffffffffffffffffffffffffffff03821115620001f757620001f6620002d9565b5b828201905092915050565b60006200020f82620002cf565b91506200021c83620002cf565b9250826200022f576200022e62000308565b5b828204905092915050565b60006200024782620002cf565b91506200025483620002cf565b9250817fffffffffffffffffffffffffffffffffffffffffffffffffffffffffffffffff048311821515161562000290576200028f620002d9565b5b828202905092915050565b6000620002a882620002af565b9050919050565b600073ffffffffffffffffffffffffffffffffffffffff82169050919050565b6000819050919050565b7f4e487b7100000000000000000000000000000000000000000000000000000000600052601160045260246000fd5b7f4e487b7100000000000000000000000000000000000000000000000000000000600052601260045260246000fd5b62000342816200029b565b81146200034e57600080fd5b50565b6200035c81620002cf565b81146200036857600080fd5b50565b6113b9806200037b6000396000f3fe6080604052600436106100865760003560e01c8063766f03ea11610059578063766f03ea146101375780638481dbc614610162578063989101c11461017e57806398d0c1ed14610195578063a7a0fbc6146101c057610086565b806329dcb0cf1461008b578063427f822b146100b65780634b20d5d5146100e15780635aa68ac01461010c575b600080fd5b34801561009757600080fd5b506100a06101d7565b6040516100ad9190611031565b60405180910390f35b3480156100c257600080fd5b506100cb6101dd565b6040516100d89190610ed2565b60405180910390f35b3480156100ed57600080fd5b506100f6610203565b6040516101039190611031565b60405180910390f35b34801561011857600080fd5b5061012161020b565b60405161012e9190611031565b60405180910390f35b34801561014357600080fd5b5061014c610218565b6040516101599190610f16565b60405180910390f35b61017c60048036038101906101779190610a1a565b610237565b005b34801561018a57600080fd5b5061019361046c565b005b3480156101a157600080fd5b506101aa610504565b6040516101b79190611031565b60405180910390f35b3480156101cc57600080fd5b506101d561050a565b005b60095481565b600560009054906101000a900473ffffffffffffffffffffffffffffffffffffffff1681565b600047905090565b6000600180549050905090565b600060095442118015610232575060085460018054905010155b905090565b60095442111561027c576040517f08c379a000000000000000000000000000000000000000000000000000000000815260040161027390610f31565b60405180910390fd5b60128210156102c0576040517f08c379a00000000000000000000000000000000000000000000000000000000081526004016102b790610f51565b60405180910390fd5b6040516020016102cf90610e84565b60405160208183030381529060405280519060200120816040516020016102f69190610e6d565b604051602081830303815290604052805190602001201461034c576040517f08c379a000000000000000000000000000000000000000000000000000000000815260040161034390610ff1565b60405180910390fd5b6006543414610390576040517f08c379a000000000000000000000000000000000000000000000000000000000815260040161038790611011565b60405180910390fd5b6001339080600181540180825580915050600190039060005260206000200160009091909190916101000a81548173ffffffffffffffffffffffffffffffffffffffff021916908373ffffffffffffffffffffffffffffffffffffffff1602179055503373ffffffffffffffffffffffffffffffffffffffff167fbec7b484b62dbd71a6a50296032b8845210f16417e4162724f5d3d7c634300d6346040516104399190611031565b60405180910390a26008546001805490501015801561045a57506009544210155b15610468576104676105e5565b5b5050565b60008054906101000a900473ffffffffffffffffffffffffffffffffffffffff1673ffffffffffffffffffffffffffffffffffffffff163373ffffffffffffffffffffffffffffffffffffffff16146104fa576040517f08c379a00000000000000000000000000000000000000000000000000000000081526004016104f190610fb1565b60405180910390fd5b6105026105e5565b565b60075481565b60008054906101000a900473ffffffffffffffffffffffffffffffffffffffff1673ffffffffffffffffffffffffffffffffffffffff163373ffffffffffffffffffffffffffffffffffffffff1614610598576040517f08c379a000000000000000000000000000000000000000000000000000000000815260040161058f90610fb1565b60405180910390fd5b60095442106105dc576040517f08c379a00000000000000000000000000000000000000000000000000000000081526004016105d390610f91565b60405180910390fd5b42600981905550565b600854600180549050101561062f576040517f08c379a000000000000000000000000000000000000000000000000000000000815260040161062690610fd1565b60405180910390fd5b600954421015610674576040517f08c379a000000000000000000000000000000000000000000000000000000000815260040161066b90610f71565b60405180910390fd5b6000600180549050610684610929565b61068e919061128e565b9050600181815481106106ca577f4e487b7100000000000000000000000000000000000000000000000000000000600052603260045260246000fd5b9060005260206000200160009054906101000a900473ffffffffffffffffffffffffffffffffffffffff16600560006101000a81548173ffffffffffffffffffffffffffffffffffffffff021916908373ffffffffffffffffffffffffffffffffffffffff1602179055506000479050600060646003548361074c9190611166565b6107569190611135565b9050600060646004548461076a9190611166565b6107749190611135565b9050600560009054906101000a900473ffffffffffffffffffffffffffffffffffffffff1673ffffffffffffffffffffffffffffffffffffffff167fdf2c616411c07fd843d775cfed8b8fba67e4d7a166cf8187097edf4b4c37c7ab83836040516107e092919061104c565b60405180910390a27ff1e48810a2824165c037541ecba04622432568c38ae66d998bbb58dfa70cc353600560009054906101000a900473ffffffffffffffffffffffffffffffffffffffff168560405161083b929190610eed565b60405180910390a1600560009054906101000a900473ffffffffffffffffffffffffffffffffffffffff1673ffffffffffffffffffffffffffffffffffffffff166108fc839081150290604051600060405180830381858888f193505050501580156108ab573d6000803e3d6000fd5b50600260009054906101000a900473ffffffffffffffffffffffffffffffffffffffff1673ffffffffffffffffffffffffffffffffffffffff166108fc829081150290604051600060405180830381858888f19350505050158015610914573d6000803e3d6000fd5b5060016000610923919061095f565b50505050565b60004244600160405160200161094193929190610e99565b6040516020818303038152906040528051906020012060001c905090565b508054600082559060005260206000209081019061097d9190610980565b50565b5b80821115610999576000816000905550600101610981565b5090565b60006109b06109ab846110a6565b611075565b9050828152602081018484840111156109c857600080fd5b6109d3848285611228565b509392505050565b600082601f8301126109ec57600080fd5b81356109fc84826020860161099d565b91505092915050565b600081359050610a148161136c565b92915050565b60008060408385031215610a2d57600080fd5b6000610a3b85828601610a05565b925050602083013567ffffffffffffffff811115610a5857600080fd5b610a64858286016109db565b9150509250929050565b6000610a7a8383610a95565b60208301905092915050565b610a8f816111e0565b82525050565b610a9e816111e0565b82525050565b6000610aaf826110eb565b610ab9818561110e565b9350610ac4836110d6565b8060005b83811015610afc57610ad98261134c565b610ae38882610a6e565b9750610aee83611101565b925050600181019050610ac8565b5085935050505092915050565b610b12816111f2565b82525050565b6000610b23826110f6565b610b2d818561112a565b9350610b3d818560208601611237565b80840191505092915050565b6000610b56601783611119565b91507f4c61206c6f746572696520657374207465726d696e65650000000000000000006000830152602082019050919050565b6000610b96603083611119565b91507f566f757320646576657a2061766f6972206175206d6f696e7320313820616e7360008301527f20706f75722070617274696369706572000000000000000000000000000000006020830152604082019050919050565b6000610bfc602083611119565b91507f4c652064656c6169206e276573742070617320656e636f72652065636f756c656000830152602082019050919050565b6000610c3c601c83611119565b91507f4c61206c6f7465726965206573742064656a61207465726d696e6565000000006000830152602082019050919050565b6000610c7c602c83611119565b91507f5365756c206c65206d616e61676572207065757420657865637574657220636560008301527f74746520666f6e6374696f6e00000000000000000000000000000000000000006020830152604082019050919050565b6000610ce2602a83611119565b91507f4e6f6d627265206d696e696d756d206465207061727469636970616e7473206e60008301527f6f6e2061747465696e74000000000000000000000000000000000000000000006020830152604082019050919050565b6000610d48602d83611119565b91507f566f757320646576657a2068616269746572206120457468657242617920706f60008301527f75722070617274696369706572000000000000000000000000000000000000006020830152604082019050919050565b6000610dae60088361112a565b91507f65746865726261790000000000000000000000000000000000000000000000006000830152600882019050919050565b6000610dee603583611119565b91507f4c65206d6f6e74616e74206475207469636b657420646f69742065747265206560008301527f78616374656d656e7420646520322066696e6e657900000000000000000000006020830152604082019050919050565b610e508161121e565b82525050565b610e67610e628261121e565b611284565b82525050565b6000610e798284610b18565b915081905092915050565b6000610e8f82610da1565b9150819050919050565b6000610ea58286610e56565b602082019150610eb58285610e56565b602082019150610ec58284610aa4565b9150819050949350505050565b6000602082019050610ee76000830184610a86565b92915050565b6000604082019050610f026000830185610a86565b610f0f6020830184610e47565b9392505050565b6000602082019050610f2b6000830184610b09565b92915050565b60006020820190508181036000830152610f4a81610b49565b9050919050565b60006020820190508181036000830152610f6a81610b89565b9050919050565b60006020820190508181036000830152610f8a81610bef565b9050919050565b60006020820190508181036000830152610faa81610c2f565b9050919050565b60006020820190508181036000830152610fca81610c6f565b9050919050565b60006020820190508181036000830152610fea81610cd5565b9050919050565b6000602082019050818103600083015261100a81610d3b565b9050919050565b6000602082019050818103600083015261102a81610de1565b9050919050565b60006020820190506110466000830184610e47565b92915050565b60006040820190506110616000830185610e47565b61106e6020830184610e47565b9392505050565b6000604051905081810181811067ffffffffffffffff8211171561109c5761109b61131d565b5b8060405250919050565b600067ffffffffffffffff8211156110c1576110c061131d565b5b601f19601f8301169050602081019050919050565b60008190508160005260206000209050919050565b600081549050919050565b600081519050919050565b6000600182019050919050565b600081905092915050565b600082825260208201905092915050565b600081905092915050565b60006111408261121e565b915061114b8361121e565b92508261115b5761115a6112ee565b5b828204905092915050565b60006111718261121e565b915061117c8361121e565b9250817fffffffffffffffffffffffffffffffffffffffffffffffffffffffffffffffff04831182151516156111b5576111b46112bf565b5b828202905092915050565b600073ffffffffffffffffffffffffffffffffffffffff82169050919050565b60006111eb826111fe565b9050919050565b60008115159050919050565b600073ffffffffffffffffffffffffffffffffffffffff82169050919050565b6000819050919050565b82818337600083830152505050565b60005b8381101561125557808201518184015260208101905061123a565b83811115611264576000848401525b50505050565b600061127d6112788361135f565b6111c0565b9050919050565b6000819050919050565b60006112998261121e565b91506112a48361121e565b9250826112b4576112b36112ee565b5b828206905092915050565b7f4e487b7100000000000000000000000000000000000000000000000000000000600052601160045260246000fd5b7f4e487b7100000000000000000000000000000000000000000000000000000000600052601260045260246000fd5b7f4e487b7100000000000000000000000000000000000000000000000000000000600052604160045260246000fd5b6000611358825461126a565b9050919050565b60008160001c9050919050565b6113758161121e565b811461138057600080fd5b5056fea2646970667358221220801a4b928cbe7974ef770964052a7d391a87713206818ef21d4195578546bb3a64736f6c63430008000033",
					"opcodes": "PUSH1 0x80 PUSH1 0x40 MSTORE PUSH1 0x5A PUSH1 0x3 SSTORE PUSH1 0xA PUSH1 0x4 SSTORE CALLVALUE DUP1 ISZERO PUSH3 0x1B JUMPI PUSH1 0x0 DUP1 REVERT JUMPDEST POP PUSH1 0x40 MLOAD PUSH3 0x1734 CODESIZE SUB DUP1 PUSH3 0x1734 DUP4 CODECOPY DUP2 DUP2 ADD PUSH1 0x40 MSTORE DUP2 ADD SWAP1 PUSH3 0x41 SWAP2 SWAP1 PUSH3 0x14F JUMP JUMPDEST CALLER PUSH1 0x0 DUP1 PUSH2 0x100 EXP DUP2 SLOAD DUP2 PUSH20 0xFFFFFFFFFFFFFFFFFFFFFFFFFFFFFFFFFFFFFFFF MUL NOT AND SWAP1 DUP4 PUSH20 0xFFFFFFFFFFFFFFFFFFFFFFFFFFFFFFFFFFFFFFFF AND MUL OR SWAP1 SSTORE POP PUSH7 0x71AFD498D0000 PUSH1 0x6 DUP2 SWAP1 SSTORE POP PUSH7 0x38D7EA4C68000 PUSH1 0x6 SLOAD PUSH3 0xA6 SWAP2 SWAP1 PUSH3 0x202 JUMP JUMPDEST PUSH1 0x7 DUP2 SWAP1 SSTORE POP DUP3 PUSH1 0x8 DUP2 SWAP1 SSTORE POP PUSH3 0x15180 DUP3 PUSH3 0xC4 SWAP2 SWAP1 PUSH3 0x23A JUMP JUMPDEST TIMESTAMP PUSH3 0xD1 SWAP2 SWAP1 PUSH3 0x1A5 JUMP JUMPDEST PUSH1 0x9 DUP2 SWAP1 SSTORE POP DUP1 PUSH1 0x2 PUSH1 0x0 PUSH2 0x100 EXP DUP2 SLOAD DUP2 PUSH20 0xFFFFFFFFFFFFFFFFFFFFFFFFFFFFFFFFFFFFFFFF MUL NOT AND SWAP1 DUP4 PUSH20 0xFFFFFFFFFFFFFFFFFFFFFFFFFFFFFFFFFFFFFFFF AND MUL OR SWAP1 SSTORE POP POP POP POP PUSH3 0x36B JUMP JUMPDEST PUSH1 0x0 DUP2 MLOAD SWAP1 POP PUSH3 0x132 DUP2 PUSH3 0x337 JUMP JUMPDEST SWAP3 SWAP2 POP POP JUMP JUMPDEST PUSH1 0x0 DUP2 MLOAD SWAP1 POP PUSH3 0x149 DUP2 PUSH3 0x351 JUMP JUMPDEST SWAP3 SWAP2 POP POP JUMP JUMPDEST PUSH1 0x0 DUP1 PUSH1 0x0 PUSH1 0x60 DUP5 DUP7 SUB SLT ISZERO PUSH3 0x165 JUMPI PUSH1 0x0 DUP1 REVERT JUMPDEST PUSH1 0x0 PUSH3 0x175 DUP7 DUP3 DUP8 ADD PUSH3 0x138 JUMP JUMPDEST SWAP4 POP POP PUSH1 0x20 PUSH3 0x188 DUP7 DUP3 DUP8 ADD PUSH3 0x138 JUMP JUMPDEST SWAP3 POP POP PUSH1 0x40 PUSH3 0x19B DUP7 DUP3 DUP8 ADD PUSH3 0x121 JUMP JUMPDEST SWAP2 POP POP SWAP3 POP SWAP3 POP SWAP3 JUMP JUMPDEST PUSH1 0x0 PUSH3 0x1B2 DUP3 PUSH3 0x2CF JUMP JUMPDEST SWAP2 POP PUSH3 0x1BF DUP4 PUSH3 0x2CF JUMP JUMPDEST SWAP3 POP DUP3 PUSH32 0xFFFFFFFFFFFFFFFFFFFFFFFFFFFFFFFFFFFFFFFFFFFFFFFFFFFFFFFFFFFFFFFF SUB DUP3 GT ISZERO PUSH3 0x1F7 JUMPI PUSH3 0x1F6 PUSH3 0x2D9 JUMP JUMPDEST JUMPDEST DUP3 DUP3 ADD SWAP1 POP SWAP3 SWAP2 POP POP JUMP JUMPDEST PUSH1 0x0 PUSH3 0x20F DUP3 PUSH3 0x2CF JUMP JUMPDEST SWAP2 POP PUSH3 0x21C DUP4 PUSH3 0x2CF JUMP JUMPDEST SWAP3 POP DUP3 PUSH3 0x22F JUMPI PUSH3 0x22E PUSH3 0x308 JUMP JUMPDEST JUMPDEST DUP3 DUP3 DIV SWAP1 POP SWAP3 SWAP2 POP POP JUMP JUMPDEST PUSH1 0x0 PUSH3 0x247 DUP3 PUSH3 0x2CF JUMP JUMPDEST SWAP2 POP PUSH3 0x254 DUP4 PUSH3 0x2CF JUMP JUMPDEST SWAP3 POP DUP2 PUSH32 0xFFFFFFFFFFFFFFFFFFFFFFFFFFFFFFFFFFFFFFFFFFFFFFFFFFFFFFFFFFFFFFFF DIV DUP4 GT DUP3 ISZERO ISZERO AND ISZERO PUSH3 0x290 JUMPI PUSH3 0x28F PUSH3 0x2D9 JUMP JUMPDEST JUMPDEST DUP3 DUP3 MUL SWAP1 POP SWAP3 SWAP2 POP POP JUMP JUMPDEST PUSH1 0x0 PUSH3 0x2A8 DUP3 PUSH3 0x2AF JUMP JUMPDEST SWAP1 POP SWAP2 SWAP1 POP JUMP JUMPDEST PUSH1 0x0 PUSH20 0xFFFFFFFFFFFFFFFFFFFFFFFFFFFFFFFFFFFFFFFF DUP3 AND SWAP1 POP SWAP2 SWAP1 POP JUMP JUMPDEST PUSH1 0x0 DUP2 SWAP1 POP SWAP2 SWAP1 POP JUMP JUMPDEST PUSH32 0x4E487B7100000000000000000000000000000000000000000000000000000000 PUSH1 0x0 MSTORE PUSH1 0x11 PUSH1 0x4 MSTORE PUSH1 0x24 PUSH1 0x0 REVERT JUMPDEST PUSH32 0x4E487B7100000000000000000000000000000000000000000000000000000000 PUSH1 0x0 MSTORE PUSH1 0x12 PUSH1 0x4 MSTORE PUSH1 0x24 PUSH1 0x0 REVERT JUMPDEST PUSH3 0x342 DUP2 PUSH3 0x29B JUMP JUMPDEST DUP2 EQ PUSH3 0x34E JUMPI PUSH1 0x0 DUP1 REVERT JUMPDEST POP JUMP JUMPDEST PUSH3 0x35C DUP2 PUSH3 0x2CF JUMP JUMPDEST DUP2 EQ PUSH3 0x368 JUMPI PUSH1 0x0 DUP1 REVERT JUMPDEST POP JUMP JUMPDEST PUSH2 0x13B9 DUP1 PUSH3 0x37B PUSH1 0x0 CODECOPY PUSH1 0x0 RETURN INVALID PUSH1 0x80 PUSH1 0x40 MSTORE PUSH1 0x4 CALLDATASIZE LT PUSH2 0x86 JUMPI PUSH1 0x0 CALLDATALOAD PUSH1 0xE0 SHR DUP1 PUSH4 0x766F03EA GT PUSH2 0x59 JUMPI DUP1 PUSH4 0x766F03EA EQ PUSH2 0x137 JUMPI DUP1 PUSH4 0x8481DBC6 EQ PUSH2 0x162 JUMPI DUP1 PUSH4 0x989101C1 EQ PUSH2 0x17E JUMPI DUP1 PUSH4 0x98D0C1ED EQ PUSH2 0x195 JUMPI DUP1 PUSH4 0xA7A0FBC6 EQ PUSH2 0x1C0 JUMPI PUSH2 0x86 JUMP JUMPDEST DUP1 PUSH4 0x29DCB0CF EQ PUSH2 0x8B JUMPI DUP1 PUSH4 0x427F822B EQ PUSH2 0xB6 JUMPI DUP1 PUSH4 0x4B20D5D5 EQ PUSH2 0xE1 JUMPI DUP1 PUSH4 0x5AA68AC0 EQ PUSH2 0x10C JUMPI JUMPDEST PUSH1 0x0 DUP1 REVERT JUMPDEST CALLVALUE DUP1 ISZERO PUSH2 0x97 JUMPI PUSH1 0x0 DUP1 REVERT JUMPDEST POP PUSH2 0xA0 PUSH2 0x1D7 JUMP JUMPDEST PUSH1 0x40 MLOAD PUSH2 0xAD SWAP2 SWAP1 PUSH2 0x1031 JUMP JUMPDEST PUSH1 0x40 MLOAD DUP1 SWAP2 SUB SWAP1 RETURN JUMPDEST CALLVALUE DUP1 ISZERO PUSH2 0xC2 JUMPI PUSH1 0x0 DUP1 REVERT JUMPDEST POP PUSH2 0xCB PUSH2 0x1DD JUMP JUMPDEST PUSH1 0x40 MLOAD PUSH2 0xD8 SWAP2 SWAP1 PUSH2 0xED2 JUMP JUMPDEST PUSH1 0x40 MLOAD DUP1 SWAP2 SUB SWAP1 RETURN JUMPDEST CALLVALUE DUP1 ISZERO PUSH2 0xED JUMPI PUSH1 0x0 DUP1 REVERT JUMPDEST POP PUSH2 0xF6 PUSH2 0x203 JUMP JUMPDEST PUSH1 0x40 MLOAD PUSH2 0x103 SWAP2 SWAP1 PUSH2 0x1031 JUMP JUMPDEST PUSH1 0x40 MLOAD DUP1 SWAP2 SUB SWAP1 RETURN JUMPDEST CALLVALUE DUP1 ISZERO PUSH2 0x118 JUMPI PUSH1 0x0 DUP1 REVERT JUMPDEST POP PUSH2 0x121 PUSH2 0x20B JUMP JUMPDEST PUSH1 0x40 MLOAD PUSH2 0x12E SWAP2 SWAP1 PUSH2 0x1031 JUMP JUMPDEST PUSH1 0x40 MLOAD DUP1 SWAP2 SUB SWAP1 RETURN JUMPDEST CALLVALUE DUP1 ISZERO PUSH2 0x143 JUMPI PUSH1 0x0 DUP1 REVERT JUMPDEST POP PUSH2 0x14C PUSH2 0x218 JUMP JUMPDEST PUSH1 0x40 MLOAD PUSH2 0x159 SWAP2 SWAP1 PUSH2 0xF16 JUMP JUMPDEST PUSH1 0x40 MLOAD DUP1 SWAP2 SUB SWAP1 RETURN JUMPDEST PUSH2 0x17C PUSH1 0x4 DUP1 CALLDATASIZE SUB DUP2 ADD SWAP1 PUSH2 0x177 SWAP2 SWAP1 PUSH2 0xA1A JUMP JUMPDEST PUSH2 0x237 JUMP JUMPDEST STOP JUMPDEST CALLVALUE DUP1 ISZERO PUSH2 0x18A JUMPI PUSH1 0x0 DUP1 REVERT JUMPDEST POP PUSH2 0x193 PUSH2 0x46C JUMP JUMPDEST STOP JUMPDEST CALLVALUE DUP1 ISZERO PUSH2 0x1A1 JUMPI PUSH1 0x0 DUP1 REVERT JUMPDEST POP PUSH2 0x1AA PUSH2 0x504 JUMP JUMPDEST PUSH1 0x40 MLOAD PUSH2 0x1B7 SWAP2 SWAP1 PUSH2 0x1031 JUMP JUMPDEST PUSH1 0x40 MLOAD DUP1 SWAP2 SUB SWAP1 RETURN JUMPDEST CALLVALUE DUP1 ISZERO PUSH2 0x1CC JUMPI PUSH1 0x0 DUP1 REVERT JUMPDEST POP PUSH2 0x1D5 PUSH2 0x50A JUMP JUMPDEST STOP JUMPDEST PUSH1 0x9 SLOAD DUP2 JUMP JUMPDEST PUSH1 0x5 PUSH1 0x0 SWAP1 SLOAD SWAP1 PUSH2 0x100 EXP SWAP1 DIV PUSH20 0xFFFFFFFFFFFFFFFFFFFFFFFFFFFFFFFFFFFFFFFF AND DUP2 JUMP JUMPDEST PUSH1 0x0 SELFBALANCE SWAP1 POP SWAP1 JUMP JUMPDEST PUSH1 0x0 PUSH1 0x1 DUP1 SLOAD SWAP1 POP SWAP1 POP SWAP1 JUMP JUMPDEST PUSH1 0x0 PUSH1 0x9 SLOAD TIMESTAMP GT DUP1 ISZERO PUSH2 0x232 JUMPI POP PUSH1 0x8 SLOAD PUSH1 0x1 DUP1 SLOAD SWAP1 POP LT ISZERO JUMPDEST SWAP1 POP SWAP1 JUMP JUMPDEST PUSH1 0x9 SLOAD TIMESTAMP GT ISZERO PUSH2 0x27C JUMPI PUSH1 0x40 MLOAD PUSH32 0x8C379A000000000000000000000000000000000000000000000000000000000 DUP2 MSTORE PUSH1 0x4 ADD PUSH2 0x273 SWAP1 PUSH2 0xF31 JUMP JUMPDEST PUSH1 0x40 MLOAD DUP1 SWAP2 SUB SWAP1 REVERT JUMPDEST PUSH1 0x12 DUP3 LT ISZERO PUSH2 0x2C0 JUMPI PUSH1 0x40 MLOAD PUSH32 0x8C379A000000000000000000000000000000000000000000000000000000000 DUP2 MSTORE PUSH1 0x4 ADD PUSH2 0x2B7 SWAP1 PUSH2 0xF51 JUMP JUMPDEST PUSH1 0x40 MLOAD DUP1 SWAP2 SUB SWAP1 REVERT JUMPDEST PUSH1 0x40 MLOAD PUSH1 0x20 ADD PUSH2 0x2CF SWAP1 PUSH2 0xE84 JUMP JUMPDEST PUSH1 0x40 MLOAD PUSH1 0x20 DUP2 DUP4 SUB SUB DUP2 MSTORE SWAP1 PUSH1 0x40 MSTORE DUP1 MLOAD SWAP1 PUSH1 0x20 ADD KECCAK256 DUP2 PUSH1 0x40 MLOAD PUSH1 0x20 ADD PUSH2 0x2F6 SWAP2 SWAP1 PUSH2 0xE6D JUMP JUMPDEST PUSH1 0x40 MLOAD PUSH1 0x20 DUP2 DUP4 SUB SUB DUP2 MSTORE SWAP1 PUSH1 0x40 MSTORE DUP1 MLOAD SWAP1 PUSH1 0x20 ADD KECCAK256 EQ PUSH2 0x34C JUMPI PUSH1 0x40 MLOAD PUSH32 0x8C379A000000000000000000000000000000000000000000000000000000000 DUP2 MSTORE PUSH1 0x4 ADD PUSH2 0x343 SWAP1 PUSH2 0xFF1 JUMP JUMPDEST PUSH1 0x40 MLOAD DUP1 SWAP2 SUB SWAP1 REVERT JUMPDEST PUSH1 0x6 SLOAD CALLVALUE EQ PUSH2 0x390 JUMPI PUSH1 0x40 MLOAD PUSH32 0x8C379A000000000000000000000000000000000000000000000000000000000 DUP2 MSTORE PUSH1 0x4 ADD PUSH2 0x387 SWAP1 PUSH2 0x1011 JUMP JUMPDEST PUSH1 0x40 MLOAD DUP1 SWAP2 SUB SWAP1 REVERT JUMPDEST PUSH1 0x1 CALLER SWAP1 DUP1 PUSH1 0x1 DUP2 SLOAD ADD DUP1 DUP3 SSTORE DUP1 SWAP2 POP POP PUSH1 0x1 SWAP1 SUB SWAP1 PUSH1 0x0 MSTORE PUSH1 0x20 PUSH1 0x0 KECCAK256 ADD PUSH1 0x0 SWAP1 SWAP2 SWAP1 SWAP2 SWAP1 SWAP2 PUSH2 0x100 EXP DUP2 SLOAD DUP2 PUSH20 0xFFFFFFFFFFFFFFFFFFFFFFFFFFFFFFFFFFFFFFFF MUL NOT AND SWAP1 DUP4 PUSH20 0xFFFFFFFFFFFFFFFFFFFFFFFFFFFFFFFFFFFFFFFF AND MUL OR SWAP1 SSTORE POP CALLER PUSH20 0xFFFFFFFFFFFFFFFFFFFFFFFFFFFFFFFFFFFFFFFF AND PUSH32 0xBEC7B484B62DBD71A6A50296032B8845210F16417E4162724F5D3D7C634300D6 CALLVALUE PUSH1 0x40 MLOAD PUSH2 0x439 SWAP2 SWAP1 PUSH2 0x1031 JUMP JUMPDEST PUSH1 0x40 MLOAD DUP1 SWAP2 SUB SWAP1 LOG2 PUSH1 0x8 SLOAD PUSH1 0x1 DUP1 SLOAD SWAP1 POP LT ISZERO DUP1 ISZERO PUSH2 0x45A JUMPI POP PUSH1 0x9 SLOAD TIMESTAMP LT ISZERO JUMPDEST ISZERO PUSH2 0x468 JUMPI PUSH2 0x467 PUSH2 0x5E5 JUMP JUMPDEST JUMPDEST POP POP JUMP JUMPDEST PUSH1 0x0 DUP1 SLOAD SWAP1 PUSH2 0x100 EXP SWAP1 DIV PUSH20 0xFFFFFFFFFFFFFFFFFFFFFFFFFFFFFFFFFFFFFFFF AND PUSH20 0xFFFFFFFFFFFFFFFFFFFFFFFFFFFFFFFFFFFFFFFF AND CALLER PUSH20 0xFFFFFFFFFFFFFFFFFFFFFFFFFFFFFFFFFFFFFFFF AND EQ PUSH2 0x4FA JUMPI PUSH1 0x40 MLOAD PUSH32 0x8C379A000000000000000000000000000000000000000000000000000000000 DUP2 MSTORE PUSH1 0x4 ADD PUSH2 0x4F1 SWAP1 PUSH2 0xFB1 JUMP JUMPDEST PUSH1 0x40 MLOAD DUP1 SWAP2 SUB SWAP1 REVERT JUMPDEST PUSH2 0x502 PUSH2 0x5E5 JUMP JUMPDEST JUMP JUMPDEST PUSH1 0x7 SLOAD DUP2 JUMP JUMPDEST PUSH1 0x0 DUP1 SLOAD SWAP1 PUSH2 0x100 EXP SWAP1 DIV PUSH20 0xFFFFFFFFFFFFFFFFFFFFFFFFFFFFFFFFFFFFFFFF AND PUSH20 0xFFFFFFFFFFFFFFFFFFFFFFFFFFFFFFFFFFFFFFFF AND CALLER PUSH20 0xFFFFFFFFFFFFFFFFFFFFFFFFFFFFFFFFFFFFFFFF AND EQ PUSH2 0x598 JUMPI PUSH1 0x40 MLOAD PUSH32 0x8C379A000000000000000000000000000000000000000000000000000000000 DUP2 MSTORE PUSH1 0x4 ADD PUSH2 0x58F SWAP1 PUSH2 0xFB1 JUMP JUMPDEST PUSH1 0x40 MLOAD DUP1 SWAP2 SUB SWAP1 REVERT JUMPDEST PUSH1 0x9 SLOAD TIMESTAMP LT PUSH2 0x5DC JUMPI PUSH1 0x40 MLOAD PUSH32 0x8C379A000000000000000000000000000000000000000000000000000000000 DUP2 MSTORE PUSH1 0x4 ADD PUSH2 0x5D3 SWAP1 PUSH2 0xF91 JUMP JUMPDEST PUSH1 0x40 MLOAD DUP1 SWAP2 SUB SWAP1 REVERT JUMPDEST TIMESTAMP PUSH1 0x9 DUP2 SWAP1 SSTORE POP JUMP JUMPDEST PUSH1 0x8 SLOAD PUSH1 0x1 DUP1 SLOAD SWAP1 POP LT ISZERO PUSH2 0x62F JUMPI PUSH1 0x40 MLOAD PUSH32 0x8C379A000000000000000000000000000000000000000000000000000000000 DUP2 MSTORE PUSH1 0x4 ADD PUSH2 0x626 SWAP1 PUSH2 0xFD1 JUMP JUMPDEST PUSH1 0x40 MLOAD DUP1 SWAP2 SUB SWAP1 REVERT JUMPDEST PUSH1 0x9 SLOAD TIMESTAMP LT ISZERO PUSH2 0x674 JUMPI PUSH1 0x40 MLOAD PUSH32 0x8C379A000000000000000000000000000000000000000000000000000000000 DUP2 MSTORE PUSH1 0x4 ADD PUSH2 0x66B SWAP1 PUSH2 0xF71 JUMP JUMPDEST PUSH1 0x40 MLOAD DUP1 SWAP2 SUB SWAP1 REVERT JUMPDEST PUSH1 0x0 PUSH1 0x1 DUP1 SLOAD SWAP1 POP PUSH2 0x684 PUSH2 0x929 JUMP JUMPDEST PUSH2 0x68E SWAP2 SWAP1 PUSH2 0x128E JUMP JUMPDEST SWAP1 POP PUSH1 0x1 DUP2 DUP2 SLOAD DUP2 LT PUSH2 0x6CA JUMPI PUSH32 0x4E487B7100000000000000000000000000000000000000000000000000000000 PUSH1 0x0 MSTORE PUSH1 0x32 PUSH1 0x4 MSTORE PUSH1 0x24 PUSH1 0x0 REVERT JUMPDEST SWAP1 PUSH1 0x0 MSTORE PUSH1 0x20 PUSH1 0x0 KECCAK256 ADD PUSH1 0x0 SWAP1 SLOAD SWAP1 PUSH2 0x100 EXP SWAP1 DIV PUSH20 0xFFFFFFFFFFFFFFFFFFFFFFFFFFFFFFFFFFFFFFFF AND PUSH1 0x5 PUSH1 0x0 PUSH2 0x100 EXP DUP2 SLOAD DUP2 PUSH20 0xFFFFFFFFFFFFFFFFFFFFFFFFFFFFFFFFFFFFFFFF MUL NOT AND SWAP1 DUP4 PUSH20 0xFFFFFFFFFFFFFFFFFFFFFFFFFFFFFFFFFFFFFFFF AND MUL OR SWAP1 SSTORE POP PUSH1 0x0 SELFBALANCE SWAP1 POP PUSH1 0x0 PUSH1 0x64 PUSH1 0x3 SLOAD DUP4 PUSH2 0x74C SWAP2 SWAP1 PUSH2 0x1166 JUMP JUMPDEST PUSH2 0x756 SWAP2 SWAP1 PUSH2 0x1135 JUMP JUMPDEST SWAP1 POP PUSH1 0x0 PUSH1 0x64 PUSH1 0x4 SLOAD DUP5 PUSH2 0x76A SWAP2 SWAP1 PUSH2 0x1166 JUMP JUMPDEST PUSH2 0x774 SWAP2 SWAP1 PUSH2 0x1135 JUMP JUMPDEST SWAP1 POP PUSH1 0x5 PUSH1 0x0 SWAP1 SLOAD SWAP1 PUSH2 0x100 EXP SWAP1 DIV PUSH20 0xFFFFFFFFFFFFFFFFFFFFFFFFFFFFFFFFFFFFFFFF AND PUSH20 0xFFFFFFFFFFFFFFFFFFFFFFFFFFFFFFFFFFFFFFFF AND PUSH32 0xDF2C616411C07FD843D775CFED8B8FBA67E4D7A166CF8187097EDF4B4C37C7AB DUP4 DUP4 PUSH1 0x40 MLOAD PUSH2 0x7E0 SWAP3 SWAP2 SWAP1 PUSH2 0x104C JUMP JUMPDEST PUSH1 0x40 MLOAD DUP1 SWAP2 SUB SWAP1 LOG2 PUSH32 0xF1E48810A2824165C037541ECBA04622432568C38AE66D998BBB58DFA70CC353 PUSH1 0x5 PUSH1 0x0 SWAP1 SLOAD SWAP1 PUSH2 0x100 EXP SWAP1 DIV PUSH20 0xFFFFFFFFFFFFFFFFFFFFFFFFFFFFFFFFFFFFFFFF AND DUP6 PUSH1 0x40 MLOAD PUSH2 0x83B SWAP3 SWAP2 SWAP1 PUSH2 0xEED JUMP JUMPDEST PUSH1 0x40 MLOAD DUP1 SWAP2 SUB SWAP1 LOG1 PUSH1 0x5 PUSH1 0x0 SWAP1 SLOAD SWAP1 PUSH2 0x100 EXP SWAP1 DIV PUSH20 0xFFFFFFFFFFFFFFFFFFFFFFFFFFFFFFFFFFFFFFFF AND PUSH20 0xFFFFFFFFFFFFFFFFFFFFFFFFFFFFFFFFFFFFFFFF AND PUSH2 0x8FC DUP4 SWAP1 DUP2 ISZERO MUL SWAP1 PUSH1 0x40 MLOAD PUSH1 0x0 PUSH1 0x40 MLOAD DUP1 DUP4 SUB DUP2 DUP6 DUP9 DUP9 CALL SWAP4 POP POP POP POP ISZERO DUP1 ISZERO PUSH2 0x8AB JUMPI RETURNDATASIZE PUSH1 0x0 DUP1 RETURNDATACOPY RETURNDATASIZE PUSH1 0x0 REVERT JUMPDEST POP PUSH1 0x2 PUSH1 0x0 SWAP1 SLOAD SWAP1 PUSH2 0x100 EXP SWAP1 DIV PUSH20 0xFFFFFFFFFFFFFFFFFFFFFFFFFFFFFFFFFFFFFFFF AND PUSH20 0xFFFFFFFFFFFFFFFFFFFFFFFFFFFFFFFFFFFFFFFF AND PUSH2 0x8FC DUP3 SWAP1 DUP2 ISZERO MUL SWAP1 PUSH1 0x40 MLOAD PUSH1 0x0 PUSH1 0x40 MLOAD DUP1 DUP4 SUB DUP2 DUP6 DUP9 DUP9 CALL SWAP4 POP POP POP POP ISZERO DUP1 ISZERO PUSH2 0x914 JUMPI RETURNDATASIZE PUSH1 0x0 DUP1 RETURNDATACOPY RETURNDATASIZE PUSH1 0x0 REVERT JUMPDEST POP PUSH1 0x1 PUSH1 0x0 PUSH2 0x923 SWAP2 SWAP1 PUSH2 0x95F JUMP JUMPDEST POP POP POP POP JUMP JUMPDEST PUSH1 0x0 TIMESTAMP DIFFICULTY PUSH1 0x1 PUSH1 0x40 MLOAD PUSH1 0x20 ADD PUSH2 0x941 SWAP4 SWAP3 SWAP2 SWAP1 PUSH2 0xE99 JUMP JUMPDEST PUSH1 0x40 MLOAD PUSH1 0x20 DUP2 DUP4 SUB SUB DUP2 MSTORE SWAP1 PUSH1 0x40 MSTORE DUP1 MLOAD SWAP1 PUSH1 0x20 ADD KECCAK256 PUSH1 0x0 SHR SWAP1 POP SWAP1 JUMP JUMPDEST POP DUP1 SLOAD PUSH1 0x0 DUP3 SSTORE SWAP1 PUSH1 0x0 MSTORE PUSH1 0x20 PUSH1 0x0 KECCAK256 SWAP1 DUP2 ADD SWAP1 PUSH2 0x97D SWAP2 SWAP1 PUSH2 0x980 JUMP JUMPDEST POP JUMP JUMPDEST JUMPDEST DUP1 DUP3 GT ISZERO PUSH2 0x999 JUMPI PUSH1 0x0 DUP2 PUSH1 0x0 SWAP1 SSTORE POP PUSH1 0x1 ADD PUSH2 0x981 JUMP JUMPDEST POP SWAP1 JUMP JUMPDEST PUSH1 0x0 PUSH2 0x9B0 PUSH2 0x9AB DUP5 PUSH2 0x10A6 JUMP JUMPDEST PUSH2 0x1075 JUMP JUMPDEST SWAP1 POP DUP3 DUP2 MSTORE PUSH1 0x20 DUP2 ADD DUP5 DUP5 DUP5 ADD GT ISZERO PUSH2 0x9C8 JUMPI PUSH1 0x0 DUP1 REVERT JUMPDEST PUSH2 0x9D3 DUP5 DUP3 DUP6 PUSH2 0x1228 JUMP JUMPDEST POP SWAP4 SWAP3 POP POP POP JUMP JUMPDEST PUSH1 0x0 DUP3 PUSH1 0x1F DUP4 ADD SLT PUSH2 0x9EC JUMPI PUSH1 0x0 DUP1 REVERT JUMPDEST DUP2 CALLDATALOAD PUSH2 0x9FC DUP5 DUP3 PUSH1 0x20 DUP7 ADD PUSH2 0x99D JUMP JUMPDEST SWAP2 POP POP SWAP3 SWAP2 POP POP JUMP JUMPDEST PUSH1 0x0 DUP2 CALLDATALOAD SWAP1 POP PUSH2 0xA14 DUP2 PUSH2 0x136C JUMP JUMPDEST SWAP3 SWAP2 POP POP JUMP JUMPDEST PUSH1 0x0 DUP1 PUSH1 0x40 DUP4 DUP6 SUB SLT ISZERO PUSH2 0xA2D JUMPI PUSH1 0x0 DUP1 REVERT JUMPDEST PUSH1 0x0 PUSH2 0xA3B DUP6 DUP3 DUP7 ADD PUSH2 0xA05 JUMP JUMPDEST SWAP3 POP POP PUSH1 0x20 DUP4 ADD CALLDATALOAD PUSH8 0xFFFFFFFFFFFFFFFF DUP2 GT ISZERO PUSH2 0xA58 JUMPI PUSH1 0x0 DUP1 REVERT JUMPDEST PUSH2 0xA64 DUP6 DUP3 DUP7 ADD PUSH2 0x9DB JUMP JUMPDEST SWAP2 POP POP SWAP3 POP SWAP3 SWAP1 POP JUMP JUMPDEST PUSH1 0x0 PUSH2 0xA7A DUP4 DUP4 PUSH2 0xA95 JUMP JUMPDEST PUSH1 0x20 DUP4 ADD SWAP1 POP SWAP3 SWAP2 POP POP JUMP JUMPDEST PUSH2 0xA8F DUP2 PUSH2 0x11E0 JUMP JUMPDEST DUP3 MSTORE POP POP JUMP JUMPDEST PUSH2 0xA9E DUP2 PUSH2 0x11E0 JUMP JUMPDEST DUP3 MSTORE POP POP JUMP JUMPDEST PUSH1 0x0 PUSH2 0xAAF DUP3 PUSH2 0x10EB JUMP JUMPDEST PUSH2 0xAB9 DUP2 DUP6 PUSH2 0x110E JUMP JUMPDEST SWAP4 POP PUSH2 0xAC4 DUP4 PUSH2 0x10D6 JUMP JUMPDEST DUP1 PUSH1 0x0 JUMPDEST DUP4 DUP2 LT ISZERO PUSH2 0xAFC JUMPI PUSH2 0xAD9 DUP3 PUSH2 0x134C JUMP JUMPDEST PUSH2 0xAE3 DUP9 DUP3 PUSH2 0xA6E JUMP JUMPDEST SWAP8 POP PUSH2 0xAEE DUP4 PUSH2 0x1101 JUMP JUMPDEST SWAP3 POP POP PUSH1 0x1 DUP2 ADD SWAP1 POP PUSH2 0xAC8 JUMP JUMPDEST POP DUP6 SWAP4 POP POP POP POP SWAP3 SWAP2 POP POP JUMP JUMPDEST PUSH2 0xB12 DUP2 PUSH2 0x11F2 JUMP JUMPDEST DUP3 MSTORE POP POP JUMP JUMPDEST PUSH1 0x0 PUSH2 0xB23 DUP3 PUSH2 0x10F6 JUMP JUMPDEST PUSH2 0xB2D DUP2 DUP6 PUSH2 0x112A JUMP JUMPDEST SWAP4 POP PUSH2 0xB3D DUP2 DUP6 PUSH1 0x20 DUP7 ADD PUSH2 0x1237 JUMP JUMPDEST DUP1 DUP5 ADD SWAP2 POP POP SWAP3 SWAP2 POP POP JUMP JUMPDEST PUSH1 0x0 PUSH2 0xB56 PUSH1 0x17 DUP4 PUSH2 0x1119 JUMP JUMPDEST SWAP2 POP PUSH32 0x4C61206C6F746572696520657374207465726D696E6565000000000000000000 PUSH1 0x0 DUP4 ADD MSTORE PUSH1 0x20 DUP3 ADD SWAP1 POP SWAP2 SWAP1 POP JUMP JUMPDEST PUSH1 0x0 PUSH2 0xB96 PUSH1 0x30 DUP4 PUSH2 0x1119 JUMP JUMPDEST SWAP2 POP PUSH32 0x566F757320646576657A2061766F6972206175206D6F696E7320313820616E73 PUSH1 0x0 DUP4 ADD MSTORE PUSH32 0x20706F7572207061727469636970657200000000000000000000000000000000 PUSH1 0x20 DUP4 ADD MSTORE PUSH1 0x40 DUP3 ADD SWAP1 POP SWAP2 SWAP1 POP JUMP JUMPDEST PUSH1 0x0 PUSH2 0xBFC PUSH1 0x20 DUP4 PUSH2 0x1119 JUMP JUMPDEST SWAP2 POP PUSH32 0x4C652064656C6169206E276573742070617320656E636F72652065636F756C65 PUSH1 0x0 DUP4 ADD MSTORE PUSH1 0x20 DUP3 ADD SWAP1 POP SWAP2 SWAP1 POP JUMP JUMPDEST PUSH1 0x0 PUSH2 0xC3C PUSH1 0x1C DUP4 PUSH2 0x1119 JUMP JUMPDEST SWAP2 POP PUSH32 0x4C61206C6F7465726965206573742064656A61207465726D696E656500000000 PUSH1 0x0 DUP4 ADD MSTORE PUSH1 0x20 DUP3 ADD SWAP1 POP SWAP2 SWAP1 POP JUMP JUMPDEST PUSH1 0x0 PUSH2 0xC7C PUSH1 0x2C DUP4 PUSH2 0x1119 JUMP JUMPDEST SWAP2 POP PUSH32 0x5365756C206C65206D616E616765722070657574206578656375746572206365 PUSH1 0x0 DUP4 ADD MSTORE PUSH32 0x74746520666F6E6374696F6E0000000000000000000000000000000000000000 PUSH1 0x20 DUP4 ADD MSTORE PUSH1 0x40 DUP3 ADD SWAP1 POP SWAP2 SWAP1 POP JUMP JUMPDEST PUSH1 0x0 PUSH2 0xCE2 PUSH1 0x2A DUP4 PUSH2 0x1119 JUMP JUMPDEST SWAP2 POP PUSH32 0x4E6F6D627265206D696E696D756D206465207061727469636970616E7473206E PUSH1 0x0 DUP4 ADD MSTORE PUSH32 0x6F6E2061747465696E7400000000000000000000000000000000000000000000 PUSH1 0x20 DUP4 ADD MSTORE PUSH1 0x40 DUP3 ADD SWAP1 POP SWAP2 SWAP1 POP JUMP JUMPDEST PUSH1 0x0 PUSH2 0xD48 PUSH1 0x2D DUP4 PUSH2 0x1119 JUMP JUMPDEST SWAP2 POP PUSH32 0x566F757320646576657A2068616269746572206120457468657242617920706F PUSH1 0x0 DUP4 ADD MSTORE PUSH32 0x7572207061727469636970657200000000000000000000000000000000000000 PUSH1 0x20 DUP4 ADD MSTORE PUSH1 0x40 DUP3 ADD SWAP1 POP SWAP2 SWAP1 POP JUMP JUMPDEST PUSH1 0x0 PUSH2 0xDAE PUSH1 0x8 DUP4 PUSH2 0x112A JUMP JUMPDEST SWAP2 POP PUSH32 0x6574686572626179000000000000000000000000000000000000000000000000 PUSH1 0x0 DUP4 ADD MSTORE PUSH1 0x8 DUP3 ADD SWAP1 POP SWAP2 SWAP1 POP JUMP JUMPDEST PUSH1 0x0 PUSH2 0xDEE PUSH1 0x35 DUP4 PUSH2 0x1119 JUMP JUMPDEST SWAP2 POP PUSH32 0x4C65206D6F6E74616E74206475207469636B657420646F697420657472652065 PUSH1 0x0 DUP4 ADD MSTORE PUSH32 0x78616374656D656E7420646520322066696E6E65790000000000000000000000 PUSH1 0x20 DUP4 ADD MSTORE PUSH1 0x40 DUP3 ADD SWAP1 POP SWAP2 SWAP1 POP JUMP JUMPDEST PUSH2 0xE50 DUP2 PUSH2 0x121E JUMP JUMPDEST DUP3 MSTORE POP POP JUMP JUMPDEST PUSH2 0xE67 PUSH2 0xE62 DUP3 PUSH2 0x121E JUMP JUMPDEST PUSH2 0x1284 JUMP JUMPDEST DUP3 MSTORE POP POP JUMP JUMPDEST PUSH1 0x0 PUSH2 0xE79 DUP3 DUP5 PUSH2 0xB18 JUMP JUMPDEST SWAP2 POP DUP2 SWAP1 POP SWAP3 SWAP2 POP POP JUMP JUMPDEST PUSH1 0x0 PUSH2 0xE8F DUP3 PUSH2 0xDA1 JUMP JUMPDEST SWAP2 POP DUP2 SWAP1 POP SWAP2 SWAP1 POP JUMP JUMPDEST PUSH1 0x0 PUSH2 0xEA5 DUP3 DUP7 PUSH2 0xE56 JUMP JUMPDEST PUSH1 0x20 DUP3 ADD SWAP2 POP PUSH2 0xEB5 DUP3 DUP6 PUSH2 0xE56 JUMP JUMPDEST PUSH1 0x20 DUP3 ADD SWAP2 POP PUSH2 0xEC5 DUP3 DUP5 PUSH2 0xAA4 JUMP JUMPDEST SWAP2 POP DUP2 SWAP1 POP SWAP5 SWAP4 POP POP POP POP JUMP JUMPDEST PUSH1 0x0 PUSH1 0x20 DUP3 ADD SWAP1 POP PUSH2 0xEE7 PUSH1 0x0 DUP4 ADD DUP5 PUSH2 0xA86 JUMP JUMPDEST SWAP3 SWAP2 POP POP JUMP JUMPDEST PUSH1 0x0 PUSH1 0x40 DUP3 ADD SWAP1 POP PUSH2 0xF02 PUSH1 0x0 DUP4 ADD DUP6 PUSH2 0xA86 JUMP JUMPDEST PUSH2 0xF0F PUSH1 0x20 DUP4 ADD DUP5 PUSH2 0xE47 JUMP JUMPDEST SWAP4 SWAP3 POP POP POP JUMP JUMPDEST PUSH1 0x0 PUSH1 0x20 DUP3 ADD SWAP1 POP PUSH2 0xF2B PUSH1 0x0 DUP4 ADD DUP5 PUSH2 0xB09 JUMP JUMPDEST SWAP3 SWAP2 POP POP JUMP JUMPDEST PUSH1 0x0 PUSH1 0x20 DUP3 ADD SWAP1 POP DUP2 DUP2 SUB PUSH1 0x0 DUP4 ADD MSTORE PUSH2 0xF4A DUP2 PUSH2 0xB49 JUMP JUMPDEST SWAP1 POP SWAP2 SWAP1 POP JUMP JUMPDEST PUSH1 0x0 PUSH1 0x20 DUP3 ADD SWAP1 POP DUP2 DUP2 SUB PUSH1 0x0 DUP4 ADD MSTORE PUSH2 0xF6A DUP2 PUSH2 0xB89 JUMP JUMPDEST SWAP1 POP SWAP2 SWAP1 POP JUMP JUMPDEST PUSH1 0x0 PUSH1 0x20 DUP3 ADD SWAP1 POP DUP2 DUP2 SUB PUSH1 0x0 DUP4 ADD MSTORE PUSH2 0xF8A DUP2 PUSH2 0xBEF JUMP JUMPDEST SWAP1 POP SWAP2 SWAP1 POP JUMP JUMPDEST PUSH1 0x0 PUSH1 0x20 DUP3 ADD SWAP1 POP DUP2 DUP2 SUB PUSH1 0x0 DUP4 ADD MSTORE PUSH2 0xFAA DUP2 PUSH2 0xC2F JUMP JUMPDEST SWAP1 POP SWAP2 SWAP1 POP JUMP JUMPDEST PUSH1 0x0 PUSH1 0x20 DUP3 ADD SWAP1 POP DUP2 DUP2 SUB PUSH1 0x0 DUP4 ADD MSTORE PUSH2 0xFCA DUP2 PUSH2 0xC6F JUMP JUMPDEST SWAP1 POP SWAP2 SWAP1 POP JUMP JUMPDEST PUSH1 0x0 PUSH1 0x20 DUP3 ADD SWAP1 POP DUP2 DUP2 SUB PUSH1 0x0 DUP4 ADD MSTORE PUSH2 0xFEA DUP2 PUSH2 0xCD5 JUMP JUMPDEST SWAP1 POP SWAP2 SWAP1 POP JUMP JUMPDEST PUSH1 0x0 PUSH1 0x20 DUP3 ADD SWAP1 POP DUP2 DUP2 SUB PUSH1 0x0 DUP4 ADD MSTORE PUSH2 0x100A DUP2 PUSH2 0xD3B JUMP JUMPDEST SWAP1 POP SWAP2 SWAP1 POP JUMP JUMPDEST PUSH1 0x0 PUSH1 0x20 DUP3 ADD SWAP1 POP DUP2 DUP2 SUB PUSH1 0x0 DUP4 ADD MSTORE PUSH2 0x102A DUP2 PUSH2 0xDE1 JUMP JUMPDEST SWAP1 POP SWAP2 SWAP1 POP JUMP JUMPDEST PUSH1 0x0 PUSH1 0x20 DUP3 ADD SWAP1 POP PUSH2 0x1046 PUSH1 0x0 DUP4 ADD DUP5 PUSH2 0xE47 JUMP JUMPDEST SWAP3 SWAP2 POP POP JUMP JUMPDEST PUSH1 0x0 PUSH1 0x40 DUP3 ADD SWAP1 POP PUSH2 0x1061 PUSH1 0x0 DUP4 ADD DUP6 PUSH2 0xE47 JUMP JUMPDEST PUSH2 0x106E PUSH1 0x20 DUP4 ADD DUP5 PUSH2 0xE47 JUMP JUMPDEST SWAP4 SWAP3 POP POP POP JUMP JUMPDEST PUSH1 0x0 PUSH1 0x40 MLOAD SWAP1 POP DUP2 DUP2 ADD DUP2 DUP2 LT PUSH8 0xFFFFFFFFFFFFFFFF DUP3 GT OR ISZERO PUSH2 0x109C JUMPI PUSH2 0x109B PUSH2 0x131D JUMP JUMPDEST JUMPDEST DUP1 PUSH1 0x40 MSTORE POP SWAP2 SWAP1 POP JUMP JUMPDEST PUSH1 0x0 PUSH8 0xFFFFFFFFFFFFFFFF DUP3 GT ISZERO PUSH2 0x10C1 JUMPI PUSH2 0x10C0 PUSH2 0x131D JUMP JUMPDEST JUMPDEST PUSH1 0x1F NOT PUSH1 0x1F DUP4 ADD AND SWAP1 POP PUSH1 0x20 DUP2 ADD SWAP1 POP SWAP2 SWAP1 POP JUMP JUMPDEST PUSH1 0x0 DUP2 SWAP1 POP DUP2 PUSH1 0x0 MSTORE PUSH1 0x20 PUSH1 0x0 KECCAK256 SWAP1 POP SWAP2 SWAP1 POP JUMP JUMPDEST PUSH1 0x0 DUP2 SLOAD SWAP1 POP SWAP2 SWAP1 POP JUMP JUMPDEST PUSH1 0x0 DUP2 MLOAD SWAP1 POP SWAP2 SWAP1 POP JUMP JUMPDEST PUSH1 0x0 PUSH1 0x1 DUP3 ADD SWAP1 POP SWAP2 SWAP1 POP JUMP JUMPDEST PUSH1 0x0 DUP2 SWAP1 POP SWAP3 SWAP2 POP POP JUMP JUMPDEST PUSH1 0x0 DUP3 DUP3 MSTORE PUSH1 0x20 DUP3 ADD SWAP1 POP SWAP3 SWAP2 POP POP JUMP JUMPDEST PUSH1 0x0 DUP2 SWAP1 POP SWAP3 SWAP2 POP POP JUMP JUMPDEST PUSH1 0x0 PUSH2 0x1140 DUP3 PUSH2 0x121E JUMP JUMPDEST SWAP2 POP PUSH2 0x114B DUP4 PUSH2 0x121E JUMP JUMPDEST SWAP3 POP DUP3 PUSH2 0x115B JUMPI PUSH2 0x115A PUSH2 0x12EE JUMP JUMPDEST JUMPDEST DUP3 DUP3 DIV SWAP1 POP SWAP3 SWAP2 POP POP JUMP JUMPDEST PUSH1 0x0 PUSH2 0x1171 DUP3 PUSH2 0x121E JUMP JUMPDEST SWAP2 POP PUSH2 0x117C DUP4 PUSH2 0x121E JUMP JUMPDEST SWAP3 POP DUP2 PUSH32 0xFFFFFFFFFFFFFFFFFFFFFFFFFFFFFFFFFFFFFFFFFFFFFFFFFFFFFFFFFFFFFFFF DIV DUP4 GT DUP3 ISZERO ISZERO AND ISZERO PUSH2 0x11B5 JUMPI PUSH2 0x11B4 PUSH2 0x12BF JUMP JUMPDEST JUMPDEST DUP3 DUP3 MUL SWAP1 POP SWAP3 SWAP2 POP POP JUMP JUMPDEST PUSH1 0x0 PUSH20 0xFFFFFFFFFFFFFFFFFFFFFFFFFFFFFFFFFFFFFFFF DUP3 AND SWAP1 POP SWAP2 SWAP1 POP JUMP JUMPDEST PUSH1 0x0 PUSH2 0x11EB DUP3 PUSH2 0x11FE JUMP JUMPDEST SWAP1 POP SWAP2 SWAP1 POP JUMP JUMPDEST PUSH1 0x0 DUP2 ISZERO ISZERO SWAP1 POP SWAP2 SWAP1 POP JUMP JUMPDEST PUSH1 0x0 PUSH20 0xFFFFFFFFFFFFFFFFFFFFFFFFFFFFFFFFFFFFFFFF DUP3 AND SWAP1 POP SWAP2 SWAP1 POP JUMP JUMPDEST PUSH1 0x0 DUP2 SWAP1 POP SWAP2 SWAP1 POP JUMP JUMPDEST DUP3 DUP2 DUP4 CALLDATACOPY PUSH1 0x0 DUP4 DUP4 ADD MSTORE POP POP POP JUMP JUMPDEST PUSH1 0x0 JUMPDEST DUP4 DUP2 LT ISZERO PUSH2 0x1255 JUMPI DUP1 DUP3 ADD MLOAD DUP2 DUP5 ADD MSTORE PUSH1 0x20 DUP2 ADD SWAP1 POP PUSH2 0x123A JUMP JUMPDEST DUP4 DUP2 GT ISZERO PUSH2 0x1264 JUMPI PUSH1 0x0 DUP5 DUP5 ADD MSTORE JUMPDEST POP POP POP POP JUMP JUMPDEST PUSH1 0x0 PUSH2 0x127D PUSH2 0x1278 DUP4 PUSH2 0x135F JUMP JUMPDEST PUSH2 0x11C0 JUMP JUMPDEST SWAP1 POP SWAP2 SWAP1 POP JUMP JUMPDEST PUSH1 0x0 DUP2 SWAP1 POP SWAP2 SWAP1 POP JUMP JUMPDEST PUSH1 0x0 PUSH2 0x1299 DUP3 PUSH2 0x121E JUMP JUMPDEST SWAP2 POP PUSH2 0x12A4 DUP4 PUSH2 0x121E JUMP JUMPDEST SWAP3 POP DUP3 PUSH2 0x12B4 JUMPI PUSH2 0x12B3 PUSH2 0x12EE JUMP JUMPDEST JUMPDEST DUP3 DUP3 MOD SWAP1 POP SWAP3 SWAP2 POP POP JUMP JUMPDEST PUSH32 0x4E487B7100000000000000000000000000000000000000000000000000000000 PUSH1 0x0 MSTORE PUSH1 0x11 PUSH1 0x4 MSTORE PUSH1 0x24 PUSH1 0x0 REVERT JUMPDEST PUSH32 0x4E487B7100000000000000000000000000000000000000000000000000000000 PUSH1 0x0 MSTORE PUSH1 0x12 PUSH1 0x4 MSTORE PUSH1 0x24 PUSH1 0x0 REVERT JUMPDEST PUSH32 0x4E487B7100000000000000000000000000000000000000000000000000000000 PUSH1 0x0 MSTORE PUSH1 0x41 PUSH1 0x4 MSTORE PUSH1 0x24 PUSH1 0x0 REVERT JUMPDEST PUSH1 0x0 PUSH2 0x1358 DUP3 SLOAD PUSH2 0x126A JUMP JUMPDEST SWAP1 POP SWAP2 SWAP1 POP JUMP JUMPDEST PUSH1 0x0 DUP2 PUSH1 0x0 SHR SWAP1 POP SWAP2 SWAP1 POP JUMP JUMPDEST PUSH2 0x1375 DUP2 PUSH2 0x121E JUMP JUMPDEST DUP2 EQ PUSH2 0x1380 JUMPI PUSH1 0x0 DUP1 REVERT JUMPDEST POP JUMP INVALID LOG2 PUSH5 0x6970667358 0x22 SLT KECCAK256 DUP1 BYTE 0x4B SWAP3 DUP13 0xBE PUSH26 0x74EF770964052A7D391A87713206818EF21D4195578546BB3A64 PUSH20 0x6F6C634300080000330000000000000000000000 "
				},
				"gasEstimates": {
					"creation": {
						"codeDepositCost": "1009800",
						"executionCost": "infinite",
						"totalCost": "infinite"
					},
					"external": {
						"acheterTicket(uint256,string)": "infinite",
						"deadline()": "1130",
						"gagnant()": "1237",
						"getCagnotte()": "384",
						"getParticipants()": "1212",
						"isLoterieTerminee()": "2790",
						"prixticket()": "1195",
						"terminerLoterie()": "21934",
						"tirerGagnant()": "infinite"
					},
					"internal": {
						"random()": "infinite",
						"tirageAuSort()": "infinite"
					}
				},
				"methodIdentifiers": {
					"acheterTicket(uint256,string)": "8481dbc6",
					"deadline()": "29dcb0cf",
					"gagnant()": "427f822b",
					"getCagnotte()": "4b20d5d5",
					"getParticipants()": "5aa68ac0",
					"isLoterieTerminee()": "766f03ea",
					"prixticket()": "98d0c1ed",
					"terminerLoterie()": "a7a0fbc6",
					"tirerGagnant()": "989101c1"
				}
			},
			"storageLayout": {
				"storage": [
					{
						"astId": 3,
						"contract": "Loterie3.sol:BlockLuckyLoterie",
						"label": "manager",
						"offset": 0,
						"slot": "0",
						"type": "t_address"
					},
					{
						"astId": 6,
						"contract": "Loterie3.sol:BlockLuckyLoterie",
						"label": "participants",
						"offset": 0,
						"slot": "1",
						"type": "t_array(t_address)dyn_storage"
					},
					{
						"astId": 8,
						"contract": "Loterie3.sol:BlockLuckyLoterie",
						"label": "charityAddress",
						"offset": 0,
						"slot": "2",
						"type": "t_address"
					},
					{
						"astId": 11,
						"contract": "Loterie3.sol:BlockLuckyLoterie",
						"label": "gagnantPercentage",
						"offset": 0,
						"slot": "3",
						"type": "t_uint256"
					},
					{
						"astId": 14,
						"contract": "Loterie3.sol:BlockLuckyLoterie",
						"label": "charityPercentage",
						"offset": 0,
						"slot": "4",
						"type": "t_uint256"
					},
					{
						"astId": 16,
						"contract": "Loterie3.sol:BlockLuckyLoterie",
						"label": "gagnant",
						"offset": 0,
						"slot": "5",
						"type": "t_address"
					},
					{
						"astId": 18,
						"contract": "Loterie3.sol:BlockLuckyLoterie",
						"label": "ticketPrice",
						"offset": 0,
						"slot": "6",
						"type": "t_uint256"
					},
					{
						"astId": 20,
						"contract": "Loterie3.sol:BlockLuckyLoterie",
						"label": "prixticket",
						"offset": 0,
						"slot": "7",
						"type": "t_uint256"
					},
					{
						"astId": 22,
						"contract": "Loterie3.sol:BlockLuckyLoterie",
						"label": "minParticipants",
						"offset": 0,
						"slot": "8",
						"type": "t_uint256"
					},
					{
						"astId": 24,
						"contract": "Loterie3.sol:BlockLuckyLoterie",
						"label": "deadline",
						"offset": 0,
						"slot": "9",
						"type": "t_uint256"
					}
				],
				"types": {
					"t_address": {
						"encoding": "inplace",
						"label": "address",
						"numberOfBytes": "20"
					},
					"t_array(t_address)dyn_storage": {
						"base": "t_address",
						"encoding": "dynamic_array",
						"label": "address[]",
						"numberOfBytes": "32"
					},
					"t_uint256": {
						"encoding": "inplace",
						"label": "uint256",
						"numberOfBytes": "32"
					}
				}
			},
			"userdoc": {
				"kind": "user",
				"methods": {},
				"version": 1
			}
		}
	}
}