{
	"LivreDOR.sol": {
		"LivreDOR": {
			"abi": [
				{
					"inputs": [],
					"stateMutability": "nonpayable",
					"type": "constructor"
				},
				{
					"inputs": [
						{
							"internalType": "address",
							"name": "_addrAuteur",
							"type": "address"
						}
					],
					"name": "getMessage",
					"outputs": [
						{
							"internalType": "string[]",
							"name": "_messages",
							"type": "string[]"
						}
					],
					"stateMutability": "view",
					"type": "function"
				},
				{
					"inputs": [
						{
							"internalType": "string",
							"name": "_message",
							"type": "string"
						}
					],
					"name": "setMessage",
					"outputs": [],
					"stateMutability": "nonpayable",
					"type": "function"
				}
			],
			"devdoc": {
				"kind": "dev",
				"methods": {},
				"version": 1
			},
			"evm": {
				"assembly": "    /* \"LivreDOR.sol\":66:840  contract LivreDOR {... */\n  mstore(0x40, 0x80)\n    /* \"LivreDOR.sol\":350:395  constructor() {... */\n  callvalue\n  dup1\n  iszero\n  tag_1\n  jumpi\n  0x00\n  dup1\n  revert\ntag_1:\n  pop\n    /* \"LivreDOR.sol\":386:387  0 */\n  0x00\n    /* \"LivreDOR.sol\":375:385  nbMessages */\n  dup1\n    /* \"LivreDOR.sol\":375:387  nbMessages=0 */\n  dup2\n  swap1\n  sstore\n  pop\n    /* \"LivreDOR.sol\":66:840  contract LivreDOR {... */\n  dataSize(sub_0)\n  dup1\n  dataOffset(sub_0)\n  0x00\n  codecopy\n  0x00\n  return\nstop\n\nsub_0: assembly {\n        /* \"LivreDOR.sol\":66:840  contract LivreDOR {... */\n      mstore(0x40, 0x80)\n      callvalue\n      dup1\n      iszero\n      tag_1\n      jumpi\n      0x00\n      dup1\n      revert\n    tag_1:\n      pop\n      jumpi(tag_2, lt(calldatasize, 0x04))\n      shr(0xe0, calldataload(0x00))\n      dup1\n      0x368b8772\n      eq\n      tag_3\n      jumpi\n      dup1\n      0x55448fe1\n      eq\n      tag_4\n      jumpi\n    tag_2:\n      0x00\n      dup1\n      revert\n        /* \"LivreDOR.sol\":403:666  function setMessage ( string calldata _message) external {... */\n    tag_3:\n      tag_5\n      0x04\n      dup1\n      calldatasize\n      sub\n      dup2\n      add\n      swap1\n      tag_6\n      swap2\n      swap1\n      tag_7\n      jump\t// in\n    tag_6:\n      tag_8\n      jump\t// in\n    tag_5:\n      stop\n        /* \"LivreDOR.sol\":674:837  function getMessage ( address _addrAuteur ) external view returns (string[] memory _messages){... */\n    tag_4:\n      tag_9\n      0x04\n      dup1\n      calldatasize\n      sub\n      dup2\n      add\n      swap1\n      tag_10\n      swap2\n      swap1\n      tag_11\n      jump\t// in\n    tag_10:\n      tag_12\n      jump\t// in\n    tag_9:\n      mload(0x40)\n      tag_13\n      swap2\n      swap1\n      tag_14\n      jump\t// in\n    tag_13:\n      mload(0x40)\n      dup1\n      swap2\n      sub\n      swap1\n      return\n        /* \"LivreDOR.sol\":403:666  function setMessage ( string calldata _message) external {... */\n    tag_8:\n        /* \"LivreDOR.sol\":471:490  address _addrAuteur */\n      0x00\n        /* \"LivreDOR.sol\":493:503  msg.sender */\n      caller\n        /* \"LivreDOR.sol\":471:503  address _addrAuteur = msg.sender */\n      swap1\n      pop\n        /* \"LivreDOR.sol\":552:567  block.timestamp */\n      timestamp\n        /* \"LivreDOR.sol\":514:531  messagesParAuteur */\n      0x01\n        /* \"LivreDOR.sol\":514:544  messagesParAuteur[_addrAuteur] */\n      0x00\n        /* \"LivreDOR.sol\":532:543  _addrAuteur */\n      dup4\n        /* \"LivreDOR.sol\":514:544  messagesParAuteur[_addrAuteur] */\n      0xffffffffffffffffffffffffffffffffffffffff\n      and\n      0xffffffffffffffffffffffffffffffffffffffff\n      and\n      dup2\n      mstore\n      0x20\n      add\n      swap1\n      dup2\n      mstore\n      0x20\n      add\n      0x00\n      keccak256\n        /* \"LivreDOR.sol\":514:549  messagesParAuteur[_addrAuteur].date */\n      0x00\n      add\n        /* \"LivreDOR.sol\":514:567  messagesParAuteur[_addrAuteur].date = block.timestamp */\n      dup2\n      swap1\n      sstore\n      pop\n        /* \"LivreDOR.sol\":579:596  messagesParAuteur */\n      0x01\n        /* \"LivreDOR.sol\":579:609  messagesParAuteur[_addrAuteur] */\n      0x00\n        /* \"LivreDOR.sol\":597:608  _addrAuteur */\n      dup3\n        /* \"LivreDOR.sol\":579:609  messagesParAuteur[_addrAuteur] */\n      0xffffffffffffffffffffffffffffffffffffffff\n      and\n      0xffffffffffffffffffffffffffffffffffffffff\n      and\n      dup2\n      mstore\n      0x20\n      add\n      swap1\n      dup2\n      mstore\n      0x20\n      add\n      0x00\n      keccak256\n        /* \"LivreDOR.sol\":579:618  messagesParAuteur[_addrAuteur].messages */\n      0x01\n      add\n        /* \"LivreDOR.sol\":625:633  _message */\n      dup4\n      dup4\n        /* \"LivreDOR.sol\":579:634  messagesParAuteur[_addrAuteur].messages.push (_message) */\n      swap1\n      swap2\n      dup1\n      0x01\n      dup2\n      sload\n      add\n      dup1\n      dup3\n      sstore\n      dup1\n      swap2\n      pop\n      pop\n      0x01\n      swap1\n      sub\n      swap1\n      0x00\n      mstore\n      keccak256(0x00, 0x20)\n      add\n      0x00\n      swap1\n      swap2\n      swap3\n      swap1\n      swap2\n      swap3\n      swap1\n      swap2\n      swap3\n      swap1\n      swap2\n      swap3\n      pop\n      swap2\n      dup3\n      tag_17\n      swap3\n      swap2\n      swap1\n      tag_18\n      jump\t// in\n    tag_17:\n      pop\n        /* \"LivreDOR.sol\":648:658  nbMessages */\n      0x00\n      dup1\n        /* \"LivreDOR.sol\":645:658  ++ nbMessages */\n      dup2\n      sload\n      tag_19\n      swap1\n      tag_20\n      jump\t// in\n    tag_19:\n      swap2\n      swap1\n      pop\n      dup2\n      swap1\n      sstore\n      pop\n        /* \"LivreDOR.sol\":460:666  {... */\n      pop\n        /* \"LivreDOR.sol\":403:666  function setMessage ( string calldata _message) external {... */\n      pop\n      pop\n      jump\t// out\n        /* \"LivreDOR.sol\":674:837  function getMessage ( address _addrAuteur ) external view returns (string[] memory _messages){... */\n    tag_12:\n        /* \"LivreDOR.sol\":741:766  string[] memory _messages */\n      0x60\n        /* \"LivreDOR.sol\":790:807  messagesParAuteur */\n      0x01\n        /* \"LivreDOR.sol\":790:820  messagesParAuteur[_addrAuteur] */\n      0x00\n        /* \"LivreDOR.sol\":808:819  _addrAuteur */\n      dup4\n        /* \"LivreDOR.sol\":790:820  messagesParAuteur[_addrAuteur] */\n      0xffffffffffffffffffffffffffffffffffffffff\n      and\n      0xffffffffffffffffffffffffffffffffffffffff\n      and\n      dup2\n      mstore\n      0x20\n      add\n      swap1\n      dup2\n      mstore\n      0x20\n      add\n      0x00\n      keccak256\n        /* \"LivreDOR.sol\":790:829  messagesParAuteur[_addrAuteur].messages */\n      0x01\n      add\n        /* \"LivreDOR.sol\":778:829  _messages = messagesParAuteur[_addrAuteur].messages */\n      dup1\n      sload\n      dup1\n      0x20\n      mul\n      0x20\n      add\n      mload(0x40)\n      swap1\n      dup2\n      add\n      0x40\n      mstore\n      dup1\n      swap3\n      swap2\n      swap1\n      dup2\n      dup2\n      mstore\n      0x20\n      add\n      0x00\n      swap1\n    tag_22:\n      dup3\n      dup3\n      lt\n      iszero\n      tag_23\n      jumpi\n      dup4\n      dup3\n      swap1\n      0x00\n      mstore\n      keccak256(0x00, 0x20)\n      add\n      dup1\n      sload\n      tag_25\n      swap1\n      tag_26\n      jump\t// in\n    tag_25:\n      dup1\n      0x1f\n      add\n      0x20\n      dup1\n      swap2\n      div\n      mul\n      0x20\n      add\n      mload(0x40)\n      swap1\n      dup2\n      add\n      0x40\n      mstore\n      dup1\n      swap3\n      swap2\n      swap1\n      dup2\n      dup2\n      mstore\n      0x20\n      add\n      dup3\n      dup1\n      sload\n      tag_27\n      swap1\n      tag_26\n      jump\t// in\n    tag_27:\n      dup1\n      iszero\n      tag_28\n      jumpi\n      dup1\n      0x1f\n      lt\n      tag_29\n      jumpi\n      0x0100\n      dup1\n      dup4\n      sload\n      div\n      mul\n      dup4\n      mstore\n      swap2\n      0x20\n      add\n      swap2\n      jump(tag_28)\n    tag_29:\n      dup3\n      add\n      swap2\n      swap1\n      0x00\n      mstore\n      keccak256(0x00, 0x20)\n      swap1\n    tag_30:\n      dup2\n      sload\n      dup2\n      mstore\n      swap1\n      0x01\n      add\n      swap1\n      0x20\n      add\n      dup1\n      dup4\n      gt\n      tag_30\n      jumpi\n      dup3\n      swap1\n      sub\n      0x1f\n      and\n      dup3\n      add\n      swap2\n    tag_28:\n      pop\n      pop\n      pop\n      pop\n      pop\n      dup2\n      mstore\n      0x20\n      add\n      swap1\n      0x01\n      add\n      swap1\n      jump(tag_22)\n    tag_23:\n      pop\n      pop\n      pop\n      pop\n      swap1\n      pop\n        /* \"LivreDOR.sol\":674:837  function getMessage ( address _addrAuteur ) external view returns (string[] memory _messages){... */\n      swap2\n      swap1\n      pop\n      jump\t// out\n        /* \"#utility.yul\":88:205   */\n    tag_32:\n        /* \"#utility.yul\":197:198   */\n      0x00\n        /* \"#utility.yul\":194:195   */\n      dup1\n        /* \"#utility.yul\":187:199   */\n      revert\n        /* \"#utility.yul\":211:328   */\n    tag_33:\n        /* \"#utility.yul\":320:321   */\n      0x00\n        /* \"#utility.yul\":317:318   */\n      dup1\n        /* \"#utility.yul\":310:322   */\n      revert\n        /* \"#utility.yul\":334:451   */\n    tag_34:\n        /* \"#utility.yul\":443:444   */\n      0x00\n        /* \"#utility.yul\":440:441   */\n      dup1\n        /* \"#utility.yul\":433:445   */\n      revert\n        /* \"#utility.yul\":457:574   */\n    tag_35:\n        /* \"#utility.yul\":566:567   */\n      0x00\n        /* \"#utility.yul\":563:564   */\n      dup1\n        /* \"#utility.yul\":556:568   */\n      revert\n        /* \"#utility.yul\":580:697   */\n    tag_36:\n        /* \"#utility.yul\":689:690   */\n      0x00\n        /* \"#utility.yul\":686:687   */\n      dup1\n        /* \"#utility.yul\":679:691   */\n      revert\n        /* \"#utility.yul\":717:1270   */\n    tag_37:\n        /* \"#utility.yul\":775:783   */\n      0x00\n        /* \"#utility.yul\":785:791   */\n      dup1\n        /* \"#utility.yul\":835:838   */\n      dup4\n        /* \"#utility.yul\":828:832   */\n      0x1f\n        /* \"#utility.yul\":820:826   */\n      dup5\n        /* \"#utility.yul\":816:833   */\n      add\n        /* \"#utility.yul\":812:839   */\n      slt\n        /* \"#utility.yul\":802:924   */\n      tag_81\n      jumpi\n        /* \"#utility.yul\":843:922   */\n      tag_82\n      tag_34\n      jump\t// in\n    tag_82:\n        /* \"#utility.yul\":802:924   */\n    tag_81:\n        /* \"#utility.yul\":956:962   */\n      dup3\n        /* \"#utility.yul\":943:963   */\n      calldataload\n        /* \"#utility.yul\":933:963   */\n      swap1\n      pop\n        /* \"#utility.yul\":986:1004   */\n      0xffffffffffffffff\n        /* \"#utility.yul\":978:984   */\n      dup2\n        /* \"#utility.yul\":975:1005   */\n      gt\n        /* \"#utility.yul\":972:1089   */\n      iszero\n      tag_83\n      jumpi\n        /* \"#utility.yul\":1008:1087   */\n      tag_84\n      tag_35\n      jump\t// in\n    tag_84:\n        /* \"#utility.yul\":972:1089   */\n    tag_83:\n        /* \"#utility.yul\":1122:1126   */\n      0x20\n        /* \"#utility.yul\":1114:1120   */\n      dup4\n        /* \"#utility.yul\":1110:1127   */\n      add\n        /* \"#utility.yul\":1098:1127   */\n      swap2\n      pop\n        /* \"#utility.yul\":1176:1179   */\n      dup4\n        /* \"#utility.yul\":1168:1172   */\n      0x01\n        /* \"#utility.yul\":1160:1166   */\n      dup3\n        /* \"#utility.yul\":1156:1173   */\n      mul\n        /* \"#utility.yul\":1146:1154   */\n      dup4\n        /* \"#utility.yul\":1142:1174   */\n      add\n        /* \"#utility.yul\":1139:1180   */\n      gt\n        /* \"#utility.yul\":1136:1264   */\n      iszero\n      tag_85\n      jumpi\n        /* \"#utility.yul\":1183:1262   */\n      tag_86\n      tag_36\n      jump\t// in\n    tag_86:\n        /* \"#utility.yul\":1136:1264   */\n    tag_85:\n        /* \"#utility.yul\":717:1270   */\n      swap3\n      pop\n      swap3\n      swap1\n      pop\n      jump\t// out\n        /* \"#utility.yul\":1276:1805   */\n    tag_7:\n        /* \"#utility.yul\":1347:1353   */\n      0x00\n        /* \"#utility.yul\":1355:1361   */\n      dup1\n        /* \"#utility.yul\":1404:1406   */\n      0x20\n        /* \"#utility.yul\":1392:1401   */\n      dup4\n        /* \"#utility.yul\":1383:1390   */\n      dup6\n        /* \"#utility.yul\":1379:1402   */\n      sub\n        /* \"#utility.yul\":1375:1407   */\n      slt\n        /* \"#utility.yul\":1372:1491   */\n      iszero\n      tag_88\n      jumpi\n        /* \"#utility.yul\":1410:1489   */\n      tag_89\n      tag_32\n      jump\t// in\n    tag_89:\n        /* \"#utility.yul\":1372:1491   */\n    tag_88:\n        /* \"#utility.yul\":1558:1559   */\n      0x00\n        /* \"#utility.yul\":1547:1556   */\n      dup4\n        /* \"#utility.yul\":1543:1560   */\n      add\n        /* \"#utility.yul\":1530:1561   */\n      calldataload\n        /* \"#utility.yul\":1588:1606   */\n      0xffffffffffffffff\n        /* \"#utility.yul\":1580:1586   */\n      dup2\n        /* \"#utility.yul\":1577:1607   */\n      gt\n        /* \"#utility.yul\":1574:1691   */\n      iszero\n      tag_90\n      jumpi\n        /* \"#utility.yul\":1610:1689   */\n      tag_91\n      tag_33\n      jump\t// in\n    tag_91:\n        /* \"#utility.yul\":1574:1691   */\n    tag_90:\n        /* \"#utility.yul\":1723:1788   */\n      tag_92\n        /* \"#utility.yul\":1780:1787   */\n      dup6\n        /* \"#utility.yul\":1771:1777   */\n      dup3\n        /* \"#utility.yul\":1760:1769   */\n      dup7\n        /* \"#utility.yul\":1756:1778   */\n      add\n        /* \"#utility.yul\":1723:1788   */\n      tag_37\n      jump\t// in\n    tag_92:\n        /* \"#utility.yul\":1705:1788   */\n      swap3\n      pop\n      swap3\n      pop\n        /* \"#utility.yul\":1501:1798   */\n      pop\n        /* \"#utility.yul\":1276:1805   */\n      swap3\n      pop\n      swap3\n      swap1\n      pop\n      jump\t// out\n        /* \"#utility.yul\":1811:1937   */\n    tag_38:\n        /* \"#utility.yul\":1848:1855   */\n      0x00\n        /* \"#utility.yul\":1888:1930   */\n      0xffffffffffffffffffffffffffffffffffffffff\n        /* \"#utility.yul\":1881:1886   */\n      dup3\n        /* \"#utility.yul\":1877:1931   */\n      and\n        /* \"#utility.yul\":1866:1931   */\n      swap1\n      pop\n        /* \"#utility.yul\":1811:1937   */\n      swap2\n      swap1\n      pop\n      jump\t// out\n        /* \"#utility.yul\":1943:2039   */\n    tag_39:\n        /* \"#utility.yul\":1980:1987   */\n      0x00\n        /* \"#utility.yul\":2009:2033   */\n      tag_95\n        /* \"#utility.yul\":2027:2032   */\n      dup3\n        /* \"#utility.yul\":2009:2033   */\n      tag_38\n      jump\t// in\n    tag_95:\n        /* \"#utility.yul\":1998:2033   */\n      swap1\n      pop\n        /* \"#utility.yul\":1943:2039   */\n      swap2\n      swap1\n      pop\n      jump\t// out\n        /* \"#utility.yul\":2045:2167   */\n    tag_40:\n        /* \"#utility.yul\":2118:2142   */\n      tag_97\n        /* \"#utility.yul\":2136:2141   */\n      dup2\n        /* \"#utility.yul\":2118:2142   */\n      tag_39\n      jump\t// in\n    tag_97:\n        /* \"#utility.yul\":2111:2116   */\n      dup2\n        /* \"#utility.yul\":2108:2143   */\n      eq\n        /* \"#utility.yul\":2098:2161   */\n      tag_98\n      jumpi\n        /* \"#utility.yul\":2157:2158   */\n      0x00\n        /* \"#utility.yul\":2154:2155   */\n      dup1\n        /* \"#utility.yul\":2147:2159   */\n      revert\n        /* \"#utility.yul\":2098:2161   */\n    tag_98:\n        /* \"#utility.yul\":2045:2167   */\n      pop\n      jump\t// out\n        /* \"#utility.yul\":2173:2312   */\n    tag_41:\n        /* \"#utility.yul\":2219:2224   */\n      0x00\n        /* \"#utility.yul\":2257:2263   */\n      dup2\n        /* \"#utility.yul\":2244:2264   */\n      calldataload\n        /* \"#utility.yul\":2235:2264   */\n      swap1\n      pop\n        /* \"#utility.yul\":2273:2306   */\n      tag_100\n        /* \"#utility.yul\":2300:2305   */\n      dup2\n        /* \"#utility.yul\":2273:2306   */\n      tag_40\n      jump\t// in\n    tag_100:\n        /* \"#utility.yul\":2173:2312   */\n      swap3\n      swap2\n      pop\n      pop\n      jump\t// out\n        /* \"#utility.yul\":2318:2647   */\n    tag_11:\n        /* \"#utility.yul\":2377:2383   */\n      0x00\n        /* \"#utility.yul\":2426:2428   */\n      0x20\n        /* \"#utility.yul\":2414:2423   */\n      dup3\n        /* \"#utility.yul\":2405:2412   */\n      dup5\n        /* \"#utility.yul\":2401:2424   */\n      sub\n        /* \"#utility.yul\":2397:2429   */\n      slt\n        /* \"#utility.yul\":2394:2513   */\n      iszero\n      tag_102\n      jumpi\n        /* \"#utility.yul\":2432:2511   */\n      tag_103\n      tag_32\n      jump\t// in\n    tag_103:\n        /* \"#utility.yul\":2394:2513   */\n    tag_102:\n        /* \"#utility.yul\":2552:2553   */\n      0x00\n        /* \"#utility.yul\":2577:2630   */\n      tag_104\n        /* \"#utility.yul\":2622:2629   */\n      dup5\n        /* \"#utility.yul\":2613:2619   */\n      dup3\n        /* \"#utility.yul\":2602:2611   */\n      dup6\n        /* \"#utility.yul\":2598:2620   */\n      add\n        /* \"#utility.yul\":2577:2630   */\n      tag_41\n      jump\t// in\n    tag_104:\n        /* \"#utility.yul\":2567:2630   */\n      swap2\n      pop\n        /* \"#utility.yul\":2523:2640   */\n      pop\n        /* \"#utility.yul\":2318:2647   */\n      swap3\n      swap2\n      pop\n      pop\n      jump\t// out\n        /* \"#utility.yul\":2653:2777   */\n    tag_42:\n        /* \"#utility.yul\":2730:2736   */\n      0x00\n        /* \"#utility.yul\":2764:2769   */\n      dup2\n        /* \"#utility.yul\":2758:2770   */\n      mload\n        /* \"#utility.yul\":2748:2770   */\n      swap1\n      pop\n        /* \"#utility.yul\":2653:2777   */\n      swap2\n      swap1\n      pop\n      jump\t// out\n        /* \"#utility.yul\":2783:2977   */\n    tag_43:\n        /* \"#utility.yul\":2892:2903   */\n      0x00\n        /* \"#utility.yul\":2926:2932   */\n      dup3\n        /* \"#utility.yul\":2921:2924   */\n      dup3\n        /* \"#utility.yul\":2914:2933   */\n      mstore\n        /* \"#utility.yul\":2966:2970   */\n      0x20\n        /* \"#utility.yul\":2961:2964   */\n      dup3\n        /* \"#utility.yul\":2957:2971   */\n      add\n        /* \"#utility.yul\":2942:2971   */\n      swap1\n      pop\n        /* \"#utility.yul\":2783:2977   */\n      swap3\n      swap2\n      pop\n      pop\n      jump\t// out\n        /* \"#utility.yul\":2983:3125   */\n    tag_44:\n        /* \"#utility.yul\":3060:3064   */\n      0x00\n        /* \"#utility.yul\":3083:3086   */\n      dup2\n        /* \"#utility.yul\":3075:3086   */\n      swap1\n      pop\n        /* \"#utility.yul\":3113:3117   */\n      0x20\n        /* \"#utility.yul\":3108:3111   */\n      dup3\n        /* \"#utility.yul\":3104:3118   */\n      add\n        /* \"#utility.yul\":3096:3118   */\n      swap1\n      pop\n        /* \"#utility.yul\":2983:3125   */\n      swap2\n      swap1\n      pop\n      jump\t// out\n        /* \"#utility.yul\":3131:3230   */\n    tag_45:\n        /* \"#utility.yul\":3183:3189   */\n      0x00\n        /* \"#utility.yul\":3217:3222   */\n      dup2\n        /* \"#utility.yul\":3211:3223   */\n      mload\n        /* \"#utility.yul\":3201:3223   */\n      swap1\n      pop\n        /* \"#utility.yul\":3131:3230   */\n      swap2\n      swap1\n      pop\n      jump\t// out\n        /* \"#utility.yul\":3236:3395   */\n    tag_46:\n        /* \"#utility.yul\":3310:3321   */\n      0x00\n        /* \"#utility.yul\":3344:3350   */\n      dup3\n        /* \"#utility.yul\":3339:3342   */\n      dup3\n        /* \"#utility.yul\":3332:3351   */\n      mstore\n        /* \"#utility.yul\":3384:3388   */\n      0x20\n        /* \"#utility.yul\":3379:3382   */\n      dup3\n        /* \"#utility.yul\":3375:3389   */\n      add\n        /* \"#utility.yul\":3360:3389   */\n      swap1\n      pop\n        /* \"#utility.yul\":3236:3395   */\n      swap3\n      swap2\n      pop\n      pop\n      jump\t// out\n        /* \"#utility.yul\":3401:3647   */\n    tag_47:\n        /* \"#utility.yul\":3482:3483   */\n      0x00\n        /* \"#utility.yul\":3492:3605   */\n    tag_111:\n        /* \"#utility.yul\":3506:3512   */\n      dup4\n        /* \"#utility.yul\":3503:3504   */\n      dup2\n        /* \"#utility.yul\":3500:3513   */\n      lt\n        /* \"#utility.yul\":3492:3605   */\n      iszero\n      tag_113\n      jumpi\n        /* \"#utility.yul\":3591:3592   */\n      dup1\n        /* \"#utility.yul\":3586:3589   */\n      dup3\n        /* \"#utility.yul\":3582:3593   */\n      add\n        /* \"#utility.yul\":3576:3594   */\n      mload\n        /* \"#utility.yul\":3572:3573   */\n      dup2\n        /* \"#utility.yul\":3567:3570   */\n      dup5\n        /* \"#utility.yul\":3563:3574   */\n      add\n        /* \"#utility.yul\":3556:3595   */\n      mstore\n        /* \"#utility.yul\":3528:3530   */\n      0x20\n        /* \"#utility.yul\":3525:3526   */\n      dup2\n        /* \"#utility.yul\":3521:3531   */\n      add\n        /* \"#utility.yul\":3516:3531   */\n      swap1\n      pop\n        /* \"#utility.yul\":3492:3605   */\n      jump(tag_111)\n    tag_113:\n        /* \"#utility.yul\":3639:3640   */\n      0x00\n        /* \"#utility.yul\":3630:3636   */\n      dup5\n        /* \"#utility.yul\":3625:3628   */\n      dup5\n        /* \"#utility.yul\":3621:3637   */\n      add\n        /* \"#utility.yul\":3614:3641   */\n      mstore\n        /* \"#utility.yul\":3463:3647   */\n      pop\n        /* \"#utility.yul\":3401:3647   */\n      pop\n      pop\n      pop\n      jump\t// out\n        /* \"#utility.yul\":3653:3755   */\n    tag_48:\n        /* \"#utility.yul\":3694:3700   */\n      0x00\n        /* \"#utility.yul\":3745:3747   */\n      0x1f\n        /* \"#utility.yul\":3741:3748   */\n      not\n        /* \"#utility.yul\":3736:3738   */\n      0x1f\n        /* \"#utility.yul\":3729:3734   */\n      dup4\n        /* \"#utility.yul\":3725:3739   */\n      add\n        /* \"#utility.yul\":3721:3749   */\n      and\n        /* \"#utility.yul\":3711:3749   */\n      swap1\n      pop\n        /* \"#utility.yul\":3653:3755   */\n      swap2\n      swap1\n      pop\n      jump\t// out\n        /* \"#utility.yul\":3761:4118   */\n    tag_49:\n        /* \"#utility.yul\":3839:3842   */\n      0x00\n        /* \"#utility.yul\":3867:3906   */\n      tag_116\n        /* \"#utility.yul\":3900:3905   */\n      dup3\n        /* \"#utility.yul\":3867:3906   */\n      tag_45\n      jump\t// in\n    tag_116:\n        /* \"#utility.yul\":3922:3983   */\n      tag_117\n        /* \"#utility.yul\":3976:3982   */\n      dup2\n        /* \"#utility.yul\":3971:3974   */\n      dup6\n        /* \"#utility.yul\":3922:3983   */\n      tag_46\n      jump\t// in\n    tag_117:\n        /* \"#utility.yul\":3915:3983   */\n      swap4\n      pop\n        /* \"#utility.yul\":3992:4057   */\n      tag_118\n        /* \"#utility.yul\":4050:4056   */\n      dup2\n        /* \"#utility.yul\":4045:4048   */\n      dup6\n        /* \"#utility.yul\":4038:4042   */\n      0x20\n        /* \"#utility.yul\":4031:4036   */\n      dup7\n        /* \"#utility.yul\":4027:4043   */\n      add\n        /* \"#utility.yul\":3992:4057   */\n      tag_47\n      jump\t// in\n    tag_118:\n        /* \"#utility.yul\":4082:4111   */\n      tag_119\n        /* \"#utility.yul\":4104:4110   */\n      dup2\n        /* \"#utility.yul\":4082:4111   */\n      tag_48\n      jump\t// in\n    tag_119:\n        /* \"#utility.yul\":4077:4080   */\n      dup5\n        /* \"#utility.yul\":4073:4112   */\n      add\n        /* \"#utility.yul\":4066:4112   */\n      swap2\n      pop\n        /* \"#utility.yul\":3843:4118   */\n      pop\n        /* \"#utility.yul\":3761:4118   */\n      swap3\n      swap2\n      pop\n      pop\n      jump\t// out\n        /* \"#utility.yul\":4124:4320   */\n    tag_50:\n        /* \"#utility.yul\":4213:4223   */\n      0x00\n        /* \"#utility.yul\":4248:4314   */\n      tag_121\n        /* \"#utility.yul\":4310:4313   */\n      dup4\n        /* \"#utility.yul\":4302:4308   */\n      dup4\n        /* \"#utility.yul\":4248:4314   */\n      tag_49\n      jump\t// in\n    tag_121:\n        /* \"#utility.yul\":4234:4314   */\n      swap1\n      pop\n        /* \"#utility.yul\":4124:4320   */\n      swap3\n      swap2\n      pop\n      pop\n      jump\t// out\n        /* \"#utility.yul\":4326:4449   */\n    tag_51:\n        /* \"#utility.yul\":4406:4410   */\n      0x00\n        /* \"#utility.yul\":4438:4442   */\n      0x20\n        /* \"#utility.yul\":4433:4436   */\n      dup3\n        /* \"#utility.yul\":4429:4443   */\n      add\n        /* \"#utility.yul\":4421:4443   */\n      swap1\n      pop\n        /* \"#utility.yul\":4326:4449   */\n      swap2\n      swap1\n      pop\n      jump\t// out\n        /* \"#utility.yul\":4483:5474   */\n    tag_52:\n        /* \"#utility.yul\":4622:4625   */\n      0x00\n        /* \"#utility.yul\":4651:4715   */\n      tag_124\n        /* \"#utility.yul\":4709:4714   */\n      dup3\n        /* \"#utility.yul\":4651:4715   */\n      tag_42\n      jump\t// in\n    tag_124:\n        /* \"#utility.yul\":4731:4827   */\n      tag_125\n        /* \"#utility.yul\":4820:4826   */\n      dup2\n        /* \"#utility.yul\":4815:4818   */\n      dup6\n        /* \"#utility.yul\":4731:4827   */\n      tag_43\n      jump\t// in\n    tag_125:\n        /* \"#utility.yul\":4724:4827   */\n      swap4\n      pop\n        /* \"#utility.yul\":4853:4856   */\n      dup4\n        /* \"#utility.yul\":4898:4902   */\n      0x20\n        /* \"#utility.yul\":4890:4896   */\n      dup3\n        /* \"#utility.yul\":4886:4903   */\n      mul\n        /* \"#utility.yul\":4881:4884   */\n      dup6\n        /* \"#utility.yul\":4877:4904   */\n      add\n        /* \"#utility.yul\":4928:4994   */\n      tag_126\n        /* \"#utility.yul\":4988:4993   */\n      dup6\n        /* \"#utility.yul\":4928:4994   */\n      tag_44\n      jump\t// in\n    tag_126:\n        /* \"#utility.yul\":5017:5024   */\n      dup1\n        /* \"#utility.yul\":5048:5049   */\n      0x00\n        /* \"#utility.yul\":5033:5429   */\n    tag_127:\n        /* \"#utility.yul\":5058:5064   */\n      dup6\n        /* \"#utility.yul\":5055:5056   */\n      dup2\n        /* \"#utility.yul\":5052:5065   */\n      lt\n        /* \"#utility.yul\":5033:5429   */\n      iszero\n      tag_129\n      jumpi\n        /* \"#utility.yul\":5129:5138   */\n      dup5\n        /* \"#utility.yul\":5123:5127   */\n      dup5\n        /* \"#utility.yul\":5119:5139   */\n      sub\n        /* \"#utility.yul\":5114:5117   */\n      dup10\n        /* \"#utility.yul\":5107:5140   */\n      mstore\n        /* \"#utility.yul\":5180:5186   */\n      dup2\n        /* \"#utility.yul\":5174:5187   */\n      mload\n        /* \"#utility.yul\":5208:5292   */\n      tag_130\n        /* \"#utility.yul\":5287:5291   */\n      dup6\n        /* \"#utility.yul\":5272:5285   */\n      dup3\n        /* \"#utility.yul\":5208:5292   */\n      tag_50\n      jump\t// in\n    tag_130:\n        /* \"#utility.yul\":5200:5292   */\n      swap5\n      pop\n        /* \"#utility.yul\":5315:5385   */\n      tag_131\n        /* \"#utility.yul\":5378:5384   */\n      dup4\n        /* \"#utility.yul\":5315:5385   */\n      tag_51\n      jump\t// in\n    tag_131:\n        /* \"#utility.yul\":5305:5385   */\n      swap3\n      pop\n        /* \"#utility.yul\":5414:5418   */\n      0x20\n        /* \"#utility.yul\":5409:5412   */\n      dup11\n        /* \"#utility.yul\":5405:5419   */\n      add\n        /* \"#utility.yul\":5398:5419   */\n      swap10\n      pop\n        /* \"#utility.yul\":5093:5429   */\n      pop\n        /* \"#utility.yul\":5080:5081   */\n      0x01\n        /* \"#utility.yul\":5077:5078   */\n      dup2\n        /* \"#utility.yul\":5073:5082   */\n      add\n        /* \"#utility.yul\":5068:5082   */\n      swap1\n      pop\n        /* \"#utility.yul\":5033:5429   */\n      jump(tag_127)\n    tag_129:\n        /* \"#utility.yul\":5037:5051   */\n      pop\n        /* \"#utility.yul\":5445:5449   */\n      dup3\n        /* \"#utility.yul\":5438:5449   */\n      swap8\n      pop\n        /* \"#utility.yul\":5465:5468   */\n      dup8\n        /* \"#utility.yul\":5458:5468   */\n      swap6\n      pop\n        /* \"#utility.yul\":4627:5474   */\n      pop\n      pop\n      pop\n      pop\n      pop\n        /* \"#utility.yul\":4483:5474   */\n      swap3\n      swap2\n      pop\n      pop\n      jump\t// out\n        /* \"#utility.yul\":5480:5893   */\n    tag_14:\n        /* \"#utility.yul\":5643:5647   */\n      0x00\n        /* \"#utility.yul\":5681:5683   */\n      0x20\n        /* \"#utility.yul\":5670:5679   */\n      dup3\n        /* \"#utility.yul\":5666:5684   */\n      add\n        /* \"#utility.yul\":5658:5684   */\n      swap1\n      pop\n        /* \"#utility.yul\":5730:5739   */\n      dup2\n        /* \"#utility.yul\":5724:5728   */\n      dup2\n        /* \"#utility.yul\":5720:5740   */\n      sub\n        /* \"#utility.yul\":5716:5717   */\n      0x00\n        /* \"#utility.yul\":5705:5714   */\n      dup4\n        /* \"#utility.yul\":5701:5718   */\n      add\n        /* \"#utility.yul\":5694:5741   */\n      mstore\n        /* \"#utility.yul\":5758:5886   */\n      tag_133\n        /* \"#utility.yul\":5881:5885   */\n      dup2\n        /* \"#utility.yul\":5872:5878   */\n      dup5\n        /* \"#utility.yul\":5758:5886   */\n      tag_52\n      jump\t// in\n    tag_133:\n        /* \"#utility.yul\":5750:5886   */\n      swap1\n      pop\n        /* \"#utility.yul\":5480:5893   */\n      swap3\n      swap2\n      pop\n      pop\n      jump\t// out\n        /* \"#utility.yul\":5899:5996   */\n    tag_53:\n        /* \"#utility.yul\":5958:5964   */\n      0x00\n        /* \"#utility.yul\":5986:5989   */\n      dup3\n        /* \"#utility.yul\":5976:5989   */\n      swap1\n      pop\n        /* \"#utility.yul\":5899:5996   */\n      swap3\n      swap2\n      pop\n      pop\n      jump\t// out\n        /* \"#utility.yul\":6002:6182   */\n    tag_54:\n        /* \"#utility.yul\":6050:6127   */\n      0x4e487b7100000000000000000000000000000000000000000000000000000000\n        /* \"#utility.yul\":6047:6048   */\n      0x00\n        /* \"#utility.yul\":6040:6128   */\n      mstore\n        /* \"#utility.yul\":6147:6151   */\n      0x41\n        /* \"#utility.yul\":6144:6145   */\n      0x04\n        /* \"#utility.yul\":6137:6152   */\n      mstore\n        /* \"#utility.yul\":6171:6175   */\n      0x24\n        /* \"#utility.yul\":6168:6169   */\n      0x00\n        /* \"#utility.yul\":6161:6176   */\n      revert\n        /* \"#utility.yul\":6188:6368   */\n    tag_55:\n        /* \"#utility.yul\":6236:6313   */\n      0x4e487b7100000000000000000000000000000000000000000000000000000000\n        /* \"#utility.yul\":6233:6234   */\n      0x00\n        /* \"#utility.yul\":6226:6314   */\n      mstore\n        /* \"#utility.yul\":6333:6337   */\n      0x22\n        /* \"#utility.yul\":6330:6331   */\n      0x04\n        /* \"#utility.yul\":6323:6338   */\n      mstore\n        /* \"#utility.yul\":6357:6361   */\n      0x24\n        /* \"#utility.yul\":6354:6355   */\n      0x00\n        /* \"#utility.yul\":6347:6362   */\n      revert\n        /* \"#utility.yul\":6374:6694   */\n    tag_26:\n        /* \"#utility.yul\":6418:6424   */\n      0x00\n        /* \"#utility.yul\":6455:6456   */\n      0x02\n        /* \"#utility.yul\":6449:6453   */\n      dup3\n        /* \"#utility.yul\":6445:6457   */\n      div\n        /* \"#utility.yul\":6435:6457   */\n      swap1\n      pop\n        /* \"#utility.yul\":6502:6503   */\n      0x01\n        /* \"#utility.yul\":6496:6500   */\n      dup3\n        /* \"#utility.yul\":6492:6504   */\n      and\n        /* \"#utility.yul\":6523:6541   */\n      dup1\n        /* \"#utility.yul\":6513:6594   */\n      tag_138\n      jumpi\n        /* \"#utility.yul\":6579:6583   */\n      0x7f\n        /* \"#utility.yul\":6571:6577   */\n      dup3\n        /* \"#utility.yul\":6567:6584   */\n      and\n        /* \"#utility.yul\":6557:6584   */\n      swap2\n      pop\n        /* \"#utility.yul\":6513:6594   */\n    tag_138:\n        /* \"#utility.yul\":6641:6643   */\n      0x20\n        /* \"#utility.yul\":6633:6639   */\n      dup3\n        /* \"#utility.yul\":6630:6644   */\n      lt\n        /* \"#utility.yul\":6610:6628   */\n      dup2\n        /* \"#utility.yul\":6607:6645   */\n      sub\n        /* \"#utility.yul\":6604:6688   */\n      tag_139\n      jumpi\n        /* \"#utility.yul\":6660:6678   */\n      tag_140\n      tag_55\n      jump\t// in\n    tag_140:\n        /* \"#utility.yul\":6604:6688   */\n    tag_139:\n        /* \"#utility.yul\":6425:6694   */\n      pop\n        /* \"#utility.yul\":6374:6694   */\n      swap2\n      swap1\n      pop\n      jump\t// out\n        /* \"#utility.yul\":6700:6841   */\n    tag_56:\n        /* \"#utility.yul\":6749:6753   */\n      0x00\n        /* \"#utility.yul\":6772:6775   */\n      dup2\n        /* \"#utility.yul\":6764:6775   */\n      swap1\n      pop\n        /* \"#utility.yul\":6795:6798   */\n      dup2\n        /* \"#utility.yul\":6792:6793   */\n      0x00\n        /* \"#utility.yul\":6785:6799   */\n      mstore\n        /* \"#utility.yul\":6829:6833   */\n      0x20\n        /* \"#utility.yul\":6826:6827   */\n      0x00\n        /* \"#utility.yul\":6816:6834   */\n      keccak256\n        /* \"#utility.yul\":6808:6834   */\n      swap1\n      pop\n        /* \"#utility.yul\":6700:6841   */\n      swap2\n      swap1\n      pop\n      jump\t// out\n        /* \"#utility.yul\":6847:6940   */\n    tag_57:\n        /* \"#utility.yul\":6884:6890   */\n      0x00\n        /* \"#utility.yul\":6931:6933   */\n      0x20\n        /* \"#utility.yul\":6926:6928   */\n      0x1f\n        /* \"#utility.yul\":6919:6924   */\n      dup4\n        /* \"#utility.yul\":6915:6929   */\n      add\n        /* \"#utility.yul\":6911:6934   */\n      div\n        /* \"#utility.yul\":6901:6934   */\n      swap1\n      pop\n        /* \"#utility.yul\":6847:6940   */\n      swap2\n      swap1\n      pop\n      jump\t// out\n        /* \"#utility.yul\":6946:7053   */\n    tag_58:\n        /* \"#utility.yul\":6990:6998   */\n      0x00\n        /* \"#utility.yul\":7040:7045   */\n      dup3\n        /* \"#utility.yul\":7034:7038   */\n      dup3\n        /* \"#utility.yul\":7030:7046   */\n      shl\n        /* \"#utility.yul\":7009:7046   */\n      swap1\n      pop\n        /* \"#utility.yul\":6946:7053   */\n      swap3\n      swap2\n      pop\n      pop\n      jump\t// out\n        /* \"#utility.yul\":7059:7452   */\n    tag_59:\n        /* \"#utility.yul\":7128:7134   */\n      0x00\n        /* \"#utility.yul\":7178:7179   */\n      0x08\n        /* \"#utility.yul\":7166:7176   */\n      dup4\n        /* \"#utility.yul\":7162:7180   */\n      mul\n        /* \"#utility.yul\":7201:7298   */\n      tag_145\n        /* \"#utility.yul\":7231:7297   */\n      0xffffffffffffffffffffffffffffffffffffffffffffffffffffffffffffffff\n        /* \"#utility.yul\":7220:7229   */\n      dup3\n        /* \"#utility.yul\":7201:7298   */\n      tag_58\n      jump\t// in\n    tag_145:\n        /* \"#utility.yul\":7319:7358   */\n      tag_146\n        /* \"#utility.yul\":7349:7357   */\n      dup7\n        /* \"#utility.yul\":7338:7347   */\n      dup4\n        /* \"#utility.yul\":7319:7358   */\n      tag_58\n      jump\t// in\n    tag_146:\n        /* \"#utility.yul\":7307:7358   */\n      swap6\n      pop\n        /* \"#utility.yul\":7391:7395   */\n      dup1\n        /* \"#utility.yul\":7387:7396   */\n      not\n        /* \"#utility.yul\":7380:7385   */\n      dup5\n        /* \"#utility.yul\":7376:7397   */\n      and\n        /* \"#utility.yul\":7367:7397   */\n      swap4\n      pop\n        /* \"#utility.yul\":7440:7444   */\n      dup1\n        /* \"#utility.yul\":7430:7438   */\n      dup7\n        /* \"#utility.yul\":7426:7445   */\n      and\n        /* \"#utility.yul\":7419:7424   */\n      dup5\n        /* \"#utility.yul\":7416:7446   */\n      or\n        /* \"#utility.yul\":7406:7446   */\n      swap3\n      pop\n        /* \"#utility.yul\":7135:7452   */\n      pop\n      pop\n        /* \"#utility.yul\":7059:7452   */\n      swap4\n      swap3\n      pop\n      pop\n      pop\n      jump\t// out\n        /* \"#utility.yul\":7458:7535   */\n    tag_60:\n        /* \"#utility.yul\":7495:7502   */\n      0x00\n        /* \"#utility.yul\":7524:7529   */\n      dup2\n        /* \"#utility.yul\":7513:7529   */\n      swap1\n      pop\n        /* \"#utility.yul\":7458:7535   */\n      swap2\n      swap1\n      pop\n      jump\t// out\n        /* \"#utility.yul\":7541:7601   */\n    tag_61:\n        /* \"#utility.yul\":7569:7572   */\n      0x00\n        /* \"#utility.yul\":7590:7595   */\n      dup2\n        /* \"#utility.yul\":7583:7595   */\n      swap1\n      pop\n        /* \"#utility.yul\":7541:7601   */\n      swap2\n      swap1\n      pop\n      jump\t// out\n        /* \"#utility.yul\":7607:7749   */\n    tag_62:\n        /* \"#utility.yul\":7657:7666   */\n      0x00\n        /* \"#utility.yul\":7690:7743   */\n      tag_150\n        /* \"#utility.yul\":7708:7742   */\n      tag_151\n        /* \"#utility.yul\":7717:7741   */\n      tag_152\n        /* \"#utility.yul\":7735:7740   */\n      dup5\n        /* \"#utility.yul\":7717:7741   */\n      tag_60\n      jump\t// in\n    tag_152:\n        /* \"#utility.yul\":7708:7742   */\n      tag_61\n      jump\t// in\n    tag_151:\n        /* \"#utility.yul\":7690:7743   */\n      tag_60\n      jump\t// in\n    tag_150:\n        /* \"#utility.yul\":7677:7743   */\n      swap1\n      pop\n        /* \"#utility.yul\":7607:7749   */\n      swap2\n      swap1\n      pop\n      jump\t// out\n        /* \"#utility.yul\":7755:7830   */\n    tag_63:\n        /* \"#utility.yul\":7798:7801   */\n      0x00\n        /* \"#utility.yul\":7819:7824   */\n      dup2\n        /* \"#utility.yul\":7812:7824   */\n      swap1\n      pop\n        /* \"#utility.yul\":7755:7830   */\n      swap2\n      swap1\n      pop\n      jump\t// out\n        /* \"#utility.yul\":7836:8105   */\n    tag_64:\n        /* \"#utility.yul\":7946:7985   */\n      tag_155\n        /* \"#utility.yul\":7977:7984   */\n      dup4\n        /* \"#utility.yul\":7946:7985   */\n      tag_62\n      jump\t// in\n    tag_155:\n        /* \"#utility.yul\":8007:8098   */\n      tag_156\n        /* \"#utility.yul\":8056:8097   */\n      tag_157\n        /* \"#utility.yul\":8080:8096   */\n      dup3\n        /* \"#utility.yul\":8056:8097   */\n      tag_63\n      jump\t// in\n    tag_157:\n        /* \"#utility.yul\":8048:8054   */\n      dup5\n        /* \"#utility.yul\":8041:8045   */\n      dup5\n        /* \"#utility.yul\":8035:8046   */\n      sload\n        /* \"#utility.yul\":8007:8098   */\n      tag_59\n      jump\t// in\n    tag_156:\n        /* \"#utility.yul\":8001:8005   */\n      dup3\n        /* \"#utility.yul\":7994:8099   */\n      sstore\n        /* \"#utility.yul\":7912:8105   */\n      pop\n        /* \"#utility.yul\":7836:8105   */\n      pop\n      pop\n      pop\n      jump\t// out\n        /* \"#utility.yul\":8111:8184   */\n    tag_65:\n        /* \"#utility.yul\":8156:8159   */\n      0x00\n        /* \"#utility.yul\":8111:8184   */\n      swap1\n      jump\t// out\n        /* \"#utility.yul\":8190:8379   */\n    tag_66:\n        /* \"#utility.yul\":8267:8299   */\n      tag_160\n      tag_65\n      jump\t// in\n    tag_160:\n        /* \"#utility.yul\":8308:8373   */\n      tag_161\n        /* \"#utility.yul\":8366:8372   */\n      dup2\n        /* \"#utility.yul\":8358:8364   */\n      dup5\n        /* \"#utility.yul\":8352:8356   */\n      dup5\n        /* \"#utility.yul\":8308:8373   */\n      tag_64\n      jump\t// in\n    tag_161:\n        /* \"#utility.yul\":8243:8379   */\n      pop\n        /* \"#utility.yul\":8190:8379   */\n      pop\n      pop\n      jump\t// out\n        /* \"#utility.yul\":8385:8571   */\n    tag_67:\n        /* \"#utility.yul\":8445:8565   */\n    tag_163:\n        /* \"#utility.yul\":8462:8465   */\n      dup2\n        /* \"#utility.yul\":8455:8460   */\n      dup2\n        /* \"#utility.yul\":8452:8466   */\n      lt\n        /* \"#utility.yul\":8445:8565   */\n      iszero\n      tag_165\n      jumpi\n        /* \"#utility.yul\":8516:8555   */\n      tag_166\n        /* \"#utility.yul\":8553:8554   */\n      0x00\n        /* \"#utility.yul\":8546:8551   */\n      dup3\n        /* \"#utility.yul\":8516:8555   */\n      tag_66\n      jump\t// in\n    tag_166:\n        /* \"#utility.yul\":8489:8490   */\n      0x01\n        /* \"#utility.yul\":8482:8487   */\n      dup2\n        /* \"#utility.yul\":8478:8491   */\n      add\n        /* \"#utility.yul\":8469:8491   */\n      swap1\n      pop\n        /* \"#utility.yul\":8445:8565   */\n      jump(tag_163)\n    tag_165:\n        /* \"#utility.yul\":8385:8571   */\n      pop\n      pop\n      jump\t// out\n        /* \"#utility.yul\":8577:9120   */\n    tag_68:\n        /* \"#utility.yul\":8678:8680   */\n      0x1f\n        /* \"#utility.yul\":8673:8676   */\n      dup3\n        /* \"#utility.yul\":8670:8681   */\n      gt\n        /* \"#utility.yul\":8667:9113   */\n      iszero\n      tag_168\n      jumpi\n        /* \"#utility.yul\":8712:8750   */\n      tag_169\n        /* \"#utility.yul\":8744:8749   */\n      dup2\n        /* \"#utility.yul\":8712:8750   */\n      tag_56\n      jump\t// in\n    tag_169:\n        /* \"#utility.yul\":8796:8825   */\n      tag_170\n        /* \"#utility.yul\":8814:8824   */\n      dup5\n        /* \"#utility.yul\":8796:8825   */\n      tag_57\n      jump\t// in\n    tag_170:\n        /* \"#utility.yul\":8786:8794   */\n      dup2\n        /* \"#utility.yul\":8782:8826   */\n      add\n        /* \"#utility.yul\":8979:8981   */\n      0x20\n        /* \"#utility.yul\":8967:8977   */\n      dup6\n        /* \"#utility.yul\":8964:8982   */\n      lt\n        /* \"#utility.yul\":8961:9010   */\n      iszero\n      tag_171\n      jumpi\n        /* \"#utility.yul\":9000:9008   */\n      dup2\n        /* \"#utility.yul\":8985:9008   */\n      swap1\n      pop\n        /* \"#utility.yul\":8961:9010   */\n    tag_171:\n        /* \"#utility.yul\":9023:9103   */\n      tag_172\n        /* \"#utility.yul\":9079:9101   */\n      tag_173\n        /* \"#utility.yul\":9097:9100   */\n      dup6\n        /* \"#utility.yul\":9079:9101   */\n      tag_57\n      jump\t// in\n    tag_173:\n        /* \"#utility.yul\":9069:9077   */\n      dup4\n        /* \"#utility.yul\":9065:9102   */\n      add\n        /* \"#utility.yul\":9052:9063   */\n      dup3\n        /* \"#utility.yul\":9023:9103   */\n      tag_67\n      jump\t// in\n    tag_172:\n        /* \"#utility.yul\":8682:9113   */\n      pop\n      pop\n        /* \"#utility.yul\":8667:9113   */\n    tag_168:\n        /* \"#utility.yul\":8577:9120   */\n      pop\n      pop\n      pop\n      jump\t// out\n        /* \"#utility.yul\":9126:9243   */\n    tag_69:\n        /* \"#utility.yul\":9180:9188   */\n      0x00\n        /* \"#utility.yul\":9230:9235   */\n      dup3\n        /* \"#utility.yul\":9224:9228   */\n      dup3\n        /* \"#utility.yul\":9220:9236   */\n      shr\n        /* \"#utility.yul\":9199:9236   */\n      swap1\n      pop\n        /* \"#utility.yul\":9126:9243   */\n      swap3\n      swap2\n      pop\n      pop\n      jump\t// out\n        /* \"#utility.yul\":9249:9418   */\n    tag_70:\n        /* \"#utility.yul\":9293:9299   */\n      0x00\n        /* \"#utility.yul\":9326:9377   */\n      tag_176\n        /* \"#utility.yul\":9374:9375   */\n      0x00\n        /* \"#utility.yul\":9370:9376   */\n      not\n        /* \"#utility.yul\":9362:9367   */\n      dup5\n        /* \"#utility.yul\":9359:9360   */\n      0x08\n        /* \"#utility.yul\":9355:9368   */\n      mul\n        /* \"#utility.yul\":9326:9377   */\n      tag_69\n      jump\t// in\n    tag_176:\n        /* \"#utility.yul\":9322:9378   */\n      not\n        /* \"#utility.yul\":9407:9411   */\n      dup1\n        /* \"#utility.yul\":9401:9405   */\n      dup4\n        /* \"#utility.yul\":9397:9412   */\n      and\n        /* \"#utility.yul\":9387:9412   */\n      swap2\n      pop\n        /* \"#utility.yul\":9300:9418   */\n      pop\n        /* \"#utility.yul\":9249:9418   */\n      swap3\n      swap2\n      pop\n      pop\n      jump\t// out\n        /* \"#utility.yul\":9423:9718   */\n    tag_71:\n        /* \"#utility.yul\":9499:9503   */\n      0x00\n        /* \"#utility.yul\":9645:9674   */\n      tag_178\n        /* \"#utility.yul\":9670:9673   */\n      dup4\n        /* \"#utility.yul\":9664:9668   */\n      dup4\n        /* \"#utility.yul\":9645:9674   */\n      tag_70\n      jump\t// in\n    tag_178:\n        /* \"#utility.yul\":9637:9674   */\n      swap2\n      pop\n        /* \"#utility.yul\":9707:9710   */\n      dup3\n        /* \"#utility.yul\":9704:9705   */\n      0x02\n        /* \"#utility.yul\":9700:9711   */\n      mul\n        /* \"#utility.yul\":9694:9698   */\n      dup3\n        /* \"#utility.yul\":9691:9712   */\n      or\n        /* \"#utility.yul\":9683:9712   */\n      swap1\n      pop\n        /* \"#utility.yul\":9423:9718   */\n      swap3\n      swap2\n      pop\n      pop\n      jump\t// out\n        /* \"#utility.yul\":9723:11126   */\n    tag_18:\n        /* \"#utility.yul\":9847:9891   */\n      tag_180\n        /* \"#utility.yul\":9887:9890   */\n      dup4\n        /* \"#utility.yul\":9882:9885   */\n      dup4\n        /* \"#utility.yul\":9847:9891   */\n      tag_53\n      jump\t// in\n    tag_180:\n        /* \"#utility.yul\":9956:9974   */\n      0xffffffffffffffff\n        /* \"#utility.yul\":9948:9954   */\n      dup2\n        /* \"#utility.yul\":9945:9975   */\n      gt\n        /* \"#utility.yul\":9942:9998   */\n      iszero\n      tag_181\n      jumpi\n        /* \"#utility.yul\":9978:9996   */\n      tag_182\n      tag_54\n      jump\t// in\n    tag_182:\n        /* \"#utility.yul\":9942:9998   */\n    tag_181:\n        /* \"#utility.yul\":10022:10060   */\n      tag_183\n        /* \"#utility.yul\":10054:10058   */\n      dup3\n        /* \"#utility.yul\":10048:10059   */\n      sload\n        /* \"#utility.yul\":10022:10060   */\n      tag_26\n      jump\t// in\n    tag_183:\n        /* \"#utility.yul\":10107:10174   */\n      tag_184\n        /* \"#utility.yul\":10167:10173   */\n      dup3\n        /* \"#utility.yul\":10159:10165   */\n      dup3\n        /* \"#utility.yul\":10153:10157   */\n      dup6\n        /* \"#utility.yul\":10107:10174   */\n      tag_68\n      jump\t// in\n    tag_184:\n        /* \"#utility.yul\":10201:10202   */\n      0x00\n        /* \"#utility.yul\":10230:10232   */\n      0x1f\n        /* \"#utility.yul\":10222:10228   */\n      dup4\n        /* \"#utility.yul\":10219:10233   */\n      gt\n        /* \"#utility.yul\":10247:10248   */\n      0x01\n        /* \"#utility.yul\":10242:10874   */\n      dup2\n      eq\n      tag_186\n      jumpi\n        /* \"#utility.yul\":10918:10919   */\n      0x00\n        /* \"#utility.yul\":10935:10941   */\n      dup5\n        /* \"#utility.yul\":10932:11016   */\n      iszero\n      tag_187\n      jumpi\n        /* \"#utility.yul\":10991:11000   */\n      dup3\n        /* \"#utility.yul\":10986:10989   */\n      dup8\n        /* \"#utility.yul\":10982:11001   */\n      add\n        /* \"#utility.yul\":10969:11002   */\n      calldataload\n        /* \"#utility.yul\":10960:11002   */\n      swap1\n      pop\n        /* \"#utility.yul\":10932:11016   */\n    tag_187:\n        /* \"#utility.yul\":11042:11109   */\n      tag_188\n        /* \"#utility.yul\":11102:11108   */\n      dup6\n        /* \"#utility.yul\":11095:11100   */\n      dup3\n        /* \"#utility.yul\":11042:11109   */\n      tag_71\n      jump\t// in\n    tag_188:\n        /* \"#utility.yul\":11036:11040   */\n      dup7\n        /* \"#utility.yul\":11029:11110   */\n      sstore\n        /* \"#utility.yul\":10891:11120   */\n      pop\n        /* \"#utility.yul\":10212:11120   */\n      jump(tag_185)\n        /* \"#utility.yul\":10242:10874   */\n    tag_186:\n        /* \"#utility.yul\":10294:10298   */\n      0x1f\n        /* \"#utility.yul\":10290:10299   */\n      not\n        /* \"#utility.yul\":10282:10288   */\n      dup5\n        /* \"#utility.yul\":10278:10300   */\n      and\n        /* \"#utility.yul\":10328:10365   */\n      tag_189\n        /* \"#utility.yul\":10360:10364   */\n      dup7\n        /* \"#utility.yul\":10328:10365   */\n      tag_56\n      jump\t// in\n    tag_189:\n        /* \"#utility.yul\":10387:10388   */\n      0x00\n        /* \"#utility.yul\":10401:10616   */\n    tag_190:\n        /* \"#utility.yul\":10415:10422   */\n      dup3\n        /* \"#utility.yul\":10412:10413   */\n      dup2\n        /* \"#utility.yul\":10409:10423   */\n      lt\n        /* \"#utility.yul\":10401:10616   */\n      iszero\n      tag_192\n      jumpi\n        /* \"#utility.yul\":10501:10510   */\n      dup5\n        /* \"#utility.yul\":10496:10499   */\n      dup10\n        /* \"#utility.yul\":10492:10511   */\n      add\n        /* \"#utility.yul\":10479:10512   */\n      calldataload\n        /* \"#utility.yul\":10471:10477   */\n      dup3\n        /* \"#utility.yul\":10464:10513   */\n      sstore\n        /* \"#utility.yul\":10552:10553   */\n      0x01\n        /* \"#utility.yul\":10544:10550   */\n      dup3\n        /* \"#utility.yul\":10540:10554   */\n      add\n        /* \"#utility.yul\":10530:10554   */\n      swap2\n      pop\n        /* \"#utility.yul\":10599:10601   */\n      0x20\n        /* \"#utility.yul\":10588:10597   */\n      dup6\n        /* \"#utility.yul\":10584:10602   */\n      add\n        /* \"#utility.yul\":10571:10602   */\n      swap5\n      pop\n        /* \"#utility.yul\":10438:10442   */\n      0x20\n        /* \"#utility.yul\":10435:10436   */\n      dup2\n        /* \"#utility.yul\":10431:10443   */\n      add\n        /* \"#utility.yul\":10426:10443   */\n      swap1\n      pop\n        /* \"#utility.yul\":10401:10616   */\n      jump(tag_190)\n    tag_192:\n        /* \"#utility.yul\":10644:10650   */\n      dup7\n        /* \"#utility.yul\":10635:10642   */\n      dup4\n        /* \"#utility.yul\":10632:10651   */\n      lt\n        /* \"#utility.yul\":10629:10815   */\n      iszero\n      tag_193\n      jumpi\n        /* \"#utility.yul\":10709:10718   */\n      dup5\n        /* \"#utility.yul\":10704:10707   */\n      dup10\n        /* \"#utility.yul\":10700:10719   */\n      add\n        /* \"#utility.yul\":10687:10720   */\n      calldataload\n        /* \"#utility.yul\":10752:10800   */\n      tag_194\n        /* \"#utility.yul\":10794:10798   */\n      0x1f\n        /* \"#utility.yul\":10786:10792   */\n      dup10\n        /* \"#utility.yul\":10782:10799   */\n      and\n        /* \"#utility.yul\":10771:10780   */\n      dup3\n        /* \"#utility.yul\":10752:10800   */\n      tag_70\n      jump\t// in\n    tag_194:\n        /* \"#utility.yul\":10744:10750   */\n      dup4\n        /* \"#utility.yul\":10737:10801   */\n      sstore\n        /* \"#utility.yul\":10652:10815   */\n      pop\n        /* \"#utility.yul\":10629:10815   */\n    tag_193:\n        /* \"#utility.yul\":10861:10862   */\n      0x01\n        /* \"#utility.yul\":10857:10858   */\n      0x02\n        /* \"#utility.yul\":10849:10855   */\n      dup9\n        /* \"#utility.yul\":10845:10859   */\n      mul\n        /* \"#utility.yul\":10841:10863   */\n      add\n        /* \"#utility.yul\":10835:10839   */\n      dup9\n        /* \"#utility.yul\":10828:10864   */\n      sstore\n        /* \"#utility.yul\":10249:10874   */\n      pop\n      pop\n      pop\n        /* \"#utility.yul\":10212:11120   */\n    tag_185:\n      pop\n        /* \"#utility.yul\":9822:11126   */\n      pop\n      pop\n      pop\n        /* \"#utility.yul\":9723:11126   */\n      pop\n      pop\n      pop\n      jump\t// out\n        /* \"#utility.yul\":11132:11312   */\n    tag_72:\n        /* \"#utility.yul\":11180:11257   */\n      0x4e487b7100000000000000000000000000000000000000000000000000000000\n        /* \"#utility.yul\":11177:11178   */\n      0x00\n        /* \"#utility.yul\":11170:11258   */\n      mstore\n        /* \"#utility.yul\":11277:11281   */\n      0x11\n        /* \"#utility.yul\":11274:11275   */\n      0x04\n        /* \"#utility.yul\":11267:11282   */\n      mstore\n        /* \"#utility.yul\":11301:11305   */\n      0x24\n        /* \"#utility.yul\":11298:11299   */\n      0x00\n        /* \"#utility.yul\":11291:11306   */\n      revert\n        /* \"#utility.yul\":11318:11551   */\n    tag_20:\n        /* \"#utility.yul\":11357:11360   */\n      0x00\n        /* \"#utility.yul\":11380:11404   */\n      tag_197\n        /* \"#utility.yul\":11398:11403   */\n      dup3\n        /* \"#utility.yul\":11380:11404   */\n      tag_60\n      jump\t// in\n    tag_197:\n        /* \"#utility.yul\":11371:11404   */\n      swap2\n      pop\n        /* \"#utility.yul\":11426:11492   */\n      0xffffffffffffffffffffffffffffffffffffffffffffffffffffffffffffffff\n        /* \"#utility.yul\":11419:11424   */\n      dup3\n        /* \"#utility.yul\":11416:11493   */\n      sub\n        /* \"#utility.yul\":11413:11516   */\n      tag_198\n      jumpi\n        /* \"#utility.yul\":11496:11514   */\n      tag_199\n      tag_72\n      jump\t// in\n    tag_199:\n        /* \"#utility.yul\":11413:11516   */\n    tag_198:\n        /* \"#utility.yul\":11543:11544   */\n      0x01\n        /* \"#utility.yul\":11536:11541   */\n      dup3\n        /* \"#utility.yul\":11532:11545   */\n      add\n        /* \"#utility.yul\":11525:11545   */\n      swap1\n      pop\n        /* \"#utility.yul\":11318:11551   */\n      swap2\n      swap1\n      pop\n      jump\t// out\n\n    auxdata: 0xa2646970667358221220955b5b9ef8306c52c4cf24280cd313ee666ac7b86fede6d721c0b2dbdfe9155964736f6c63430008130033\n}\n",
				"bytecode": {
					"linkReferences": {},
					"object": "608060405234801561001057600080fd5b506000808190555061090e806100276000396000f3fe608060405234801561001057600080fd5b50600436106100365760003560e01c8063368b87721461003b57806355448fe114610057575b600080fd5b610055600480360381019061005091906102f5565b610087565b005b610071600480360381019061006c91906103a0565b61016b565b60405161007e919061051f565b60405180910390f35b600033905042600160008373ffffffffffffffffffffffffffffffffffffffff1673ffffffffffffffffffffffffffffffffffffffff16815260200190815260200160002060000181905550600160008273ffffffffffffffffffffffffffffffffffffffff1673ffffffffffffffffffffffffffffffffffffffff168152602001908152602001600020600101838390918060018154018082558091505060019003906000526020600020016000909192909192909192909192509182610150929190610791565b50600080815461015f90610890565b91905081905550505050565b6060600160008373ffffffffffffffffffffffffffffffffffffffff1673ffffffffffffffffffffffffffffffffffffffff168152602001908152602001600020600101805480602002602001604051908101604052809291908181526020016000905b8282101561027b5783829060005260206000200180546101ee906105aa565b80601f016020809104026020016040519081016040528092919081815260200182805461021a906105aa565b80156102675780601f1061023c57610100808354040283529160200191610267565b820191906000526020600020905b81548152906001019060200180831161024a57829003601f168201915b5050505050815260200190600101906101cf565b505050509050919050565b600080fd5b600080fd5b600080fd5b600080fd5b600080fd5b60008083601f8401126102b5576102b4610290565b5b8235905067ffffffffffffffff8111156102d2576102d1610295565b5b6020830191508360018202830111156102ee576102ed61029a565b5b9250929050565b6000806020838503121561030c5761030b610286565b5b600083013567ffffffffffffffff81111561032a5761032961028b565b5b6103368582860161029f565b92509250509250929050565b600073ffffffffffffffffffffffffffffffffffffffff82169050919050565b600061036d82610342565b9050919050565b61037d81610362565b811461038857600080fd5b50565b60008135905061039a81610374565b92915050565b6000602082840312156103b6576103b5610286565b5b60006103c48482850161038b565b91505092915050565b600081519050919050565b600082825260208201905092915050565b6000819050602082019050919050565b600081519050919050565b600082825260208201905092915050565b60005b83811015610433578082015181840152602081019050610418565b60008484015250505050565b6000601f19601f8301169050919050565b600061045b826103f9565b6104658185610404565b9350610475818560208601610415565b61047e8161043f565b840191505092915050565b60006104958383610450565b905092915050565b6000602082019050919050565b60006104b5826103cd565b6104bf81856103d8565b9350836020820285016104d1856103e9565b8060005b8581101561050d57848403895281516104ee8582610489565b94506104f98361049d565b925060208a019950506001810190506104d5565b50829750879550505050505092915050565b6000602082019050818103600083015261053981846104aa565b905092915050565b600082905092915050565b7f4e487b7100000000000000000000000000000000000000000000000000000000600052604160045260246000fd5b7f4e487b7100000000000000000000000000000000000000000000000000000000600052602260045260246000fd5b600060028204905060018216806105c257607f821691505b6020821081036105d5576105d461057b565b5b50919050565b60008190508160005260206000209050919050565b60006020601f8301049050919050565b600082821b905092915050565b60006008830261063d7fffffffffffffffffffffffffffffffffffffffffffffffffffffffffffffffff82610600565b6106478683610600565b95508019841693508086168417925050509392505050565b6000819050919050565b6000819050919050565b600061068e6106896106848461065f565b610669565b61065f565b9050919050565b6000819050919050565b6106a883610673565b6106bc6106b482610695565b84845461060d565b825550505050565b600090565b6106d16106c4565b6106dc81848461069f565b505050565b5b81811015610700576106f56000826106c9565b6001810190506106e2565b5050565b601f82111561074557610716816105db565b61071f846105f0565b8101602085101561072e578190505b61074261073a856105f0565b8301826106e1565b50505b505050565b600082821c905092915050565b60006107686000198460080261074a565b1980831691505092915050565b60006107818383610757565b9150826002028217905092915050565b61079b8383610541565b67ffffffffffffffff8111156107b4576107b361054c565b5b6107be82546105aa565b6107c9828285610704565b6000601f8311600181146107f857600084156107e6578287013590505b6107f08582610775565b865550610858565b601f198416610806866105db565b60005b8281101561082e57848901358255600182019150602085019450602081019050610809565b8683101561084b5784890135610847601f891682610757565b8355505b6001600288020188555050505b50505050505050565b7f4e487b7100000000000000000000000000000000000000000000000000000000600052601160045260246000fd5b600061089b8261065f565b91507fffffffffffffffffffffffffffffffffffffffffffffffffffffffffffffffff82036108cd576108cc610861565b5b60018201905091905056fea2646970667358221220955b5b9ef8306c52c4cf24280cd313ee666ac7b86fede6d721c0b2dbdfe9155964736f6c63430008130033",
					"opcodes": "PUSH1 0x80 PUSH1 0x40 MSTORE CALLVALUE DUP1 ISZERO PUSH2 0x10 JUMPI PUSH1 0x0 DUP1 REVERT JUMPDEST POP PUSH1 0x0 DUP1 DUP2 SWAP1 SSTORE POP PUSH2 0x90E DUP1 PUSH2 0x27 PUSH1 0x0 CODECOPY PUSH1 0x0 RETURN INVALID PUSH1 0x80 PUSH1 0x40 MSTORE CALLVALUE DUP1 ISZERO PUSH2 0x10 JUMPI PUSH1 0x0 DUP1 REVERT JUMPDEST POP PUSH1 0x4 CALLDATASIZE LT PUSH2 0x36 JUMPI PUSH1 0x0 CALLDATALOAD PUSH1 0xE0 SHR DUP1 PUSH4 0x368B8772 EQ PUSH2 0x3B JUMPI DUP1 PUSH4 0x55448FE1 EQ PUSH2 0x57 JUMPI JUMPDEST PUSH1 0x0 DUP1 REVERT JUMPDEST PUSH2 0x55 PUSH1 0x4 DUP1 CALLDATASIZE SUB DUP2 ADD SWAP1 PUSH2 0x50 SWAP2 SWAP1 PUSH2 0x2F5 JUMP JUMPDEST PUSH2 0x87 JUMP JUMPDEST STOP JUMPDEST PUSH2 0x71 PUSH1 0x4 DUP1 CALLDATASIZE SUB DUP2 ADD SWAP1 PUSH2 0x6C SWAP2 SWAP1 PUSH2 0x3A0 JUMP JUMPDEST PUSH2 0x16B JUMP JUMPDEST PUSH1 0x40 MLOAD PUSH2 0x7E SWAP2 SWAP1 PUSH2 0x51F JUMP JUMPDEST PUSH1 0x40 MLOAD DUP1 SWAP2 SUB SWAP1 RETURN JUMPDEST PUSH1 0x0 CALLER SWAP1 POP TIMESTAMP PUSH1 0x1 PUSH1 0x0 DUP4 PUSH20 0xFFFFFFFFFFFFFFFFFFFFFFFFFFFFFFFFFFFFFFFF AND PUSH20 0xFFFFFFFFFFFFFFFFFFFFFFFFFFFFFFFFFFFFFFFF AND DUP2 MSTORE PUSH1 0x20 ADD SWAP1 DUP2 MSTORE PUSH1 0x20 ADD PUSH1 0x0 KECCAK256 PUSH1 0x0 ADD DUP2 SWAP1 SSTORE POP PUSH1 0x1 PUSH1 0x0 DUP3 PUSH20 0xFFFFFFFFFFFFFFFFFFFFFFFFFFFFFFFFFFFFFFFF AND PUSH20 0xFFFFFFFFFFFFFFFFFFFFFFFFFFFFFFFFFFFFFFFF AND DUP2 MSTORE PUSH1 0x20 ADD SWAP1 DUP2 MSTORE PUSH1 0x20 ADD PUSH1 0x0 KECCAK256 PUSH1 0x1 ADD DUP4 DUP4 SWAP1 SWAP2 DUP1 PUSH1 0x1 DUP2 SLOAD ADD DUP1 DUP3 SSTORE DUP1 SWAP2 POP POP PUSH1 0x1 SWAP1 SUB SWAP1 PUSH1 0x0 MSTORE PUSH1 0x20 PUSH1 0x0 KECCAK256 ADD PUSH1 0x0 SWAP1 SWAP2 SWAP3 SWAP1 SWAP2 SWAP3 SWAP1 SWAP2 SWAP3 SWAP1 SWAP2 SWAP3 POP SWAP2 DUP3 PUSH2 0x150 SWAP3 SWAP2 SWAP1 PUSH2 0x791 JUMP JUMPDEST POP PUSH1 0x0 DUP1 DUP2 SLOAD PUSH2 0x15F SWAP1 PUSH2 0x890 JUMP JUMPDEST SWAP2 SWAP1 POP DUP2 SWAP1 SSTORE POP POP POP POP JUMP JUMPDEST PUSH1 0x60 PUSH1 0x1 PUSH1 0x0 DUP4 PUSH20 0xFFFFFFFFFFFFFFFFFFFFFFFFFFFFFFFFFFFFFFFF AND PUSH20 0xFFFFFFFFFFFFFFFFFFFFFFFFFFFFFFFFFFFFFFFF AND DUP2 MSTORE PUSH1 0x20 ADD SWAP1 DUP2 MSTORE PUSH1 0x20 ADD PUSH1 0x0 KECCAK256 PUSH1 0x1 ADD DUP1 SLOAD DUP1 PUSH1 0x20 MUL PUSH1 0x20 ADD PUSH1 0x40 MLOAD SWAP1 DUP2 ADD PUSH1 0x40 MSTORE DUP1 SWAP3 SWAP2 SWAP1 DUP2 DUP2 MSTORE PUSH1 0x20 ADD PUSH1 0x0 SWAP1 JUMPDEST DUP3 DUP3 LT ISZERO PUSH2 0x27B JUMPI DUP4 DUP3 SWAP1 PUSH1 0x0 MSTORE PUSH1 0x20 PUSH1 0x0 KECCAK256 ADD DUP1 SLOAD PUSH2 0x1EE SWAP1 PUSH2 0x5AA JUMP JUMPDEST DUP1 PUSH1 0x1F ADD PUSH1 0x20 DUP1 SWAP2 DIV MUL PUSH1 0x20 ADD PUSH1 0x40 MLOAD SWAP1 DUP2 ADD PUSH1 0x40 MSTORE DUP1 SWAP3 SWAP2 SWAP1 DUP2 DUP2 MSTORE PUSH1 0x20 ADD DUP3 DUP1 SLOAD PUSH2 0x21A SWAP1 PUSH2 0x5AA JUMP JUMPDEST DUP1 ISZERO PUSH2 0x267 JUMPI DUP1 PUSH1 0x1F LT PUSH2 0x23C JUMPI PUSH2 0x100 DUP1 DUP4 SLOAD DIV MUL DUP4 MSTORE SWAP2 PUSH1 0x20 ADD SWAP2 PUSH2 0x267 JUMP JUMPDEST DUP3 ADD SWAP2 SWAP1 PUSH1 0x0 MSTORE PUSH1 0x20 PUSH1 0x0 KECCAK256 SWAP1 JUMPDEST DUP2 SLOAD DUP2 MSTORE SWAP1 PUSH1 0x1 ADD SWAP1 PUSH1 0x20 ADD DUP1 DUP4 GT PUSH2 0x24A JUMPI DUP3 SWAP1 SUB PUSH1 0x1F AND DUP3 ADD SWAP2 JUMPDEST POP POP POP POP POP DUP2 MSTORE PUSH1 0x20 ADD SWAP1 PUSH1 0x1 ADD SWAP1 PUSH2 0x1CF JUMP JUMPDEST POP POP POP POP SWAP1 POP SWAP2 SWAP1 POP JUMP JUMPDEST PUSH1 0x0 DUP1 REVERT JUMPDEST PUSH1 0x0 DUP1 REVERT JUMPDEST PUSH1 0x0 DUP1 REVERT JUMPDEST PUSH1 0x0 DUP1 REVERT JUMPDEST PUSH1 0x0 DUP1 REVERT JUMPDEST PUSH1 0x0 DUP1 DUP4 PUSH1 0x1F DUP5 ADD SLT PUSH2 0x2B5 JUMPI PUSH2 0x2B4 PUSH2 0x290 JUMP JUMPDEST JUMPDEST DUP3 CALLDATALOAD SWAP1 POP PUSH8 0xFFFFFFFFFFFFFFFF DUP2 GT ISZERO PUSH2 0x2D2 JUMPI PUSH2 0x2D1 PUSH2 0x295 JUMP JUMPDEST JUMPDEST PUSH1 0x20 DUP4 ADD SWAP2 POP DUP4 PUSH1 0x1 DUP3 MUL DUP4 ADD GT ISZERO PUSH2 0x2EE JUMPI PUSH2 0x2ED PUSH2 0x29A JUMP JUMPDEST JUMPDEST SWAP3 POP SWAP3 SWAP1 POP JUMP JUMPDEST PUSH1 0x0 DUP1 PUSH1 0x20 DUP4 DUP6 SUB SLT ISZERO PUSH2 0x30C JUMPI PUSH2 0x30B PUSH2 0x286 JUMP JUMPDEST JUMPDEST PUSH1 0x0 DUP4 ADD CALLDATALOAD PUSH8 0xFFFFFFFFFFFFFFFF DUP2 GT ISZERO PUSH2 0x32A JUMPI PUSH2 0x329 PUSH2 0x28B JUMP JUMPDEST JUMPDEST PUSH2 0x336 DUP6 DUP3 DUP7 ADD PUSH2 0x29F JUMP JUMPDEST SWAP3 POP SWAP3 POP POP SWAP3 POP SWAP3 SWAP1 POP JUMP JUMPDEST PUSH1 0x0 PUSH20 0xFFFFFFFFFFFFFFFFFFFFFFFFFFFFFFFFFFFFFFFF DUP3 AND SWAP1 POP SWAP2 SWAP1 POP JUMP JUMPDEST PUSH1 0x0 PUSH2 0x36D DUP3 PUSH2 0x342 JUMP JUMPDEST SWAP1 POP SWAP2 SWAP1 POP JUMP JUMPDEST PUSH2 0x37D DUP2 PUSH2 0x362 JUMP JUMPDEST DUP2 EQ PUSH2 0x388 JUMPI PUSH1 0x0 DUP1 REVERT JUMPDEST POP JUMP JUMPDEST PUSH1 0x0 DUP2 CALLDATALOAD SWAP1 POP PUSH2 0x39A DUP2 PUSH2 0x374 JUMP JUMPDEST SWAP3 SWAP2 POP POP JUMP JUMPDEST PUSH1 0x0 PUSH1 0x20 DUP3 DUP5 SUB SLT ISZERO PUSH2 0x3B6 JUMPI PUSH2 0x3B5 PUSH2 0x286 JUMP JUMPDEST JUMPDEST PUSH1 0x0 PUSH2 0x3C4 DUP5 DUP3 DUP6 ADD PUSH2 0x38B JUMP JUMPDEST SWAP2 POP POP SWAP3 SWAP2 POP POP JUMP JUMPDEST PUSH1 0x0 DUP2 MLOAD SWAP1 POP SWAP2 SWAP1 POP JUMP JUMPDEST PUSH1 0x0 DUP3 DUP3 MSTORE PUSH1 0x20 DUP3 ADD SWAP1 POP SWAP3 SWAP2 POP POP JUMP JUMPDEST PUSH1 0x0 DUP2 SWAP1 POP PUSH1 0x20 DUP3 ADD SWAP1 POP SWAP2 SWAP1 POP JUMP JUMPDEST PUSH1 0x0 DUP2 MLOAD SWAP1 POP SWAP2 SWAP1 POP JUMP JUMPDEST PUSH1 0x0 DUP3 DUP3 MSTORE PUSH1 0x20 DUP3 ADD SWAP1 POP SWAP3 SWAP2 POP POP JUMP JUMPDEST PUSH1 0x0 JUMPDEST DUP4 DUP2 LT ISZERO PUSH2 0x433 JUMPI DUP1 DUP3 ADD MLOAD DUP2 DUP5 ADD MSTORE PUSH1 0x20 DUP2 ADD SWAP1 POP PUSH2 0x418 JUMP JUMPDEST PUSH1 0x0 DUP5 DUP5 ADD MSTORE POP POP POP POP JUMP JUMPDEST PUSH1 0x0 PUSH1 0x1F NOT PUSH1 0x1F DUP4 ADD AND SWAP1 POP SWAP2 SWAP1 POP JUMP JUMPDEST PUSH1 0x0 PUSH2 0x45B DUP3 PUSH2 0x3F9 JUMP JUMPDEST PUSH2 0x465 DUP2 DUP6 PUSH2 0x404 JUMP JUMPDEST SWAP4 POP PUSH2 0x475 DUP2 DUP6 PUSH1 0x20 DUP7 ADD PUSH2 0x415 JUMP JUMPDEST PUSH2 0x47E DUP2 PUSH2 0x43F JUMP JUMPDEST DUP5 ADD SWAP2 POP POP SWAP3 SWAP2 POP POP JUMP JUMPDEST PUSH1 0x0 PUSH2 0x495 DUP4 DUP4 PUSH2 0x450 JUMP JUMPDEST SWAP1 POP SWAP3 SWAP2 POP POP JUMP JUMPDEST PUSH1 0x0 PUSH1 0x20 DUP3 ADD SWAP1 POP SWAP2 SWAP1 POP JUMP JUMPDEST PUSH1 0x0 PUSH2 0x4B5 DUP3 PUSH2 0x3CD JUMP JUMPDEST PUSH2 0x4BF DUP2 DUP6 PUSH2 0x3D8 JUMP JUMPDEST SWAP4 POP DUP4 PUSH1 0x20 DUP3 MUL DUP6 ADD PUSH2 0x4D1 DUP6 PUSH2 0x3E9 JUMP JUMPDEST DUP1 PUSH1 0x0 JUMPDEST DUP6 DUP2 LT ISZERO PUSH2 0x50D JUMPI DUP5 DUP5 SUB DUP10 MSTORE DUP2 MLOAD PUSH2 0x4EE DUP6 DUP3 PUSH2 0x489 JUMP JUMPDEST SWAP5 POP PUSH2 0x4F9 DUP4 PUSH2 0x49D JUMP JUMPDEST SWAP3 POP PUSH1 0x20 DUP11 ADD SWAP10 POP POP PUSH1 0x1 DUP2 ADD SWAP1 POP PUSH2 0x4D5 JUMP JUMPDEST POP DUP3 SWAP8 POP DUP8 SWAP6 POP POP POP POP POP POP SWAP3 SWAP2 POP POP JUMP JUMPDEST PUSH1 0x0 PUSH1 0x20 DUP3 ADD SWAP1 POP DUP2 DUP2 SUB PUSH1 0x0 DUP4 ADD MSTORE PUSH2 0x539 DUP2 DUP5 PUSH2 0x4AA JUMP JUMPDEST SWAP1 POP SWAP3 SWAP2 POP POP JUMP JUMPDEST PUSH1 0x0 DUP3 SWAP1 POP SWAP3 SWAP2 POP POP JUMP JUMPDEST PUSH32 0x4E487B7100000000000000000000000000000000000000000000000000000000 PUSH1 0x0 MSTORE PUSH1 0x41 PUSH1 0x4 MSTORE PUSH1 0x24 PUSH1 0x0 REVERT JUMPDEST PUSH32 0x4E487B7100000000000000000000000000000000000000000000000000000000 PUSH1 0x0 MSTORE PUSH1 0x22 PUSH1 0x4 MSTORE PUSH1 0x24 PUSH1 0x0 REVERT JUMPDEST PUSH1 0x0 PUSH1 0x2 DUP3 DIV SWAP1 POP PUSH1 0x1 DUP3 AND DUP1 PUSH2 0x5C2 JUMPI PUSH1 0x7F DUP3 AND SWAP2 POP JUMPDEST PUSH1 0x20 DUP3 LT DUP2 SUB PUSH2 0x5D5 JUMPI PUSH2 0x5D4 PUSH2 0x57B JUMP JUMPDEST JUMPDEST POP SWAP2 SWAP1 POP JUMP JUMPDEST PUSH1 0x0 DUP2 SWAP1 POP DUP2 PUSH1 0x0 MSTORE PUSH1 0x20 PUSH1 0x0 KECCAK256 SWAP1 POP SWAP2 SWAP1 POP JUMP JUMPDEST PUSH1 0x0 PUSH1 0x20 PUSH1 0x1F DUP4 ADD DIV SWAP1 POP SWAP2 SWAP1 POP JUMP JUMPDEST PUSH1 0x0 DUP3 DUP3 SHL SWAP1 POP SWAP3 SWAP2 POP POP JUMP JUMPDEST PUSH1 0x0 PUSH1 0x8 DUP4 MUL PUSH2 0x63D PUSH32 0xFFFFFFFFFFFFFFFFFFFFFFFFFFFFFFFFFFFFFFFFFFFFFFFFFFFFFFFFFFFFFFFF DUP3 PUSH2 0x600 JUMP JUMPDEST PUSH2 0x647 DUP7 DUP4 PUSH2 0x600 JUMP JUMPDEST SWAP6 POP DUP1 NOT DUP5 AND SWAP4 POP DUP1 DUP7 AND DUP5 OR SWAP3 POP POP POP SWAP4 SWAP3 POP POP POP JUMP JUMPDEST PUSH1 0x0 DUP2 SWAP1 POP SWAP2 SWAP1 POP JUMP JUMPDEST PUSH1 0x0 DUP2 SWAP1 POP SWAP2 SWAP1 POP JUMP JUMPDEST PUSH1 0x0 PUSH2 0x68E PUSH2 0x689 PUSH2 0x684 DUP5 PUSH2 0x65F JUMP JUMPDEST PUSH2 0x669 JUMP JUMPDEST PUSH2 0x65F JUMP JUMPDEST SWAP1 POP SWAP2 SWAP1 POP JUMP JUMPDEST PUSH1 0x0 DUP2 SWAP1 POP SWAP2 SWAP1 POP JUMP JUMPDEST PUSH2 0x6A8 DUP4 PUSH2 0x673 JUMP JUMPDEST PUSH2 0x6BC PUSH2 0x6B4 DUP3 PUSH2 0x695 JUMP JUMPDEST DUP5 DUP5 SLOAD PUSH2 0x60D JUMP JUMPDEST DUP3 SSTORE POP POP POP POP JUMP JUMPDEST PUSH1 0x0 SWAP1 JUMP JUMPDEST PUSH2 0x6D1 PUSH2 0x6C4 JUMP JUMPDEST PUSH2 0x6DC DUP2 DUP5 DUP5 PUSH2 0x69F JUMP JUMPDEST POP POP POP JUMP JUMPDEST JUMPDEST DUP2 DUP2 LT ISZERO PUSH2 0x700 JUMPI PUSH2 0x6F5 PUSH1 0x0 DUP3 PUSH2 0x6C9 JUMP JUMPDEST PUSH1 0x1 DUP2 ADD SWAP1 POP PUSH2 0x6E2 JUMP JUMPDEST POP POP JUMP JUMPDEST PUSH1 0x1F DUP3 GT ISZERO PUSH2 0x745 JUMPI PUSH2 0x716 DUP2 PUSH2 0x5DB JUMP JUMPDEST PUSH2 0x71F DUP5 PUSH2 0x5F0 JUMP JUMPDEST DUP2 ADD PUSH1 0x20 DUP6 LT ISZERO PUSH2 0x72E JUMPI DUP2 SWAP1 POP JUMPDEST PUSH2 0x742 PUSH2 0x73A DUP6 PUSH2 0x5F0 JUMP JUMPDEST DUP4 ADD DUP3 PUSH2 0x6E1 JUMP JUMPDEST POP POP JUMPDEST POP POP POP JUMP JUMPDEST PUSH1 0x0 DUP3 DUP3 SHR SWAP1 POP SWAP3 SWAP2 POP POP JUMP JUMPDEST PUSH1 0x0 PUSH2 0x768 PUSH1 0x0 NOT DUP5 PUSH1 0x8 MUL PUSH2 0x74A JUMP JUMPDEST NOT DUP1 DUP4 AND SWAP2 POP POP SWAP3 SWAP2 POP POP JUMP JUMPDEST PUSH1 0x0 PUSH2 0x781 DUP4 DUP4 PUSH2 0x757 JUMP JUMPDEST SWAP2 POP DUP3 PUSH1 0x2 MUL DUP3 OR SWAP1 POP SWAP3 SWAP2 POP POP JUMP JUMPDEST PUSH2 0x79B DUP4 DUP4 PUSH2 0x541 JUMP JUMPDEST PUSH8 0xFFFFFFFFFFFFFFFF DUP2 GT ISZERO PUSH2 0x7B4 JUMPI PUSH2 0x7B3 PUSH2 0x54C JUMP JUMPDEST JUMPDEST PUSH2 0x7BE DUP3 SLOAD PUSH2 0x5AA JUMP JUMPDEST PUSH2 0x7C9 DUP3 DUP3 DUP6 PUSH2 0x704 JUMP JUMPDEST PUSH1 0x0 PUSH1 0x1F DUP4 GT PUSH1 0x1 DUP2 EQ PUSH2 0x7F8 JUMPI PUSH1 0x0 DUP5 ISZERO PUSH2 0x7E6 JUMPI DUP3 DUP8 ADD CALLDATALOAD SWAP1 POP JUMPDEST PUSH2 0x7F0 DUP6 DUP3 PUSH2 0x775 JUMP JUMPDEST DUP7 SSTORE POP PUSH2 0x858 JUMP JUMPDEST PUSH1 0x1F NOT DUP5 AND PUSH2 0x806 DUP7 PUSH2 0x5DB JUMP JUMPDEST PUSH1 0x0 JUMPDEST DUP3 DUP2 LT ISZERO PUSH2 0x82E JUMPI DUP5 DUP10 ADD CALLDATALOAD DUP3 SSTORE PUSH1 0x1 DUP3 ADD SWAP2 POP PUSH1 0x20 DUP6 ADD SWAP5 POP PUSH1 0x20 DUP2 ADD SWAP1 POP PUSH2 0x809 JUMP JUMPDEST DUP7 DUP4 LT ISZERO PUSH2 0x84B JUMPI DUP5 DUP10 ADD CALLDATALOAD PUSH2 0x847 PUSH1 0x1F DUP10 AND DUP3 PUSH2 0x757 JUMP JUMPDEST DUP4 SSTORE POP JUMPDEST PUSH1 0x1 PUSH1 0x2 DUP9 MUL ADD DUP9 SSTORE POP POP POP JUMPDEST POP POP POP POP POP POP POP JUMP JUMPDEST PUSH32 0x4E487B7100000000000000000000000000000000000000000000000000000000 PUSH1 0x0 MSTORE PUSH1 0x11 PUSH1 0x4 MSTORE PUSH1 0x24 PUSH1 0x0 REVERT JUMPDEST PUSH1 0x0 PUSH2 0x89B DUP3 PUSH2 0x65F JUMP JUMPDEST SWAP2 POP PUSH32 0xFFFFFFFFFFFFFFFFFFFFFFFFFFFFFFFFFFFFFFFFFFFFFFFFFFFFFFFFFFFFFFFF DUP3 SUB PUSH2 0x8CD JUMPI PUSH2 0x8CC PUSH2 0x861 JUMP JUMPDEST JUMPDEST PUSH1 0x1 DUP3 ADD SWAP1 POP SWAP2 SWAP1 POP JUMP INVALID LOG2 PUSH5 0x6970667358 0x22 SLT KECCAK256 SWAP6 JUMPDEST JUMPDEST SWAP15 0xF8 ADDRESS PUSH13 0x52C4CF24280CD313EE666AC7B8 PUSH16 0xEDE6D721C0B2DBDFE9155964736F6C63 NUMBER STOP ADDMOD SGT STOP CALLER "
				},
				"gasEstimates": {
					"creation": {
						"codeDepositCost": "463600",
						"executionCost": "5513",
						"totalCost": "469113"
					},
					"external": {
						"getMessage(address)": "infinite",
						"setMessage(string)": "infinite"
					}
				},
				"methodIdentifiers": {
					"getMessage(address)": "55448fe1",
					"setMessage(string)": "368b8772"
				}
			},
			"storageLayout": {
				"storage": [
					{
						"astId": 3,
						"contract": "LivreDOR.sol:LivreDOR",
						"label": "nbMessages",
						"offset": 0,
						"slot": "0",
						"type": "t_uint256"
					},
					{
						"astId": 14,
						"contract": "LivreDOR.sol:LivreDOR",
						"label": "messagesParAuteur",
						"offset": 0,
						"slot": "1",
						"type": "t_mapping(t_address,t_struct(Messages)9_storage)"
					}
				],
				"types": {
					"t_address": {
						"encoding": "inplace",
						"label": "address",
						"numberOfBytes": "20"
					},
					"t_array(t_string_storage)dyn_storage": {
						"base": "t_string_storage",
						"encoding": "dynamic_array",
						"label": "string[]",
						"numberOfBytes": "32"
					},
					"t_mapping(t_address,t_struct(Messages)9_storage)": {
						"encoding": "mapping",
						"key": "t_address",
						"label": "mapping(address => struct LivreDOR.Messages)",
						"numberOfBytes": "32",
						"value": "t_struct(Messages)9_storage"
					},
					"t_string_storage": {
						"encoding": "bytes",
						"label": "string",
						"numberOfBytes": "32"
					},
					"t_struct(Messages)9_storage": {
						"encoding": "inplace",
						"label": "struct LivreDOR.Messages",
						"members": [
							{
								"astId": 5,
								"contract": "LivreDOR.sol:LivreDOR",
								"label": "date",
								"offset": 0,
								"slot": "0",
								"type": "t_uint256"
							},
							{
								"astId": 8,
								"contract": "LivreDOR.sol:LivreDOR",
								"label": "messages",
								"offset": 0,
								"slot": "1",
								"type": "t_array(t_string_storage)dyn_storage"
							}
						],
						"numberOfBytes": "64"
					},
					"t_uint256": {
						"encoding": "inplace",
						"label": "uint256",
						"numberOfBytes": "32"
					}
				}
			},
			"userdoc": {
				"kind": "user",
				"methods": {},
				"version": 1
			}
		}
	}
}