{
	"test2.sol": {
		"test2": {
			"abi": [
				{
					"inputs": [],
					"stateMutability": "nonpayable",
					"type": "constructor"
				},
				{
					"inputs": [
						{
							"internalType": "uint256",
							"name": "_nb",
							"type": "uint256"
						}
					],
					"name": "getMot",
					"outputs": [
						{
							"internalType": "string",
							"name": "_mot",
							"type": "string"
						}
					],
					"stateMutability": "view",
					"type": "function"
				},
				{
					"inputs": [
						{
							"internalType": "string",
							"name": "_mot",
							"type": "string"
						}
					],
					"name": "getNb",
					"outputs": [
						{
							"internalType": "uint256",
							"name": "_nb",
							"type": "uint256"
						}
					],
					"stateMutability": "view",
					"type": "function"
				},
				{
					"inputs": [],
					"name": "getNb",
					"outputs": [
						{
							"internalType": "uint256",
							"name": "_nbMots",
							"type": "uint256"
						}
					],
					"stateMutability": "view",
					"type": "function"
				},
				{
					"inputs": [
						{
							"internalType": "string",
							"name": "_mot",
							"type": "string"
						}
					],
					"name": "setMot",
					"outputs": [],
					"stateMutability": "nonpayable",
					"type": "function"
				}
			],
			"devdoc": {
				"kind": "dev",
				"methods": {},
				"version": 1
			},
			"evm": {
				"assembly": "    /* \"test2.sol\":66:742  contract test2{... */\n  mstore(0x40, 0x80)\n    /* \"test2.sol\":196:238  constructor(){... */\n  callvalue\n  dup1\n  iszero\n  tag_1\n  jumpi\n  0x00\n  dup1\n  revert\ntag_1:\n  pop\n    /* \"test2.sol\":227:228  0 */\n  0x00\n    /* \"test2.sol\":220:226  nbMots */\n  dup1\n    /* \"test2.sol\":220:228  nbMots=0 */\n  dup2\n  swap1\n  sstore\n  pop\n    /* \"test2.sol\":66:742  contract test2{... */\n  dataSize(sub_0)\n  dup1\n  dataOffset(sub_0)\n  0x00\n  codecopy\n  0x00\n  return\nstop\n\nsub_0: assembly {\n        /* \"test2.sol\":66:742  contract test2{... */\n      mstore(0x40, 0x80)\n      callvalue\n      dup1\n      iszero\n      tag_1\n      jumpi\n      0x00\n      dup1\n      revert\n    tag_1:\n      pop\n      jumpi(tag_2, lt(calldatasize, 0x04))\n      shr(0xe0, calldataload(0x00))\n      dup1\n      0x039764bb\n      eq\n      tag_3\n      jumpi\n      dup1\n      0x602735b5\n      eq\n      tag_4\n      jumpi\n      dup1\n      0x7c28f21d\n      eq\n      tag_5\n      jumpi\n      dup1\n      0xc377db59\n      eq\n      tag_6\n      jumpi\n    tag_2:\n      0x00\n      dup1\n      revert\n        /* \"test2.sol\":523:638  function getNb ( string calldata _mot ) external view returns ( uint256 _nb) {... */\n    tag_3:\n      tag_7\n      0x04\n      dup1\n      calldatasize\n      sub\n      dup2\n      add\n      swap1\n      tag_8\n      swap2\n      swap1\n      tag_9\n      jump\t// in\n    tag_8:\n      tag_10\n      jump\t// in\n    tag_7:\n      mload(0x40)\n      tag_11\n      swap2\n      swap1\n      tag_12\n      jump\t// in\n    tag_11:\n      mload(0x40)\n      dup1\n      swap2\n      sub\n      swap1\n      return\n        /* \"test2.sol\":403:515  function getMot (uint256 _nb) external view returns ( string memory _mot) {... */\n    tag_4:\n      tag_13\n      0x04\n      dup1\n      calldatasize\n      sub\n      dup2\n      add\n      swap1\n      tag_14\n      swap2\n      swap1\n      tag_15\n      jump\t// in\n    tag_14:\n      tag_16\n      jump\t// in\n    tag_13:\n      mload(0x40)\n      tag_17\n      swap2\n      swap1\n      tag_18\n      jump\t// in\n    tag_17:\n      mload(0x40)\n      dup1\n      swap2\n      sub\n      swap1\n      return\n        /* \"test2.sol\":646:739  function getNb () external view returns (uint256 _nbMots) {... */\n    tag_5:\n      tag_19\n      tag_20\n      jump\t// in\n    tag_19:\n      mload(0x40)\n      tag_21\n      swap2\n      swap1\n      tag_12\n      jump\t// in\n    tag_21:\n      mload(0x40)\n      dup1\n      swap2\n      sub\n      swap1\n      return\n        /* \"test2.sol\":246:395  function setMot ( string calldata _mot) external {... */\n    tag_6:\n      tag_22\n      0x04\n      dup1\n      calldatasize\n      sub\n      dup2\n      add\n      swap1\n      tag_23\n      swap2\n      swap1\n      tag_9\n      jump\t// in\n    tag_23:\n      tag_24\n      jump\t// in\n    tag_22:\n      stop\n        /* \"test2.sol\":523:638  function getNb ( string calldata _mot ) external view returns ( uint256 _nb) {... */\n    tag_10:\n        /* \"test2.sol\":587:598  uint256 _nb */\n      0x00\n        /* \"test2.sol\":617:624  nbByMot */\n      0x02\n        /* \"test2.sol\":625:629  _mot */\n      dup4\n      dup4\n        /* \"test2.sol\":617:630  nbByMot[_mot] */\n      mload(0x40)\n      tag_26\n      swap3\n      swap2\n      swap1\n      tag_27\n      jump\t// in\n    tag_26:\n      swap1\n      dup2\n      mstore\n      0x20\n      add\n      mload(0x40)\n      dup1\n      swap2\n      sub\n      swap1\n      keccak256\n      sload\n        /* \"test2.sol\":611:630  _nb = nbByMot[_mot] */\n      swap1\n      pop\n        /* \"test2.sol\":523:638  function getNb ( string calldata _mot ) external view returns ( uint256 _nb) {... */\n      swap3\n      swap2\n      pop\n      pop\n      jump\t// out\n        /* \"test2.sol\":403:515  function getMot (uint256 _nb) external view returns ( string memory _mot) {... */\n    tag_16:\n        /* \"test2.sol\":457:475  string memory _mot */\n      0x60\n        /* \"test2.sol\":495:502  motByNb */\n      0x01\n        /* \"test2.sol\":495:507  motByNb[_nb] */\n      0x00\n        /* \"test2.sol\":503:506  _nb */\n      dup4\n        /* \"test2.sol\":495:507  motByNb[_nb] */\n      dup2\n      mstore\n      0x20\n      add\n      swap1\n      dup2\n      mstore\n      0x20\n      add\n      0x00\n      keccak256\n        /* \"test2.sol\":488:507  _mot = motByNb[_nb] */\n      dup1\n      sload\n      tag_29\n      swap1\n      tag_30\n      jump\t// in\n    tag_29:\n      dup1\n      0x1f\n      add\n      0x20\n      dup1\n      swap2\n      div\n      mul\n      0x20\n      add\n      mload(0x40)\n      swap1\n      dup2\n      add\n      0x40\n      mstore\n      dup1\n      swap3\n      swap2\n      swap1\n      dup2\n      dup2\n      mstore\n      0x20\n      add\n      dup3\n      dup1\n      sload\n      tag_31\n      swap1\n      tag_30\n      jump\t// in\n    tag_31:\n      dup1\n      iszero\n      tag_32\n      jumpi\n      dup1\n      0x1f\n      lt\n      tag_33\n      jumpi\n      0x0100\n      dup1\n      dup4\n      sload\n      div\n      mul\n      dup4\n      mstore\n      swap2\n      0x20\n      add\n      swap2\n      jump(tag_32)\n    tag_33:\n      dup3\n      add\n      swap2\n      swap1\n      0x00\n      mstore\n      keccak256(0x00, 0x20)\n      swap1\n    tag_34:\n      dup2\n      sload\n      dup2\n      mstore\n      swap1\n      0x01\n      add\n      swap1\n      0x20\n      add\n      dup1\n      dup4\n      gt\n      tag_34\n      jumpi\n      dup3\n      swap1\n      sub\n      0x1f\n      and\n      dup3\n      add\n      swap2\n    tag_32:\n      pop\n      pop\n      pop\n      pop\n      pop\n      swap1\n      pop\n        /* \"test2.sol\":403:515  function getMot (uint256 _nb) external view returns ( string memory _mot) {... */\n      swap2\n      swap1\n      pop\n      jump\t// out\n        /* \"test2.sol\":646:739  function getNb () external view returns (uint256 _nbMots) {... */\n    tag_20:\n        /* \"test2.sol\":687:702  uint256 _nbMots */\n      0x00\n        /* \"test2.sol\":725:731  nbMots */\n      dup1\n      sload\n        /* \"test2.sol\":715:731  _nbMots = nbMots */\n      swap1\n      pop\n        /* \"test2.sol\":646:739  function getNb () external view returns (uint256 _nbMots) {... */\n      swap1\n      jump\t// out\n        /* \"test2.sol\":246:395  function setMot ( string calldata _mot) external {... */\n    tag_24:\n        /* \"test2.sol\":326:330  _mot */\n      dup2\n      dup2\n        /* \"test2.sol\":308:315  motByNb */\n      0x01\n        /* \"test2.sol\":308:323  motByNb[nbMots] */\n      0x00\n        /* \"test2.sol\":316:322  nbMots */\n      dup1\n      sload\n        /* \"test2.sol\":308:323  motByNb[nbMots] */\n      dup2\n      mstore\n      0x20\n      add\n      swap1\n      dup2\n      mstore\n      0x20\n      add\n      0x00\n      keccak256\n        /* \"test2.sol\":308:330  motByNb[nbMots] = _mot */\n      swap2\n      dup3\n      tag_37\n      swap3\n      swap2\n      swap1\n      tag_38\n      jump\t// in\n    tag_37:\n      pop\n        /* \"test2.sol\":357:363  nbMots */\n      sload(0x00)\n        /* \"test2.sol\":341:348  nbByMot */\n      0x02\n        /* \"test2.sol\":349:353  _mot */\n      dup4\n      dup4\n        /* \"test2.sol\":341:354  nbByMot[_mot] */\n      mload(0x40)\n      tag_39\n      swap3\n      swap2\n      swap1\n      tag_27\n      jump\t// in\n    tag_39:\n      swap1\n      dup2\n      mstore\n      0x20\n      add\n      mload(0x40)\n      dup1\n      swap2\n      sub\n      swap1\n      keccak256\n        /* \"test2.sol\":341:363  nbByMot[_mot] = nbMots */\n      dup2\n      swap1\n      sstore\n      pop\n        /* \"test2.sol\":379:385  nbMots */\n      0x00\n      dup1\n        /* \"test2.sol\":376:385  ++ nbMots */\n      dup2\n      sload\n      tag_40\n      swap1\n      tag_41\n      jump\t// in\n    tag_40:\n      swap2\n      swap1\n      pop\n      dup2\n      swap1\n      sstore\n      pop\n        /* \"test2.sol\":246:395  function setMot ( string calldata _mot) external {... */\n      pop\n      pop\n      jump\t// out\n        /* \"#utility.yul\":88:205   */\n    tag_43:\n        /* \"#utility.yul\":197:198   */\n      0x00\n        /* \"#utility.yul\":194:195   */\n      dup1\n        /* \"#utility.yul\":187:199   */\n      revert\n        /* \"#utility.yul\":211:328   */\n    tag_44:\n        /* \"#utility.yul\":320:321   */\n      0x00\n        /* \"#utility.yul\":317:318   */\n      dup1\n        /* \"#utility.yul\":310:322   */\n      revert\n        /* \"#utility.yul\":334:451   */\n    tag_45:\n        /* \"#utility.yul\":443:444   */\n      0x00\n        /* \"#utility.yul\":440:441   */\n      dup1\n        /* \"#utility.yul\":433:445   */\n      revert\n        /* \"#utility.yul\":457:574   */\n    tag_46:\n        /* \"#utility.yul\":566:567   */\n      0x00\n        /* \"#utility.yul\":563:564   */\n      dup1\n        /* \"#utility.yul\":556:568   */\n      revert\n        /* \"#utility.yul\":580:697   */\n    tag_47:\n        /* \"#utility.yul\":689:690   */\n      0x00\n        /* \"#utility.yul\":686:687   */\n      dup1\n        /* \"#utility.yul\":679:691   */\n      revert\n        /* \"#utility.yul\":717:1270   */\n    tag_48:\n        /* \"#utility.yul\":775:783   */\n      0x00\n        /* \"#utility.yul\":785:791   */\n      dup1\n        /* \"#utility.yul\":835:838   */\n      dup4\n        /* \"#utility.yul\":828:832   */\n      0x1f\n        /* \"#utility.yul\":820:826   */\n      dup5\n        /* \"#utility.yul\":816:833   */\n      add\n        /* \"#utility.yul\":812:839   */\n      slt\n        /* \"#utility.yul\":802:924   */\n      tag_88\n      jumpi\n        /* \"#utility.yul\":843:922   */\n      tag_89\n      tag_45\n      jump\t// in\n    tag_89:\n        /* \"#utility.yul\":802:924   */\n    tag_88:\n        /* \"#utility.yul\":956:962   */\n      dup3\n        /* \"#utility.yul\":943:963   */\n      calldataload\n        /* \"#utility.yul\":933:963   */\n      swap1\n      pop\n        /* \"#utility.yul\":986:1004   */\n      0xffffffffffffffff\n        /* \"#utility.yul\":978:984   */\n      dup2\n        /* \"#utility.yul\":975:1005   */\n      gt\n        /* \"#utility.yul\":972:1089   */\n      iszero\n      tag_90\n      jumpi\n        /* \"#utility.yul\":1008:1087   */\n      tag_91\n      tag_46\n      jump\t// in\n    tag_91:\n        /* \"#utility.yul\":972:1089   */\n    tag_90:\n        /* \"#utility.yul\":1122:1126   */\n      0x20\n        /* \"#utility.yul\":1114:1120   */\n      dup4\n        /* \"#utility.yul\":1110:1127   */\n      add\n        /* \"#utility.yul\":1098:1127   */\n      swap2\n      pop\n        /* \"#utility.yul\":1176:1179   */\n      dup4\n        /* \"#utility.yul\":1168:1172   */\n      0x01\n        /* \"#utility.yul\":1160:1166   */\n      dup3\n        /* \"#utility.yul\":1156:1173   */\n      mul\n        /* \"#utility.yul\":1146:1154   */\n      dup4\n        /* \"#utility.yul\":1142:1174   */\n      add\n        /* \"#utility.yul\":1139:1180   */\n      gt\n        /* \"#utility.yul\":1136:1264   */\n      iszero\n      tag_92\n      jumpi\n        /* \"#utility.yul\":1183:1262   */\n      tag_93\n      tag_47\n      jump\t// in\n    tag_93:\n        /* \"#utility.yul\":1136:1264   */\n    tag_92:\n        /* \"#utility.yul\":717:1270   */\n      swap3\n      pop\n      swap3\n      swap1\n      pop\n      jump\t// out\n        /* \"#utility.yul\":1276:1805   */\n    tag_9:\n        /* \"#utility.yul\":1347:1353   */\n      0x00\n        /* \"#utility.yul\":1355:1361   */\n      dup1\n        /* \"#utility.yul\":1404:1406   */\n      0x20\n        /* \"#utility.yul\":1392:1401   */\n      dup4\n        /* \"#utility.yul\":1383:1390   */\n      dup6\n        /* \"#utility.yul\":1379:1402   */\n      sub\n        /* \"#utility.yul\":1375:1407   */\n      slt\n        /* \"#utility.yul\":1372:1491   */\n      iszero\n      tag_95\n      jumpi\n        /* \"#utility.yul\":1410:1489   */\n      tag_96\n      tag_43\n      jump\t// in\n    tag_96:\n        /* \"#utility.yul\":1372:1491   */\n    tag_95:\n        /* \"#utility.yul\":1558:1559   */\n      0x00\n        /* \"#utility.yul\":1547:1556   */\n      dup4\n        /* \"#utility.yul\":1543:1560   */\n      add\n        /* \"#utility.yul\":1530:1561   */\n      calldataload\n        /* \"#utility.yul\":1588:1606   */\n      0xffffffffffffffff\n        /* \"#utility.yul\":1580:1586   */\n      dup2\n        /* \"#utility.yul\":1577:1607   */\n      gt\n        /* \"#utility.yul\":1574:1691   */\n      iszero\n      tag_97\n      jumpi\n        /* \"#utility.yul\":1610:1689   */\n      tag_98\n      tag_44\n      jump\t// in\n    tag_98:\n        /* \"#utility.yul\":1574:1691   */\n    tag_97:\n        /* \"#utility.yul\":1723:1788   */\n      tag_99\n        /* \"#utility.yul\":1780:1787   */\n      dup6\n        /* \"#utility.yul\":1771:1777   */\n      dup3\n        /* \"#utility.yul\":1760:1769   */\n      dup7\n        /* \"#utility.yul\":1756:1778   */\n      add\n        /* \"#utility.yul\":1723:1788   */\n      tag_48\n      jump\t// in\n    tag_99:\n        /* \"#utility.yul\":1705:1788   */\n      swap3\n      pop\n      swap3\n      pop\n        /* \"#utility.yul\":1501:1798   */\n      pop\n        /* \"#utility.yul\":1276:1805   */\n      swap3\n      pop\n      swap3\n      swap1\n      pop\n      jump\t// out\n        /* \"#utility.yul\":1811:1888   */\n    tag_49:\n        /* \"#utility.yul\":1848:1855   */\n      0x00\n        /* \"#utility.yul\":1877:1882   */\n      dup2\n        /* \"#utility.yul\":1866:1882   */\n      swap1\n      pop\n        /* \"#utility.yul\":1811:1888   */\n      swap2\n      swap1\n      pop\n      jump\t// out\n        /* \"#utility.yul\":1894:2012   */\n    tag_50:\n        /* \"#utility.yul\":1981:2005   */\n      tag_102\n        /* \"#utility.yul\":1999:2004   */\n      dup2\n        /* \"#utility.yul\":1981:2005   */\n      tag_49\n      jump\t// in\n    tag_102:\n        /* \"#utility.yul\":1976:1979   */\n      dup3\n        /* \"#utility.yul\":1969:2006   */\n      mstore\n        /* \"#utility.yul\":1894:2012   */\n      pop\n      pop\n      jump\t// out\n        /* \"#utility.yul\":2018:2240   */\n    tag_12:\n        /* \"#utility.yul\":2111:2115   */\n      0x00\n        /* \"#utility.yul\":2149:2151   */\n      0x20\n        /* \"#utility.yul\":2138:2147   */\n      dup3\n        /* \"#utility.yul\":2134:2152   */\n      add\n        /* \"#utility.yul\":2126:2152   */\n      swap1\n      pop\n        /* \"#utility.yul\":2162:2233   */\n      tag_104\n        /* \"#utility.yul\":2230:2231   */\n      0x00\n        /* \"#utility.yul\":2219:2228   */\n      dup4\n        /* \"#utility.yul\":2215:2232   */\n      add\n        /* \"#utility.yul\":2206:2212   */\n      dup5\n        /* \"#utility.yul\":2162:2233   */\n      tag_50\n      jump\t// in\n    tag_104:\n        /* \"#utility.yul\":2018:2240   */\n      swap3\n      swap2\n      pop\n      pop\n      jump\t// out\n        /* \"#utility.yul\":2246:2368   */\n    tag_51:\n        /* \"#utility.yul\":2319:2343   */\n      tag_106\n        /* \"#utility.yul\":2337:2342   */\n      dup2\n        /* \"#utility.yul\":2319:2343   */\n      tag_49\n      jump\t// in\n    tag_106:\n        /* \"#utility.yul\":2312:2317   */\n      dup2\n        /* \"#utility.yul\":2309:2344   */\n      eq\n        /* \"#utility.yul\":2299:2362   */\n      tag_107\n      jumpi\n        /* \"#utility.yul\":2358:2359   */\n      0x00\n        /* \"#utility.yul\":2355:2356   */\n      dup1\n        /* \"#utility.yul\":2348:2360   */\n      revert\n        /* \"#utility.yul\":2299:2362   */\n    tag_107:\n        /* \"#utility.yul\":2246:2368   */\n      pop\n      jump\t// out\n        /* \"#utility.yul\":2374:2513   */\n    tag_52:\n        /* \"#utility.yul\":2420:2425   */\n      0x00\n        /* \"#utility.yul\":2458:2464   */\n      dup2\n        /* \"#utility.yul\":2445:2465   */\n      calldataload\n        /* \"#utility.yul\":2436:2465   */\n      swap1\n      pop\n        /* \"#utility.yul\":2474:2507   */\n      tag_109\n        /* \"#utility.yul\":2501:2506   */\n      dup2\n        /* \"#utility.yul\":2474:2507   */\n      tag_51\n      jump\t// in\n    tag_109:\n        /* \"#utility.yul\":2374:2513   */\n      swap3\n      swap2\n      pop\n      pop\n      jump\t// out\n        /* \"#utility.yul\":2519:2848   */\n    tag_15:\n        /* \"#utility.yul\":2578:2584   */\n      0x00\n        /* \"#utility.yul\":2627:2629   */\n      0x20\n        /* \"#utility.yul\":2615:2624   */\n      dup3\n        /* \"#utility.yul\":2606:2613   */\n      dup5\n        /* \"#utility.yul\":2602:2625   */\n      sub\n        /* \"#utility.yul\":2598:2630   */\n      slt\n        /* \"#utility.yul\":2595:2714   */\n      iszero\n      tag_111\n      jumpi\n        /* \"#utility.yul\":2633:2712   */\n      tag_112\n      tag_43\n      jump\t// in\n    tag_112:\n        /* \"#utility.yul\":2595:2714   */\n    tag_111:\n        /* \"#utility.yul\":2753:2754   */\n      0x00\n        /* \"#utility.yul\":2778:2831   */\n      tag_113\n        /* \"#utility.yul\":2823:2830   */\n      dup5\n        /* \"#utility.yul\":2814:2820   */\n      dup3\n        /* \"#utility.yul\":2803:2812   */\n      dup6\n        /* \"#utility.yul\":2799:2821   */\n      add\n        /* \"#utility.yul\":2778:2831   */\n      tag_52\n      jump\t// in\n    tag_113:\n        /* \"#utility.yul\":2768:2831   */\n      swap2\n      pop\n        /* \"#utility.yul\":2724:2841   */\n      pop\n        /* \"#utility.yul\":2519:2848   */\n      swap3\n      swap2\n      pop\n      pop\n      jump\t// out\n        /* \"#utility.yul\":2854:2953   */\n    tag_53:\n        /* \"#utility.yul\":2906:2912   */\n      0x00\n        /* \"#utility.yul\":2940:2945   */\n      dup2\n        /* \"#utility.yul\":2934:2946   */\n      mload\n        /* \"#utility.yul\":2924:2946   */\n      swap1\n      pop\n        /* \"#utility.yul\":2854:2953   */\n      swap2\n      swap1\n      pop\n      jump\t// out\n        /* \"#utility.yul\":2959:3128   */\n    tag_54:\n        /* \"#utility.yul\":3043:3054   */\n      0x00\n        /* \"#utility.yul\":3077:3083   */\n      dup3\n        /* \"#utility.yul\":3072:3075   */\n      dup3\n        /* \"#utility.yul\":3065:3084   */\n      mstore\n        /* \"#utility.yul\":3117:3121   */\n      0x20\n        /* \"#utility.yul\":3112:3115   */\n      dup3\n        /* \"#utility.yul\":3108:3122   */\n      add\n        /* \"#utility.yul\":3093:3122   */\n      swap1\n      pop\n        /* \"#utility.yul\":2959:3128   */\n      swap3\n      swap2\n      pop\n      pop\n      jump\t// out\n        /* \"#utility.yul\":3134:3380   */\n    tag_55:\n        /* \"#utility.yul\":3215:3216   */\n      0x00\n        /* \"#utility.yul\":3225:3338   */\n    tag_117:\n        /* \"#utility.yul\":3239:3245   */\n      dup4\n        /* \"#utility.yul\":3236:3237   */\n      dup2\n        /* \"#utility.yul\":3233:3246   */\n      lt\n        /* \"#utility.yul\":3225:3338   */\n      iszero\n      tag_119\n      jumpi\n        /* \"#utility.yul\":3324:3325   */\n      dup1\n        /* \"#utility.yul\":3319:3322   */\n      dup3\n        /* \"#utility.yul\":3315:3326   */\n      add\n        /* \"#utility.yul\":3309:3327   */\n      mload\n        /* \"#utility.yul\":3305:3306   */\n      dup2\n        /* \"#utility.yul\":3300:3303   */\n      dup5\n        /* \"#utility.yul\":3296:3307   */\n      add\n        /* \"#utility.yul\":3289:3328   */\n      mstore\n        /* \"#utility.yul\":3261:3263   */\n      0x20\n        /* \"#utility.yul\":3258:3259   */\n      dup2\n        /* \"#utility.yul\":3254:3264   */\n      add\n        /* \"#utility.yul\":3249:3264   */\n      swap1\n      pop\n        /* \"#utility.yul\":3225:3338   */\n      jump(tag_117)\n    tag_119:\n        /* \"#utility.yul\":3372:3373   */\n      0x00\n        /* \"#utility.yul\":3363:3369   */\n      dup5\n        /* \"#utility.yul\":3358:3361   */\n      dup5\n        /* \"#utility.yul\":3354:3370   */\n      add\n        /* \"#utility.yul\":3347:3374   */\n      mstore\n        /* \"#utility.yul\":3196:3380   */\n      pop\n        /* \"#utility.yul\":3134:3380   */\n      pop\n      pop\n      pop\n      jump\t// out\n        /* \"#utility.yul\":3386:3488   */\n    tag_56:\n        /* \"#utility.yul\":3427:3433   */\n      0x00\n        /* \"#utility.yul\":3478:3480   */\n      0x1f\n        /* \"#utility.yul\":3474:3481   */\n      not\n        /* \"#utility.yul\":3469:3471   */\n      0x1f\n        /* \"#utility.yul\":3462:3467   */\n      dup4\n        /* \"#utility.yul\":3458:3472   */\n      add\n        /* \"#utility.yul\":3454:3482   */\n      and\n        /* \"#utility.yul\":3444:3482   */\n      swap1\n      pop\n        /* \"#utility.yul\":3386:3488   */\n      swap2\n      swap1\n      pop\n      jump\t// out\n        /* \"#utility.yul\":3494:3871   */\n    tag_57:\n        /* \"#utility.yul\":3582:3585   */\n      0x00\n        /* \"#utility.yul\":3610:3649   */\n      tag_122\n        /* \"#utility.yul\":3643:3648   */\n      dup3\n        /* \"#utility.yul\":3610:3649   */\n      tag_53\n      jump\t// in\n    tag_122:\n        /* \"#utility.yul\":3665:3736   */\n      tag_123\n        /* \"#utility.yul\":3729:3735   */\n      dup2\n        /* \"#utility.yul\":3724:3727   */\n      dup6\n        /* \"#utility.yul\":3665:3736   */\n      tag_54\n      jump\t// in\n    tag_123:\n        /* \"#utility.yul\":3658:3736   */\n      swap4\n      pop\n        /* \"#utility.yul\":3745:3810   */\n      tag_124\n        /* \"#utility.yul\":3803:3809   */\n      dup2\n        /* \"#utility.yul\":3798:3801   */\n      dup6\n        /* \"#utility.yul\":3791:3795   */\n      0x20\n        /* \"#utility.yul\":3784:3789   */\n      dup7\n        /* \"#utility.yul\":3780:3796   */\n      add\n        /* \"#utility.yul\":3745:3810   */\n      tag_55\n      jump\t// in\n    tag_124:\n        /* \"#utility.yul\":3835:3864   */\n      tag_125\n        /* \"#utility.yul\":3857:3863   */\n      dup2\n        /* \"#utility.yul\":3835:3864   */\n      tag_56\n      jump\t// in\n    tag_125:\n        /* \"#utility.yul\":3830:3833   */\n      dup5\n        /* \"#utility.yul\":3826:3865   */\n      add\n        /* \"#utility.yul\":3819:3865   */\n      swap2\n      pop\n        /* \"#utility.yul\":3586:3871   */\n      pop\n        /* \"#utility.yul\":3494:3871   */\n      swap3\n      swap2\n      pop\n      pop\n      jump\t// out\n        /* \"#utility.yul\":3877:4190   */\n    tag_18:\n        /* \"#utility.yul\":3990:3994   */\n      0x00\n        /* \"#utility.yul\":4028:4030   */\n      0x20\n        /* \"#utility.yul\":4017:4026   */\n      dup3\n        /* \"#utility.yul\":4013:4031   */\n      add\n        /* \"#utility.yul\":4005:4031   */\n      swap1\n      pop\n        /* \"#utility.yul\":4077:4086   */\n      dup2\n        /* \"#utility.yul\":4071:4075   */\n      dup2\n        /* \"#utility.yul\":4067:4087   */\n      sub\n        /* \"#utility.yul\":4063:4064   */\n      0x00\n        /* \"#utility.yul\":4052:4061   */\n      dup4\n        /* \"#utility.yul\":4048:4065   */\n      add\n        /* \"#utility.yul\":4041:4088   */\n      mstore\n        /* \"#utility.yul\":4105:4183   */\n      tag_127\n        /* \"#utility.yul\":4178:4182   */\n      dup2\n        /* \"#utility.yul\":4169:4175   */\n      dup5\n        /* \"#utility.yul\":4105:4183   */\n      tag_57\n      jump\t// in\n    tag_127:\n        /* \"#utility.yul\":4097:4183   */\n      swap1\n      pop\n        /* \"#utility.yul\":3877:4190   */\n      swap3\n      swap2\n      pop\n      pop\n      jump\t// out\n        /* \"#utility.yul\":4196:4344   */\n    tag_58:\n        /* \"#utility.yul\":4298:4309   */\n      0x00\n        /* \"#utility.yul\":4335:4338   */\n      dup2\n        /* \"#utility.yul\":4320:4338   */\n      swap1\n      pop\n        /* \"#utility.yul\":4196:4344   */\n      swap3\n      swap2\n      pop\n      pop\n      jump\t// out\n        /* \"#utility.yul\":4350:4496   */\n    tag_59:\n        /* \"#utility.yul\":4447:4453   */\n      dup3\n        /* \"#utility.yul\":4442:4445   */\n      dup2\n        /* \"#utility.yul\":4437:4440   */\n      dup4\n        /* \"#utility.yul\":4424:4454   */\n      calldatacopy\n        /* \"#utility.yul\":4488:4489   */\n      0x00\n        /* \"#utility.yul\":4479:4485   */\n      dup4\n        /* \"#utility.yul\":4474:4477   */\n      dup4\n        /* \"#utility.yul\":4470:4486   */\n      add\n        /* \"#utility.yul\":4463:4490   */\n      mstore\n        /* \"#utility.yul\":4350:4496   */\n      pop\n      pop\n      pop\n      jump\t// out\n        /* \"#utility.yul\":4526:4856   */\n    tag_60:\n        /* \"#utility.yul\":4642:4645   */\n      0x00\n        /* \"#utility.yul\":4663:4752   */\n      tag_131\n        /* \"#utility.yul\":4745:4751   */\n      dup4\n        /* \"#utility.yul\":4740:4743   */\n      dup6\n        /* \"#utility.yul\":4663:4752   */\n      tag_58\n      jump\t// in\n    tag_131:\n        /* \"#utility.yul\":4656:4752   */\n      swap4\n      pop\n        /* \"#utility.yul\":4762:4818   */\n      tag_132\n        /* \"#utility.yul\":4811:4817   */\n      dup4\n        /* \"#utility.yul\":4806:4809   */\n      dup6\n        /* \"#utility.yul\":4799:4804   */\n      dup5\n        /* \"#utility.yul\":4762:4818   */\n      tag_59\n      jump\t// in\n    tag_132:\n        /* \"#utility.yul\":4843:4849   */\n      dup3\n        /* \"#utility.yul\":4838:4841   */\n      dup5\n        /* \"#utility.yul\":4834:4850   */\n      add\n        /* \"#utility.yul\":4827:4850   */\n      swap1\n      pop\n        /* \"#utility.yul\":4526:4856   */\n      swap4\n      swap3\n      pop\n      pop\n      pop\n      jump\t// out\n        /* \"#utility.yul\":4862:5157   */\n    tag_27:\n        /* \"#utility.yul\":5004:5007   */\n      0x00\n        /* \"#utility.yul\":5026:5131   */\n      tag_134\n        /* \"#utility.yul\":5127:5130   */\n      dup3\n        /* \"#utility.yul\":5118:5124   */\n      dup5\n        /* \"#utility.yul\":5110:5116   */\n      dup7\n        /* \"#utility.yul\":5026:5131   */\n      tag_60\n      jump\t// in\n    tag_134:\n        /* \"#utility.yul\":5019:5131   */\n      swap2\n      pop\n        /* \"#utility.yul\":5148:5151   */\n      dup2\n        /* \"#utility.yul\":5141:5151   */\n      swap1\n      pop\n        /* \"#utility.yul\":4862:5157   */\n      swap4\n      swap3\n      pop\n      pop\n      pop\n      jump\t// out\n        /* \"#utility.yul\":5163:5343   */\n    tag_61:\n        /* \"#utility.yul\":5211:5288   */\n      0x4e487b7100000000000000000000000000000000000000000000000000000000\n        /* \"#utility.yul\":5208:5209   */\n      0x00\n        /* \"#utility.yul\":5201:5289   */\n      mstore\n        /* \"#utility.yul\":5308:5312   */\n      0x22\n        /* \"#utility.yul\":5305:5306   */\n      0x04\n        /* \"#utility.yul\":5298:5313   */\n      mstore\n        /* \"#utility.yul\":5332:5336   */\n      0x24\n        /* \"#utility.yul\":5329:5330   */\n      0x00\n        /* \"#utility.yul\":5322:5337   */\n      revert\n        /* \"#utility.yul\":5349:5669   */\n    tag_30:\n        /* \"#utility.yul\":5393:5399   */\n      0x00\n        /* \"#utility.yul\":5430:5431   */\n      0x02\n        /* \"#utility.yul\":5424:5428   */\n      dup3\n        /* \"#utility.yul\":5420:5432   */\n      div\n        /* \"#utility.yul\":5410:5432   */\n      swap1\n      pop\n        /* \"#utility.yul\":5477:5478   */\n      0x01\n        /* \"#utility.yul\":5471:5475   */\n      dup3\n        /* \"#utility.yul\":5467:5479   */\n      and\n        /* \"#utility.yul\":5498:5516   */\n      dup1\n        /* \"#utility.yul\":5488:5569   */\n      tag_137\n      jumpi\n        /* \"#utility.yul\":5554:5558   */\n      0x7f\n        /* \"#utility.yul\":5546:5552   */\n      dup3\n        /* \"#utility.yul\":5542:5559   */\n      and\n        /* \"#utility.yul\":5532:5559   */\n      swap2\n      pop\n        /* \"#utility.yul\":5488:5569   */\n    tag_137:\n        /* \"#utility.yul\":5616:5618   */\n      0x20\n        /* \"#utility.yul\":5608:5614   */\n      dup3\n        /* \"#utility.yul\":5605:5619   */\n      lt\n        /* \"#utility.yul\":5585:5603   */\n      dup2\n        /* \"#utility.yul\":5582:5620   */\n      sub\n        /* \"#utility.yul\":5579:5663   */\n      tag_138\n      jumpi\n        /* \"#utility.yul\":5635:5653   */\n      tag_139\n      tag_61\n      jump\t// in\n    tag_139:\n        /* \"#utility.yul\":5579:5663   */\n    tag_138:\n        /* \"#utility.yul\":5400:5669   */\n      pop\n        /* \"#utility.yul\":5349:5669   */\n      swap2\n      swap1\n      pop\n      jump\t// out\n        /* \"#utility.yul\":5675:5772   */\n    tag_62:\n        /* \"#utility.yul\":5734:5740   */\n      0x00\n        /* \"#utility.yul\":5762:5765   */\n      dup3\n        /* \"#utility.yul\":5752:5765   */\n      swap1\n      pop\n        /* \"#utility.yul\":5675:5772   */\n      swap3\n      swap2\n      pop\n      pop\n      jump\t// out\n        /* \"#utility.yul\":5778:5958   */\n    tag_63:\n        /* \"#utility.yul\":5826:5903   */\n      0x4e487b7100000000000000000000000000000000000000000000000000000000\n        /* \"#utility.yul\":5823:5824   */\n      0x00\n        /* \"#utility.yul\":5816:5904   */\n      mstore\n        /* \"#utility.yul\":5923:5927   */\n      0x41\n        /* \"#utility.yul\":5920:5921   */\n      0x04\n        /* \"#utility.yul\":5913:5928   */\n      mstore\n        /* \"#utility.yul\":5947:5951   */\n      0x24\n        /* \"#utility.yul\":5944:5945   */\n      0x00\n        /* \"#utility.yul\":5937:5952   */\n      revert\n        /* \"#utility.yul\":5964:6105   */\n    tag_64:\n        /* \"#utility.yul\":6013:6017   */\n      0x00\n        /* \"#utility.yul\":6036:6039   */\n      dup2\n        /* \"#utility.yul\":6028:6039   */\n      swap1\n      pop\n        /* \"#utility.yul\":6059:6062   */\n      dup2\n        /* \"#utility.yul\":6056:6057   */\n      0x00\n        /* \"#utility.yul\":6049:6063   */\n      mstore\n        /* \"#utility.yul\":6093:6097   */\n      0x20\n        /* \"#utility.yul\":6090:6091   */\n      0x00\n        /* \"#utility.yul\":6080:6098   */\n      keccak256\n        /* \"#utility.yul\":6072:6098   */\n      swap1\n      pop\n        /* \"#utility.yul\":5964:6105   */\n      swap2\n      swap1\n      pop\n      jump\t// out\n        /* \"#utility.yul\":6111:6204   */\n    tag_65:\n        /* \"#utility.yul\":6148:6154   */\n      0x00\n        /* \"#utility.yul\":6195:6197   */\n      0x20\n        /* \"#utility.yul\":6190:6192   */\n      0x1f\n        /* \"#utility.yul\":6183:6188   */\n      dup4\n        /* \"#utility.yul\":6179:6193   */\n      add\n        /* \"#utility.yul\":6175:6198   */\n      div\n        /* \"#utility.yul\":6165:6198   */\n      swap1\n      pop\n        /* \"#utility.yul\":6111:6204   */\n      swap2\n      swap1\n      pop\n      jump\t// out\n        /* \"#utility.yul\":6210:6317   */\n    tag_66:\n        /* \"#utility.yul\":6254:6262   */\n      0x00\n        /* \"#utility.yul\":6304:6309   */\n      dup3\n        /* \"#utility.yul\":6298:6302   */\n      dup3\n        /* \"#utility.yul\":6294:6310   */\n      shl\n        /* \"#utility.yul\":6273:6310   */\n      swap1\n      pop\n        /* \"#utility.yul\":6210:6317   */\n      swap3\n      swap2\n      pop\n      pop\n      jump\t// out\n        /* \"#utility.yul\":6323:6716   */\n    tag_67:\n        /* \"#utility.yul\":6392:6398   */\n      0x00\n        /* \"#utility.yul\":6442:6443   */\n      0x08\n        /* \"#utility.yul\":6430:6440   */\n      dup4\n        /* \"#utility.yul\":6426:6444   */\n      mul\n        /* \"#utility.yul\":6465:6562   */\n      tag_146\n        /* \"#utility.yul\":6495:6561   */\n      0xffffffffffffffffffffffffffffffffffffffffffffffffffffffffffffffff\n        /* \"#utility.yul\":6484:6493   */\n      dup3\n        /* \"#utility.yul\":6465:6562   */\n      tag_66\n      jump\t// in\n    tag_146:\n        /* \"#utility.yul\":6583:6622   */\n      tag_147\n        /* \"#utility.yul\":6613:6621   */\n      dup7\n        /* \"#utility.yul\":6602:6611   */\n      dup4\n        /* \"#utility.yul\":6583:6622   */\n      tag_66\n      jump\t// in\n    tag_147:\n        /* \"#utility.yul\":6571:6622   */\n      swap6\n      pop\n        /* \"#utility.yul\":6655:6659   */\n      dup1\n        /* \"#utility.yul\":6651:6660   */\n      not\n        /* \"#utility.yul\":6644:6649   */\n      dup5\n        /* \"#utility.yul\":6640:6661   */\n      and\n        /* \"#utility.yul\":6631:6661   */\n      swap4\n      pop\n        /* \"#utility.yul\":6704:6708   */\n      dup1\n        /* \"#utility.yul\":6694:6702   */\n      dup7\n        /* \"#utility.yul\":6690:6709   */\n      and\n        /* \"#utility.yul\":6683:6688   */\n      dup5\n        /* \"#utility.yul\":6680:6710   */\n      or\n        /* \"#utility.yul\":6670:6710   */\n      swap3\n      pop\n        /* \"#utility.yul\":6399:6716   */\n      pop\n      pop\n        /* \"#utility.yul\":6323:6716   */\n      swap4\n      swap3\n      pop\n      pop\n      pop\n      jump\t// out\n        /* \"#utility.yul\":6722:6782   */\n    tag_68:\n        /* \"#utility.yul\":6750:6753   */\n      0x00\n        /* \"#utility.yul\":6771:6776   */\n      dup2\n        /* \"#utility.yul\":6764:6776   */\n      swap1\n      pop\n        /* \"#utility.yul\":6722:6782   */\n      swap2\n      swap1\n      pop\n      jump\t// out\n        /* \"#utility.yul\":6788:6930   */\n    tag_69:\n        /* \"#utility.yul\":6838:6847   */\n      0x00\n        /* \"#utility.yul\":6871:6924   */\n      tag_150\n        /* \"#utility.yul\":6889:6923   */\n      tag_151\n        /* \"#utility.yul\":6898:6922   */\n      tag_152\n        /* \"#utility.yul\":6916:6921   */\n      dup5\n        /* \"#utility.yul\":6898:6922   */\n      tag_49\n      jump\t// in\n    tag_152:\n        /* \"#utility.yul\":6889:6923   */\n      tag_68\n      jump\t// in\n    tag_151:\n        /* \"#utility.yul\":6871:6924   */\n      tag_49\n      jump\t// in\n    tag_150:\n        /* \"#utility.yul\":6858:6924   */\n      swap1\n      pop\n        /* \"#utility.yul\":6788:6930   */\n      swap2\n      swap1\n      pop\n      jump\t// out\n        /* \"#utility.yul\":6936:7011   */\n    tag_70:\n        /* \"#utility.yul\":6979:6982   */\n      0x00\n        /* \"#utility.yul\":7000:7005   */\n      dup2\n        /* \"#utility.yul\":6993:7005   */\n      swap1\n      pop\n        /* \"#utility.yul\":6936:7011   */\n      swap2\n      swap1\n      pop\n      jump\t// out\n        /* \"#utility.yul\":7017:7286   */\n    tag_71:\n        /* \"#utility.yul\":7127:7166   */\n      tag_155\n        /* \"#utility.yul\":7158:7165   */\n      dup4\n        /* \"#utility.yul\":7127:7166   */\n      tag_69\n      jump\t// in\n    tag_155:\n        /* \"#utility.yul\":7188:7279   */\n      tag_156\n        /* \"#utility.yul\":7237:7278   */\n      tag_157\n        /* \"#utility.yul\":7261:7277   */\n      dup3\n        /* \"#utility.yul\":7237:7278   */\n      tag_70\n      jump\t// in\n    tag_157:\n        /* \"#utility.yul\":7229:7235   */\n      dup5\n        /* \"#utility.yul\":7222:7226   */\n      dup5\n        /* \"#utility.yul\":7216:7227   */\n      sload\n        /* \"#utility.yul\":7188:7279   */\n      tag_67\n      jump\t// in\n    tag_156:\n        /* \"#utility.yul\":7182:7186   */\n      dup3\n        /* \"#utility.yul\":7175:7280   */\n      sstore\n        /* \"#utility.yul\":7093:7286   */\n      pop\n        /* \"#utility.yul\":7017:7286   */\n      pop\n      pop\n      pop\n      jump\t// out\n        /* \"#utility.yul\":7292:7365   */\n    tag_72:\n        /* \"#utility.yul\":7337:7340   */\n      0x00\n        /* \"#utility.yul\":7292:7365   */\n      swap1\n      jump\t// out\n        /* \"#utility.yul\":7371:7560   */\n    tag_73:\n        /* \"#utility.yul\":7448:7480   */\n      tag_160\n      tag_72\n      jump\t// in\n    tag_160:\n        /* \"#utility.yul\":7489:7554   */\n      tag_161\n        /* \"#utility.yul\":7547:7553   */\n      dup2\n        /* \"#utility.yul\":7539:7545   */\n      dup5\n        /* \"#utility.yul\":7533:7537   */\n      dup5\n        /* \"#utility.yul\":7489:7554   */\n      tag_71\n      jump\t// in\n    tag_161:\n        /* \"#utility.yul\":7424:7560   */\n      pop\n        /* \"#utility.yul\":7371:7560   */\n      pop\n      pop\n      jump\t// out\n        /* \"#utility.yul\":7566:7752   */\n    tag_74:\n        /* \"#utility.yul\":7626:7746   */\n    tag_163:\n        /* \"#utility.yul\":7643:7646   */\n      dup2\n        /* \"#utility.yul\":7636:7641   */\n      dup2\n        /* \"#utility.yul\":7633:7647   */\n      lt\n        /* \"#utility.yul\":7626:7746   */\n      iszero\n      tag_165\n      jumpi\n        /* \"#utility.yul\":7697:7736   */\n      tag_166\n        /* \"#utility.yul\":7734:7735   */\n      0x00\n        /* \"#utility.yul\":7727:7732   */\n      dup3\n        /* \"#utility.yul\":7697:7736   */\n      tag_73\n      jump\t// in\n    tag_166:\n        /* \"#utility.yul\":7670:7671   */\n      0x01\n        /* \"#utility.yul\":7663:7668   */\n      dup2\n        /* \"#utility.yul\":7659:7672   */\n      add\n        /* \"#utility.yul\":7650:7672   */\n      swap1\n      pop\n        /* \"#utility.yul\":7626:7746   */\n      jump(tag_163)\n    tag_165:\n        /* \"#utility.yul\":7566:7752   */\n      pop\n      pop\n      jump\t// out\n        /* \"#utility.yul\":7758:8301   */\n    tag_75:\n        /* \"#utility.yul\":7859:7861   */\n      0x1f\n        /* \"#utility.yul\":7854:7857   */\n      dup3\n        /* \"#utility.yul\":7851:7862   */\n      gt\n        /* \"#utility.yul\":7848:8294   */\n      iszero\n      tag_168\n      jumpi\n        /* \"#utility.yul\":7893:7931   */\n      tag_169\n        /* \"#utility.yul\":7925:7930   */\n      dup2\n        /* \"#utility.yul\":7893:7931   */\n      tag_64\n      jump\t// in\n    tag_169:\n        /* \"#utility.yul\":7977:8006   */\n      tag_170\n        /* \"#utility.yul\":7995:8005   */\n      dup5\n        /* \"#utility.yul\":7977:8006   */\n      tag_65\n      jump\t// in\n    tag_170:\n        /* \"#utility.yul\":7967:7975   */\n      dup2\n        /* \"#utility.yul\":7963:8007   */\n      add\n        /* \"#utility.yul\":8160:8162   */\n      0x20\n        /* \"#utility.yul\":8148:8158   */\n      dup6\n        /* \"#utility.yul\":8145:8163   */\n      lt\n        /* \"#utility.yul\":8142:8191   */\n      iszero\n      tag_171\n      jumpi\n        /* \"#utility.yul\":8181:8189   */\n      dup2\n        /* \"#utility.yul\":8166:8189   */\n      swap1\n      pop\n        /* \"#utility.yul\":8142:8191   */\n    tag_171:\n        /* \"#utility.yul\":8204:8284   */\n      tag_172\n        /* \"#utility.yul\":8260:8282   */\n      tag_173\n        /* \"#utility.yul\":8278:8281   */\n      dup6\n        /* \"#utility.yul\":8260:8282   */\n      tag_65\n      jump\t// in\n    tag_173:\n        /* \"#utility.yul\":8250:8258   */\n      dup4\n        /* \"#utility.yul\":8246:8283   */\n      add\n        /* \"#utility.yul\":8233:8244   */\n      dup3\n        /* \"#utility.yul\":8204:8284   */\n      tag_74\n      jump\t// in\n    tag_172:\n        /* \"#utility.yul\":7863:8294   */\n      pop\n      pop\n        /* \"#utility.yul\":7848:8294   */\n    tag_168:\n        /* \"#utility.yul\":7758:8301   */\n      pop\n      pop\n      pop\n      jump\t// out\n        /* \"#utility.yul\":8307:8424   */\n    tag_76:\n        /* \"#utility.yul\":8361:8369   */\n      0x00\n        /* \"#utility.yul\":8411:8416   */\n      dup3\n        /* \"#utility.yul\":8405:8409   */\n      dup3\n        /* \"#utility.yul\":8401:8417   */\n      shr\n        /* \"#utility.yul\":8380:8417   */\n      swap1\n      pop\n        /* \"#utility.yul\":8307:8424   */\n      swap3\n      swap2\n      pop\n      pop\n      jump\t// out\n        /* \"#utility.yul\":8430:8599   */\n    tag_77:\n        /* \"#utility.yul\":8474:8480   */\n      0x00\n        /* \"#utility.yul\":8507:8558   */\n      tag_176\n        /* \"#utility.yul\":8555:8556   */\n      0x00\n        /* \"#utility.yul\":8551:8557   */\n      not\n        /* \"#utility.yul\":8543:8548   */\n      dup5\n        /* \"#utility.yul\":8540:8541   */\n      0x08\n        /* \"#utility.yul\":8536:8549   */\n      mul\n        /* \"#utility.yul\":8507:8558   */\n      tag_76\n      jump\t// in\n    tag_176:\n        /* \"#utility.yul\":8503:8559   */\n      not\n        /* \"#utility.yul\":8588:8592   */\n      dup1\n        /* \"#utility.yul\":8582:8586   */\n      dup4\n        /* \"#utility.yul\":8578:8593   */\n      and\n        /* \"#utility.yul\":8568:8593   */\n      swap2\n      pop\n        /* \"#utility.yul\":8481:8599   */\n      pop\n        /* \"#utility.yul\":8430:8599   */\n      swap3\n      swap2\n      pop\n      pop\n      jump\t// out\n        /* \"#utility.yul\":8604:8899   */\n    tag_78:\n        /* \"#utility.yul\":8680:8684   */\n      0x00\n        /* \"#utility.yul\":8826:8855   */\n      tag_178\n        /* \"#utility.yul\":8851:8854   */\n      dup4\n        /* \"#utility.yul\":8845:8849   */\n      dup4\n        /* \"#utility.yul\":8826:8855   */\n      tag_77\n      jump\t// in\n    tag_178:\n        /* \"#utility.yul\":8818:8855   */\n      swap2\n      pop\n        /* \"#utility.yul\":8888:8891   */\n      dup3\n        /* \"#utility.yul\":8885:8886   */\n      0x02\n        /* \"#utility.yul\":8881:8892   */\n      mul\n        /* \"#utility.yul\":8875:8879   */\n      dup3\n        /* \"#utility.yul\":8872:8893   */\n      or\n        /* \"#utility.yul\":8864:8893   */\n      swap1\n      pop\n        /* \"#utility.yul\":8604:8899   */\n      swap3\n      swap2\n      pop\n      pop\n      jump\t// out\n        /* \"#utility.yul\":8904:10307   */\n    tag_38:\n        /* \"#utility.yul\":9028:9072   */\n      tag_180\n        /* \"#utility.yul\":9068:9071   */\n      dup4\n        /* \"#utility.yul\":9063:9066   */\n      dup4\n        /* \"#utility.yul\":9028:9072   */\n      tag_62\n      jump\t// in\n    tag_180:\n        /* \"#utility.yul\":9137:9155   */\n      0xffffffffffffffff\n        /* \"#utility.yul\":9129:9135   */\n      dup2\n        /* \"#utility.yul\":9126:9156   */\n      gt\n        /* \"#utility.yul\":9123:9179   */\n      iszero\n      tag_181\n      jumpi\n        /* \"#utility.yul\":9159:9177   */\n      tag_182\n      tag_63\n      jump\t// in\n    tag_182:\n        /* \"#utility.yul\":9123:9179   */\n    tag_181:\n        /* \"#utility.yul\":9203:9241   */\n      tag_183\n        /* \"#utility.yul\":9235:9239   */\n      dup3\n        /* \"#utility.yul\":9229:9240   */\n      sload\n        /* \"#utility.yul\":9203:9241   */\n      tag_30\n      jump\t// in\n    tag_183:\n        /* \"#utility.yul\":9288:9355   */\n      tag_184\n        /* \"#utility.yul\":9348:9354   */\n      dup3\n        /* \"#utility.yul\":9340:9346   */\n      dup3\n        /* \"#utility.yul\":9334:9338   */\n      dup6\n        /* \"#utility.yul\":9288:9355   */\n      tag_75\n      jump\t// in\n    tag_184:\n        /* \"#utility.yul\":9382:9383   */\n      0x00\n        /* \"#utility.yul\":9411:9413   */\n      0x1f\n        /* \"#utility.yul\":9403:9409   */\n      dup4\n        /* \"#utility.yul\":9400:9414   */\n      gt\n        /* \"#utility.yul\":9428:9429   */\n      0x01\n        /* \"#utility.yul\":9423:10055   */\n      dup2\n      eq\n      tag_186\n      jumpi\n        /* \"#utility.yul\":10099:10100   */\n      0x00\n        /* \"#utility.yul\":10116:10122   */\n      dup5\n        /* \"#utility.yul\":10113:10197   */\n      iszero\n      tag_187\n      jumpi\n        /* \"#utility.yul\":10172:10181   */\n      dup3\n        /* \"#utility.yul\":10167:10170   */\n      dup8\n        /* \"#utility.yul\":10163:10182   */\n      add\n        /* \"#utility.yul\":10150:10183   */\n      calldataload\n        /* \"#utility.yul\":10141:10183   */\n      swap1\n      pop\n        /* \"#utility.yul\":10113:10197   */\n    tag_187:\n        /* \"#utility.yul\":10223:10290   */\n      tag_188\n        /* \"#utility.yul\":10283:10289   */\n      dup6\n        /* \"#utility.yul\":10276:10281   */\n      dup3\n        /* \"#utility.yul\":10223:10290   */\n      tag_78\n      jump\t// in\n    tag_188:\n        /* \"#utility.yul\":10217:10221   */\n      dup7\n        /* \"#utility.yul\":10210:10291   */\n      sstore\n        /* \"#utility.yul\":10072:10301   */\n      pop\n        /* \"#utility.yul\":9393:10301   */\n      jump(tag_185)\n        /* \"#utility.yul\":9423:10055   */\n    tag_186:\n        /* \"#utility.yul\":9475:9479   */\n      0x1f\n        /* \"#utility.yul\":9471:9480   */\n      not\n        /* \"#utility.yul\":9463:9469   */\n      dup5\n        /* \"#utility.yul\":9459:9481   */\n      and\n        /* \"#utility.yul\":9509:9546   */\n      tag_189\n        /* \"#utility.yul\":9541:9545   */\n      dup7\n        /* \"#utility.yul\":9509:9546   */\n      tag_64\n      jump\t// in\n    tag_189:\n        /* \"#utility.yul\":9568:9569   */\n      0x00\n        /* \"#utility.yul\":9582:9797   */\n    tag_190:\n        /* \"#utility.yul\":9596:9603   */\n      dup3\n        /* \"#utility.yul\":9593:9594   */\n      dup2\n        /* \"#utility.yul\":9590:9604   */\n      lt\n        /* \"#utility.yul\":9582:9797   */\n      iszero\n      tag_192\n      jumpi\n        /* \"#utility.yul\":9682:9691   */\n      dup5\n        /* \"#utility.yul\":9677:9680   */\n      dup10\n        /* \"#utility.yul\":9673:9692   */\n      add\n        /* \"#utility.yul\":9660:9693   */\n      calldataload\n        /* \"#utility.yul\":9652:9658   */\n      dup3\n        /* \"#utility.yul\":9645:9694   */\n      sstore\n        /* \"#utility.yul\":9733:9734   */\n      0x01\n        /* \"#utility.yul\":9725:9731   */\n      dup3\n        /* \"#utility.yul\":9721:9735   */\n      add\n        /* \"#utility.yul\":9711:9735   */\n      swap2\n      pop\n        /* \"#utility.yul\":9780:9782   */\n      0x20\n        /* \"#utility.yul\":9769:9778   */\n      dup6\n        /* \"#utility.yul\":9765:9783   */\n      add\n        /* \"#utility.yul\":9752:9783   */\n      swap5\n      pop\n        /* \"#utility.yul\":9619:9623   */\n      0x20\n        /* \"#utility.yul\":9616:9617   */\n      dup2\n        /* \"#utility.yul\":9612:9624   */\n      add\n        /* \"#utility.yul\":9607:9624   */\n      swap1\n      pop\n        /* \"#utility.yul\":9582:9797   */\n      jump(tag_190)\n    tag_192:\n        /* \"#utility.yul\":9825:9831   */\n      dup7\n        /* \"#utility.yul\":9816:9823   */\n      dup4\n        /* \"#utility.yul\":9813:9832   */\n      lt\n        /* \"#utility.yul\":9810:9996   */\n      iszero\n      tag_193\n      jumpi\n        /* \"#utility.yul\":9890:9899   */\n      dup5\n        /* \"#utility.yul\":9885:9888   */\n      dup10\n        /* \"#utility.yul\":9881:9900   */\n      add\n        /* \"#utility.yul\":9868:9901   */\n      calldataload\n        /* \"#utility.yul\":9933:9981   */\n      tag_194\n        /* \"#utility.yul\":9975:9979   */\n      0x1f\n        /* \"#utility.yul\":9967:9973   */\n      dup10\n        /* \"#utility.yul\":9963:9980   */\n      and\n        /* \"#utility.yul\":9952:9961   */\n      dup3\n        /* \"#utility.yul\":9933:9981   */\n      tag_77\n      jump\t// in\n    tag_194:\n        /* \"#utility.yul\":9925:9931   */\n      dup4\n        /* \"#utility.yul\":9918:9982   */\n      sstore\n        /* \"#utility.yul\":9833:9996   */\n      pop\n        /* \"#utility.yul\":9810:9996   */\n    tag_193:\n        /* \"#utility.yul\":10042:10043   */\n      0x01\n        /* \"#utility.yul\":10038:10039   */\n      0x02\n        /* \"#utility.yul\":10030:10036   */\n      dup9\n        /* \"#utility.yul\":10026:10040   */\n      mul\n        /* \"#utility.yul\":10022:10044   */\n      add\n        /* \"#utility.yul\":10016:10020   */\n      dup9\n        /* \"#utility.yul\":10009:10045   */\n      sstore\n        /* \"#utility.yul\":9430:10055   */\n      pop\n      pop\n      pop\n        /* \"#utility.yul\":9393:10301   */\n    tag_185:\n      pop\n        /* \"#utility.yul\":9003:10307   */\n      pop\n      pop\n      pop\n        /* \"#utility.yul\":8904:10307   */\n      pop\n      pop\n      pop\n      jump\t// out\n        /* \"#utility.yul\":10313:10493   */\n    tag_79:\n        /* \"#utility.yul\":10361:10438   */\n      0x4e487b7100000000000000000000000000000000000000000000000000000000\n        /* \"#utility.yul\":10358:10359   */\n      0x00\n        /* \"#utility.yul\":10351:10439   */\n      mstore\n        /* \"#utility.yul\":10458:10462   */\n      0x11\n        /* \"#utility.yul\":10455:10456   */\n      0x04\n        /* \"#utility.yul\":10448:10463   */\n      mstore\n        /* \"#utility.yul\":10482:10486   */\n      0x24\n        /* \"#utility.yul\":10479:10480   */\n      0x00\n        /* \"#utility.yul\":10472:10487   */\n      revert\n        /* \"#utility.yul\":10499:10732   */\n    tag_41:\n        /* \"#utility.yul\":10538:10541   */\n      0x00\n        /* \"#utility.yul\":10561:10585   */\n      tag_197\n        /* \"#utility.yul\":10579:10584   */\n      dup3\n        /* \"#utility.yul\":10561:10585   */\n      tag_49\n      jump\t// in\n    tag_197:\n        /* \"#utility.yul\":10552:10585   */\n      swap2\n      pop\n        /* \"#utility.yul\":10607:10673   */\n      0xffffffffffffffffffffffffffffffffffffffffffffffffffffffffffffffff\n        /* \"#utility.yul\":10600:10605   */\n      dup3\n        /* \"#utility.yul\":10597:10674   */\n      sub\n        /* \"#utility.yul\":10594:10697   */\n      tag_198\n      jumpi\n        /* \"#utility.yul\":10677:10695   */\n      tag_199\n      tag_79\n      jump\t// in\n    tag_199:\n        /* \"#utility.yul\":10594:10697   */\n    tag_198:\n        /* \"#utility.yul\":10724:10725   */\n      0x01\n        /* \"#utility.yul\":10717:10722   */\n      dup3\n        /* \"#utility.yul\":10713:10726   */\n      add\n        /* \"#utility.yul\":10706:10726   */\n      swap1\n      pop\n        /* \"#utility.yul\":10499:10732   */\n      swap2\n      swap1\n      pop\n      jump\t// out\n\n    auxdata: 0xa264697066735822122013f1f1bb70ba83b84afa004b049995d22112efefd5253fecf5034c1134c182a864736f6c63430008130033\n}\n",
				"bytecode": {
					"linkReferences": {},
					"object": "608060405234801561001057600080fd5b506000808190555061083e806100276000396000f3fe608060405234801561001057600080fd5b506004361061004c5760003560e01c8063039764bb14610051578063602735b5146100815780637c28f21d146100b1578063c377db59146100cf575b600080fd5b61006b60048036038101906100669190610297565b6100eb565b60405161007891906102fd565b60405180910390f35b61009b60048036038101906100969190610344565b610116565b6040516100a89190610401565b60405180910390f35b6100b96101bb565b6040516100c691906102fd565b60405180910390f35b6100e960048036038101906100e49190610297565b6101c4565b005b6000600283836040516100ff929190610462565b908152602001604051809103902054905092915050565b6060600160008381526020019081526020016000208054610136906104aa565b80601f0160208091040260200160405190810160405280929190818152602001828054610162906104aa565b80156101af5780601f10610184576101008083540402835291602001916101af565b820191906000526020600020905b81548152906001019060200180831161019257829003601f168201915b50505050509050919050565b60008054905090565b8181600160008054815260200190815260200160002091826101e79291906106c1565b50600054600283836040516101fd929190610462565b908152602001604051809103902081905550600080815461021d906107c0565b919050819055505050565b600080fd5b600080fd5b600080fd5b600080fd5b600080fd5b60008083601f84011261025757610256610232565b5b8235905067ffffffffffffffff81111561027457610273610237565b5b6020830191508360018202830111156102905761028f61023c565b5b9250929050565b600080602083850312156102ae576102ad610228565b5b600083013567ffffffffffffffff8111156102cc576102cb61022d565b5b6102d885828601610241565b92509250509250929050565b6000819050919050565b6102f7816102e4565b82525050565b600060208201905061031260008301846102ee565b92915050565b610321816102e4565b811461032c57600080fd5b50565b60008135905061033e81610318565b92915050565b60006020828403121561035a57610359610228565b5b60006103688482850161032f565b91505092915050565b600081519050919050565b600082825260208201905092915050565b60005b838110156103ab578082015181840152602081019050610390565b60008484015250505050565b6000601f19601f8301169050919050565b60006103d382610371565b6103dd818561037c565b93506103ed81856020860161038d565b6103f6816103b7565b840191505092915050565b6000602082019050818103600083015261041b81846103c8565b905092915050565b600081905092915050565b82818337600083830152505050565b60006104498385610423565b935061045683858461042e565b82840190509392505050565b600061046f82848661043d565b91508190509392505050565b7f4e487b7100000000000000000000000000000000000000000000000000000000600052602260045260246000fd5b600060028204905060018216806104c257607f821691505b6020821081036104d5576104d461047b565b5b50919050565b600082905092915050565b7f4e487b7100000000000000000000000000000000000000000000000000000000600052604160045260246000fd5b60008190508160005260206000209050919050565b60006020601f8301049050919050565b600082821b905092915050565b6000600883026105777fffffffffffffffffffffffffffffffffffffffffffffffffffffffffffffffff8261053a565b610581868361053a565b95508019841693508086168417925050509392505050565b6000819050919050565b60006105be6105b96105b4846102e4565b610599565b6102e4565b9050919050565b6000819050919050565b6105d8836105a3565b6105ec6105e4826105c5565b848454610547565b825550505050565b600090565b6106016105f4565b61060c8184846105cf565b505050565b5b81811015610630576106256000826105f9565b600181019050610612565b5050565b601f8211156106755761064681610515565b61064f8461052a565b8101602085101561065e578190505b61067261066a8561052a565b830182610611565b50505b505050565b600082821c905092915050565b60006106986000198460080261067a565b1980831691505092915050565b60006106b18383610687565b9150826002028217905092915050565b6106cb83836104db565b67ffffffffffffffff8111156106e4576106e36104e6565b5b6106ee82546104aa565b6106f9828285610634565b6000601f8311600181146107285760008415610716578287013590505b61072085826106a5565b865550610788565b601f19841661073686610515565b60005b8281101561075e57848901358255600182019150602085019450602081019050610739565b8683101561077b5784890135610777601f891682610687565b8355505b6001600288020188555050505b50505050505050565b7f4e487b7100000000000000000000000000000000000000000000000000000000600052601160045260246000fd5b60006107cb826102e4565b91507fffffffffffffffffffffffffffffffffffffffffffffffffffffffffffffffff82036107fd576107fc610791565b5b60018201905091905056fea264697066735822122013f1f1bb70ba83b84afa004b049995d22112efefd5253fecf5034c1134c182a864736f6c63430008130033",
					"opcodes": "PUSH1 0x80 PUSH1 0x40 MSTORE CALLVALUE DUP1 ISZERO PUSH2 0x10 JUMPI PUSH1 0x0 DUP1 REVERT JUMPDEST POP PUSH1 0x0 DUP1 DUP2 SWAP1 SSTORE POP PUSH2 0x83E DUP1 PUSH2 0x27 PUSH1 0x0 CODECOPY PUSH1 0x0 RETURN INVALID PUSH1 0x80 PUSH1 0x40 MSTORE CALLVALUE DUP1 ISZERO PUSH2 0x10 JUMPI PUSH1 0x0 DUP1 REVERT JUMPDEST POP PUSH1 0x4 CALLDATASIZE LT PUSH2 0x4C JUMPI PUSH1 0x0 CALLDATALOAD PUSH1 0xE0 SHR DUP1 PUSH4 0x39764BB EQ PUSH2 0x51 JUMPI DUP1 PUSH4 0x602735B5 EQ PUSH2 0x81 JUMPI DUP1 PUSH4 0x7C28F21D EQ PUSH2 0xB1 JUMPI DUP1 PUSH4 0xC377DB59 EQ PUSH2 0xCF JUMPI JUMPDEST PUSH1 0x0 DUP1 REVERT JUMPDEST PUSH2 0x6B PUSH1 0x4 DUP1 CALLDATASIZE SUB DUP2 ADD SWAP1 PUSH2 0x66 SWAP2 SWAP1 PUSH2 0x297 JUMP JUMPDEST PUSH2 0xEB JUMP JUMPDEST PUSH1 0x40 MLOAD PUSH2 0x78 SWAP2 SWAP1 PUSH2 0x2FD JUMP JUMPDEST PUSH1 0x40 MLOAD DUP1 SWAP2 SUB SWAP1 RETURN JUMPDEST PUSH2 0x9B PUSH1 0x4 DUP1 CALLDATASIZE SUB DUP2 ADD SWAP1 PUSH2 0x96 SWAP2 SWAP1 PUSH2 0x344 JUMP JUMPDEST PUSH2 0x116 JUMP JUMPDEST PUSH1 0x40 MLOAD PUSH2 0xA8 SWAP2 SWAP1 PUSH2 0x401 JUMP JUMPDEST PUSH1 0x40 MLOAD DUP1 SWAP2 SUB SWAP1 RETURN JUMPDEST PUSH2 0xB9 PUSH2 0x1BB JUMP JUMPDEST PUSH1 0x40 MLOAD PUSH2 0xC6 SWAP2 SWAP1 PUSH2 0x2FD JUMP JUMPDEST PUSH1 0x40 MLOAD DUP1 SWAP2 SUB SWAP1 RETURN JUMPDEST PUSH2 0xE9 PUSH1 0x4 DUP1 CALLDATASIZE SUB DUP2 ADD SWAP1 PUSH2 0xE4 SWAP2 SWAP1 PUSH2 0x297 JUMP JUMPDEST PUSH2 0x1C4 JUMP JUMPDEST STOP JUMPDEST PUSH1 0x0 PUSH1 0x2 DUP4 DUP4 PUSH1 0x40 MLOAD PUSH2 0xFF SWAP3 SWAP2 SWAP1 PUSH2 0x462 JUMP JUMPDEST SWAP1 DUP2 MSTORE PUSH1 0x20 ADD PUSH1 0x40 MLOAD DUP1 SWAP2 SUB SWAP1 KECCAK256 SLOAD SWAP1 POP SWAP3 SWAP2 POP POP JUMP JUMPDEST PUSH1 0x60 PUSH1 0x1 PUSH1 0x0 DUP4 DUP2 MSTORE PUSH1 0x20 ADD SWAP1 DUP2 MSTORE PUSH1 0x20 ADD PUSH1 0x0 KECCAK256 DUP1 SLOAD PUSH2 0x136 SWAP1 PUSH2 0x4AA JUMP JUMPDEST DUP1 PUSH1 0x1F ADD PUSH1 0x20 DUP1 SWAP2 DIV MUL PUSH1 0x20 ADD PUSH1 0x40 MLOAD SWAP1 DUP2 ADD PUSH1 0x40 MSTORE DUP1 SWAP3 SWAP2 SWAP1 DUP2 DUP2 MSTORE PUSH1 0x20 ADD DUP3 DUP1 SLOAD PUSH2 0x162 SWAP1 PUSH2 0x4AA JUMP JUMPDEST DUP1 ISZERO PUSH2 0x1AF JUMPI DUP1 PUSH1 0x1F LT PUSH2 0x184 JUMPI PUSH2 0x100 DUP1 DUP4 SLOAD DIV MUL DUP4 MSTORE SWAP2 PUSH1 0x20 ADD SWAP2 PUSH2 0x1AF JUMP JUMPDEST DUP3 ADD SWAP2 SWAP1 PUSH1 0x0 MSTORE PUSH1 0x20 PUSH1 0x0 KECCAK256 SWAP1 JUMPDEST DUP2 SLOAD DUP2 MSTORE SWAP1 PUSH1 0x1 ADD SWAP1 PUSH1 0x20 ADD DUP1 DUP4 GT PUSH2 0x192 JUMPI DUP3 SWAP1 SUB PUSH1 0x1F AND DUP3 ADD SWAP2 JUMPDEST POP POP POP POP POP SWAP1 POP SWAP2 SWAP1 POP JUMP JUMPDEST PUSH1 0x0 DUP1 SLOAD SWAP1 POP SWAP1 JUMP JUMPDEST DUP2 DUP2 PUSH1 0x1 PUSH1 0x0 DUP1 SLOAD DUP2 MSTORE PUSH1 0x20 ADD SWAP1 DUP2 MSTORE PUSH1 0x20 ADD PUSH1 0x0 KECCAK256 SWAP2 DUP3 PUSH2 0x1E7 SWAP3 SWAP2 SWAP1 PUSH2 0x6C1 JUMP JUMPDEST POP PUSH1 0x0 SLOAD PUSH1 0x2 DUP4 DUP4 PUSH1 0x40 MLOAD PUSH2 0x1FD SWAP3 SWAP2 SWAP1 PUSH2 0x462 JUMP JUMPDEST SWAP1 DUP2 MSTORE PUSH1 0x20 ADD PUSH1 0x40 MLOAD DUP1 SWAP2 SUB SWAP1 KECCAK256 DUP2 SWAP1 SSTORE POP PUSH1 0x0 DUP1 DUP2 SLOAD PUSH2 0x21D SWAP1 PUSH2 0x7C0 JUMP JUMPDEST SWAP2 SWAP1 POP DUP2 SWAP1 SSTORE POP POP POP JUMP JUMPDEST PUSH1 0x0 DUP1 REVERT JUMPDEST PUSH1 0x0 DUP1 REVERT JUMPDEST PUSH1 0x0 DUP1 REVERT JUMPDEST PUSH1 0x0 DUP1 REVERT JUMPDEST PUSH1 0x0 DUP1 REVERT JUMPDEST PUSH1 0x0 DUP1 DUP4 PUSH1 0x1F DUP5 ADD SLT PUSH2 0x257 JUMPI PUSH2 0x256 PUSH2 0x232 JUMP JUMPDEST JUMPDEST DUP3 CALLDATALOAD SWAP1 POP PUSH8 0xFFFFFFFFFFFFFFFF DUP2 GT ISZERO PUSH2 0x274 JUMPI PUSH2 0x273 PUSH2 0x237 JUMP JUMPDEST JUMPDEST PUSH1 0x20 DUP4 ADD SWAP2 POP DUP4 PUSH1 0x1 DUP3 MUL DUP4 ADD GT ISZERO PUSH2 0x290 JUMPI PUSH2 0x28F PUSH2 0x23C JUMP JUMPDEST JUMPDEST SWAP3 POP SWAP3 SWAP1 POP JUMP JUMPDEST PUSH1 0x0 DUP1 PUSH1 0x20 DUP4 DUP6 SUB SLT ISZERO PUSH2 0x2AE JUMPI PUSH2 0x2AD PUSH2 0x228 JUMP JUMPDEST JUMPDEST PUSH1 0x0 DUP4 ADD CALLDATALOAD PUSH8 0xFFFFFFFFFFFFFFFF DUP2 GT ISZERO PUSH2 0x2CC JUMPI PUSH2 0x2CB PUSH2 0x22D JUMP JUMPDEST JUMPDEST PUSH2 0x2D8 DUP6 DUP3 DUP7 ADD PUSH2 0x241 JUMP JUMPDEST SWAP3 POP SWAP3 POP POP SWAP3 POP SWAP3 SWAP1 POP JUMP JUMPDEST PUSH1 0x0 DUP2 SWAP1 POP SWAP2 SWAP1 POP JUMP JUMPDEST PUSH2 0x2F7 DUP2 PUSH2 0x2E4 JUMP JUMPDEST DUP3 MSTORE POP POP JUMP JUMPDEST PUSH1 0x0 PUSH1 0x20 DUP3 ADD SWAP1 POP PUSH2 0x312 PUSH1 0x0 DUP4 ADD DUP5 PUSH2 0x2EE JUMP JUMPDEST SWAP3 SWAP2 POP POP JUMP JUMPDEST PUSH2 0x321 DUP2 PUSH2 0x2E4 JUMP JUMPDEST DUP2 EQ PUSH2 0x32C JUMPI PUSH1 0x0 DUP1 REVERT JUMPDEST POP JUMP JUMPDEST PUSH1 0x0 DUP2 CALLDATALOAD SWAP1 POP PUSH2 0x33E DUP2 PUSH2 0x318 JUMP JUMPDEST SWAP3 SWAP2 POP POP JUMP JUMPDEST PUSH1 0x0 PUSH1 0x20 DUP3 DUP5 SUB SLT ISZERO PUSH2 0x35A JUMPI PUSH2 0x359 PUSH2 0x228 JUMP JUMPDEST JUMPDEST PUSH1 0x0 PUSH2 0x368 DUP5 DUP3 DUP6 ADD PUSH2 0x32F JUMP JUMPDEST SWAP2 POP POP SWAP3 SWAP2 POP POP JUMP JUMPDEST PUSH1 0x0 DUP2 MLOAD SWAP1 POP SWAP2 SWAP1 POP JUMP JUMPDEST PUSH1 0x0 DUP3 DUP3 MSTORE PUSH1 0x20 DUP3 ADD SWAP1 POP SWAP3 SWAP2 POP POP JUMP JUMPDEST PUSH1 0x0 JUMPDEST DUP4 DUP2 LT ISZERO PUSH2 0x3AB JUMPI DUP1 DUP3 ADD MLOAD DUP2 DUP5 ADD MSTORE PUSH1 0x20 DUP2 ADD SWAP1 POP PUSH2 0x390 JUMP JUMPDEST PUSH1 0x0 DUP5 DUP5 ADD MSTORE POP POP POP POP JUMP JUMPDEST PUSH1 0x0 PUSH1 0x1F NOT PUSH1 0x1F DUP4 ADD AND SWAP1 POP SWAP2 SWAP1 POP JUMP JUMPDEST PUSH1 0x0 PUSH2 0x3D3 DUP3 PUSH2 0x371 JUMP JUMPDEST PUSH2 0x3DD DUP2 DUP6 PUSH2 0x37C JUMP JUMPDEST SWAP4 POP PUSH2 0x3ED DUP2 DUP6 PUSH1 0x20 DUP7 ADD PUSH2 0x38D JUMP JUMPDEST PUSH2 0x3F6 DUP2 PUSH2 0x3B7 JUMP JUMPDEST DUP5 ADD SWAP2 POP POP SWAP3 SWAP2 POP POP JUMP JUMPDEST PUSH1 0x0 PUSH1 0x20 DUP3 ADD SWAP1 POP DUP2 DUP2 SUB PUSH1 0x0 DUP4 ADD MSTORE PUSH2 0x41B DUP2 DUP5 PUSH2 0x3C8 JUMP JUMPDEST SWAP1 POP SWAP3 SWAP2 POP POP JUMP JUMPDEST PUSH1 0x0 DUP2 SWAP1 POP SWAP3 SWAP2 POP POP JUMP JUMPDEST DUP3 DUP2 DUP4 CALLDATACOPY PUSH1 0x0 DUP4 DUP4 ADD MSTORE POP POP POP JUMP JUMPDEST PUSH1 0x0 PUSH2 0x449 DUP4 DUP6 PUSH2 0x423 JUMP JUMPDEST SWAP4 POP PUSH2 0x456 DUP4 DUP6 DUP5 PUSH2 0x42E JUMP JUMPDEST DUP3 DUP5 ADD SWAP1 POP SWAP4 SWAP3 POP POP POP JUMP JUMPDEST PUSH1 0x0 PUSH2 0x46F DUP3 DUP5 DUP7 PUSH2 0x43D JUMP JUMPDEST SWAP2 POP DUP2 SWAP1 POP SWAP4 SWAP3 POP POP POP JUMP JUMPDEST PUSH32 0x4E487B7100000000000000000000000000000000000000000000000000000000 PUSH1 0x0 MSTORE PUSH1 0x22 PUSH1 0x4 MSTORE PUSH1 0x24 PUSH1 0x0 REVERT JUMPDEST PUSH1 0x0 PUSH1 0x2 DUP3 DIV SWAP1 POP PUSH1 0x1 DUP3 AND DUP1 PUSH2 0x4C2 JUMPI PUSH1 0x7F DUP3 AND SWAP2 POP JUMPDEST PUSH1 0x20 DUP3 LT DUP2 SUB PUSH2 0x4D5 JUMPI PUSH2 0x4D4 PUSH2 0x47B JUMP JUMPDEST JUMPDEST POP SWAP2 SWAP1 POP JUMP JUMPDEST PUSH1 0x0 DUP3 SWAP1 POP SWAP3 SWAP2 POP POP JUMP JUMPDEST PUSH32 0x4E487B7100000000000000000000000000000000000000000000000000000000 PUSH1 0x0 MSTORE PUSH1 0x41 PUSH1 0x4 MSTORE PUSH1 0x24 PUSH1 0x0 REVERT JUMPDEST PUSH1 0x0 DUP2 SWAP1 POP DUP2 PUSH1 0x0 MSTORE PUSH1 0x20 PUSH1 0x0 KECCAK256 SWAP1 POP SWAP2 SWAP1 POP JUMP JUMPDEST PUSH1 0x0 PUSH1 0x20 PUSH1 0x1F DUP4 ADD DIV SWAP1 POP SWAP2 SWAP1 POP JUMP JUMPDEST PUSH1 0x0 DUP3 DUP3 SHL SWAP1 POP SWAP3 SWAP2 POP POP JUMP JUMPDEST PUSH1 0x0 PUSH1 0x8 DUP4 MUL PUSH2 0x577 PUSH32 0xFFFFFFFFFFFFFFFFFFFFFFFFFFFFFFFFFFFFFFFFFFFFFFFFFFFFFFFFFFFFFFFF DUP3 PUSH2 0x53A JUMP JUMPDEST PUSH2 0x581 DUP7 DUP4 PUSH2 0x53A JUMP JUMPDEST SWAP6 POP DUP1 NOT DUP5 AND SWAP4 POP DUP1 DUP7 AND DUP5 OR SWAP3 POP POP POP SWAP4 SWAP3 POP POP POP JUMP JUMPDEST PUSH1 0x0 DUP2 SWAP1 POP SWAP2 SWAP1 POP JUMP JUMPDEST PUSH1 0x0 PUSH2 0x5BE PUSH2 0x5B9 PUSH2 0x5B4 DUP5 PUSH2 0x2E4 JUMP JUMPDEST PUSH2 0x599 JUMP JUMPDEST PUSH2 0x2E4 JUMP JUMPDEST SWAP1 POP SWAP2 SWAP1 POP JUMP JUMPDEST PUSH1 0x0 DUP2 SWAP1 POP SWAP2 SWAP1 POP JUMP JUMPDEST PUSH2 0x5D8 DUP4 PUSH2 0x5A3 JUMP JUMPDEST PUSH2 0x5EC PUSH2 0x5E4 DUP3 PUSH2 0x5C5 JUMP JUMPDEST DUP5 DUP5 SLOAD PUSH2 0x547 JUMP JUMPDEST DUP3 SSTORE POP POP POP POP JUMP JUMPDEST PUSH1 0x0 SWAP1 JUMP JUMPDEST PUSH2 0x601 PUSH2 0x5F4 JUMP JUMPDEST PUSH2 0x60C DUP2 DUP5 DUP5 PUSH2 0x5CF JUMP JUMPDEST POP POP POP JUMP JUMPDEST JUMPDEST DUP2 DUP2 LT ISZERO PUSH2 0x630 JUMPI PUSH2 0x625 PUSH1 0x0 DUP3 PUSH2 0x5F9 JUMP JUMPDEST PUSH1 0x1 DUP2 ADD SWAP1 POP PUSH2 0x612 JUMP JUMPDEST POP POP JUMP JUMPDEST PUSH1 0x1F DUP3 GT ISZERO PUSH2 0x675 JUMPI PUSH2 0x646 DUP2 PUSH2 0x515 JUMP JUMPDEST PUSH2 0x64F DUP5 PUSH2 0x52A JUMP JUMPDEST DUP2 ADD PUSH1 0x20 DUP6 LT ISZERO PUSH2 0x65E JUMPI DUP2 SWAP1 POP JUMPDEST PUSH2 0x672 PUSH2 0x66A DUP6 PUSH2 0x52A JUMP JUMPDEST DUP4 ADD DUP3 PUSH2 0x611 JUMP JUMPDEST POP POP JUMPDEST POP POP POP JUMP JUMPDEST PUSH1 0x0 DUP3 DUP3 SHR SWAP1 POP SWAP3 SWAP2 POP POP JUMP JUMPDEST PUSH1 0x0 PUSH2 0x698 PUSH1 0x0 NOT DUP5 PUSH1 0x8 MUL PUSH2 0x67A JUMP JUMPDEST NOT DUP1 DUP4 AND SWAP2 POP POP SWAP3 SWAP2 POP POP JUMP JUMPDEST PUSH1 0x0 PUSH2 0x6B1 DUP4 DUP4 PUSH2 0x687 JUMP JUMPDEST SWAP2 POP DUP3 PUSH1 0x2 MUL DUP3 OR SWAP1 POP SWAP3 SWAP2 POP POP JUMP JUMPDEST PUSH2 0x6CB DUP4 DUP4 PUSH2 0x4DB JUMP JUMPDEST PUSH8 0xFFFFFFFFFFFFFFFF DUP2 GT ISZERO PUSH2 0x6E4 JUMPI PUSH2 0x6E3 PUSH2 0x4E6 JUMP JUMPDEST JUMPDEST PUSH2 0x6EE DUP3 SLOAD PUSH2 0x4AA JUMP JUMPDEST PUSH2 0x6F9 DUP3 DUP3 DUP6 PUSH2 0x634 JUMP JUMPDEST PUSH1 0x0 PUSH1 0x1F DUP4 GT PUSH1 0x1 DUP2 EQ PUSH2 0x728 JUMPI PUSH1 0x0 DUP5 ISZERO PUSH2 0x716 JUMPI DUP3 DUP8 ADD CALLDATALOAD SWAP1 POP JUMPDEST PUSH2 0x720 DUP6 DUP3 PUSH2 0x6A5 JUMP JUMPDEST DUP7 SSTORE POP PUSH2 0x788 JUMP JUMPDEST PUSH1 0x1F NOT DUP5 AND PUSH2 0x736 DUP7 PUSH2 0x515 JUMP JUMPDEST PUSH1 0x0 JUMPDEST DUP3 DUP2 LT ISZERO PUSH2 0x75E JUMPI DUP5 DUP10 ADD CALLDATALOAD DUP3 SSTORE PUSH1 0x1 DUP3 ADD SWAP2 POP PUSH1 0x20 DUP6 ADD SWAP5 POP PUSH1 0x20 DUP2 ADD SWAP1 POP PUSH2 0x739 JUMP JUMPDEST DUP7 DUP4 LT ISZERO PUSH2 0x77B JUMPI DUP5 DUP10 ADD CALLDATALOAD PUSH2 0x777 PUSH1 0x1F DUP10 AND DUP3 PUSH2 0x687 JUMP JUMPDEST DUP4 SSTORE POP JUMPDEST PUSH1 0x1 PUSH1 0x2 DUP9 MUL ADD DUP9 SSTORE POP POP POP JUMPDEST POP POP POP POP POP POP POP JUMP JUMPDEST PUSH32 0x4E487B7100000000000000000000000000000000000000000000000000000000 PUSH1 0x0 MSTORE PUSH1 0x11 PUSH1 0x4 MSTORE PUSH1 0x24 PUSH1 0x0 REVERT JUMPDEST PUSH1 0x0 PUSH2 0x7CB DUP3 PUSH2 0x2E4 JUMP JUMPDEST SWAP2 POP PUSH32 0xFFFFFFFFFFFFFFFFFFFFFFFFFFFFFFFFFFFFFFFFFFFFFFFFFFFFFFFFFFFFFFFF DUP3 SUB PUSH2 0x7FD JUMPI PUSH2 0x7FC PUSH2 0x791 JUMP JUMPDEST JUMPDEST PUSH1 0x1 DUP3 ADD SWAP1 POP SWAP2 SWAP1 POP JUMP INVALID LOG2 PUSH5 0x6970667358 0x22 SLT KECCAK256 SGT CALL CALL 0xBB PUSH17 0xBA83B84AFA004B049995D22112EFEFD525 EXTCODEHASH 0xEC CREATE2 SUB 0x4C GT CALLVALUE 0xC1 DUP3 0xA8 PUSH5 0x736F6C6343 STOP ADDMOD SGT STOP CALLER "
				},
				"gasEstimates": {
					"creation": {
						"codeDepositCost": "422000",
						"executionCost": "5469",
						"totalCost": "427469"
					},
					"external": {
						"getMot(uint256)": "infinite",
						"getNb()": "2459",
						"getNb(string)": "infinite",
						"setMot(string)": "infinite"
					}
				},
				"methodIdentifiers": {
					"getMot(uint256)": "602735b5",
					"getNb()": "7c28f21d",
					"getNb(string)": "039764bb",
					"setMot(string)": "c377db59"
				}
			},
			"storageLayout": {
				"storage": [
					{
						"astId": 3,
						"contract": "test2.sol:test2",
						"label": "nbMots",
						"offset": 0,
						"slot": "0",
						"type": "t_uint256"
					},
					{
						"astId": 7,
						"contract": "test2.sol:test2",
						"label": "motByNb",
						"offset": 0,
						"slot": "1",
						"type": "t_mapping(t_uint256,t_string_storage)"
					},
					{
						"astId": 11,
						"contract": "test2.sol:test2",
						"label": "nbByMot",
						"offset": 0,
						"slot": "2",
						"type": "t_mapping(t_string_memory_ptr,t_uint256)"
					}
				],
				"types": {
					"t_mapping(t_string_memory_ptr,t_uint256)": {
						"encoding": "mapping",
						"key": "t_string_memory_ptr",
						"label": "mapping(string => uint256)",
						"numberOfBytes": "32",
						"value": "t_uint256"
					},
					"t_mapping(t_uint256,t_string_storage)": {
						"encoding": "mapping",
						"key": "t_uint256",
						"label": "mapping(uint256 => string)",
						"numberOfBytes": "32",
						"value": "t_string_storage"
					},
					"t_string_memory_ptr": {
						"encoding": "bytes",
						"label": "string",
						"numberOfBytes": "32"
					},
					"t_string_storage": {
						"encoding": "bytes",
						"label": "string",
						"numberOfBytes": "32"
					},
					"t_uint256": {
						"encoding": "inplace",
						"label": "uint256",
						"numberOfBytes": "32"
					}
				}
			},
			"userdoc": {
				"kind": "user",
				"methods": {},
				"version": 1
			}
		}
	}
}